{
    "context": {
        "difficulty": "0",
        "gasLimit": "8000000",
        "miner": "0x0000000000000000000000000000000000000000",
        "number": "1",
        "timestamp": "1000"
    },
    "genesis": {
        "baseFeePerGas": "7",
        "alloc": {
            "0xa94f5374fce5edbc8e2a8697c15331677e6ebf0b": {
                "balance": "0x10000000000000000",
                "nonce": "0",
                "code": "0x",
                "storage": {}
            },
            "0x1111111111111111111111111111111111111111": {
                "balance": "0x0",
                "nonce": "0",
                "code": "0x",
                "storage": {}
            }
        },
        "config": {
            "chainId": 1,
            "homesteadBlock": 0,
            "eip150Block": 0,
            "eip155Block": 0,
            "eip158Block": 0,
            "byzantiumBlock": 0,
            "constantinopleBlock": 0,
            "petersburgBlock": 0,
            "istanbulBlock": 0,
            "berlinBlock": 0,
            "londonBlock": 0,
            "terminalTotalDifficulty": 0,
            "anzeon": {
                "wbft": {
                    "requestTimeoutSeconds": 2,
                    "blockPeriodSeconds": 1,
                    "epochLength": 10,
                    "proposerPolicy": 0,
                    "maxRequestTimeoutSeconds": null
                },
                "init": {
                    "validators": [
                        "0x45dfd9f6da52abaee54ad49226c698e45b2f3777"
                    ],
                    "blsPublicKeys": [
                        "0x92272a6e9692aa2ffe724257fe911e17189c5081b73c55ba1aacbd81248b6261fbfc5578c46407b94ba8dcdf6f8c926b"
                    ]
                },
                "systemContracts": {
                    "govValidator": {
                        "address": "0x0000000000000000000000000000000000001001",
                        "version": "v1",
                        "params": {
                            "blsPublicKeys": "0x92272a6e9692aa2ffe724257fe911e17189c5081b73c55ba1aacbd81248b6261fbfc5578c46407b94ba8dcdf6f8c926b",
                            "expiry": "604800",
                            "maxProposals": "3",
                            "memberVersion": "1",
                            "members": "0x45dFD9F6dA52AbaeE54AD49226c698e45b2f3777",
                            "quorum": "1",
                            "validators": "0x45dFD9F6dA52AbaeE54AD49226c698e45b2f3777"
                        }
                    },
                    "nativeCoinAdapter": {
                        "address": "0x0000000000000000000000000000000000001000",
                        "version": "v1",
                        "params": {
                            "currency": "KRW",
                            "decimals": "18",
                            "masterMinter": "0xa94f5374fce5edbc8e2a8697c15331677e6ebf0b",
                            "minterAllowed": "10000000000000000000000000000",
                            "minters": "0xa94f5374fce5edbc8e2a8697c15331677e6ebf0b",
                            "name": "KRC1",
                            "symbol": "KRC1"
                        }
                    },
                    "govMinter": {
                        "address": "0x0000000000000000000000000000000000001003",
                        "version": "v1",
                        "params": {
                            "expiry": "604800",
                            "fiatToken": "0x0000000000000000000000000000000000001000",
                            "maxProposals": "3",
                            "memberVersion": "1",
                            "members": "0xa94f5374fce5edbc8e2a8697c15331677e6ebf0b",
                            "quorum": "1"
                        }
                    },
                    "govMasterMinter": {
                        "address": "0x0000000000000000000000000000000000001002",
                        "version": "v1",
                        "params": {
                            "expiry": "604800",
                            "fiatToken": "0x0000000000000000000000000000000000001000",
                            "maxMinterAllowance": "10000000000000000000000000000",
                            "maxProposals": "3",
                            "memberVersion": "1",
                            "members": "0xa94f5374fce5edbc8e2a8697c15331677e6ebf0b",
                            "minters": "0xa94f5374fce5edbc8e2a8697c15331677e6ebf0b",
                            "quorum": "1"
                        }
                    },
                    "govCouncil": {
                        "address": "0x0000000000000000000000000000000000001004",
                        "version": "v1",
                        "params": null
                    }
                }
            }
        },
        "difficulty": "0",
        "extraData": "0x",
        "gasLimit": "8000000",
        "hash": "0x0000000000000000000000000000000000000000000000000000000000000000",
        "miner": "0x0000000000000000000000000000000000000000",
        "mixHash": "0x0000000000000000000000000000000000000000000000000000000000000000",
        "nonce": "0x0000000000000000",
        "number": "0",
        "stateRoot": "0x0000000000000000000000000000000000000000000000000000000000000000",
        "timestamp": "0"
    },
    "input": "0xf8a5800a830186a094000000000000000000000000000000000000100080b844a9059cbb0000000000000000000000001111111111111111111111111111111111111111000000000000000000000000000000000000000000000000016345785d8a000025a0df223b31e6dee000a542b77e8f88f694aafe45b9be131f8fac663ac45131dd61a07b63c3f3c8c5875cc3c55dde9ca6c7c240284c9adcca08b6c6e13ca9a072ad3b",
    "tracerConfig": {},
    "result": {
        "from": "0xa94f5374fce5edbc8e2a8697c15331677e6ebf0b",
        "gas": "0x186a0",
        "gasUsed": "0x9644",
        "to": "0x0000000000000000000000000000000000001000",
        "input": "0xa9059cbb0000000000000000000000001111111111111111111111111111111111111111000000000000000000000000000000000000000000000000016345785d8a0000",
        "output": "0x0000000000000000000000000000000000000000000000000000000000000001",
        "calls": [
            {
                "from": "0x0000000000000000000000000000000000001000",
                "gas": "0x12139",
                "gasUsed": "0x0",
                "to": "0x0000000000000000000000000000000000b00003",
                "input": "0xfe575a87000000000000000000000000a94f5374fce5edbc8e2a8697c15331677e6ebf0b",
                "output": "0x0000000000000000000000000000000000000000000000000000000000000000",
                "calls": [
                    {
                        "from": "0x0000000000000000000000000000000000b00003",
                        "gas": "0x12139",
                        "gasUsed": "0x0",
                        "to": "0xa94f5374fce5edbc8e2a8697c15331677e6ebf0b",
                        "input": "0xfe575a87000000000000000000000000a94f5374fce5edbc8e2a8697c15331677e6ebf0b",
                        "output": "0x0000000000000000000000000000000000000000000000000000000000000000",
                        "type": "STATICCALL"
                    }
                ],
                "type": "STATICCALL"
            },
            {
                "from": "0x0000000000000000000000000000000000001000",
                "gas": "0x11d23",
                "gasUsed": "0x0",
                "to": "0x0000000000000000000000000000000000b00003",
                "input": "0xfe575a870000000000000000000000001111111111111111111111111111111111111111",
                "output": "0x0000000000000000000000000000000000000000000000000000000000000000",
                "calls": [
                    {
                        "from": "0x0000000000000000000000000000000000b00003",
                        "gas": "0x11d23",
                        "gasUsed": "0x0",
                        "to": "0x1111111111111111111111111111111111111111",
                        "input": "0xfe575a870000000000000000000000001111111111111111111111111111111111111111",
                        "output": "0x0000000000000000000000000000000000000000000000000000000000000000",
                        "type": "STATICCALL"
                    }
                ],
                "type": "STATICCALL"
            },
            {
                "from": "0x0000000000000000000000000000000000001000",
                "gas": "0x10fe0",
                "gasUsed": "0x2328",
                "to": "0x0000000000000000000000000000000000b00002",
                "input": "0xbeabacc8000000000000000000000000a94f5374fce5edbc8e2a8697c15331677e6ebf0b0000000000000000000000001111111111111111111111111111111111111111000000000000000000000000000000000000000000000000016345785d8a0000",
                "calls": [
                    {
                        "from": "0xa94f5374fce5edbc8e2a8697c15331677e6ebf0b",
                        "gas": "0x10fe0",
                        "gasUsed": "0x2328",
                        "to": "0x1111111111111111111111111111111111111111",
                        "input": "0xbeabacc8000000000000000000000000a94f5374fce5edbc8e2a8697c15331677e6ebf0b0000000000000000000000001111111111111111111111111111111111111111000000000000000000000000000000000000000000000000016345785d8a0000",
                        "value": "0x16345785d8a0000",
                        "type": "CALL"
                    }
                ],
                "value": "0x0",
                "type": "CALL"
            }
        ],
        "value": "0x0",
        "type": "CALL"
    }
}