{
  "baseFeePerGas": "0xfdc7303",
  "difficulty": "0x1",
  "extraData": "0xf9024ba00000000000000000000000000000000000000000000000000000000000000000b841a73f32d3e8fde699a60c5377b1f58be65efda9bbf127169f6e43928b85e5271e686932640d891f76a96ab8bdcf611e5663124614425c7c20cbeb6b5862b1b91f0080f86301b860af9c8dfd7dfcbf05e3b18be6b9d43e0e48bb6782a3ffbf10647ff00deaf4df087a8eb0a5dc05c375e44a38a9c767316316699c7d5f1f5ec22251cbe80c1bae7fbda7c06dcd98ef176f6a393e1d517a6ef224f4e9fff1404302ea5a56f5cd1447f86301b86099cf0fa9a48b83bd54a01ff8147834455ee2a5b445699bcc3c58715e6aaf281edd8c8e880379fb744dd3eb994cddde2b0b53e96fde2356bc9921ab30bc883e9ea0c55f2af6a926814b423c620719a815a67443ead126b9e34647e94944644ada80f86301b860ade6c22148df441a17b9a38c2b22d63d868786c421e861c05e3b36938c73d2b9e9511ab6340dfa930b322c06f31ad9b512743d6a34335e3562d49de874f3bfab4f16532d3c5a3f1fb64be87eb8f0d4b4d1e8a2b8cf819affa0bcb9ff56111de8f86301b860922d81dd5eef5954b820c2958f1e79315c3d20e6b8a560ccdf851ca5163d6977bc756cfc84df62a4a4900a9429fbba9115dcf9e466302dc2bc7734f21c21542b6c316617344aa0a907d04f5af164cb30b1a23acb7ccd446f30f5807e40591ae6f84fdad9947014f43c5bc7f7f3b4fbdf1599e5e1394548607a831d2108c180f1b0b1ae18fdcbcc6a80d7a0c4cfec1a04bc1bee78e519eaadd689108077d946e0849a2c30ac96462be32023f34ca67ebcf6",
  "gasLimit": "0x47e7c4",
  "gasUsed": "0x5208",
  "hash": "0xb504899d676b55d6946210e64131b5ba65a53dfb2a38384e6736aaf4b92f99f8",
  "logsBloom": "0x00000000000000000000000000000000000000000000000000000000000000000000000000000000000000000000000000000000000000000000000000000000000000000000000000000000000000000000000000000000000000000000000000000000000000000000000000000000000000000000000000000000000000000000000000000000000000000000000000000000000000000000000000000000000000000000000000000000000000000000000000000000000000000000000000000000000000000000000000000000000000000000000000000000000000000000000000000000000000000000000000000000000000000000000000000000",
  "miner": "0x7014f43c5bc7f7f3b4fbdf1599e5e1394548607a",
  "mixHash": "0x21709d6dceab3d23da916ddb6c4885c49cd1e83c4afdf5b394692b75bdb6d372",
  "nonce": "0x0000000000000000",
  "number": "0xa",
  "parentHash": "0x4f2461a3d32811ab6299ae20ba92a81e4011c82bbf785e5cfdee8f008e61da5a",
  "receiptsRoot": "0x056b23fbba480696b65fe5a59b8f2148a1299103c4f57df839233af2cf4ca2d2",
  "sha3Uncles": "0x1dcc4de8dec75d7aab85b567b6ccd41ad312451b948a7413f0a142fd40d49347",
  "stateRoot": "0x53bf299ba1f00cc8367a015c8d387db1a00604e3902631c257cbffc0fa692384",
  "timestamp": "0x64",
  "totalDifficulty": "0x1",
  "transactionsRoot": "0xb0893d21a4a44dc26a962a6e91abae66df87fb61ac9c60e936aee89c76331445"
}