{
  "baseFeePerGas": "0xfdc7303",
  "difficulty": "0x1",
  "extraData": "0xf87ea00000000000000000000000000000000000000000000000000000000000000000d5947014f43c5bc7f7f3b4fbdf1599e5e1394548607ac080f843b841a5718680ab11cada8da29bf3c971e641b3383a152ea44030486270880c5ed3ed7a55a4db0cce1b60f0a4f93b43a214afc2f164c153f9dd41c26f325cff722fc700",
  "gasLimit": "0x47e7c4",
  "gasUsed": "0x5208",
  "hash": "0x05739d8d3d2385d5b5c78442a2e84b32a2d525194d2a581599326ca59be5ddcd",
  "logsBloom": "0x00000000000000000000000000000000000000000000000000000000000000000000000000000000000000000000000000000000000000000000000000000000000000000000000000000000000000000000000000000000000000000000000000000000000000000000000000000000000000000000000000000000000000000000000000000000000000000000000000000000000000000000000000000000000000000000000000000000000000000000000000000000000000000000000000000000000000000000000000000000000000000000000000000000000000000000000000000000000000000000000000000000000000000000000000000000",
  "miner": "0x7014f43c5bc7f7f3b4fbdf1599e5e1394548607a",
  "mixHash": "0x0000000000000000000000000000000000000000000000000000000000000000",
  "nonce": "0x0000000000000000",
  "number": "0xa",
  "parentHash": "0xc3f979b3a5c0960858a1f506900e093575c97771dce92aae613cbb2bdbbe6748",
  "receiptsRoot": "0x056b23fbba480696b65fe5a59b8f2148a1299103c4f57df839233af2cf4ca2d2",
  "sha3Uncles": "0x1dcc4de8dec75d7aab85b567b6ccd41ad312451b948a7413f0a142fd40d49347",
  "stateRoot": "0xe3c8f2936536df95980bf5e44319aeb995f2c2f72db49c5f87b6a057835b90b0",
  "timestamp": "0x64",
  "totalDifficulty": "0x1",
  "transactionsRoot": "0xb0893d21a4a44dc26a962a6e91abae66df87fb61ac9c60e936aee89c76331445",
  "fees": null,
  "minerNodeId": "0x",
  "minerNodeSig": "0x",
  "rewards": "0x"
}