{
  "baseFeePerGas": "0xfdc7303",
  "difficulty": "0x1",
  "extraData": "0xf9024ba00000000000000000000000000000000000000000000000000000000000000000b841a73f32d3e8fde699a60c5377b1f58be65efda9bbf127169f6e43928b85e5271e686932640d891f76a96ab8bdcf611e5663124614425c7c20cbeb6b5862b1b91f0080f86301b86097a3ba37007ea11b434fd440adf999efdd93a81b1404fed78843c23d16b894291e4114288f739a92fc78dfbc043743ce03a924c109ce5f57b65553d21b97ef63a95899ff7067701a3cccbff37013c712c4f40c7f782e64e74d8a6ef5d2ad0b53f86301b8609466f82790454f653f6125f036537f5057281d135807a9c93457b88d5c35fa6c838eeb6b2b3b11f63133023eba6ac9d9131edf55d1b954a1f5057f744615a268c5a87bc0d162d039b547a40477d49b23bc3a93a0a46323a9317e8332ffb8483580f86301b860b99e80b4f67592f058fbd0f8fcb278871d534c8d783bd89a0274b8b8c6f8f94b9d8dd1426411ef67e3b9931fc19dbad914ba315e5eb1a838c062e57cfdfe4122ca4c36474785165d511da9aa5c25bde6d67b60a0b1d92e218f32c95e7fc9732af86301b860902f37e2a8e39347a059dd1c18e10679d309904fb9f91a6ee2342af04f28c9fda73d86f3959f7379161bb18f9034b2eb0f9448e8b1d040a5492da18401b59dbb7db552dbb8a69c5d3fb4f4cd55f82b03df154c7d47bcb8a8765f234e2293de91f84fdad9947014f43c5bc7f7f3b4fbdf1599e5e1394548607a831d2108c180f1b0b1ae18fdcbcc6a80d7a0c4cfec1a04bc1bee78e519eaadd689108077d946e0849a2c30ac96462be32023f34ca67ebcf6",
  "gasLimit": "0x47e7c4",
  "gasUsed": "0x5208",
  "hash": "0x7952a1f7cccc0e5eec50d7e8210088e8847e4adc3f7ef8d51066432c2be7f12c",
  "logsBloom": "0x00000000000000000000000000000000000000000000000000000000000000000000000000000000000000000000000000000000000000000000000000000000000000000000000000000000000000000000000000000000000000000000000000000000000000000000000000000000000000000000000000000000000000000000000000000000000000000000000000000000000000000000000000000000000000000000000000000000000000000000000000000000000000000000000000000000000000000000000000000000000000000000000000000000000000000000000000000000000000000000000000000000000000000000000000000000",
  "miner": "0x7014f43c5bc7f7f3b4fbdf1599e5e1394548607a",
  "mixHash": "0x21709d6dceab3d23da916ddb6c4885c49cd1e83c4afdf5b394692b75bdb6d372",
  "nonce": "0x0000000000000000",
  "number": "0xa",
  "parentHash": "0xb1a009ea3863570493eff2a2e9e96312e42a45fd84ff3bda8d6d893a4b04c90c",
  "receiptsRoot": "0x056b23fbba480696b65fe5a59b8f2148a1299103c4f57df839233af2cf4ca2d2",
  "sha3Uncles": "0x1dcc4de8dec75d7aab85b567b6ccd41ad312451b948a7413f0a142fd40d49347",
  "stateRoot": "0x4ca04ca94ed679ec972607de4990ad6401d659ba678e60b55163cba39183e827",
  "timestamp": "0x64",
  "totalDifficulty": "0x1",
  "transactionsRoot": "0xb0893d21a4a44dc26a962a6e91abae66df87fb61ac9c60e936aee89c76331445"
}