{
  "baseFeePerGas": "0xfdc7303",
  "difficulty": "0x1",
  "extraData": "0xf9014da00000000000000000000000000000000000000000000000000000000000000000d5947014f43c5bc7f7f3b4fbdf1599e5e1394548607a80f843b8412ce7edefe6354871f15aaef378c3f8eac0eea66ce6ec5055d1e4dcc4ec9c56285b14d8682f2ba40b2f69ac86fe39e6fa65d85bee875b7a135486fc923a44f3fb00f843b841d73e273240ce812bdf204d43926a4b52db55c62efe578e8f97e5abfb32cb8caa74f291d992c30f779ab908e96d636deedbadf2ab245f84677bb0d161d8a2fbc80180f843b841b83073ecfa39d5ea50c017f0a4243aec7de56bf2912a4e711cae9dec611bdbe970b70f56e3647f4a4da752039a8d24855a1ab1a8af65d0a8613f90e0a4dcaad601f843b841f6b89f3b4b24b6da23ddb541061bcb1024f07833e7c14996ba92daa589e8111d2e52449140a4e068e775a4ace52d5dd5ecfde5659a9db1616c97d2b150af19b400",
  "gasLimit": "0x47e7c4",
  "gasUsed": "0x5208",
  "hash": "0xb1638dae1511cee817ed974cf0141302519911d0635f23f3d281d7d73bbd1eb6",
  "logsBloom": "0x00000000000000000000000000000000000000000000000000000000000000000000000000000000000000000000000000000000000000000000000000000000000000000000000000000000000000000000000000000000000000000000000000000000000000000000000000000000000000000000000000000000000000000000000000000000000000000000000000000000000000000000000000000000000000000000000000000000000000000000000000000000000000000000000000000000000000000000000000000000000000000000000000000000000000000000000000000000000000000000000000000000000000000000000000000000",
  "miner": "0x7014f43c5bc7f7f3b4fbdf1599e5e1394548607a",
  "mixHash": "0x0000000000000000000000000000000000000000000000000000000000000000",
  "nonce": "0x0000000000000000",
  "number": "0xa",
  "parentHash": "0xe2bec1024916ccfcf70306f27f816b279811f4d1d0e58770fcbf86f0311050ce",
  "receiptsRoot": "0x056b23fbba480696b65fe5a59b8f2148a1299103c4f57df839233af2cf4ca2d2",
  "sha3Uncles": "0x1dcc4de8dec75d7aab85b567b6ccd41ad312451b948a7413f0a142fd40d49347",
  "stateRoot": "0x55557ef117539451fdc6f5f1d3b5feb624db644c2a535fff1af241a3c8766053",
  "timestamp": "0x64",
  "totalDifficulty": "0x1",
  "transactionsRoot": "0xb0893d21a4a44dc26a962a6e91abae66df87fb61ac9c60e936aee89c76331445",
  "fees": null,
  "minerNodeId": "0x",
  "minerNodeSig": "0x",
  "rewards": "0x"
}