{
  "baseFeePerGas": "0xfdc7303",
  "difficulty": "0x1",
  "extraData": "0xf9024ba00000000000000000000000000000000000000000000000000000000000000000b841a73f32d3e8fde699a60c5377b1f58be65efda9bbf127169f6e43928b85e5271e686932640d891f76a96ab8bdcf611e5663124614425c7c20cbeb6b5862b1b91f0080f86301b860a0066f827060bfc38222a24e75dd878e6f0a8695b48f92105f74199bf9c2407781781dd80068c768804b63c06c8b748509f730c76ca9c3215ef09c9f3f7d41a3553523cb826ba7fe212018710b44b4875f9c0ce9e4b1d89e8a85a93fce76726df86301b860a49b5d3809f4c59a0ac06075a18546af7b8f367d8d640c255f2d064245c324120fe2f83b1a8d0f8f9c058a79b051b30102c6214c43b52a847a0e6e6b0901ed307246362799d876bb4eb4e167806c908bb74d40553eabee73a4c0421fcf0c8f8b80f86301b860a9a4423e25d784915ac96ce03d267cec92d6dd2b9f89d82f50362c5c510c8c526b8ee5188f8de5d3e16d2814ec007a8f035455ea08157f3988ea80e6740c1771fc6731c9083260821903bc4698ec5f222920c062651ff79017b0e9ed60453c17f86301b860a5910b4f34ada490c42a3027881ab2959ad4ad42bf27b3ee19a19e2f1867e858e02dc93a61d7755cae5931063aa06dbb113beaabe90471f1eb2942a6d50e73769828ae751243c9954a4655cc28d96e245f050c3ae8e388e950b81ed9bbdf4470f84fdad9947014f43c5bc7f7f3b4fbdf1599e5e1394548607a831d2108c180f1b0b1ae18fdcbcc6a80d7a0c4cfec1a04bc1bee78e519eaadd689108077d946e0849a2c30ac96462be32023f34ca67ebcf6",
  "gasLimit": "0x47e7c4",
  "gasUsed": "0x5208",
  "hash": "0x8631e54f21434401591d328595deed721979a3d2b9db9737f3061e3f6bcb0fc6",
  "logsBloom": "0x00000000000000000000000000000000000000000000000000000000000080000000000000000000000000000000000000800000000000000000000000000000000000000000000001000008000000002000000000000000000080000020000000000020000000000000000000000802000000000000000000000010000000000000000000000000000000000000000000000400000000000000000000000000000000000000000000000000000000000000000000000000000000000000000000000002000000000000800000000000000000000000000000000000000000000000000000000000000000000000000000000020000000000000000000000000",
  "miner": "0x7014f43c5bc7f7f3b4fbdf1599e5e1394548607a",
  "mixHash": "0x21709d6dceab3d23da916ddb6c4885c49cd1e83c4afdf5b394692b75bdb6d372",
  "nonce": "0x0000000000000000",
  "number": "0xa",
  "parentHash": "0xf43768c8d991f74ce1719069c1bdfe76d9df877d836193135e902d3f04b89e0a",
  "receiptsRoot": "0xae00a0d2c8fc5d95d529a541cd9813e903808688534123c346256f50618c5347",
  "sha3Uncles": "0x1dcc4de8dec75d7aab85b567b6ccd41ad312451b948a7413f0a142fd40d49347",
  "size": "0x4b7",
  "stateRoot": "0x8a405f8f9e69db7df2babd35c56678f6b2ee38a42b14eb5e88e516cb8075addc",
  "timestamp": "0x64",
  "totalDifficulty": "0x1",
  "transactions": [
    "0x3ee4094ca1e0b07a66dd616a057e081e53144ca7e9685a126fd4dda9ca042644"
  ],
  "transactionsRoot": "0xb0893d21a4a44dc26a962a6e91abae66df87fb61ac9c60e936aee89c76331445",
  "uncles": []
}