{
  "baseFeePerGas": "0x48c27395000",
  "difficulty": "0x1",
  "extraData": "0xf90252a00000000000000000000000000000000000000000000000000000000000000000b841a73f32d3e8fde699a60c5377b1f58be65efda9bbf127169f6e43928b85e5271e686932640d891f76a96ab8bdcf611e5663124614425c7c20cbeb6b5862b1b91f0080f86301b8608a4a1b444e18c50f725520e6db010b6d0223baa9dcf5bde7a3f6f87affed1630db31b5cd275ae9589ecb63c5d41d41e00509d6f6d2bbe495e60992e639ad911b79729e07c668cd90e822191ff30d1d09e76f12c167c064f3a2244ed4b1ae1bd1f86301b8608bb349211d28c91b8c060b17397d788c010214a114dbf671ffd8bc3f5a8f39a08a2fe57c0b1991afd60ea47d5a30ed4705aa246b2ac751f160f1fa347e7e05077197e5824b0cc406f44b91419280af7004d62af6dace8dbd5ef6feb2ede3a93980f86301b860a3514f07670a97ff6f46ddad8b86c2c17161efc26001a31b6052868e909362ea695245ecbc3cb3bb2b21466999084fa40d2781c53b68449ed4b7c6cd75cc27744481147959b5232e9baae9f3e261493df4aa9738d4e98450cc7efea271260575f86301b86085adc1c475dd7bb81138cd4f576c3aa119b3263bb6ee516699b80a016da40cb67e149fa5be91d10c3368a4ee0d346c1e0161e143f43f089b01f3235547d1a7b51c4b83cd2ed022beca5308585de95bb31cb9fdba096995c16344eecc376f6cecf84fdad9947014f43c5bc7f7f3b4fbdf1599e5e1394548607a831d2108c180f1b0b1ae18fdcbcc6a80d7a0c4cfec1a04bc1bee78e519eaadd689108077d946e0849a2c30ac96462be32023f34ca67ebcf686048c27395000",
  "gasLimit": "0x47e7c4",
  "gasUsed": "0x5208",
  "hash": "0x65a6790165bb7280c2678eb708c38728dc0af5c313d46083ab76ea705ddb4e30",
  "logsBloom": "0x00000000000000000000000000000000000000000000000000000000000000000000000000000000000000000000000000000000000000000000000000000000000000000000000000000000000000000000000000000000000000000000000000000000000000000000000000000000000000000000000000000000000000000000000000000000000000000000000000000000000000000000000000000000000000000000000000000000000000000000000000000000000000000000000000000000000000000000000000000000000000000000000000000000000000000000000000000000000000000000000000000000000000000000000000000000",
  "miner": "0x7014f43c5bc7f7f3b4fbdf1599e5e1394548607a",
  "mixHash": "0x21709d6dceab3d23da916ddb6c4885c49cd1e83c4afdf5b394692b75bdb6d372",
  "nonce": "0x0000000000000000",
  "number": "0xa",
  "parentHash": "0x84b516201f50ac2d79b75e0868fdc2c968eae7f124919f2368e2dd7ad1f91f5c",
  "receiptsRoot": "0x056b23fbba480696b65fe5a59b8f2148a1299103c4f57df839233af2cf4ca2d2",
  "sha3Uncles": "0x1dcc4de8dec75d7aab85b567b6ccd41ad312451b948a7413f0a142fd40d49347",
  "stateRoot": "0x41f24b66a3c46880d1fe478baab2e186349434941f5a3cb07fcabb5a0aeb1e08",
  "timestamp": "0x64",
  "totalDifficulty": "0x1",
  "transactionsRoot": "0xbf876c5c5cee84899d9950903b7645ee5515b1698fc6ecc24472a5443c37a45d"
}