{
  "baseFeePerGas": "0x12309ce54000",
  "difficulty": "0x1",
  "extraData": "0xf90252a00000000000000000000000000000000000000000000000000000000000000000b841a73f32d3e8fde699a60c5377b1f58be65efda9bbf127169f6e43928b85e5271e686932640d891f76a96ab8bdcf611e5663124614425c7c20cbeb6b5862b1b91f0080f86301b860a58c30502e0acae66c2174bdbd481adf4719bab4c03998d2e8fe8952eae179b183e2cce685a24f39e730166e233d5749135e640735f8c99cf77e0e06cbd8d3ddc4b081770e69cd0a4bc4edb7e5e9bf75253cfbc945f12e51af41d27c28ffed25f86301b8608cedaf46687c60640f8b4c8a74c61b96db65d4744480cc4042e4f2f1f9351e36b454bba453f3a9b17546278b8404c7750e8d3749d5d717a38c9d955162646dc5f8cc20e6b88314f05b606765e8b2583a9691f0104ab54a3e9923609366943dcd80f86301b860a2cdf89ea90430742fea356c9ff2e8c50e2ccb07208bd70d6c3fb6b15b28be74436c2b3cb15d927f555c50cbfe1eba0f080fa667b4b7eca570c09a2479ee61b4cfb5fde13f7ea2706ee45dba89c8c39e2cafcbe2914abf9b2b18137a89cf4fd1f86301b860b120a25e36bb7a7a8ff34eb31868ce426587fefd41277df812760dc8db2e1ab3b50068c4d521bee1253a5207867bff3f1148871f6124ce5967be5031b4221efe898ac1e209a1652f03df4ccce9fc8395f7d01cd5de43723891c9098503e50d2186191a20322000f84fdad9947014f43c5bc7f7f3b4fbdf1599e5e1394548607a831d2108c180f1b0b1ae18fdcbcc6a80d7a0c4cfec1a04bc1bee78e519eaadd689108077d946e0849a2c30ac96462be32023f34ca67ebcf6",
  "gasLimit": "0x47e7c4",
  "gasUsed": "0x5208",
  "hash": "0x6179ed365c982a7e2553784b1dcc7e0deb113d5014697032307acfd71710c19d",
  "logsBloom": "0x00000000000000000000000000000000000000000000000000000000000000000000000000000000000000000000000000800000000000000000000000000000000000000000000000000008000000002000000000000000000000000020000000000020000000000000000000000802000000000000000000000010000000000000000000000000000000000000000000000400000000000000000000000000000000000000000000000000000000000000000000000000000000000000000000000002000000000000800000000000000000000000000000000000000000000000000000000000000000000000000000000020000000000000000000000000",
  "miner": "0x7014f43c5bc7f7f3b4fbdf1599e5e1394548607a",
  "mixHash": "0x21709d6dceab3d23da916ddb6c4885c49cd1e83c4afdf5b394692b75bdb6d372",
  "nonce": "0x0000000000000000",
  "number": "0xa",
  "parentHash": "0x857cc7a1aa739b67f7f8e4fcd495c2f07b293ed1661ba79bd708c3bc9e53f00f",
  "receiptsRoot": "0xf23af56aa3012397032c2baa9a402518a25b94ac64a95d5169d156d77bc2a5fe",
  "sha3Uncles": "0x1dcc4de8dec75d7aab85b567b6ccd41ad312451b948a7413f0a142fd40d49347",
  "size": "0x4c2",
  "stateRoot": "0x6c561626ea5bd97f04eec5ef2ee53405dc8da5c8730a21c8e29451d766164283",
  "timestamp": "0x64",
  "totalDifficulty": "0x1",
  "transactions": [
    "0xac6bbef26668cc3a32b0ff82fd2df122d655d61ad7191947b67e62605a886b65"
  ],
  "transactionsRoot": "0xa68214086266f95815dea889f89cea82e49b02e051981515934c586eeb179bd6",
  "uncles": []
}