{
  "baseFeePerGas": "0x48c27395000",
  "difficulty": "0x1",
  "extraData": "0xf90252a00000000000000000000000000000000000000000000000000000000000000000b841a73f32d3e8fde699a60c5377b1f58be65efda9bbf127169f6e43928b85e5271e686932640d891f76a96ab8bdcf611e5663124614425c7c20cbeb6b5862b1b91f0080f86301b8608e66240f56f48a4a7fc078f6823b2873330f71b4bfdabae6bc88637a4399a59368644f9f9b13b921a1700759c8cab4a20939d707f036cd0c4541c059e9738e2b2e1fb957dcb44c925c535ad28d8d67fdb1dc04fbd5e0b4288e5da688c0d96122f86301b860870b67c08724078054b305b87c23d6276b325f57fd02e8e4e27ab175f1ed55a4044c7f090c4990d57132aa1a35fb69bd17112bffeabd3a50dfc61a5820041606f7ae45c755929a33d05cb087f39e8660d0f3f5b0d22ee5111544fd53ba0513e680f86301b860840d3f91498c4f60c4f41e2cbf58346ecd85b54c79707b3b9443766d0dc36602e01e77a1502318284f63fc4179ea64ec0b756b8848427c1cfff27441b69f42c8a5063c05f11ca2fc13202b7d94cd9d74171a35889771cb3b319588393f4c3968f86301b860b84b45e9d14e34f261884e6cc4a2890466fcec5d4dbb97d352695f4ef60a2d913a96f867a188dd1f788fc47651ab28e0082c2f1c61189ff5a05c0c4457092549713c060a182a11e0908d77d4ee17d070dc7874c82cd35e1513b745ec787a8d6586048c27395000f84fdad9947014f43c5bc7f7f3b4fbdf1599e5e1394548607a831d2108c180f1b0b1ae18fdcbcc6a80d7a0c4cfec1a04bc1bee78e519eaadd689108077d946e0849a2c30ac96462be32023f34ca67ebcf6",
  "gasLimit": "0x47e7c4",
  "gasUsed": "0x5208",
  "hash": "0x56611b066c83acba151289dfd4152445e3963f86cdc08d7bf493712c87e23176",
  "logsBloom": "0x00000000000000000000000000000000000000000000000000000000000000000000000000000000000000000000000000800000000000000000000000000000000000000000000000000008000000002000000000000000000000000020000000000020000000000000000000000802000000000000000000000010000000000000000000000000000000000000000000000400000000000000000000000000000000000000000000000000000000000000000000000000000000000000000000000002000000000000800000000000000000000000000000000000000000000000000000000000000000000000000000000020000000000000000000000000",
  "miner": "0x7014f43c5bc7f7f3b4fbdf1599e5e1394548607a",
  "mixHash": "0x21709d6dceab3d23da916ddb6c4885c49cd1e83c4afdf5b394692b75bdb6d372",
  "nonce": "0x0000000000000000",
  "number": "0xa",
  "parentHash": "0x3321cf176b77a67efa7f04d54961e851e174ca4e398878a76f770970c8574f33",
  "receiptsRoot": "0xf23af56aa3012397032c2baa9a402518a25b94ac64a95d5169d156d77bc2a5fe",
  "sha3Uncles": "0x1dcc4de8dec75d7aab85b567b6ccd41ad312451b948a7413f0a142fd40d49347",
  "size": "0x4c2",
  "stateRoot": "0x727b59e68783fa64da864baf364040a6f97e5ef60c429bee0aab6fa399ac502a",
  "timestamp": "0x64",
  "totalDifficulty": "0x1",
  "transactions": [
    "0x26b6ce2ba8d28201d5816e5545ca6d37ca769ca98cd1b377c8c1c89a2e3712c8"
  ],
  "transactionsRoot": "0xbf876c5c5cee84899d9950903b7645ee5515b1698fc6ecc24472a5443c37a45d",
  "uncles": []
}