{
  "baseFeePerGas": "0x48c27395000",
  "difficulty": "0x1",
  "extraData": "0xf90252a00000000000000000000000000000000000000000000000000000000000000000b841a73f32d3e8fde699a60c5377b1f58be65efda9bbf127169f6e43928b85e5271e686932640d891f76a96ab8bdcf611e5663124614425c7c20cbeb6b5862b1b91f0080f86301b860815537d93e1b241944f9c2eb4f42fee5f9cc0ffa57188ce9866e74fa113f8e89c767d30ae59c02b6d517d249582770860bbafb5e22cf4ef2451973888378b75582722d6e16c27da848695b7e6244fd4e62652524bc97c25cbb4205d90b0073acf86301b860b4c2ce15256c433e6aaaf7351b0e2524ebde4a253db3fd51d6ae75194d7f9722c3c4429726a662b50cb0857b69f138d5144da67af3cb4131a5b126895b4f7ca9a0606f4013d67a26c5a21f1c0df42998f35dba7d6351e1f12d9e68a980d812fc80f86301b8608e5c7c9894e184f135074c52c838b37e9f930a245f80ca3feda71ef4a9692f27a7130aeba8a1006642386597ebdda82e1169a3d55dfae8867394dfb5863b8fceb86870f9b7772b46067ff1ca5f661256536971030e0d24c78d2ae5be19095b92f86301b8608e298d42433faaa3033ec35be018ad961d03fb83177a2bb94afe2691d345eae60a3c34951e56359170f9e27b527aaa0405f37702cbf84c787467d792367afdf6e552d89add6684b3952993f812a08c446f8763970421fd3ff1d4c6f11009c84086048c27395000f84fdad9947014f43c5bc7f7f3b4fbdf1599e5e1394548607a831d2108c180f1b0b1ae18fdcbcc6a80d7a0c4cfec1a04bc1bee78e519eaadd689108077d946e0849a2c30ac96462be32023f34ca67ebcf6",
  "gasLimit": "0x47e7c4",
  "gasUsed": "0x5208",
  "hash": "0xc2b2689f4241c057df9fc1114009d7b88f323bf13c9a4bfb9fd72bab99ed33db",
  "logsBloom": "0x00000000000000000000000000000000000000000000000000000000000080000000000000000000000000000000000000800000000000000000000000000000000000000000000001000008000000002000000000000000000080000020000000000020000000000000000000000802000000000000000000000010000000000000000000000000000000000000000000000400000000000000000000000000000000000000000000000000000000000000000000000000000000000000000000000002000000000000800000000000000000000000000000000000000000000000000000000000000000000000000000000020000000000000000000000000",
  "miner": "0x7014f43c5bc7f7f3b4fbdf1599e5e1394548607a",
  "mixHash": "0x21709d6dceab3d23da916ddb6c4885c49cd1e83c4afdf5b394692b75bdb6d372",
  "nonce": "0x0000000000000000",
  "number": "0xa",
  "parentHash": "0xb569686622363a17ccc6359fdf33fa9f2cda4fdf015f3f91c64b0442002e88c1",
  "receiptsRoot": "0x05e435ff13a02febe2b94d3d576aaee0cfbd49c38122a0895f59f5d102da6cbf",
  "sha3Uncles": "0x1dcc4de8dec75d7aab85b567b6ccd41ad312451b948a7413f0a142fd40d49347",
  "stateRoot": "0x727b59e68783fa64da864baf364040a6f97e5ef60c429bee0aab6fa399ac502a",
  "timestamp": "0x64",
  "totalDifficulty": "0x1",
  "transactionsRoot": "0xbf876c5c5cee84899d9950903b7645ee5515b1698fc6ecc24472a5443c37a45d"
}