{
  "baseFeePerGas": "0xfdc7303",
  "difficulty": "0x1",
  "extraData": "0xf9024ba00000000000000000000000000000000000000000000000000000000000000000b841a73f32d3e8fde699a60c5377b1f58be65efda9bbf127169f6e43928b85e5271e686932640d891f76a96ab8bdcf611e5663124614425c7c20cbeb6b5862b1b91f0080f86301b860847fd693fd92689967d3e1bd4bf1b710ab88c5af025c9e6b8675c6bf5bac7bcaab950fda41f0513b48c2f6e0f3b232a7078a80649f5a022abe1c30bbd3d739500dfdafe8f43c8e5b9616bd1f5680671b2a8be793e01f920118224f1d8b3c3407f86301b860acf004aecff728a35cda538d7539271b3cdf4e8a33c08bf0520d58a650878120244eb4ddc15afa097e5916a4c152702007a55db9fcd505ec06f76ae5f39a151d35bc3744b5ad0b4688c9706f62b3fbb4effc379b5477351eb63fa0101a088edc80f86301b8608f27d576c860ae086c02d7428ca437e1355ee2eb5d94caef1193f178e40f2c0195fb6a431bc799895434f33b682881b70ba0478b373894b7d4c5d19b7dcbad476108aee8888a38606fadbfe08f75053ce353deaeaa9b616d252589867e931ac4f86301b86093c6e31e8c6ca1d1b6579db6202c412e0751bb77935d9a83c2b26e7de984828658bcaf232b9dbe06eebf0b3105506cf60c1a1bf976e80bde418c0418ba5d20cf771d1cabc58f1b93e1ca6375fb6257999845f209c5b08debcd62dbbfc9417342f84fdad9947014f43c5bc7f7f3b4fbdf1599e5e1394548607a831d2108c180f1b0b1ae18fdcbcc6a80d7a0c4cfec1a04bc1bee78e519eaadd689108077d946e0849a2c30ac96462be32023f34ca67ebcf6",
  "gasLimit": "0x47e7c4",
  "gasUsed": "0x5208",
  "hash": "0x50355b94a0b04ad2e12fd42bd990ad2034217f67fbc9b1df6dda36f44af82c0c",
  "logsBloom": "0x00000000000000000000000000000000000000000000000000000000000080000000000000000000000000000000000000800000000000000000000000000000000000000000000001000008000000002000000000000000000080000020000000000020000000000000000000000802000000000000000000000010000000000000000000000000000000000000000000000400000000000000000000000000000000000000000000000000000000000000000000000000000000000000000000000002000000000000800000000000000000000000000000000000000000000000000000000000000000000000000000000020000000000000000000000000",
  "miner": "0x7014f43c5bc7f7f3b4fbdf1599e5e1394548607a",
  "mixHash": "0x21709d6dceab3d23da916ddb6c4885c49cd1e83c4afdf5b394692b75bdb6d372",
  "nonce": "0x0000000000000000",
  "number": "0xa",
  "parentHash": "0xd6ecea242c4ad2dcc20adc03f79a18448b66a4f8d51c8573d186a08cdad18a32",
  "receiptsRoot": "0xae00a0d2c8fc5d95d529a541cd9813e903808688534123c346256f50618c5347",
  "sha3Uncles": "0x1dcc4de8dec75d7aab85b567b6ccd41ad312451b948a7413f0a142fd40d49347",
  "size": "0x4b7",
  "stateRoot": "0x28cd5cbb867e701fbc1523d9d81de2cd059853ef97fafad7cfb20d596422704f",
  "timestamp": "0x64",
  "totalDifficulty": "0x1",
  "transactions": [
    "0x3ee4094ca1e0b07a66dd616a057e081e53144ca7e9685a126fd4dda9ca042644"
  ],
  "transactionsRoot": "0xb0893d21a4a44dc26a962a6e91abae66df87fb61ac9c60e936aee89c76331445",
  "uncles": []
}