{
  "baseFeePerGas": "0x48c27395000",
  "difficulty": "0x1",
  "extraData": "0xf90252a00000000000000000000000000000000000000000000000000000000000000000b841a73f32d3e8fde699a60c5377b1f58be65efda9bbf127169f6e43928b85e5271e686932640d891f76a96ab8bdcf611e5663124614425c7c20cbeb6b5862b1b91f0080f86301b860ac4fb87cb27bfcbe5331167694db277efc5f22a4ce98c4697ac7a4d902bd1632b6ca11fe8b5f317f594fd3f4b6b5aa25184dec18771138ce0c8292c2a7f18ca87779e5ddcd195712688be27fbf6f12a17b508745a139c47d5173799b18275932f86301b860a50614edacb8340cbdd7ee4298e5b219194a7fc97d8613001f8f32d8e73eecf9251c5d6a36feb8a32120464662ef7a5d164bde193a0a78c6f7d15b9043354320c34c544378648f4501ea8e64371281f09d11683324051664228c739779077c4b80f86301b8609837031d795278aeb0c3e9911c3629c3b5b5ddba76b419413d87eb43bb6829e1bcdd3721a1bef00cfc66878976ea950608a675def160bcad63be6a5fb400aab136755811dceb3ff0f5775cd7a67a7915b16c882854a78d593db5a296982becc0f86301b860b6b4d10cd82acab463b06d0e152c1afababb5f9e1abbeb5ab32cc9a26344639d0e1df4acda4f031a826ca784d68b73fc021a0d4321acab892d55bfaab19e907d0f9aa4a8baadb0d4c8a98029168ab0be768ebd12d67c763ba5590f058fa8f3cb86048c27395000f84fdad9947014f43c5bc7f7f3b4fbdf1599e5e1394548607a831d2108c180f1b0b1ae18fdcbcc6a80d7a0c4cfec1a04bc1bee78e519eaadd689108077d946e0849a2c30ac96462be32023f34ca67ebcf6",
  "gasLimit": "0x47e7c4",
  "gasUsed": "0x5208",
  "hash": "0xff5a54f58759416327950c5d2ba8ce7e66acad518356b3c479e1f7aea23f1abc",
  "logsBloom": "0x00000000000000000000000000000000000000000000000000000000000080000000000000000000000000000000000000800000000000000000000000000000000000000000000001000008000000002000000000000000000080000020000000000020000000000000000000000802000000000000000000000010000000000000000000000000000000000000000000000400000000000000000000000000000000000000000000000000000000000000000000000000000000000000000000000002000000000000800000000000000000000000000000000000000000000000000000000000000000000000000000000020000000000000000000000000",
  "miner": "0x7014f43c5bc7f7f3b4fbdf1599e5e1394548607a",
  "mixHash": "0x21709d6dceab3d23da916ddb6c4885c49cd1e83c4afdf5b394692b75bdb6d372",
  "nonce": "0x0000000000000000",
  "number": "0xa",
  "parentHash": "0xdc505b20768f33df7456e31e7ed63e08ee77fe389e152efd1a9cd55b7888311f",
  "receiptsRoot": "0x05e435ff13a02febe2b94d3d576aaee0cfbd49c38122a0895f59f5d102da6cbf",
  "sha3Uncles": "0x1dcc4de8dec75d7aab85b567b6ccd41ad312451b948a7413f0a142fd40d49347",
  "size": "0x4c2",
  "stateRoot": "0xb867db7bb2730b24cfa445e737f52fbad9a61a34ae5f9500b09e2ab19c042a8a",
  "timestamp": "0x64",
  "totalDifficulty": "0x1",
  "transactions": [
    "0x26b6ce2ba8d28201d5816e5545ca6d37ca769ca98cd1b377c8c1c89a2e3712c8"
  ],
  "transactionsRoot": "0xbf876c5c5cee84899d9950903b7645ee5515b1698fc6ecc24472a5443c37a45d",
  "uncles": []
}