{
  "baseFeePerGas": "0xfdc7303",
  "difficulty": "0x1",
  "extraData": "0xf9024ba00000000000000000000000000000000000000000000000000000000000000000b841a73f32d3e8fde699a60c5377b1f58be65efda9bbf127169f6e43928b85e5271e686932640d891f76a96ab8bdcf611e5663124614425c7c20cbeb6b5862b1b91f0080f86301b860b4867f43644767c514d24d5c273742097b5280f4b2950f58b7bc7337a65f19652181255863369e147f48926834305033032ce03d853e0305f1050020364b44cfc330639d08dc9b0301b53161ecccd834c5615c9419da0ea30c85bfd0c4b10ebff86301b860814c1d84b1b2a5060eccc4888f18a35e5cf43544ea0a6daef22bd29f70864e1b5b454632c0e0345efb3b7bb5691b50e8085fab0ec20945f8a76c6a680f8f39de028816fe37a7df1b7c3a7eeb5497b518f8628039ba3f723c469ec9d837aad58c80f86301b860976d56ab12ac296043c9b8b16c999f7717640f372b4d11473ce68679e1390d013fc5355d64da6b499cf36e2e47f3ee320efca7f39947ad5ed09fe4047c89834736772263c4638edf460242431497fd573f189567decfa8d1754920d65d31d48af86301b860aa2d4def8e6748841f54f13488ae804f37459b4b091ad648efc44702778fd9d1106fbb8a277091beccd2075a01557bea02877d1635bf625dd8f5adf97041b43ccbccf445178231dbd3ccbbffe536e60bfe4f8536412dd897624b9d5b2bd9f9f8f84fdad9947014f43c5bc7f7f3b4fbdf1599e5e1394548607a831d2108c180f1b0b1ae18fdcbcc6a80d7a0c4cfec1a04bc1bee78e519eaadd689108077d946e0849a2c30ac96462be32023f34ca67ebcf6",
  "gasLimit": "0x47e7c4",
  "gasUsed": "0x5208",
  "hash": "0x2a2336c94db6d5af1ac788bcdec5a339280405f0e944bb22d16b826e2dbd8fb0",
  "logsBloom": "0x00000000000000000000000000000000000000000000000000000000000080000000000000000000000000000000000000800000000000000000000000000000000000000000000001000008000000002000000000000000000080000020000000000020000000000000000000000802000000000000000000000010000000000000000000000000000000000000000000000400000000000000000000000000000000000000000000000000000000000000000000000000000000000000000000000002000000000000800000000000000000000000000000000000000000000000000000000000000000000000000000000020000000000000000000000000",
  "miner": "0x7014f43c5bc7f7f3b4fbdf1599e5e1394548607a",
  "mixHash": "0x21709d6dceab3d23da916ddb6c4885c49cd1e83c4afdf5b394692b75bdb6d372",
  "nonce": "0x0000000000000000",
  "number": "0xa",
  "parentHash": "0x67d98562fa8acd8e48538284b3cac024c78ab4e8923178cb6881937c20d561f3",
  "receiptsRoot": "0xae00a0d2c8fc5d95d529a541cd9813e903808688534123c346256f50618c5347",
  "sha3Uncles": "0x1dcc4de8dec75d7aab85b567b6ccd41ad312451b948a7413f0a142fd40d49347",
  "size": "0x4b7",
  "stateRoot": "0x14b683201e0b72131b07f47e5918a3ccde78cf40299ff9f662c1c95cb4c04a9b",
  "timestamp": "0x64",
  "totalDifficulty": "0x1",
  "transactions": [
    "0x3ee4094ca1e0b07a66dd616a057e081e53144ca7e9685a126fd4dda9ca042644"
  ],
  "transactionsRoot": "0xb0893d21a4a44dc26a962a6e91abae66df87fb61ac9c60e936aee89c76331445",
  "uncles": []
}