{
  "baseFeePerGas": "0x48c27395000",
  "difficulty": "0x1",
  "extraData": "0xf90252a00000000000000000000000000000000000000000000000000000000000000000b841a73f32d3e8fde699a60c5377b1f58be65efda9bbf127169f6e43928b85e5271e686932640d891f76a96ab8bdcf611e5663124614425c7c20cbeb6b5862b1b91f0080f86301b860998e3d802733e1f38091bd13207cdfb2eb69b1ad7e236cb6c101caabe5b98347a110a4e2ca411a26b7acbf2fffa5a47c06ef6e8ccf9922721a3ed1e8c342b8a94ec3aec8abce68d0e82c6c6e45c4c6421deb6354ba38d3673d05c1821df9ee4ff86301b860970518321ceca36a1e650728544c3afaa091629c3fa69cb6436012538dfaa22da49d18961a3874b2c0c8d5a15440f4910473f74d4a49ead0a92c20858bdd5e378bd001eeb9287413d34f535874c9e64ca72b23af881635eba73742e76a1a510180f86301b860b97dd542d571b0f107b5597de02fa609a4554ac1acde1bd008a0d8543cf415862a00ac7bf76ad9d8d28fa2179ebd4dd303369adf8d5c7e8dc05167f21c280dd5a80570242919c4ae03a7ef7614852a81c4298fc8f5851a3d59f55a76323d9b71f86301b860ab7e7dd025309df9f5276cfadca5d86f26668488307906d20801a539d849e634153c819ca8e90316404fc7748699709d06f073802c273d5fb472b4fdd9aecb5866ddecafefdb57b1ced3f142531b630e75f2302d3fdfa444006e2928c424734786048c27395000f84fdad9947014f43c5bc7f7f3b4fbdf1599e5e1394548607a831d2108c180f1b0b1ae18fdcbcc6a80d7a0c4cfec1a04bc1bee78e519eaadd689108077d946e0849a2c30ac96462be32023f34ca67ebcf6",
  "gasLimit": "0x47e7c4",
  "gasUsed": "0x5208",
  "hash": "0x57d4f4e6c1377e7a15e9fca7557a5cf908c36e0376b6fc929f2f28888bfc11ac",
  "logsBloom": "0x00000000000000000000000000000000000000000000000000000000000080000000000000000000000000000000000000800000000000000000000000000000000000000000000001000008000000002000000000000000000080000020000000000020000000000000000000000802000000000000000000000010000000000000000000000000000000000000000000000400000000000000000000000000000000000000000000000000000000000000000000000000000000000000000000000002000000000000800000000000000000000000000000000000000000000000000000000000000000000000000000000020000000000000000000000000",
  "miner": "0x7014f43c5bc7f7f3b4fbdf1599e5e1394548607a",
  "mixHash": "0x21709d6dceab3d23da916ddb6c4885c49cd1e83c4afdf5b394692b75bdb6d372",
  "nonce": "0x0000000000000000",
  "number": "0xa",
  "parentHash": "0x5e7b03a42c436ea3eed5be55c6e13a96e21f98ecf6e7f0214f0c22c3de8b2d3f",
  "receiptsRoot": "0x05e435ff13a02febe2b94d3d576aaee0cfbd49c38122a0895f59f5d102da6cbf",
  "sha3Uncles": "0x1dcc4de8dec75d7aab85b567b6ccd41ad312451b948a7413f0a142fd40d49347",
  "stateRoot": "0x4d6b85e895de5f68bf45bf3bba0c7f76bb8676f61a82ac3fe3a8ee1541b22fd2",
  "timestamp": "0x64",
  "totalDifficulty": "0x1",
  "transactionsRoot": "0xbf876c5c5cee84899d9950903b7645ee5515b1698fc6ecc24472a5443c37a45d"
}