{
  "baseFeePerGas": "0xfdc7303",
  "difficulty": "0x1",
  "extraData": "0xf9024ca00000000000000000000000000000000000000000000000000000000000000000b841a73f32d3e8fde699a60c5377b1f58be65efda9bbf127169f6e43928b85e5271e686932640d891f76a96ab8bdcf611e5663124614425c7c20cbeb6b5862b1b91f0080f86301b86092725ebc0a5cd597063e59466d9fa151c624fae55fcab2820eed47f5c32a920ca7ccb8f9897449b945a62695e4257cdc0b3cb70a5171fa5b36686fc07a35536d0cd4d65312c9bb67121b154c801a8645a0aa0826953b618f31badde49e8a556bf86301b860b586b592d8fbffc89f5675b07a7cf4dc7192189550dbcd9fbca0b4453839bb0c301418b7554b88e3048291061deb168517aba5b7ac28760d773e078b0f88aed283e32e455eea4848df9e41eed18961e2f03ce0e0088ed03ac86f5a5733dbe05a80f86301b860a2155780716689f830027acab15595076f6d3715c558edf80fd0cef598b142ecd6d822b2dcfe0e9cd71a88c5e4df5b5c14b78b6e770f294602af0093caf098c64b4e54eeaf8b8f859764865369af809869773912017c043a4a0b6aa9d1d9fcc9f86301b860b66d4c62341cdb4fd395e50d6d7ed676c16961d8d807abe0133d5cd6ca74e28e925c82e1621ba55aea7dd5a369c1427b03f83cafb1689d075d4871fad5fd8665c8b8c96ca7bc77054fe4fc031291212e22acca5b48dee9ecd9c74309c88908a7f850dad9947014f43c5bc7f7f3b4fbdf1599e5e1394548607a831d2108c180f1b0b1ae18fdcbcc6a80d7a0c4cfec1a04bc1bee78e519eaadd689108077d946e0849a2c30ac96462be32023f34ca67ebcf601",
  "fees": null,
  "gasLimit": "0x47e7c4",
  "gasUsed": "0x5208",
  "hash": "0x9fde54d6f60c7a3feb62ce8bb63c7d30d9d8e67347692d081d99eb2f00b0f10c",
  "logsBloom": "0x00000000000000000000000000000000000000000000000000000000000000000000000000000000000000000000000000000000000000000000000000000000000000000000000000000000000000000000000000000000000000000000000000000000000000000000000000000000000000000000000000000000000000000000000000000000000000000000000000000000000000000000000000000000000000000000000000000000000000000000000000000000000000000000000000000000000000000000000000000000000000000000000000000000000000000000000000000000000000000000000000000000000000000000000000000000",
  "miner": "0x7014f43c5bc7f7f3b4fbdf1599e5e1394548607a",
  "minerNodeId": "0x",
  "minerNodeSig": "0x",
  "mixHash": "0x21709d6dceab3d23da916ddb6c4885c49cd1e83c4afdf5b394692b75bdb6d372",
  "nonce": "0x0000000000000000",
  "number": "0xa",
  "parentHash": "0xfaa50bbc2c381d53abc0ce6b030f3e2a36f757a4c26226f23558a834bbf78f85",
  "receiptsRoot": "0x056b23fbba480696b65fe5a59b8f2148a1299103c4f57df839233af2cf4ca2d2",
  "rewards": "0x",
  "sha3Uncles": "0x1dcc4de8dec75d7aab85b567b6ccd41ad312451b948a7413f0a142fd40d49347",
  "stateRoot": "0x03b60c2ea506e55a548f45ec1eedc8c5808ff4e1c0a094a09c9d3271bf3fd9a8",
  "timestamp": "0x64",
  "totalDifficulty": "0x1",
  "transactionsRoot": "0xb0893d21a4a44dc26a962a6e91abae66df87fb61ac9c60e936aee89c76331445"
}