{
  "baseFeePerGas": "0x342770c0",
  "difficulty": "0x1",
  "extraData": "0xf8c5a00000000000000000000000000000000000000000000000000000000000000000d5947014f43c5bc7f7f3b4fbdf1599e5e1394548607a80c0c080f843b84126b0f3d5821f94e719c7a73b057508511309852aa013a7098865d71fa6fe542434c21518e7c7c3554377a699aae6f1b8ca51e7c681e85efd4bcbc3e11d1c145f00f843b841f1f29299db7bc36e426a78dc34c21d132673551aa53a190174212a3b38e9008a1e77638a7ab9cf23aec53715093a349e6b1e48ba1212f9c0519bf51403fec34001",
  "gasLimit": "0x47e7c4",
  "gasUsed": "0x5208",
  "hash": "0x8608b362c0f15b5cea026bc371594ea9c1413f0b363e1ee770385fa141d31543",
  "logsBloom": "0x00000000000000000000000000000000000000000000000000000000000000000000000000000000000000000000000000000000000000000000000000000000000000000000000000000000000000000000000000000000000000000000000000000000000000000000000000000000000000000000000000000000000000000000000000000000000000000000000000000000000000000000000000000000000000000000000000000000000000000000000000000000000000000000000000000000000000000000000000000000000000000000000000000000000000000000000000000000000000000000000000000000000000000000000000000000",
  "miner": "0x7014f43c5bc7f7f3b4fbdf1599e5e1394548607a",
  "mixHash": "0x0000000000000000000000000000000000000000000000000000000000000000",
  "nonce": "0x0000000000000000",
  "number": "0x1",
  "parentHash": "0x702f4ffb9f81730d98f2e89924d2820f69dfc5ce938cf7ea1f244b0fd8c47a98",
  "receiptsRoot": "0x056b23fbba480696b65fe5a59b8f2148a1299103c4f57df839233af2cf4ca2d2",
  "sha3Uncles": "0x1dcc4de8dec75d7aab85b567b6ccd41ad312451b948a7413f0a142fd40d49347",
  "size": "0x32f",
  "stateRoot": "0xfac78788b1d16b484a9f661902c4fbee97016e33b9ee12b496ae315501cdbe44",
  "timestamp": "0xa",
  "totalDifficulty": "0x1",
  "transactions": [
    "0x644a31c354391520d00e95b9affbbb010fc79ac268144ab8e28207f4cf51097e"
  ],
  "transactionsRoot": "0xca0ebcce920d2cdfbf9e1dbe90ed3441a1a576f344bd80e60508da814916f4e7",
  "uncles": [],
  "fees": null,
  "minerNodeId": "0x",
  "minerNodeSig": "0x",
  "rewards": "0x"
}