{
  "baseFeePerGas": "0x342770c0",
  "difficulty": "0x1",
  "extraData": "0xf8c5a00000000000000000000000000000000000000000000000000000000000000000d5947014f43c5bc7f7f3b4fbdf1599e5e1394548607ac080f843b84106990c60c928661d3ef87edb4c5b2e3ab90e9cbbc95934b7296a5d98019a312f061a8b51cbd915d9b2ea6931fd37e0ad9796fa6e0d5ef5f271db53b7a3189e5101f843b8415be3f49f64fe89b61c0c40b2b58ed075fab96db27556dd99066b1211f97de280182a4aac9e781ef5d325bb7d53948ea25e95c4be23086b9e2fe84f8e40de37d101c0c0",
  "gasLimit": "0x47e7c4",
  "gasUsed": "0x5208",
  "hash": "0x3cde1fcadb5f8e30c89225e180d13677d6fc2bbd2466137966702ddbc0fb9846",
  "logsBloom": "0x00000000000000000000000000000000000000000000000000000000000000000000000000000000000000000000000000000000000000000000000000000000000000000000000000000000000000000000000000000000000000000000000000000000000000000000000000000000000000000000000000000000000000000000000000000000000000000000000000000000000000000000000000000000000000000000000000000000000000000000000000000000000000000000000000000000000000000000000000000000000000000000000000000000000000000000000000000000000000000000000000000000000000000000000000000000",
  "miner": "0x7014f43c5bc7f7f3b4fbdf1599e5e1394548607a",
  "mixHash": "0x0000000000000000000000000000000000000000000000000000000000000000",
  "nonce": "0x0000000000000000",
  "number": "0x1",
  "parentHash": "0x5dfb0d35f9069d0427a116d76f925c28ca12a688a1d48af0eb8cb401e22f544d",
  "receiptsRoot": "0x056b23fbba480696b65fe5a59b8f2148a1299103c4f57df839233af2cf4ca2d2",
  "sha3Uncles": "0x1dcc4de8dec75d7aab85b567b6ccd41ad312451b948a7413f0a142fd40d49347",
  "size": "0x32f",
  "stateRoot": "0xfac78788b1d16b484a9f661902c4fbee97016e33b9ee12b496ae315501cdbe44",
  "timestamp": "0xa",
  "totalDifficulty": "0x1",
  "transactions": [
    "0x644a31c354391520d00e95b9affbbb010fc79ac268144ab8e28207f4cf51097e"
  ],
  "transactionsRoot": "0xca0ebcce920d2cdfbf9e1dbe90ed3441a1a576f344bd80e60508da814916f4e7",
  "uncles": [],
  "fees": null,
  "minerNodeId": "0x",
  "minerNodeSig": "0x",
  "rewards": "0x"
}