{
  "baseFeePerGas": "0xfdc7303",
  "difficulty": "0x1",
  "extraData": "0xf90208a0000000000000000000000000000000000000000000000000000000000000000080f86301b860987aa0ebff37ba42a54cd06bdb22b045d72991322b2ca2fdfc8f5f245505f106a0af4c8e1aa137d0df94091fdfa75276103a50ecb451a4055e6f75460355b5bce85389629b639f06cb1caa1adec6f1030516150ed5b63425ad77f1b3ea6abf30f86301b860a97d018ee9b63244867b8325acd2362fa1a7441e2563cc47f5e39c0defc2bfa36cdbf751f2a2ea58b02f51425071e67f05e4b1c031dae8cf2dfcc9d609b97064320685403a2cff9374ba2de8c1968e648a8ff7a04479c5a04de8dbf3c2b2757780f86301b86082beb81c00646a1753caa2802420848912f9dbed1c5ba783c44258685f289adbf22dfe34de1e01abf27c53e0e3f39d800c5ac0b97ec319b182e7edd32a87003a68a460f7994c067af33d00b512384a0b4b3527c1f72066fb638b43822d628d23f86301b860a02bf18057d1ba415e8c03377a2dbe95ae9fecb072693c8ac1e9ccedabdab032d0ec1b5849ab0b0e1c6ea74b1deb0052155ff1a5153c60a8b38931d0caf7a7386e15ec55e7cd18e738d1bf95f7947db2fee75dac956182c7684183b1a2ee7960f84fdad9947014f43c5bc7f7f3b4fbdf1599e5e1394548607a831d2108c180f1b0b1ae18fdcbcc6a80d7a0c4cfec1a04bc1bee78e519eaadd689108077d946e0849a2c30ac96462be32023f34ca67ebcf6",
  "fees": null,
  "gasLimit": "0x47e7c4",
  "gasUsed": "0x5208",
  "hash": "0x5296fe4b56cdd90ef92adeeb5753dbb9b79064203888ddaf2b8bca0dc1c15889",
  "logsBloom": "0x00000000000000000000000000000000000000000000000000000000000000000000000000000000000000000000000000000000000000000000000000000000000000000000000000000000000000000000000000000000000000000000000000000000000000000000000000000000000000000000000000000000000000000000000000000000000000000000000000000000000000000000000000000000000000000000000000000000000000000000000000000000000000000000000000000000000000000000000000000000000000000000000000000000000000000000000000000000000000000000000000000000000000000000000000000000",
  "miner": "0x7014f43c5bc7f7f3b4fbdf1599e5e1394548607a",
  "minerNodeId": "0x",
  "minerNodeSig": "0x",
  "mixHash": "0x0000000000000000000000000000000000000000000000000000000000000000",
  "nonce": "0x0000000000000000",
  "number": "0xa",
  "parentHash": "0xbdd7e395185456e035c3dfcd82f5ee5d228971c9690d72d8acbd8c7e01a41db0",
  "receiptsRoot": "0x056b23fbba480696b65fe5a59b8f2148a1299103c4f57df839233af2cf4ca2d2",
  "rewards": "0x",
  "sha3Uncles": "0x1dcc4de8dec75d7aab85b567b6ccd41ad312451b948a7413f0a142fd40d49347",
  "size": "0x474",
  "stateRoot": "0xe3c8f2936536df95980bf5e44319aeb995f2c2f72db49c5f87b6a057835b90b0",
  "timestamp": "0x64",
  "totalDifficulty": "0x1",
  "transactions": [
    "0x3ee4094ca1e0b07a66dd616a057e081e53144ca7e9685a126fd4dda9ca042644"
  ],
  "transactionsRoot": "0xb0893d21a4a44dc26a962a6e91abae66df87fb61ac9c60e936aee89c76331445",
  "uncles": []
}