{
  "baseFeePerGas": "0xfdc7303",
  "difficulty": "0x1",
  "extraData": "0xf9024ca00000000000000000000000000000000000000000000000000000000000000000b841a73f32d3e8fde699a60c5377b1f58be65efda9bbf127169f6e43928b85e5271e686932640d891f76a96ab8bdcf611e5663124614425c7c20cbeb6b5862b1b91f0080f86301b860b3d195b77511307ff97ff6f2af82fcee96fd6659099011987c72d0f1833b1e5cb0a22a109abbd4f3a73b448c33ca92a20e88f8c3be4318fb64d5d1b42ba44e9ba64fdcfb4e4a79c9add151876df96363fd79366f5e75f608e7c40e2e19dffd98f86301b860a9117c1a6340a298635d1a1c4d30d3f95b49a80b8bbddd816d094d7e1aedaf96db8cb705b3e19f51dd798dd59cdc0cf00ff8b0443e3bf676120df49ecffe38816a21eedec49a7b69fbe41664e94c08e179545ba3d86fa1940df233a3b7ff7bec80f86301b860a871c9b24029b86a386d41f39784a30a5d4829d5f1b4567ce7eaa3855fb0fc4a5b10c415a975c25f07c935b24922a54f0ccf685267491080b67c737d5a3eda24f9c14d0799375b82c7fb116a14eb121a3592c008bb6feea22608c7efb5ff1b5cf86301b860b9b0c76607a5943bb5c946f37159942d6681461cc5ecc59f2a2d4a0657f4cabfab0f2550bdc1dd7a53951c801d60649e05917ee05cb8e0fd95f938367abf3efda132be76a10719718d08bf8bbe4d2042806311a90a4c5a570efb9696e7081b02f850dad9947014f43c5bc7f7f3b4fbdf1599e5e1394548607a831d2108c180f1b0b1ae18fdcbcc6a80d7a0c4cfec1a04bc1bee78e519eaadd689108077d946e0849a2c30ac96462be32023f34ca67ebcf601",
  "fees": null,
  "gasLimit": "0x47e7c4",
  "gasUsed": "0x5208",
  "hash": "0xc9e59cd9e4f2ce8114a0b4b15b3ff98eaffd8e82bb4449f18166840bfec3bb81",
  "logsBloom": "0x00000000000000000000000000000000000000000000000000000000000000000000000000000000000000000000000000000000000000000000000000000000000000000000000000000000000000000000000000000000000000000000000000000000000000000000000000000000000000000000000000000000000000000000000000000000000000000000000000000000000000000000000000000000000000000000000000000000000000000000000000000000000000000000000000000000000000000000000000000000000000000000000000000000000000000000000000000000000000000000000000000000000000000000000000000000",
  "miner": "0x7014f43c5bc7f7f3b4fbdf1599e5e1394548607a",
  "minerNodeId": "0x",
  "minerNodeSig": "0x",
  "mixHash": "0x21709d6dceab3d23da916ddb6c4885c49cd1e83c4afdf5b394692b75bdb6d372",
  "nonce": "0x0000000000000000",
  "number": "0xa",
  "parentHash": "0xe7136090f5ecb3d5d275e74d3d2ff157d74369376d469a43e28615da35620f99",
  "receiptsRoot": "0x056b23fbba480696b65fe5a59b8f2148a1299103c4f57df839233af2cf4ca2d2",
  "rewards": "0x",
  "sha3Uncles": "0x1dcc4de8dec75d7aab85b567b6ccd41ad312451b948a7413f0a142fd40d49347",
  "stateRoot": "0xe3c8f2936536df95980bf5e44319aeb995f2c2f72db49c5f87b6a057835b90b0",
  "timestamp": "0x64",
  "totalDifficulty": "0x1",
  "transactionsRoot": "0xb0893d21a4a44dc26a962a6e91abae66df87fb61ac9c60e936aee89c76331445"
}