{
  "baseFeePerGas": "0xfdc7303",
  "difficulty": "0x1",
  "extraData": "0xf9024ca00000000000000000000000000000000000000000000000000000000000000000b841a73f32d3e8fde699a60c5377b1f58be65efda9bbf127169f6e43928b85e5271e686932640d891f76a96ab8bdcf611e5663124614425c7c20cbeb6b5862b1b91f0080f86301b8608dce0311b6396f57e698cb029c2cc7206688bf590b36dfb1a306cc82d34ae48bae642b23497f0ef99e144ca43078ba1d085bc50af52cd94f55c787033c5c8ba3a62a1ee0d39b72a904fe17133b27fe6642ec640d948cd919f20ab5a74d3175b9f86301b860b1f38e0a9a2aab808cb055e6ab6dcd2c3b38b2d862421cd277a896c88de3f92152ee5bcf2b83fe43ab4627aee18bec210feff2245197f5f0dabd27e61490f145a1f6bf2cfb0ed9444ce1935097402a9ceef9cb45afb48c8907514264b35840bf80f86301b860b26e071a48fba04e8e36ca3804f8b99bc70c78bddde70abf9fc02602951e7e8cbeb9a926f3119a415590c208df196fe10d7de9abe610a86965ac57e0b3f479de1af1481ba8b7c2214637492607bcafa1eed700f43a509688f54dde3ceb991f4cf86301b860a06f275784dd53070859d090e7b09bbff3f93349c311fb1bbc48ae666d6a4252cc3ef2cf2a9b1206d5c02244656f6df30436ac90c5c30cffea4e7a40bf4fc558e638e4e1b5e931532ca82a3e8975f1c679ed429c5bd1e665cb98c9fe13b408a8f850dad9947014f43c5bc7f7f3b4fbdf1599e5e1394548607a831d2108c180f1b0b1ae18fdcbcc6a80d7a0c4cfec1a04bc1bee78e519eaadd689108077d946e0849a2c30ac96462be32023f34ca67ebcf601",
  "gasLimit": "0x47e7c4",
  "gasUsed": "0x5208",
  "hash": "0xbb61b36bcf68ff25b5a72f0288716d16b0a0a9b3846d2b3e13bd237cd6a0c0e8",
  "logsBloom": "0x00000000000000000000000000000000000000000000000000000000000000000000000000000000000000000000000000000000000000000000000000000000000000000000000000000000000000000000000000000000000000000000000000000000000000000000000000000000000000000000000000000000000000000000000000000000000000000000000000000000000000000000000000000000000000000000000000000000000000000000000000000000000000000000000000000000000000000000000000000000000000000000000000000000000000000000000000000000000000000000000000000000000000000000000000000000",
  "miner": "0x7014f43c5bc7f7f3b4fbdf1599e5e1394548607a",
  "mixHash": "0x21709d6dceab3d23da916ddb6c4885c49cd1e83c4afdf5b394692b75bdb6d372",
  "nonce": "0x0000000000000000",
  "number": "0xa",
  "parentHash": "0x8fe4acc4fabe241a1f7090ef1399ab2f2562f6a1a8ab900f64fe7fcc5c8eb5f8",
  "receiptsRoot": "0x056b23fbba480696b65fe5a59b8f2148a1299103c4f57df839233af2cf4ca2d2",
  "sha3Uncles": "0x1dcc4de8dec75d7aab85b567b6ccd41ad312451b948a7413f0a142fd40d49347",
  "size": "0x4b8",
  "stateRoot": "0xd77a9dac1634bb2c89a31db36b10f55e0fd7ec9cccb75f64112d773ce47f342a",
  "timestamp": "0x64",
  "totalDifficulty": "0x1",
  "transactions": [
    "0x3ee4094ca1e0b07a66dd616a057e081e53144ca7e9685a126fd4dda9ca042644"
  ],
  "transactionsRoot": "0xb0893d21a4a44dc26a962a6e91abae66df87fb61ac9c60e936aee89c76331445",
  "uncles": []
}