{
  "baseFeePerGas": "0x121a9cca",
  "difficulty": "0x1",
  "extraData": "0xf9014da00000000000000000000000000000000000000000000000000000000000000000d5947014f43c5bc7f7f3b4fbdf1599e5e1394548607a80f843b841a536f3006219226989caf92935934899159a7a2ac7c7974d01e519340b9a3f2942e9b1081a4c8e1e4b8f7f972d9dd666e3319fe42457098317d700b2c3fb05b401f843b841809bf5baf0cafe0445780ba43f9ac114b196ed24f635c99231d616bc7ff07f0c53012db884a3c2fb2e68e1467c893a911f6a70bce0957225868254f73322d3510180f843b8412ce7edefe6354871f15aaef378c3f8eac0eea66ce6ec5055d1e4dcc4ec9c56285b14d8682f2ba40b2f69ac86fe39e6fa65d85bee875b7a135486fc923a44f3fb00f843b841d73e273240ce812bdf204d43926a4b52db55c62efe578e8f97e5abfb32cb8caa74f291d992c30f779ab908e96d636deedbadf2ab245f84677bb0d161d8a2fbc801",
  "gasLimit": "0x47e7c4",
  "gasUsed": "0x5208",
  "hash": "0xe2bec1024916ccfcf70306f27f816b279811f4d1d0e58770fcbf86f0311050ce",
  "logsBloom": "0x00000000000000000000000000000000000000000000000000000000000000000000000000000000000000000000000000000000000000000000000000000000000000000000000000000000000000000000000000000000000000000000000000000000000000000000000000000000000000000000000000000000000000000000000000000000000000000000000000000000000000000000000000000000000000000000000000000000000000000000000000000000000000000000000000000000000000000000000000000000000000000000000000000000000000000000000000000000000000000000000000000000000000000000000000000000",
  "miner": "0x7014f43c5bc7f7f3b4fbdf1599e5e1394548607a",
  "mixHash": "0x0000000000000000000000000000000000000000000000000000000000000000",
  "nonce": "0x0000000000000000",
  "number": "0x9",
  "parentHash": "0x063a51a644e97254e60ed715d16d85f2684265ae10dd7758d1eeddb9dbca3812",
  "receiptsRoot": "0x056b23fbba480696b65fe5a59b8f2148a1299103c4f57df839233af2cf4ca2d2",
  "sha3Uncles": "0x1dcc4de8dec75d7aab85b567b6ccd41ad312451b948a7413f0a142fd40d49347",
  "stateRoot": "0x9ea485f806c7938e19ba2e048ad2486e3b53dc1ea52b88dc017e90c9963a70e8",
  "timestamp": "0x5a",
  "totalDifficulty": "0x1",
  "transactionsRoot": "0x0767ed8359337dc6a8fdc77fe52db611bed1be87aac73c4556b1bf1dd3d190a5",
  "fees": null,
  "minerNodeId": "0x",
  "minerNodeSig": "0x",
  "rewards": "0x"
}