{
  "baseFeePerGas": "0x48c27395000",
  "difficulty": "0x1",
  "extraData": "0xf90252a00000000000000000000000000000000000000000000000000000000000000000b841a73f32d3e8fde699a60c5377b1f58be65efda9bbf127169f6e43928b85e5271e686932640d891f76a96ab8bdcf611e5663124614425c7c20cbeb6b5862b1b91f0080f86301b860b595245099eb6a10bf2d40c61fdbf1317213d7f556c469dbe1afe053927d32d63dcdfe011a015e5efd1c0202346de52619f2737e28a5c8d81a3662caa9241a77d9f92f0a84a9fb6dd9c7e356f0400307969372f0825897e8ffc5d3b206c2e401f86301b860b9baa4cb41db7170ca891a217bfaa110485f8d629e09b52769e0a115cb40480f8890170e6a4bd7e443cd18cfb622988103047144713523d454274beeb6f171ed9d7124832ebaf3639faf358a99646aa35aec7c02a77bd45f4e2c52c0e0421a1e80f86301b860b3b60ca561ec7dc136c4eb2395f3ed4c0ec15ccea219e2f39e40720183af592ed20e2825dbbf80c08a3f8a171bf2790803b03e6c8998c0d490be44b8ae35e53429bf64a2ded137a33b10352ff6c74660d874434c958253f5d87941a7516d107af86301b860acf844a1434fe965e9cb5232f6cb1be207b5c7a76c43bdf33abce7faa5c035029acb1a7fc400d61f1dcfa0d42c568f8b0db764244fec11e9af989a3f6802c20cdd63ca3d41c54c7f964e304721e21cdf2bde1c7d3e6b80c1ed76464e26d005ff86048c27395000f84fdad9947014f43c5bc7f7f3b4fbdf1599e5e1394548607a831d2108c180f1b0b1ae18fdcbcc6a80d7a0c4cfec1a04bc1bee78e519eaadd689108077d946e0849a2c30ac96462be32023f34ca67ebcf6",
  "gasLimit": "0x47e7c4",
  "gasUsed": "0x5208",
  "hash": "0x0927bc0d7d22b1b62a15ceda798e70606104c938a19b784b8b5dc0ef7cc7a226",
  "logsBloom": "0x00000000000000000000000000000000000000000000000000000000000080000000000000000000000000000000000000800000000000000000000000000000000000000000000001000008000000002000000000000000000080000020000000000020000000000000000000000802000000000000000000000010000000000000000000000000000000000000000000000400000000000000000000000000000000000000000000000000000000000000000000000000000000000000000000000002000000000000800000000000000000000000000000000000000000000000000000000000000000000000000000000020000000000000000000000000",
  "miner": "0x7014f43c5bc7f7f3b4fbdf1599e5e1394548607a",
  "mixHash": "0x21709d6dceab3d23da916ddb6c4885c49cd1e83c4afdf5b394692b75bdb6d372",
  "nonce": "0x0000000000000000",
  "number": "0xa",
  "parentHash": "0xe4de5c17d9ef7396761adc4da70391e255e837738b62b94eeed251daeed43611",
  "receiptsRoot": "0x05e435ff13a02febe2b94d3d576aaee0cfbd49c38122a0895f59f5d102da6cbf",
  "sha3Uncles": "0x1dcc4de8dec75d7aab85b567b6ccd41ad312451b948a7413f0a142fd40d49347",
  "size": "0x4c2",
  "stateRoot": "0x092748104d3e2f69fa09ee2c522a7a3ab37ff96b3a7e7192eda12bf9b1452589",
  "timestamp": "0x64",
  "totalDifficulty": "0x1",
  "transactions": [
    "0x26b6ce2ba8d28201d5816e5545ca6d37ca769ca98cd1b377c8c1c89a2e3712c8"
  ],
  "transactionsRoot": "0xbf876c5c5cee84899d9950903b7645ee5515b1698fc6ecc24472a5443c37a45d",
  "uncles": []
}