{
  "baseFeePerGas": "0x342770c0",
  "difficulty": "0x1",
  "extraData": "0xf87ea00000000000000000000000000000000000000000000000000000000000000000d5947014f43c5bc7f7f3b4fbdf1599e5e1394548607ac080f843b841da90f64df09094e7fdcc94c02d44f169bb8049a3faf04d8413d481f8d7c469f85cc1d1fa5123235e2cd526661edd5b1ecfa81d4b668d6759e49000c695a2050d01",
  "gasLimit": "0x47e7c4",
  "gasUsed": "0x5208",
  "hash": "0x3c1175162f1b53871a3c5704384441157954caa4dcbf5a093c596c66c8fd5177",
  "logsBloom": "0x00000000000000000000000000000000000000000000000000000000000000000000000000000000000000000000000000000000000000000000000000000000000000000000000000000000000000000000000000000000000000000000000000000000000000000000000000000000000000000000000000000000000000000000000000000000000000000000000000000000000000000000000000000000000000000000000000000000000000000000000000000000000000000000000000000000000000000000000000000000000000000000000000000000000000000000000000000000000000000000000000000000000000000000000000000000",
  "miner": "0x7014f43c5bc7f7f3b4fbdf1599e5e1394548607a",
  "mixHash": "0x0000000000000000000000000000000000000000000000000000000000000000",
  "nonce": "0x0000000000000000",
  "number": "0x1",
  "parentHash": "0x040e3d0aa9e59a060fdf4981567bb1cfab2cf8a4d7702d4154d3388e4af0d771",
  "receiptsRoot": "0x056b23fbba480696b65fe5a59b8f2148a1299103c4f57df839233af2cf4ca2d2",
  "sha3Uncles": "0x1dcc4de8dec75d7aab85b567b6ccd41ad312451b948a7413f0a142fd40d49347",
  "stateRoot": "0xfac78788b1d16b484a9f661902c4fbee97016e33b9ee12b496ae315501cdbe44",
  "timestamp": "0xa",
  "totalDifficulty": "0x1",
  "transactionsRoot": "0xca0ebcce920d2cdfbf9e1dbe90ed3441a1a576f344bd80e60508da814916f4e7",
  "fees": null,
  "minerNodeId": "0x",
  "minerNodeSig": "0x",
  "rewards": "0x"
}