{
  "baseFeePerGas": "0xfdc7303",
  "difficulty": "0x1",
  "extraData": "0xf9024ca00000000000000000000000000000000000000000000000000000000000000000b841a73f32d3e8fde699a60c5377b1f58be65efda9bbf127169f6e43928b85e5271e686932640d891f76a96ab8bdcf611e5663124614425c7c20cbeb6b5862b1b91f0080f86301b86084626c83987799b425a51a9c2b7d1fa289bee80a100db82b2423fb6a8b54fd6411863d0acaf1f28660ed844e6640b375047d3513c7a65313ce87c6b6408fdc61855dad1b60541647bfba4738108ff7aec0cf4cbb20c64468ed3ad873765a10a1f86301b860a9d93bd05d27867691a3d8ffa10dfee1cf4a75b31b46c58d600e00f42a01be0576bb466b14118a865295ac21a51bf58105474f00dea07a010526e2c9c02a2006509151f2dc522e15ada7ab92c62a0cd995ac9249f5f9871d629946c2f496425e80f86301b860b24f81cd17d715548bc3f0c913904f783d0b27e88883fc73648da3db161b95ac81dc6eab455a4ecb5131f4abc95e848419257a9ac95c2b5a3f24bd00eb6039c1bb6fb18b1ff8dfcce08f64066c488db2ffac395efe38e89f9c878fc0a1997335f86301b86099e11dd9ec0f478e5509ea858d2c84a530bd8258edb3a0379c5c85e2bec81a746ec4e90dbccdbb41fa2fa69bc06bccb405c5e5aa9c3a2a6a7bed5237058170cbcaba6c3873045f15d4396728fb3ce43afe96e6c80cff0fd192f06c537e7eb583f850dad9947014f43c5bc7f7f3b4fbdf1599e5e1394548607a831d2108c180f1b0b1ae18fdcbcc6a80d7a0c4cfec1a04bc1bee78e519eaadd689108077d946e0849a2c30ac96462be32023f34ca67ebcf601",
  "fees": null,
  "gasLimit": "0x47e7c4",
  "gasUsed": "0x5208",
  "hash": "0xdebd6e2f9a4f1aab0f6eeb45b1a0b55ea5f7535691de9a0f66dedd3043fb382b",
  "logsBloom": "0x00000000000000000000000000000000000000000000000000000000000000000000000000000000000000000000000000000000000000000000000000000000000000000000000000000000000000000000000000000000000000000000000000000000000000000000000000000000000000000000000000000000000000000000000000000000000000000000000000000000000000000000000000000000000000000000000000000000000000000000000000000000000000000000000000000000000000000000000000000000000000000000000000000000000000000000000000000000000000000000000000000000000000000000000000000000",
  "miner": "0x7014f43c5bc7f7f3b4fbdf1599e5e1394548607a",
  "minerNodeId": "0x",
  "minerNodeSig": "0x",
  "mixHash": "0x21709d6dceab3d23da916ddb6c4885c49cd1e83c4afdf5b394692b75bdb6d372",
  "nonce": "0x0000000000000000",
  "number": "0xa",
  "parentHash": "0x9c8878cf0ecd3657418ab27364899724d8b8ccefd6db7d3cac58ef4e3e932a24",
  "receiptsRoot": "0x056b23fbba480696b65fe5a59b8f2148a1299103c4f57df839233af2cf4ca2d2",
  "rewards": "0x",
  "sha3Uncles": "0x1dcc4de8dec75d7aab85b567b6ccd41ad312451b948a7413f0a142fd40d49347",
  "stateRoot": "0xe3c8f2936536df95980bf5e44319aeb995f2c2f72db49c5f87b6a057835b90b0",
  "timestamp": "0x64",
  "totalDifficulty": "0x1",
  "transactionsRoot": "0xb0893d21a4a44dc26a962a6e91abae66df87fb61ac9c60e936aee89c76331445"
}