{
  "baseFeePerGas": "0x48c27395000",
  "difficulty": "0x1",
  "extraData": "0xf90252a00000000000000000000000000000000000000000000000000000000000000000b841a73f32d3e8fde699a60c5377b1f58be65efda9bbf127169f6e43928b85e5271e686932640d891f76a96ab8bdcf611e5663124614425c7c20cbeb6b5862b1b91f0080f86301b8608960aea92288b58fd68d8d980e452040cbf67b9c607aedbd8aba22936920e180f04882623257fe951949bfc9a6975ee80a15608e917a5f1c66fdedf589d7453937d5669737b4ed2211dfc852da2b758a309d58545d52a76db1df78431a2530c5f86301b86084ce885f2213942ba7b0a8f1611a13ebb723bb709f03dc661d674d76c62f6734b1c2ef7f22169f313859699b221bfa8a0694402f645f2e42633e3bc0de562858b13c70d825a8367dd15190ad3f38cb7dc9314ae01e089490445b0ab445829f9880f86301b8609747359db06c067c5e9ef6807b0919b01279d6d08c4424a712ca50ccdec63a4d13fedead1e134b241e20d252f28e00050b4698598e37aab8105bca2b9bcaf834d6b8c7f7c0ab4bc47863472a2f88200d0d4e1fa7c3708113d0a42fce8967f65ff86301b860b2a33c0cff39a719f8b336cb495fff4cb54ecd79aed091c0ae1205222682ee26d283f84e795e057761824dda1729b5f41054fa255fd1815221491e0927efc3286a6bbd998e81a85ffbb1691f58de672193ffec36b876c42550f6468f681c8e2d86048c27395000f84fdad9947014f43c5bc7f7f3b4fbdf1599e5e1394548607a831d2108c180f1b0b1ae18fdcbcc6a80d7a0c4cfec1a04bc1bee78e519eaadd689108077d946e0849a2c30ac96462be32023f34ca67ebcf6",
  "gasLimit": "0x47e7c4",
  "gasUsed": "0x5208",
  "hash": "0xa58be7ea14863da503b7b5d6f133ab93d0802e2eaf72a13ce447d46bee84f331",
  "logsBloom": "0x00000000000000000000000000000000000000000000000000000000000080000000000000000000000000000000000000800000000000000000000000000000000000000000000001000008000000002000000000000000000080000020000000000020000000000000000000000802000000000000000000000010000000000000000000000000000000000000000000000400000000000000000000000000000000000000000000000000000000000000000000000000000000000000000000000002000000000000800000000000000000000000000000000000000000000000000000000000000000000000000000000020000000000000000000000000",
  "miner": "0x7014f43c5bc7f7f3b4fbdf1599e5e1394548607a",
  "mixHash": "0x21709d6dceab3d23da916ddb6c4885c49cd1e83c4afdf5b394692b75bdb6d372",
  "nonce": "0x0000000000000000",
  "number": "0xa",
  "parentHash": "0x516ffc991996f4da0f4f23a6992519ccdafe494aae9a8972cf0451ea70ceda67",
  "receiptsRoot": "0x05e435ff13a02febe2b94d3d576aaee0cfbd49c38122a0895f59f5d102da6cbf",
  "sha3Uncles": "0x1dcc4de8dec75d7aab85b567b6ccd41ad312451b948a7413f0a142fd40d49347",
  "size": "0x4c2",
  "stateRoot": "0xfab09b3c71d9bd356c05e92056757b42a01cf00dd6a75cc52d041ea032bd1a10",
  "timestamp": "0x64",
  "totalDifficulty": "0x1",
  "transactions": [
    "0x26b6ce2ba8d28201d5816e5545ca6d37ca769ca98cd1b377c8c1c89a2e3712c8"
  ],
  "transactionsRoot": "0xbf876c5c5cee84899d9950903b7645ee5515b1698fc6ecc24472a5443c37a45d",
  "uncles": []
}