{
  "baseFeePerGas": "0xfdc7303",
  "difficulty": "0x1",
  "extraData": "0xf9024ba00000000000000000000000000000000000000000000000000000000000000000b841a73f32d3e8fde699a60c5377b1f58be65efda9bbf127169f6e43928b85e5271e686932640d891f76a96ab8bdcf611e5663124614425c7c20cbeb6b5862b1b91f0080f86301b860a7af51d50f59d41d837d534a67a9dd4423298e473f8d6a854db2015b49b9592b0044eff02c33304691ffbe53adcae6d0141385719874af6f7dc17eddcf64367bfc464e2a193affa8c629f82bf58547de04f5638f0dddae4218d51ac84f93bbf9f86301b8608c6b1f978b333bb8674ddd95a5fe6114576f82ff2ce12ed279ac170571939ba91982c6cd3b25a7199ac1b990f9f255cc1719a1108103527564427ba432a53e82ab8f77329936382eb22673dab3096a1f774017ed1c8cf1bfeb74c99f2d71e09d80f86301b860aa07d5f2cb7deb40e7bbb6547f234013ad4112713eab1a09bec3ba60490e115c2d0e679fd5568a5db01ef9da760bd11c08d7955c0b05c177b154a490e5931f9c3f643d83eedc8918db98e5de6d1eff757cb2cf7be1aced3ffa6ffdf62a4f8b40f86301b860a03f80c5a86ee97324f8be13fcf3d0af504458420c7a7b4a019c6013add40e3cda7eafcb74ccc2002099c9feb39594c609628fe0f60c8f45783e0ff6eb629b8103f5f5448e6a5cef5ecf8ad70664e62fc2a0b74c0f56b0e7feb182814d91f9c2f84fdad9947014f43c5bc7f7f3b4fbdf1599e5e1394548607a831d2108c180f1b0b1ae18fdcbcc6a80d7a0c4cfec1a04bc1bee78e519eaadd689108077d946e0849a2c30ac96462be32023f34ca67ebcf6",
  "gasLimit": "0x47e7c4",
  "gasUsed": "0x5208",
  "hash": "0x6e164f95ddf833d0e87c82c1b69950303caa46e2197cd48578de161b44077c47",
  "logsBloom": "0x00000000000000000000000000000000000000000000000000000000000080000000000000000000000000000000000000800000000000000000000000000000000000000000000001000008000000002000000000000000000080000020000000000020000000000000000000000802000000000000000000000010000000000000000000000000000000000000000000000400000000000000000000000000000000000000000000000000000000000000000000000000000000000000000000000002000000000000800000000000000000000000000000000000000000000000000000000000000000000000000000000020000000000000000000000000",
  "miner": "0x7014f43c5bc7f7f3b4fbdf1599e5e1394548607a",
  "mixHash": "0x21709d6dceab3d23da916ddb6c4885c49cd1e83c4afdf5b394692b75bdb6d372",
  "nonce": "0x0000000000000000",
  "number": "0xa",
  "parentHash": "0x32fe402a55429bf27927667081dc171b7e751909de5af54c505c6a8b66bb0474",
  "receiptsRoot": "0xae00a0d2c8fc5d95d529a541cd9813e903808688534123c346256f50618c5347",
  "sha3Uncles": "0x1dcc4de8dec75d7aab85b567b6ccd41ad312451b948a7413f0a142fd40d49347",
  "stateRoot": "0x79ffcd347057ba42b5e47ef38a2dcb47d2848e58621a35bead460e83c5751dc4",
  "timestamp": "0x64",
  "totalDifficulty": "0x1",
  "transactionsRoot": "0xb0893d21a4a44dc26a962a6e91abae66df87fb61ac9c60e936aee89c76331445"
}