{
  "baseFeePerGas": "0x12309ce54000",
  "difficulty": "0x1",
  "extraData": "0xf90252a00000000000000000000000000000000000000000000000000000000000000000b841a73f32d3e8fde699a60c5377b1f58be65efda9bbf127169f6e43928b85e5271e686932640d891f76a96ab8bdcf611e5663124614425c7c20cbeb6b5862b1b91f0080f86301b86089af9eae5a024c9e63abb1c94234b5162b62f36b1ce969738ea9f062fe02ddcc1a401f1608cfc7afb2746fe3b4bdba2a034d5952bb16d7eda64233d9370dbf383aa861f32527cbd30c0baf432e82fe0981a3b9e88fa5faade70899194588eeb0f86301b8609062492cca0bf2d1796afb8d1f7632b9558572854eaf8dde4b44f7b47e9e6c0fb0ba0c654628e87d8168811e9b53e2c90f265b1f7781e58a4531e3111ead78672d6d39b3fce8b13983d5b4f518119793c1ed182f3b11463001a4dd11f460af5380f86301b860a1c6dcc4cc45bbafbff8019c9788a72fdafedbe2bed6ae86e058641d71d6452aa3231862e7ffd3ceb6fa6d7b2e6e4135005d27f0769bc1a2da388108ccb4abd65b19c6977018495878a366c50ea9de36bef7b4cc1ea045d9f19f8661d08ea973f86301b860a28fcd256fd7be18c8e656163f19df52c7afcbda91ff6b11832c4005619ca512329d59890e0d1319b0d96b3e236de5d10d280d6cffb937437c7da5e050d017e6d9120a84694d8da83fd94a77e8c05ea260818b85474a2201e5bcaaa93fad82e886191a20322000f84fdad9947014f43c5bc7f7f3b4fbdf1599e5e1394548607a831d2108c180f1b0b1ae18fdcbcc6a80d7a0c4cfec1a04bc1bee78e519eaadd689108077d946e0849a2c30ac96462be32023f34ca67ebcf6",
  "gasLimit": "0x47e7c4",
  "gasUsed": "0x5208",
  "hash": "0x9d438c7b4810e40bcbef4253ca091a896c6c2c5a950f137ad86190bbdcc9f67e",
  "logsBloom": "0x00000000000000000000000000000000000000000000000000000000000000000000000000000000000000000000000000800000000000000000000000000000000000000000000000000008000000002000000000000000000000000020000000000020000000000000000000000802000000000000000000000010000000000000000000000000000000000000000000000400000000000000000000000000000000000000000000000000000000000000000000000000000000000000000000000002000000000000800000000000000000000000000000000000000000000000000000000000000000000000000000000020000000000000000000000000",
  "miner": "0x7014f43c5bc7f7f3b4fbdf1599e5e1394548607a",
  "mixHash": "0x21709d6dceab3d23da916ddb6c4885c49cd1e83c4afdf5b394692b75bdb6d372",
  "nonce": "0x0000000000000000",
  "number": "0xa",
  "parentHash": "0x35971cbd791fc0b8a90cc5669a0dd31809293e3be60a5aac8966f120e6125a68",
  "receiptsRoot": "0xf23af56aa3012397032c2baa9a402518a25b94ac64a95d5169d156d77bc2a5fe",
  "sha3Uncles": "0x1dcc4de8dec75d7aab85b567b6ccd41ad312451b948a7413f0a142fd40d49347",
  "stateRoot": "0x36ecbf41ff090965427157795986dfb3d25bb664b02220e5194faa5c1ce1bba9",
  "timestamp": "0x64",
  "totalDifficulty": "0x1",
  "transactionsRoot": "0xa68214086266f95815dea889f89cea82e49b02e051981515934c586eeb179bd6"
}