{
  "baseFeePerGas": "0xfdc7303",
  "difficulty": "0x1",
  "extraData": "0xf9024ba00000000000000000000000000000000000000000000000000000000000000000b841a73f32d3e8fde699a60c5377b1f58be65efda9bbf127169f6e43928b85e5271e686932640d891f76a96ab8bdcf611e5663124614425c7c20cbeb6b5862b1b91f0080f86301b860a1608b5600d2b162cd16a628487bae683690da8acdb57d7d9c022ccac6deab4fcc195543ff7ebc1c26f3e0f61829f658104830dbd9487344dc7787cb6496494abfa670b143ddb174ed275af81881159ee1ff877ffbe68ac3f1ea139a7e4ea651f86301b860a957465d62b16deae4243d72984c98f4795817242247d495724ff4e5a87924824e1cfc5f7f12d8bfd6f0cfa4226236d5083da4869fedbb205e15278124c9a639f0cc14aab2f01df63f2eb12e2b10d20f0b33a9e18ba78247cf24a8fdf14525d880f86301b860a88be86f8d176e3843f9a78d627c5be0e16aade18d561da53eb5859932c861c9f1e9bbc5237ceadb79876cb494fad11e0aabcd43812e78f998824cd3e38093f6247f4737a2a245ba59cb7ecc9cf39b545538a86333dd687efd30704ad5fc87d9f86301b8609191d8b67c93002b74f0eeb9305a9c1ba8928f6045fda7594bed6bd550b30c468d61a8e632c2cd564ac82def33a3e8a0073ca7476d88f776a5053efb84c5a38d7722e08da2558e85ff65a03610007f4b06dc8a9c75dd5099afcc793e2ed312c3f84fdad9947014f43c5bc7f7f3b4fbdf1599e5e1394548607a831d2108c180f1b0b1ae18fdcbcc6a80d7a0c4cfec1a04bc1bee78e519eaadd689108077d946e0849a2c30ac96462be32023f34ca67ebcf6",
  "gasLimit": "0x47e7c4",
  "gasUsed": "0x5208",
  "hash": "0x51254f349fa25b4e288dd0ef766320da965c0d14ff73cc7dc834cfdf295efbca",
  "logsBloom": "0x00000000000000000000000000000000000000000000000000000000000080000000000000000000000000000000000001800000000000000000000000000000000000000000000001000008400000000000000000000000000080000020000000000000000000000000000000000802000000000000000000000010000000000000000000000000000000000000000000000000000000000000000000000000000000000000000000000000000000000000000000000000000000000000000000000002000000000000800000000000000000000000000000000000000200000000000000000000000000000000000000000020000000000000000000000000",
  "miner": "0x7014f43c5bc7f7f3b4fbdf1599e5e1394548607a",
  "mixHash": "0x21709d6dceab3d23da916ddb6c4885c49cd1e83c4afdf5b394692b75bdb6d372",
  "nonce": "0x0000000000000000",
  "number": "0xa",
  "parentHash": "0xe395628595d084a0273bb6c994389c5ed22492a3281e3e5537efbbe8764cac25",
  "receiptsRoot": "0x9b486303bbaf483ed0af6370195c4fc7bfe05ce6fb252766bd5ec8d499047921",
  "sha3Uncles": "0x1dcc4de8dec75d7aab85b567b6ccd41ad312451b948a7413f0a142fd40d49347",
  "stateRoot": "0x198f037c30851a670a161ae44965b954a55ca2b4cb86990555e0dcce5343e03e",
  "timestamp": "0x64",
  "totalDifficulty": "0x1",
  "transactionsRoot": "0xb0893d21a4a44dc26a962a6e91abae66df87fb61ac9c60e936aee89c76331445"
}