{
  "baseFeePerGas": "0x121a9cca",
  "difficulty": "0x1",
  "extraData": "0xf9014da00000000000000000000000000000000000000000000000000000000000000000d5947014f43c5bc7f7f3b4fbdf1599e5e1394548607ac080f843b841f5d826790779e4d294ccaecb08a2c8cc0ddec1aa8bd286b5c2fa34e5f97c92c41c3cbb5695c4105be18260d36421ddadf6135bc14663a14c04fcf604643dc75800f843b8415501113d5334763e8505e442d347228ab3f86e32a3b5d2a7168f438040c83e3815ef78b4e3a9a8d9f4d19c5a2143a277d23d108744ef0722468b673b49a39af600f843b841b0ecff1eb4d3b91e465a4c8183b22feb1bbbdc008810ddb03885762f6d93c4e87e4b46b894d0ec40f0a691b543d344adb756e17831b38e03e74f4e7292d2854800f843b841b0a651c24bc2f597451be82c66108ac58db54021ab466b6d674edde17dcc009e2c4400148f5aed94cffe49f1bfe1aeadd75d301641386ccf2a3453edf6762dfc01",
  "gasLimit": "0x47e7c4",
  "gasUsed": "0x5208",
  "hash": "0x4e2352d9be01ebe4acb20e197f99e391b2c8bdd64c841cb5137ce7349012a647",
  "logsBloom": "0x00000000000000000000000000000000000000000000000000000000000000000000000000000000000000000000000000000000000000000000000000000000000000000000000000000000000000000000000000000000000000000000000000000000000000000000000000000000000000000000000000000000000000000000000000000000000000000000000000000000000000000000000000000000000000000000000000000000000000000000000000000000000000000000000000000000000000000000000000000000000000000000000000000000000000000000000000000000000000000000000000000000000000000000000000000000",
  "miner": "0x7014f43c5bc7f7f3b4fbdf1599e5e1394548607a",
  "mixHash": "0x0000000000000000000000000000000000000000000000000000000000000000",
  "nonce": "0x0000000000000000",
  "number": "0x9",
  "parentHash": "0x5b119b5d5f3653f7ddc19a62b8fd87741e319477ea2a37050fce165b872e468e",
  "receiptsRoot": "0x056b23fbba480696b65fe5a59b8f2148a1299103c4f57df839233af2cf4ca2d2",
  "sha3Uncles": "0x1dcc4de8dec75d7aab85b567b6ccd41ad312451b948a7413f0a142fd40d49347",
  "stateRoot": "0x9ea485f806c7938e19ba2e048ad2486e3b53dc1ea52b88dc017e90c9963a70e8",
  "timestamp": "0x5a",
  "totalDifficulty": "0x1",
  "transactionsRoot": "0x0767ed8359337dc6a8fdc77fe52db611bed1be87aac73c4556b1bf1dd3d190a5",
  "fees": null,
  "minerNodeId": "0x",
  "minerNodeSig": "0x",
  "rewards": "0x"
}