{
  "baseFeePerGas": "0x121a9cca",
  "difficulty": "0x1",
  "extraData": "0xf87ea00000000000000000000000000000000000000000000000000000000000000000d5947014f43c5bc7f7f3b4fbdf1599e5e1394548607ac080f843b841de8ac95f5446b3541c8b7f78b0a57b38952cdd2a7344622344ed112e2717a368708db5bb1b178d57d0975c46b99463b5a97119a02e00e746fba0aa8adaf82f9400",
  "gasLimit": "0x47e7c4",
  "gasUsed": "0x5208",
  "hash": "0xc3f979b3a5c0960858a1f506900e093575c97771dce92aae613cbb2bdbbe6748",
  "logsBloom": "0x00000000000000000000000000000000000000000000000000000000000000000000000000000000000000000000000000000000000000000000000000000000000000000000000000000000000000000000000000000000000000000000000000000000000000000000000000000000000000000000000000000000000000000000000000000000000000000000000000000000000000000000000000000000000000000000000000000000000000000000000000000000000000000000000000000000000000000000000000000000000000000000000000000000000000000000000000000000000000000000000000000000000000000000000000000000",
  "miner": "0x7014f43c5bc7f7f3b4fbdf1599e5e1394548607a",
  "mixHash": "0x0000000000000000000000000000000000000000000000000000000000000000",
  "nonce": "0x0000000000000000",
  "number": "0x9",
  "parentHash": "0xec69f7e906873558a69ff3ba5d76d2982325681eed51ff994bbdd9ad58d05334",
  "receiptsRoot": "0x056b23fbba480696b65fe5a59b8f2148a1299103c4f57df839233af2cf4ca2d2",
  "sha3Uncles": "0x1dcc4de8dec75d7aab85b567b6ccd41ad312451b948a7413f0a142fd40d49347",
  "stateRoot": "0x3be0a876e3c37f98ef2b869fc8a9f712dfdf0827982022fcf12575954781a8fc",
  "timestamp": "0x5a",
  "totalDifficulty": "0x1",
  "transactionsRoot": "0x0767ed8359337dc6a8fdc77fe52db611bed1be87aac73c4556b1bf1dd3d190a5",
  "fees": null,
  "minerNodeId": "0x",
  "minerNodeSig": "0x",
  "rewards": "0x"
}