{
  "baseFeePerGas": "0x48c27395000",
  "difficulty": "0x1",
  "extraData": "0xf9024ca00000000000000000000000000000000000000000000000000000000000000000b841a73f32d3e8fde699a60c5377b1f58be65efda9bbf127169f6e43928b85e5271e686932640d891f76a96ab8bdcf611e5663124614425c7c20cbeb6b5862b1b91f0080f86301b86095fa6c26eb6c13a8f5590447ed7eb641e49bd0e309e70e291cfa141f4707c326112343a922ded1be893d85ea72f26a911223f7cbad6dd1cf7d53ef48d713a8ae2a5dba1be2b885dfd22afcb9b524703cdffc05eb3c525436638276f9e0344eabf86301b860863e602c3e96fdbeedf0021d82c610f68b31c2714137215ca24fdd674caad92337ce892b967dc264790a9316308895390bf67336f5c0f29ea99ae1c4a9c680984e222d3d746f45ec81b473689b9023a2d6720e33ab5a9893cf9e637b8ea4363a80f86301b86091a8cedaa4d9e9e7d1eb685611e115ec9b653e3e21de35498b61424e1983d11d12f580f246f92dc87070d42f042c9cbf1971202f1e26ac778903d5ed3340ff337dad5182d6836dc8a9a3c8208c2503e8214ebd39c27db5463a6587efcba07dc4f86301b860901d81113f02e6464eb80aa709be4bd2fbe1d7a03dfcdf2ea44bcf928f67457f788d7e6fdb17bc5dad3e3a243b978ab017286e4df33528b5cfc39d0fb9440069cc5995a14de2551d58b9f3b1952db2a1c88f39d7ca63c6e1591ac369fdf1112cf84fdad9947014f43c5bc7f7f3b4fbdf1599e5e1394548607a831d2108c180f1b0b1ae18fdcbcc6a80d7a0c4cfec1a04bc1bee78e519eaadd689108077d946e0849a2c30ac96462be32023f34ca67ebcf680",
  "gasLimit": "0x47e7c4",
  "gasUsed": "0x5208",
  "hash": "0xb2d4752018fccb9a8791a7a8a90b33202cf40fce930292499122cf01b9ffa2fa",
  "logsBloom": "0x00000000000000000000000000000000000000000000000000000000000000000000000000000000000000000000000000000000000000000000000000000000000000000000000000000000000000000000000000000000000000000000000000000000000000000000000000000000000000000000000000000000000000000000000000000000000000000000000000000000000000000000000000000000000000000000000000000000000000000000000000000000000000000000000000000000000000000000000000000000000000000000000000000000000000000000000000000000000000000000000000000000000000000000000000000000",
  "miner": "0x7014f43c5bc7f7f3b4fbdf1599e5e1394548607a",
  "mixHash": "0x21709d6dceab3d23da916ddb6c4885c49cd1e83c4afdf5b394692b75bdb6d372",
  "nonce": "0x0000000000000000",
  "number": "0xa",
  "parentHash": "0x779347171e2aecb6c30300c52cb43f5936639285fa530c1ac98bde7469d5be81",
  "receiptsRoot": "0x056b23fbba480696b65fe5a59b8f2148a1299103c4f57df839233af2cf4ca2d2",
  "sha3Uncles": "0x1dcc4de8dec75d7aab85b567b6ccd41ad312451b948a7413f0a142fd40d49347",
  "stateRoot": "0x41f24b66a3c46880d1fe478baab2e186349434941f5a3cb07fcabb5a0aeb1e08",
  "timestamp": "0x64",
  "totalDifficulty": "0x1",
  "transactionsRoot": "0xbf876c5c5cee84899d9950903b7645ee5515b1698fc6ecc24472a5443c37a45d"
}