{
  "baseFeePerGas": "0x48c27395000",
  "difficulty": "0x1",
  "extraData": "0xf90252a00000000000000000000000000000000000000000000000000000000000000000b841a73f32d3e8fde699a60c5377b1f58be65efda9bbf127169f6e43928b85e5271e686932640d891f76a96ab8bdcf611e5663124614425c7c20cbeb6b5862b1b91f0080f86301b860abe044a12df509fa4ed00b6a009b3d92015bd76a9b7768c89916b0340c1b85ad5603f92dd05935926cd6a72b78e3369b02807b0e658e8677bac11c89c034abdac8bd4b5a6d024af7f4145ea181497ffb5e4a3d0822ed5f971f7683b404c335a7f86301b860864a244ffc4b28ec4d68e29fcd3664f6e3e8722e883bacc5622b7767ac8cf204b62122f4abf121e596313c283430d7b107b861882e00404bece392031cf9dc8bc20c07bfbd7c3e22156dd51024594ea3c6b63749649776d5470d51be89478cdf80f86301b860b5314d60329969cd1a9623160eda478039fecaebeb785f0a33a36fc07f92d4e256085bae6243ea9569ec82c6e3282ba015bf4da4fffd8c11c4558fb30dbc2128cdb2a8c2ed0ebee4a4bb400bc1aa23f01e7fa60578730aacda2783b27fed322ff86301b86084ceb986d5ea896defac9c204c85c6967b3ec748651836929785810715fd745557a1036d94e4f7fdc391331251468cfe0fec202030ff4fbb0b09a8fa8b8dc3589c9a3724b9f6263eefa18c7dc3c6a8ebd867037cbbd0ccee7190a587dc169fa2f84fdad9947014f43c5bc7f7f3b4fbdf1599e5e1394548607a831d2108c180f1b0b1ae18fdcbcc6a80d7a0c4cfec1a04bc1bee78e519eaadd689108077d946e0849a2c30ac96462be32023f34ca67ebcf686048c27395000",
  "gasLimit": "0x47e7c4",
  "gasUsed": "0x5208",
  "hash": "0x5fd01fcf80d1760a95de88ef58efc0c7c17df0391606fc1651a9bff03a23d0ba",
  "logsBloom": "0x00000000000000000000000000000000000000000000000000000000000080000000000000000000000000000000000000800000000000000000000000000000000000000000000001000008000000002000000000000000000080000020000000000020000000000000000000000802000000000000000000000010000000000000000000000000000000000000000000000400000000000000000000000000000000000000000000000000000000000000000000000000000000000000000000000002000000000000800000000000000000000000000000000000000000000000000000000000000000000000000000000020000000000000000000000000",
  "miner": "0x7014f43c5bc7f7f3b4fbdf1599e5e1394548607a",
  "mixHash": "0x21709d6dceab3d23da916ddb6c4885c49cd1e83c4afdf5b394692b75bdb6d372",
  "nonce": "0x0000000000000000",
  "number": "0xa",
  "parentHash": "0xce307afe4415ebb91952e21d3c89d5ca99225ec25b29e1e0739334f1f8d7bbc7",
  "receiptsRoot": "0x05e435ff13a02febe2b94d3d576aaee0cfbd49c38122a0895f59f5d102da6cbf",
  "sha3Uncles": "0x1dcc4de8dec75d7aab85b567b6ccd41ad312451b948a7413f0a142fd40d49347",
  "stateRoot": "0x092748104d3e2f69fa09ee2c522a7a3ab37ff96b3a7e7192eda12bf9b1452589",
  "timestamp": "0x64",
  "totalDifficulty": "0x1",
  "transactionsRoot": "0xbf876c5c5cee84899d9950903b7645ee5515b1698fc6ecc24472a5443c37a45d"
}