{
  "baseFeePerGas": "0xfdc7303",
  "difficulty": "0x1",
  "extraData": "0xf9024ca00000000000000000000000000000000000000000000000000000000000000000b841a73f32d3e8fde699a60c5377b1f58be65efda9bbf127169f6e43928b85e5271e686932640d891f76a96ab8bdcf611e5663124614425c7c20cbeb6b5862b1b91f0080f86301b860b291428e0018910f6a82cd62baf5abf341d1472cecf4dcc9b26848ac06e4336ad0084632bc6a9f28258f22c7e96facd30787052809a43fe55651608747c830c02d5df86a53c1812541ad7646249c1a49f7e2db2e47654ed32d34ac2993612266f86301b8608c9c1e2295ce9d4b6950c43ec46d81a12068fb24d131cd44733822f6a1c7247f9c3c4bd536d5b2a250df1211f8b8b8b71110f79be724d3d0ca002fe6c92d5eb638e2c3fb19ab1a1f43e1eccb86aeb9b318f34c84d276c00edb07539967e15bd780f86301b8608ae78c82385e6d12d5583a8d508127621b6a1967e97f04961db5e5a9401ffbe7e8e60b93fde819bed129c822d261c7bd0532e47cb7b310649d0061aeedf8880938a15647d7cdf622342cac1022a4adca85bb0676871ac11521cb723f5af8b99df86301b860ad2df9ccbe9ee4bd52f025c996b7569d2bbf965600008c9ba8f21c96535ebf30837180d385be2e67c5be2c3bf470139808e26d04e49b8b595d5c1c9cf282e654342f44b52439c59c7f61099fd8c560dd132850c29316d9e8db4701a4af83ffdef850dad9947014f43c5bc7f7f3b4fbdf1599e5e1394548607a831d2108c180f1b0b1ae18fdcbcc6a80d7a0c4cfec1a04bc1bee78e519eaadd689108077d946e0849a2c30ac96462be32023f34ca67ebcf601",
  "fees": null,
  "gasLimit": "0x47e7c4",
  "gasUsed": "0x5208",
  "hash": "0x255293fb11327ed1dd5a4282cdd696b5db9d36785e8b107100664e997170d3c1",
  "logsBloom": "0x00000000000000000000000000000000000000000000000000000000000000000000000000000000000000000000000000000000000000000000000000000000000000000000000000000000000000000000000000000000000000000000000000000000000000000000000000000000000000000000000000000000000000000000000000000000000000000000000000000000000000000000000000000000000000000000000000000000000000000000000000000000000000000000000000000000000000000000000000000000000000000000000000000000000000000000000000000000000000000000000000000000000000000000000000000000",
  "miner": "0x7014f43c5bc7f7f3b4fbdf1599e5e1394548607a",
  "minerNodeId": "0x",
  "minerNodeSig": "0x",
  "mixHash": "0x21709d6dceab3d23da916ddb6c4885c49cd1e83c4afdf5b394692b75bdb6d372",
  "nonce": "0x0000000000000000",
  "number": "0xa",
  "parentHash": "0x5fc376ef345afa0d08ffe5e38c1319a17160ab6588e129ed1efa8d841e4ee6cd",
  "receiptsRoot": "0x056b23fbba480696b65fe5a59b8f2148a1299103c4f57df839233af2cf4ca2d2",
  "rewards": "0x",
  "sha3Uncles": "0x1dcc4de8dec75d7aab85b567b6ccd41ad312451b948a7413f0a142fd40d49347",
  "stateRoot": "0x4204d9ca29070bd9fa68d000a87a1ccc1a3506c52ebb06b5ad7e3b0d6bd5ebb6",
  "timestamp": "0x64",
  "totalDifficulty": "0x1",
  "transactionsRoot": "0xb0893d21a4a44dc26a962a6e91abae66df87fb61ac9c60e936aee89c76331445"
}