{
  "baseFeePerGas": "0x48c27395000",
  "difficulty": "0x1",
  "extraData": "0xf90252a00000000000000000000000000000000000000000000000000000000000000000b841a73f32d3e8fde699a60c5377b1f58be65efda9bbf127169f6e43928b85e5271e686932640d891f76a96ab8bdcf611e5663124614425c7c20cbeb6b5862b1b91f0080f86301b860a8886079c3b65cc85d822056e8e2d0fd6657a10e94f320dcec18c87ca67b9654e3186a676e941b3514840ce9f9168fea18218558d5322a5c5a5dd967fabfe163816135cbe39fd54a86c94f5e5055d79181c2aef1d6e2c90c5bdaff841f29f535f86301b8608bcfe03f5737a3a28a1797f5534240f5be31c567718dac727854ba9bb0f554f91fe36b70d0b6c00948b25b0a7ab9e13605d881de6c0b6d1ad012a715fe6767cd02eaa19a9e422b99fcd831020f9c24cd5a79fbec2ef01e3c4c11e3ab06a39da280f86301b8608c752e33202e7693a118f352191479743dd0f799663e027349be8d3514d96357e2aa02a64a83a9ca01daecb9b6dc11b615b561983ec18d40534ca2d054e29dd0a0347b775e51df9885b2408e3e1a561446864797da4914704333212b2bc6c848f86301b8608487c97961fe7d971288fcc8c53ea0cf628c65cbd66dae5809441e8c0fdc7314eb874465cafb58e349ce6db7a1c18e070950b8a029214c03f31e297446cfd5485ecaf770ac42f4b89cf01b06aabb07deb89439a8daa1b81ef504a8162f09d0bf86048c27395000f84fdad9947014f43c5bc7f7f3b4fbdf1599e5e1394548607a831d2108c180f1b0b1ae18fdcbcc6a80d7a0c4cfec1a04bc1bee78e519eaadd689108077d946e0849a2c30ac96462be32023f34ca67ebcf6",
  "gasLimit": "0x47e7c4",
  "gasUsed": "0x5208",
  "hash": "0x3d5690d8d96b722f9ca29dbcbcaceafcbe7595474d6baa4820488b7c6e45ff50",
  "logsBloom": "0x00000000000000000000000000000000000000000000000000000000000080000000000000000000000000000000000000800000000000000000000000000000000000000000000001000008000000002000000000000000000080000020000000000020000000000000000000000802000000000000000000000010000000000000000000000000000000000000000000000400000000000000000000000000000000000000000000000000000000000000000000000000000000000000000000000002000000000000800000000000000000000000000000000000000000000000000000000000000000000000000000000020000000000000000000000000",
  "miner": "0x7014f43c5bc7f7f3b4fbdf1599e5e1394548607a",
  "mixHash": "0x21709d6dceab3d23da916ddb6c4885c49cd1e83c4afdf5b394692b75bdb6d372",
  "nonce": "0x0000000000000000",
  "number": "0xa",
  "parentHash": "0xd5db1859254f6d61df6a06869bda8cfd7dd1f3c4c7ca65a93f1584c3bd211807",
  "receiptsRoot": "0x05e435ff13a02febe2b94d3d576aaee0cfbd49c38122a0895f59f5d102da6cbf",
  "sha3Uncles": "0x1dcc4de8dec75d7aab85b567b6ccd41ad312451b948a7413f0a142fd40d49347",
  "stateRoot": "0x09f36dba0718b9fd5f48710b72f7e9dcf2c5267576fe90628955e8a84eb4c64b",
  "timestamp": "0x64",
  "totalDifficulty": "0x1",
  "transactionsRoot": "0xbf876c5c5cee84899d9950903b7645ee5515b1698fc6ecc24472a5443c37a45d"
}