{
  "baseFeePerGas": "0xfdc7303",
  "difficulty": "0x1",
  "extraData": "0xf9014da00000000000000000000000000000000000000000000000000000000000000000d5947014f43c5bc7f7f3b4fbdf1599e5e1394548607ac080f843b8417a0652860aad370848f5da9f28e04c0ca22bf9b090483c42bd156746024073e03be3f60ee0cb6fedaf204aba226ad9af914b943c3cc5f6735a8636515062bd7701f843b8414fb09d993b266d68e8955f96d9e60eb5aad016c1d2fbf0d268466002721179bd518a05763d2f68bbb44458ce39b8fbc459b9a0b31c475df98d26af62a93a341500f843b841f5d826790779e4d294ccaecb08a2c8cc0ddec1aa8bd286b5c2fa34e5f97c92c41c3cbb5695c4105be18260d36421ddadf6135bc14663a14c04fcf604643dc75800f843b8415501113d5334763e8505e442d347228ab3f86e32a3b5d2a7168f438040c83e3815ef78b4e3a9a8d9f4d19c5a2143a277d23d108744ef0722468b673b49a39af600",
  "gasLimit": "0x47e7c4",
  "gasUsed": "0x5208",
  "hash": "0xd7c8cfe221e4e4edde2fe329e36e28cbd284f149cdc5c16dab13c8075f125e7a",
  "logsBloom": "0x00000000000000000000000000000000000000000000000000000000000000000000000000000000000000000000000000000000000000000000000000000000000000000000000000000000000000000000000000000000000000000000000000000000000000000000000000000000000000000000000000000000000000000000000000000000000000000000000000000000000000000000000000000000000000000000000000000000000000000000000000000000000000000000000000000000000000000000000000000000000000000000000000000000000000000000000000000000000000000000000000000000000000000000000000000000",
  "miner": "0x7014f43c5bc7f7f3b4fbdf1599e5e1394548607a",
  "mixHash": "0x0000000000000000000000000000000000000000000000000000000000000000",
  "nonce": "0x0000000000000000",
  "number": "0xa",
  "parentHash": "0x4e2352d9be01ebe4acb20e197f99e391b2c8bdd64c841cb5137ce7349012a647",
  "receiptsRoot": "0x056b23fbba480696b65fe5a59b8f2148a1299103c4f57df839233af2cf4ca2d2",
  "sha3Uncles": "0x1dcc4de8dec75d7aab85b567b6ccd41ad312451b948a7413f0a142fd40d49347",
  "stateRoot": "0x55557ef117539451fdc6f5f1d3b5feb624db644c2a535fff1af241a3c8766053",
  "timestamp": "0x64",
  "totalDifficulty": "0x1",
  "transactionsRoot": "0xb0893d21a4a44dc26a962a6e91abae66df87fb61ac9c60e936aee89c76331445",
  "fees": null,
  "minerNodeId": "0x",
  "minerNodeSig": "0x",
  "rewards": "0x"
}