{
  "baseFeePerGas": "0xfdc7303",
  "difficulty": "0x1",
  "extraData": "0xf9024ba00000000000000000000000000000000000000000000000000000000000000000b841a73f32d3e8fde699a60c5377b1f58be65efda9bbf127169f6e43928b85e5271e686932640d891f76a96ab8bdcf611e5663124614425c7c20cbeb6b5862b1b91f0080f86301b86091d225a4262dd4f81efff49d1716e0cc8431d1abe5334664e90b8bc64dc3fe5744a1debd7ec0ee71ba67c21f1c8e7fbb10bd7c81e15a4bdbcceb885c0758c445abd4ea6bc2fcfa5fc36aa797fe4619a10f404d2e88824b5dc48d59d660395319f86301b86097049791a25f6c91093eba631480949b086b2e49993783feb0a77e240879374d6abfa3c23eea1736da6e83f447f9e39c0756d9feaf4251500f34cc1a50b10c852cd17536042ca9547b9324e635e614c215adc9f28affe598f9348102ce99027280f86301b860a19af9b4613bd659fd40aec69f6ecb461c98cd2f80a89c96925cd2409752f1b33f494c876b34ebaf65e51f3a32c9a48a16d90282e4c00684eae8c9678e15a65ab9f11c6b6e0d6071211e238a1df41422ad8939d429eb0d7a3f53bdea49988d3ef86301b860afbf581d76b085ada5dd2319da1cd79fbc190ea303e40eeab17f66e5237c3e4590747d182d1e805abd9e9664e4e895dd1478bbf53805f9d17a7eff6d0f138323ae3185a8d385d2bb40ed224f20a1ead70fb275b241b8372399e8446289339b5ef84fdad9947014f43c5bc7f7f3b4fbdf1599e5e1394548607a831d2108c180f1b0b1ae18fdcbcc6a80d7a0c4cfec1a04bc1bee78e519eaadd689108077d946e0849a2c30ac96462be32023f34ca67ebcf6",
  "gasLimit": "0x47e7c4",
  "gasUsed": "0x5208",
  "hash": "0x17c70982307cae9fac50519441d8503f7a7991e9a36f78c9831a06eff8a64fce",
  "logsBloom": "0x00000000000000000000000000000000000000000000000000000000000080000000000000000000000000000000000000800000000000000000000000000000000000000000000001000008000000002000000000000000000080000020000000000020000000000000000000000802000000000000000000000010000000000000000000000000000000000000000000000400000000000000000000000000000000000000000000000000000000000000000000000000000000000000000000000002000000000000800000000000000000000000000000000000000000000000000000000000000000000000000000000020000000000000000000000000",
  "miner": "0x7014f43c5bc7f7f3b4fbdf1599e5e1394548607a",
  "mixHash": "0x21709d6dceab3d23da916ddb6c4885c49cd1e83c4afdf5b394692b75bdb6d372",
  "nonce": "0x0000000000000000",
  "number": "0xa",
  "parentHash": "0x984ef52b722d2a3a8fe1713127d755c11c1a62fba249a848b80b11c62b82fae1",
  "receiptsRoot": "0xae00a0d2c8fc5d95d529a541cd9813e903808688534123c346256f50618c5347",
  "sha3Uncles": "0x1dcc4de8dec75d7aab85b567b6ccd41ad312451b948a7413f0a142fd40d49347",
  "size": "0x4b7",
  "stateRoot": "0xb98ab8a7182078b5d36b282eb991b57f507368a77ce2cb7f332ff3713f1fa4ea",
  "timestamp": "0x64",
  "totalDifficulty": "0x1",
  "transactions": [
    "0x3ee4094ca1e0b07a66dd616a057e081e53144ca7e9685a126fd4dda9ca042644"
  ],
  "transactionsRoot": "0xb0893d21a4a44dc26a962a6e91abae66df87fb61ac9c60e936aee89c76331445",
  "uncles": []
}