{
  "baseFeePerGas": "0xfdc7303",
  "difficulty": "0x1",
  "extraData": "0xf90209a0000000000000000000000000000000000000000000000000000000000000000080f86301b860b79efa973288c0b1943c50a685dba9e06ae024101a72299884668ec3794488ce572d96ca7de670aa740723345178541505517e50ba6fdcc529b5651bd1be7233be82c42be2f28b5c738be4f8689f5b189c62869884922ac170e2fb467ec82578f86301b860a11508c7e4ca7f6c37391e7c80b4d68be7017148fdca80de9d2dd672356ce680d7cec7a966a59caaf143f6423111cf1f1015e9e46500530d9921df53952f6ab723d773339b306e0bc59d4fef3ba8a014d1cdf3af7d7bdce8b129caf24e12455a80f86301b860aeaf9ae3a3288ef0d1356a53e4542c920772195647d25b8e17e5c0054ad941df50c820777ddb213bcf7980d2f46e7b28178550d672c2f8a4962faf0f7d094a8b9f9b40121649e98ebec39fbf3fa2fe673de633a46571a3a432181ec2b28611aef86301b860b44d048bfc3cf04aa26b68d8ffbf3ec7db2dbde50f335f1cd703a69157dcb12fa14a0a2e197616617e3127734181044d0a600b06829195e8bbf4e4550617159f21aa5d0a0140603cafda0a86ef5017508a53ff9378b23f9a3cfd51f3ef0e172ef850dad9947014f43c5bc7f7f3b4fbdf1599e5e1394548607a831d2108c180f1b0b1ae18fdcbcc6a80d7a0c4cfec1a04bc1bee78e519eaadd689108077d946e0849a2c30ac96462be32023f34ca67ebcf601",
  "fees": null,
  "gasLimit": "0x47e7c4",
  "gasUsed": "0x5208",
  "hash": "0xd4d600eb4a7ee65bbd5cf68015d405f47992f1ed6faea9529920d9ffcbe3721f",
  "logsBloom": "0x00000000000000000000000000000000000000000000000000000000000000000000000000000000000000000000000000000000000000000000000000000000000000000000000000000000000000000000000000000000000000000000000000000000000000000000000000000000000000000000000000000000000000000000000000000000000000000000000000000000000000000000000000000000000000000000000000000000000000000000000000000000000000000000000000000000000000000000000000000000000000000000000000000000000000000000000000000000000000000000000000000000000000000000000000000000",
  "miner": "0x7014f43c5bc7f7f3b4fbdf1599e5e1394548607a",
  "minerNodeId": "0x",
  "minerNodeSig": "0x",
  "mixHash": "0x0000000000000000000000000000000000000000000000000000000000000000",
  "nonce": "0x0000000000000000",
  "number": "0xa",
  "parentHash": "0x5fbcb49da8ec463e80feb4aeb68e7bcc2a1079cbf078a5cfbdff930397e0f6e7",
  "receiptsRoot": "0x056b23fbba480696b65fe5a59b8f2148a1299103c4f57df839233af2cf4ca2d2",
  "rewards": "0x",
  "sha3Uncles": "0x1dcc4de8dec75d7aab85b567b6ccd41ad312451b948a7413f0a142fd40d49347",
  "stateRoot": "0xe3c8f2936536df95980bf5e44319aeb995f2c2f72db49c5f87b6a057835b90b0",
  "timestamp": "0x64",
  "totalDifficulty": "0x1",
  "transactionsRoot": "0xb0893d21a4a44dc26a962a6e91abae66df87fb61ac9c60e936aee89c76331445"
}