{
  "baseFeePerGas": "0x48c27395000",
  "difficulty": "0x1",
  "extraData": "0xf90252a00000000000000000000000000000000000000000000000000000000000000000b841a73f32d3e8fde699a60c5377b1f58be65efda9bbf127169f6e43928b85e5271e686932640d891f76a96ab8bdcf611e5663124614425c7c20cbeb6b5862b1b91f0080f86301b8609610cbe01b2b54d209f827924e93a3fb8bb5eaa100a6aeae97199185e3c74b957906410fd0accce789cdab7db86fa93603b7784721d982a555f4eaf826e172b955f98b718138a1712446a33b6cecdf686c366664d8bf046e41fc59ffdd68a05cf86301b860b8b34b582f4290763d51d887015408cc4716396dad8d3c74655b4909a0367f4553007973226765c256c02bea4637c23505c4d5cf7cf996d10d5230c32e7b13e9573ebcc3ae886abe4ac45a4ba13501a1ffbeedb9b31303c45007de00f56c0d6780f86301b86092b5a8c29ae271637c7428d0975b7cebcc5389edd53099e71ce248b49246e93d20df82f42e54faa5c26300a31dd0c13f19ae7032e49f1fae90b4bbe0905988a9b1af4eaf146f9955c02f8d231a2781bb8f6ad905171ba4b5e1e8ad4ba8f12681f86301b860910a3c9d5867dfb9b660e95d7f882a0e81d8f0e95eec35dc37190418822b276b60eecb68f53d6639a42d61d654d79bf00c3c8a867bca669d610d5f7ab761686b34c566ac83651c7be4ccc39d92025c8e182bb51fa2ff437e8f996f1d972149b4f84fdad9947014f43c5bc7f7f3b4fbdf1599e5e1394548607a831d2108c180f1b0b1ae18fdcbcc6a80d7a0c4cfec1a04bc1bee78e519eaadd689108077d946e0849a2c30ac96462be32023f34ca67ebcf686048c27395000",
  "gasLimit": "0x47e7c4",
  "gasUsed": "0x5208",
  "hash": "0x5ee8a3a2d9773704243ffac5ed486c247fcd6551c3b75dccbbf45570344fd714",
  "logsBloom": "0x00000000000000000000000000000000000000000000000000000000000080000000000000000000000000000000000000800000000000000000000000000000000000000000000001000008000000002000000000000000000080000020000000000020000000000000000000000802000000000000000000000010000000000000000000000000000000000000000000000400000000000000000000000000000000000000000000000000000000000000000000000000000000000000000000000002000000000000800000000000000000000000000000000000000000000000000000000000000000000000000000000020000000000000000000000000",
  "miner": "0x7014f43c5bc7f7f3b4fbdf1599e5e1394548607a",
  "mixHash": "0x21709d6dceab3d23da916ddb6c4885c49cd1e83c4afdf5b394692b75bdb6d372",
  "nonce": "0x0000000000000000",
  "number": "0xa",
  "parentHash": "0x82120a0655d4a01980fac305a3d8cc9d86d6314048def4e619a3ba076df7b77a",
  "receiptsRoot": "0x05e435ff13a02febe2b94d3d576aaee0cfbd49c38122a0895f59f5d102da6cbf",
  "sha3Uncles": "0x1dcc4de8dec75d7aab85b567b6ccd41ad312451b948a7413f0a142fd40d49347",
  "stateRoot": "0x9c066c5005a29a9c0b9dc27d45bec57807cabdf0e5ea87cae3b603cfe4871c51",
  "timestamp": "0x64",
  "totalDifficulty": "0x1",
  "transactionsRoot": "0xbf876c5c5cee84899d9950903b7645ee5515b1698fc6ecc24472a5443c37a45d"
}