{
  "config": {
    "chainId": 3503995874084926,
    "homesteadBlock": 0,
    "eip150Block": 0,
    "eip155Block": 0,
    "eip158Block": 0,
    "byzantiumBlock": 0,
    "constantinopleBlock": 0,
    "petersburgBlock": 0,
    "istanbulBlock": 0,
    "muirGlacierBlock": 0,
    "berlinBlock": 0,
    "londonBlock": 0,
    "arrowGlacierBlock": 0,
    "grayGlacierBlock": 0,
    "pangyoBlock": 0,
    "applepieBlock": 0,
    "briocheBlock": 0,
    "montBlancBlock": 0,
    "ethash": {},
    "brioche": {
      "blockReward": 1000000000000000000,
      "firstHalvingBlock": 50,
      "halvingPeriod": 50,
      "finishRewardBlock": 450,
      "halvingTimes": 8,
      "halvingRate": 50
    },
    "montBlanc": {
      "wBFT": {
        "requestTimeoutSeconds": 2,
        "blockPeriodSeconds": 1,
        "proposerPolicy": 0,
        "epochLength": 10,
        "blockReward": "0xde0b6b3a7640000",
        "targetValidators": 0,
        "maxRequestTimeoutSeconds": null,
        "stabilizingStakersThreshold": 1,
        "useNCP": false
      },
      "init": {
        "validators": [
          "0xea9a4c72166bf3048fddf40bf804a72dceeacf54"
        ],
        "blsPublicKeys": [
          "0xae4f62c019cdfecc11dd595d3a8f3e13eb59b3490dabfe533a67631084e5f3e57a313803353680fa30d87a8ce27282da"
        ],
        "govContracts": {
          "govConfig": {
            "address": "0x0000000000000000000000000000000000001000",
            "version": "v1",
            "params": {
              "changeFeeDelay": "604800",
              "feePrecision": "10000",
              "maximumStaking": "100000000000000000000000000",
              "minimumStaking": "10000000000000000000000000",
              "unbondingPeriodDelegator": "259200",
              "unbondingPeriodStaker": "604800"
            }
          },
          "govStaking": {
            "address": "0x0000000000000000000000000000000000001001",
            "version": "v1",
            "params": null
          },
          "govRewardeeImp": {
            "address": "0x0000000000000000000000000000000000001002",
            "version": "v1",
            "params": null
          },
          "govNCP": null
        }
      },
      "upgrades": null
    }
  },
  "nonce": "0x0",
  "timestamp": "0x0",
  "extraData": "0xf8598080c0c080c0c0f850dad994ea9a4c72166bf3048fddf40bf804a72dceeacf54831cfde0c180f1b0ae4f62c019cdfecc11dd595d3a8f3e13eb59b3490dabfe533a67631084e5f3e57a313803353680fa30d87a8ce27282da01",
  "gasLimit": "0x23f3e20",
  "difficulty": "0x1",
  "mixHash": "0x0000000000000000000000000000000000000000000000000000000000000000",
  "coinbase": "0x0000000000000000000000000000000000000000",
  "alloc": {
    "0000000000000000000000000000000000001000": {
      "code": "0x6080604052348015600f57600080fd5b506004361060735760003560e01c80634dbd834d1160545780634dbd834d1460a3578063d479ed711460ab578063ea3e16f61460b3578063f6e19bff1460bb57600080fd5b806335ff1e281460785780633e9e0ade146093578063478b665314609b575b600080fd5b608060045481565b6040519081526020015b60405180910390f35b608060055481565b608060015481565b608060035481565b608060005481565b608060025481565b60065460cd906001600160a01b031681565b6040516001600160a01b039091168152602001608a56fea2646970667358221220b33f97fb12802a9588c71fb642dd9c00f6eac5d373744731758d086fc3fa475d64736f6c634300080e0033",
      "storage": {
        "0x0000000000000000000000000000000000000000000000000000000000000000": "0x000000000000000000000000000000000000000000084595161401484a000000",
        "0x0000000000000000000000000000000000000000000000000000000000000001": "0x00000000000000000000000000000000000000000052b7d2dcc80cd2e4000000",
        "0x0000000000000000000000000000000000000000000000000000000000000002": "0x0000000000000000000000000000000000000000000000000000000000093a80",
        "0x0000000000000000000000000000000000000000000000000000000000000003": "0x000000000000000000000000000000000000000000000000000000000003f480",
        "0x0000000000000000000000000000000000000000000000000000000000000004": "0x0000000000000000000000000000000000000000000000000000000000002710",
        "0x0000000000000000000000000000000000000000000000000000000000000005": "0x0000000000000000000000000000000000000000000000000000000000093a80"
      },
      "balance": "0x0"
    },
    "0000000000000000000000000000000000001001": {
      "code": "0x608060405260043610620001f75760003560e01c80635748f6f3116200010b57806392fd2daf11620000a1578063beddc4b7116200006c578063beddc4b71462000766578063dd208f5c1462000788578063e86d059e146200079f578063fed1252a14620007e157600080fd5b806392fd2daf14620006b85780639dbccf6a14620006dd578063a694fc3a1462000717578063ad72eae2146200072e57600080fd5b80636f1e853311620000e25780636f1e8533146200060957806375b29e7e146200062e5780638280a25a146200067c5780638ed86b84146200069357600080fd5b80635748f6f3146200051f5780636699364614620005375780636d70f7ae14620005b957600080fd5b80632e1a7d4d116200018d57806343e347a7116200015857806343e347a714620004775780634d99dd1614620004995780634e745f1f14620004be5780634fe4c10a14620004fa57600080fd5b80632e1a7d4d14620003f357806339ba728314620004185780633d6aa5e1146200043057806341bd370b146200045257600080fd5b8063165defa411620001ce578063165defa4146200033e578063236040711462000356578063264ebc38146200037b5780632e17de7814620003ce57600080fd5b8063026e402b146200028857806303cb278a146200029f578063073ea6ae146200030a57600080fd5b3662000283573360009081526007602052604090205462000221906001600160a01b031662000808565b620002815760405162461bcd60e51b815260206004820152602560248201527f6f6e6c7920616e206163746976652072657761726465652063616e2073656e646044820152641031b7b4b760d91b60648201526084015b60405180910390fd5b005b600080fd5b620002816200029936600462003f4f565b6200081d565b348015620002ac57600080fd5b50620002ea620002be36600462003f4f565b600860209081526000928352604080842090915290825290208054600182015460029092015490919083565b604080519384526020840192909252908201526060015b60405180910390f35b3480156200031757600080fd5b506200032f6200032936600462003f7e565b62000b25565b60405190815260200162000301565b3480156200034b57600080fd5b506200032f60025481565b3480156200036357600080fd5b50620002816200037536600462003f7e565b62000b5f565b3480156200038857600080fd5b50620003b56200039a36600462003f7e565b6007602052600090815260409020546001600160a01b031681565b6040516001600160a01b03909116815260200162000301565b348015620003db57600080fd5b5062000281620003ed36600462003f9e565b62000da4565b3480156200040057600080fd5b50620002816200041236600462003f9e565b62001203565b3480156200042557600080fd5b506200032f600c5481565b3480156200043d57600080fd5b506200032f6b033b2e3c9fd0803ce800000081565b3480156200045f57600080fd5b50620002816200047136600462003f9e565b62001640565b3480156200048457600080fd5b50600054620003b5906001600160a01b031681565b348015620004a657600080fd5b5062000281620004b836600462003f4f565b62001a0f565b348015620004cb57600080fd5b50620004e3620004dd36600462003f7e565b62001e02565b604051620003019998979695949392919062004008565b3480156200050757600080fd5b50620002816200051936600462003f7e565b62001ee9565b3480156200052c57600080fd5b506200032f62002222565b3480156200054457600080fd5b50620005906200055636600462004070565b600b602090815260009283526040808420909152908252902080546001820154600283015460038401546004909401549293919290919085565b604080519586526020860194909452928401919091526060830152608082015260a00162000301565b348015620005c657600080fd5b50620005f8620005d836600462003f7e565b6001600160a01b0390811660009081526006602052604090205416151590565b604051901515815260200162000301565b3480156200061657600080fd5b50620005f86200062836600462003f7e565b62000808565b3480156200063b57600080fd5b50620006666200064d36600462003f7e565b600a602052600090815260409020805460019091015482565b6040805192835260208301919091520162000301565b3480156200068957600080fd5b506200032f603081565b348015620006a057600080fd5b5062000281620006b236600462003f7e565b62002235565b348015620006c557600080fd5b5062000281620006d7366004620040bd565b620024fd565b348015620006ea57600080fd5b50620003b5620006fc36600462003f7e565b6006602052600090815260409020546001600160a01b031681565b620002816200072836600462003f9e565b620029c0565b3480156200073b57600080fd5b50620006666200074d36600462003f7e565b6009602052600090815260409020805460019091015482565b3480156200077357600080fd5b50600154620003b5906001600160a01b031681565b620002816200079936600462004106565b62002d0c565b348015620007ac57600080fd5b506200032f620007be36600462003f7e565b6001600160a01b03166000908152600b6020908152604080832090915290205490565b348015620007ee57600080fd5b50620007f9620032da565b604051620003019190620041fe565b600062000817600383620032e8565b92915050565b6001600160a01b03808316600090815260056020526040902054839116620008595760405162461bcd60e51b815260040162000278906200424d565b62000866600382620032e8565b620008855760405162461bcd60e51b815260040162000278906200427a565b81803414620008a85760405162461bcd60e51b81526004016200027890620042a6565b604080516001600160a01b038616602082015290810184905263026e402b60e01b9060600160405160208183030381529060405260008060009054906101000a90046001600160a01b03166001600160a01b031663f6e19bff6040518163ffffffff1660e01b8152600401602060405180830381865afa15801562000931573d6000803e3d6000fd5b505050506040513d601f19601f82011682018060405250810190620009579190620042dd565b90506001600160a01b03811615620009fe5760405163df35f56d60e01b81526001600160a01b0382169063df35f56d906200099b90869033908790600401620042fd565b602060405180830381865afa158015620009b9573d6000803e3d6000fd5b505050506040513d601f19601f82011682018060405250810190620009df91906200433c565b620009fe5760405162461bcd60e51b815260040162000278906200435c565b6001600160a01b038716330362000a585760405162461bcd60e51b815260206004820152601e60248201527f7374616b65722063616e6e6f742064656c656761746520746f2073656c660000604482015260640162000278565b6001600160a01b0380881660009081526005602052604090205416330362000ac35760405162461bcd60e51b815260206004820181905260248201527f6f70657261746f722063616e6e6f742064656c656761746520746f2073656c66604482015260640162000278565b62000acf87336200330d565b62000adc87338862003766565b6040518681526001600160a01b0388169033907fe5541a6b6103d4fa7e021ed54fad39c66f27a76bd13d374cf6240ae6bd0bb72b9060200160405180910390a350505050505050565b6001600160a01b0381166000908152600b6020908152604080832082528083205460059283905290832090910154620008179190620043b4565b336000908152600660209081526040808320546001600160a01b03908116808552600590935292205490911662000baa5760405162461bcd60e51b815260040162000278906200424d565b604080516001600160a01b0384166020820152632360407160e01b910160405160208183030381529060405260008060009054906101000a90046001600160a01b03166001600160a01b031663f6e19bff6040518163ffffffff1660e01b8152600401602060405180830381865afa15801562000c2b573d6000803e3d6000fd5b505050506040513d601f19601f8201168201806040525081019062000c519190620042dd565b90506001600160a01b0381161562000cf85760405163df35f56d60e01b81526001600160a01b0382169063df35f56d9062000c9590869033908790600401620042fd565b602060405180830381865afa15801562000cb3573d6000803e3d6000fd5b505050506040513d601f19601f8201168201806040525081019062000cd991906200433c565b62000cf85760405162461bcd60e51b815260040162000278906200435c565b6001600160a01b03851662000d215760405162461bcd60e51b81526004016200027890620043ce565b336000908152600660209081526040808320546001600160a01b03908116808552600584529382902060020180548a83166001600160a01b031982168117909255835192168083529382015283917ff1dbd322e431f00d83a6dbf85d09896187639f7dd04d0a0baeaf298d7e2c4ec591015b60405180910390a250505050505050565b336000908152600660209081526040808320546001600160a01b03908116808552600590935292205490911662000def5760405162461bcd60e51b815260040162000278906200424d565b62000dfc600382620032e8565b62000e1b5760405162461bcd60e51b815260040162000278906200427a565b60408051602081018490526305c2fbcf60e31b910160405160208183030381529060405260008060009054906101000a90046001600160a01b03166001600160a01b031663f6e19bff6040518163ffffffff1660e01b8152600401602060405180830381865afa15801562000e94573d6000803e3d6000fd5b505050506040513d601f19601f8201168201806040525081019062000eba9190620042dd565b90506001600160a01b0381161562000f615760405163df35f56d60e01b81526001600160a01b0382169063df35f56d9062000efe90869033908790600401620042fd565b602060405180830381865afa15801562000f1c573d6000803e3d6000fd5b505050506040513d601f19601f8201168201806040525081019062000f4291906200433c565b62000f615760405162461bcd60e51b815260040162000278906200435c565b6000851162000fa45760405162461bcd60e51b815260206004820152600e60248201526d616d6f756e74206973207a65726f60901b604482015260640162000278565b336000908152600660205260409020546001600160a01b031662000fc981806200330d565b62000fd6818288620038be565b6001600160a01b038082166000908152600b6020908152604080832082528083209254815163d479ed7160e01b815291519394169263d479ed71926004808401939192918290030181865afa15801562001034573d6000803e3d6000fd5b505050506040513d601f19601f820116820180604052508101906200105a9190620043f4565b815410156200114457805415620010cb5760405162461bcd60e51b815260206004820152602e60248201527f616d6f756e74206d75737420657175616c2062616c616e636520746f2064656160448201526d31ba34bb30ba329039ba30b5b2b960911b606482015260840162000278565b620010d860038362003982565b506001600160a01b038216600090815260056020819052604082200154600c8054919290916200110a9084906200440e565b90915550506040516001600160a01b038316907fb97b17a738bc54faf4f156f2072573525abf5a6f9fe4e3f78a2f159d7a85180590600090a25b620011c78760008054906101000a90046001600160a01b03166001600160a01b031663ea3e16f66040518163ffffffff1660e01b8152600401602060405180830381865afa1580156200119b573d6000803e3d6000fd5b505050506040513d601f19601f82011682018060405250810190620011c19190620043f4565b62003999565b816001600160a01b03167f0f5bb82176feb1b5e747e28471aa92156a04d9f3ab9f45f28e2d704232b93f758860405162000d9391815260200190565b6040805160208101839052632e1a7d4d60e01b910160405160208183030381529060405260008060009054906101000a90046001600160a01b03166001600160a01b031663f6e19bff6040518163ffffffff1660e01b8152600401602060405180830381865afa1580156200127c573d6000803e3d6000fd5b505050506040513d601f19601f82011682018060405250810190620012a29190620042dd565b90506001600160a01b03811615620013495760405163df35f56d60e01b81526001600160a01b0382169063df35f56d90620012e690869033908790600401620042fd565b602060405180830381865afa15801562001304573d6000803e3d6000fd5b505050506040513d601f19601f820116820180604052508101906200132a91906200433c565b620013495760405162461bcd60e51b815260040162000278906200435c565b3360009081526009602052604090206001810154815411620013ae5760405162461bcd60e51b815260206004820152601960248201527f6e6f2063726564656e7469616c20746f20776974686472617700000000000000604482015260640162000278565b80548515620014b357858260010154620013c991906200440e565b82549091508111156200141f5760405162461bcd60e51b815260206004820181905260248201527f6f7574206f66206d617820757365722063726564656e7469616c20696e646578604482015260640162000278565b3360009081526008602052604081206001848101544293919062001445908b906200440e565b620014519190620043b4565b8152602001908152602001600020600201541115620014b35760405162461bcd60e51b815260206004820152601b60248201527f7769746864726177616c2074696d65206e6f7420726561636865640000000000604482015260640162000278565b60018201545b818110156200163757336000908152600860209081526040808320848452909152902087158015620014ee5750806002015442105b15620014fb575062001637565b6001840180549060006200150f8362004429565b90915550506001848101548254336000818152600860209081526040808320898452909152808220828155958601829055600290950181905593519293919283908381818185875af1925050503d80600081146200158a576040519150601f19603f3d011682016040523d82523d6000602084013e6200158f565b606091505b5050905080620015e25760405162461bcd60e51b815260206004820181905260248201527f6661696c656420746f2073656e64207769746864726177616c20616d6f756e74604482015260640162000278565b604080518481526020810184905233917f92ccf450a286a957af52509bc1c9939d1a6a481783e142e41e2499f0bb66ebc6910160405180910390a25050505080806200162e9062004429565b915050620014b9565b50505050505050565b336000908152600660209081526040808320546001600160a01b0390811680855260059093529220549091166200168b5760405162461bcd60e51b815260040162000278906200424d565b62001698600382620032e8565b620016b75760405162461bcd60e51b815260040162000278906200427a565b60408051602081018490526341bd370b60e01b910160405160208183030381529060405260008060009054906101000a90046001600160a01b03166001600160a01b031663f6e19bff6040518163ffffffff1660e01b8152600401602060405180830381865afa15801562001730573d6000803e3d6000fd5b505050506040513d601f19601f82011682018060405250810190620017569190620042dd565b90506001600160a01b03811615620017fd5760405163df35f56d60e01b81526001600160a01b0382169063df35f56d906200179a90869033908790600401620042fd565b602060405180830381865afa158015620017b8573d6000803e3d6000fd5b505050506040513d601f19601f82011682018060405250810190620017de91906200433c565b620017fd5760405162461bcd60e51b815260040162000278906200435c565b60008054906101000a90046001600160a01b03166001600160a01b03166335ff1e286040518163ffffffff1660e01b8152600401602060405180830381865afa1580156200184f573d6000803e3d6000fd5b505050506040513d601f19601f82011682018060405250810190620018759190620043f4565b851115620018c65760405162461bcd60e51b815260206004820152601a60248201527f6665652072617465206578636565647320707265636973696f6e000000000000604482015260640162000278565b336000908152600660209081526040808320546001600160a01b0316808452600a9092529091206001015415620019405760405162461bcd60e51b815260206004820152601b60248201527f7265717565737420616c7265616479206973206f6e20676f696e670000000000604482015260640162000278565b6001600160a01b03811660009081526005602052604081206003015490620019688362000b25565b1115620019ae576040805180820182528881524260208083019182526001600160a01b0386166000908152600a90915292909220905181559051600190910155620019cd565b6001600160a01b03821660009081526005602052604090206003018790555b60408051828152602081018990526001600160a01b038416917f4ceabe57088ae1780628bab06acc8e4adffee3a9190c4325dc57b557298782fd910162000d93565b6001600160a01b0380831660009081526005602052604090205483911662001a4b5760405162461bcd60e51b815260040162000278906200424d565b604080516001600160a01b03851660208201529081018390526326ccee8b60e11b9060600160405160208183030381529060405260008060009054906101000a90046001600160a01b03166001600160a01b031663f6e19bff6040518163ffffffff1660e01b8152600401602060405180830381865afa15801562001ad4573d6000803e3d6000fd5b505050506040513d601f19601f8201168201806040525081019062001afa9190620042dd565b90506001600160a01b0381161562001ba15760405163df35f56d60e01b81526001600160a01b0382169063df35f56d9062001b3e90869033908790600401620042fd565b602060405180830381865afa15801562001b5c573d6000803e3d6000fd5b505050506040513d601f19601f8201168201806040525081019062001b8291906200433c565b62001ba15760405162461bcd60e51b815260040162000278906200435c565b6001600160a01b038616330362001bfb5760405162461bcd60e51b815260206004820181905260248201527f7374616b65722063616e6e6f7420756e64656c656761746520746f2073656c66604482015260640162000278565b6001600160a01b0380871660009081526005602052604090205416330362001c715760405162461bcd60e51b815260206004820152602260248201527f6f70657261746f722063616e6e6f7420756e64656c656761746520746f207365604482015261363360f11b606482015260840162000278565b62001c7d86336200330d565b62001c8a863387620038be565b62001c958662000808565b1562001cf85762001cf28560008054906101000a90046001600160a01b03166001600160a01b0316634dbd834d6040518163ffffffff1660e01b8152600401602060405180830381865afa1580156200119b573d6000803e3d6000fd5b62001dba565b84600c600082825462001d0c9190620043b4565b9091555050604051600090339087908381818185875af1925050503d806000811462001d55576040519150601f19603f3d011682016040523d82523d6000602084013e62001d5a565b606091505b505090508062001db85760405162461bcd60e51b815260206004820152602260248201527f6661696c656420746f2073656e6420756e64656c65676174696e6720616d6f756044820152611b9d60f21b606482015260840162000278565b505b6040518581526001600160a01b0387169033907f4d10bd049775c77bd7f255195afba5088028ecb3c7c277d393ccff7934f2f92c9060200160405180910390a3505050505050565b600560205260009081526040902080546001820154600283015460038401546004850180546001600160a01b03958616969486169590931693919262001e489062004445565b80601f016020809104026020016040519081016040528092919081815260200182805462001e769062004445565b801562001ec75780601f1062001e9b5761010080835404028352916020019162001ec7565b820191906000526020600020905b81548152906001019060200180831162001ea957829003601f168201915b5050505050908060050154908060060154908060070154908060080154905089565b336000908152600660209081526040808320546001600160a01b03908116808552600590935292205490911662001f345760405162461bcd60e51b815260040162000278906200424d565b604080516001600160a01b03841660208201526327f2608560e11b910160405160208183030381529060405260008060009054906101000a90046001600160a01b03166001600160a01b031663f6e19bff6040518163ffffffff1660e01b8152600401602060405180830381865afa15801562001fb5573d6000803e3d6000fd5b505050506040513d601f19601f8201168201806040525081019062001fdb9190620042dd565b90506001600160a01b03811615620020825760405163df35f56d60e01b81526001600160a01b0382169063df35f56d906200201f90869033908790600401620042fd565b602060405180830381865afa1580156200203d573d6000803e3d6000fd5b505050506040513d601f19601f820116820180604052508101906200206391906200433c565b620020825760405162461bcd60e51b815260040162000278906200435c565b6001600160a01b038516620020ab5760405162461bcd60e51b81526004016200027890620043ce565b6001600160a01b038581166000908152600660205260409020541615620021325760405162461bcd60e51b815260206004820152603460248201527f6e6577206f70657261746f7220697320616c726561647920726567697374657260448201527332b21030b99037ba3432b91037b832b930ba37b960611b606482015260840162000278565b336000908152600660205260409020546001600160a01b03908116908616819003620021a15760405162461bcd60e51b815260206004820152601760248201527f63616e6e6f74207472616e7366657220746f2073656c66000000000000000000604482015260640162000278565b6001600160a01b0380821660008181526005602090815260408083208054958c166001600160a01b0319968716811790915580845260069092528083208054861685179055338352808320805490951690945592517f74da04524d50c64947f5dd5381ef1a4dca5cba8ed1d816243f9e48aa0b5617ed9190a3505050505050565b600062002230600362003a7e565b905090565b604080516001600160a01b03831660208201526323b61ae160e21b910160405160208183030381529060405260008060009054906101000a90046001600160a01b03166001600160a01b031663f6e19bff6040518163ffffffff1660e01b8152600401602060405180830381865afa158015620022b6573d6000803e3d6000fd5b505050506040513d601f19601f82011682018060405250810190620022dc9190620042dd565b90506001600160a01b03811615620023835760405163df35f56d60e01b81526001600160a01b0382169063df35f56d906200232090869033908790600401620042fd565b602060405180830381865afa1580156200233e573d6000803e3d6000fd5b505050506040513d601f19601f820116820180604052508101906200236491906200433c565b620023835760405162461bcd60e51b815260040162000278906200435c565b6001600160a01b0384166000908152600a6020526040902060010154620023e15760405162461bcd60e51b81526020600482015260116024820152706e6f20726571756573742065786973747360781b604482015260640162000278565b60008054906101000a90046001600160a01b03166001600160a01b0316633e9e0ade6040518163ffffffff1660e01b8152600401602060405180830381865afa15801562002433573d6000803e3d6000fd5b505050506040513d601f19601f82011682018060405250810190620024599190620043f4565b6001600160a01b0385166000908152600a6020526040902060010154620024819042620043b4565b1015620024ea5760405162461bcd60e51b815260206004820152603060248201527f74686520726571756573742063616e6e6f74206265206578656375746564206260448201526f65666f72652064656c61792074696d6560801b606482015260840162000278565b620024f78460006200330d565b50505050565b6001600160a01b03808316600090815260056020526040902054839116620025395760405162461bcd60e51b815260040162000278906200424d565b604080516001600160a01b0385166020820152831515918101919091526392fd2daf60e01b9060600160405160208183030381529060405260008060009054906101000a90046001600160a01b03166001600160a01b031663f6e19bff6040518163ffffffff1660e01b8152600401602060405180830381865afa158015620025c6573d6000803e3d6000fd5b505050506040513d601f19601f82011682018060405250810190620025ec9190620042dd565b90506001600160a01b03811615620026935760405163df35f56d60e01b81526001600160a01b0382169063df35f56d906200263090869033908790600401620042fd565b602060405180830381865afa1580156200264e573d6000803e3d6000fd5b505050506040513d601f19601f820116820180604052508101906200267491906200433c565b620026935760405162461bcd60e51b815260040162000278906200435c565b336000908152600660205260408120546001600160a01b0316620026b85733620026ba565b865b6001600160a01b038089166000908152600b60209081526040808320938516835292905220549091501515806200271857506001600160a01b038088166000908152600b602090815260408083209385168352929052206001015415155b6200275b5760405162461bcd60e51b81526020600482015260126024820152716e6f2072657761726420746f20636c61696d60701b604482015260640162000278565b6001600160a01b038088166000908152600560209081526040808320600b835281842094861684529390915290206200279589846200330d565b600181015460006001600160a01b03858116908c1614620027c557506002820154620027c28183620043b4565b91505b600060018401819055600284015589156200287f57620027e58b62000808565b620028045760405162461bcd60e51b815260040162000278906200427a565b60018401546040516351664d5b60e11b8152306004820152602481018490526001600160a01b039091169063a2cc9ab690604401600060405180830381600087803b1580156200285357600080fd5b505af115801562002868573d6000803e3d6000fd5b50505050620028798b868462003766565b620028e8565b60018401546040516351664d5b60e11b8152336004820152602481018490526001600160a01b039091169063a2cc9ab690604401600060405180830381600087803b158015620028ce57600080fd5b505af1158015620028e3573d6000803e3d6000fd5b505050505b80156200295e5760018401546002850154604051634298434d60e11b81526001600160a01b03918216600482015260248101849052911690638530869a90604401600060405180830381600087803b1580156200294457600080fd5b505af115801562002959573d6000803e3d6000fd5b505050505b60018401546001600160a01b03908116316008860155604080518481528c1515602082015233928e16917f474b676872b832a32b60b6ff2df36847e8fd775f466e7cf289d1a0ab7aaffe4e910160405180910390a35050505050505050505050565b336000908152600660209081526040808320546001600160a01b03908116808552600590935292205490911662002a0b5760405162461bcd60e51b815260040162000278906200424d565b8180341462002a2e5760405162461bcd60e51b81526004016200027890620042a6565b604080516020810185905263534a7e1d60e11b910160405160208183030381529060405260008060009054906101000a90046001600160a01b03166001600160a01b031663f6e19bff6040518163ffffffff1660e01b8152600401602060405180830381865afa15801562002aa7573d6000803e3d6000fd5b505050506040513d601f19601f8201168201806040525081019062002acd9190620042dd565b90506001600160a01b0381161562002b745760405163df35f56d60e01b81526001600160a01b0382169063df35f56d9062002b1190869033908790600401620042fd565b602060405180830381865afa15801562002b2f573d6000803e3d6000fd5b505050506040513d601f19601f8201168201806040525081019062002b5591906200433c565b62002b745760405162461bcd60e51b815260040162000278906200435c565b336000908152600660205260409020546001600160a01b031662002b9981806200330d565b62002ba48162000808565b62002cc35760008054906101000a90046001600160a01b03166001600160a01b031663d479ed716040518163ffffffff1660e01b8152600401602060405180830381865afa15801562002bfb573d6000803e3d6000fd5b505050506040513d601f19601f8201168201806040525081019062002c219190620043f4565b87101562002c7e5760405162461bcd60e51b815260206004820152602360248201527f616d6f756e74206973206c657373207468616e206d696e696d756d207374616b604482015262696e6760e81b606482015260840162000278565b62002c8b60038262003a89565b506001600160a01b038116600090815260056020819052604082200154600c80549192909162002cbd908490620043b4565b90915550505b62002cd081828962003766565b806001600160a01b03167f9e71bc8eea02a63969f509818f2dafb9254532904319f9dbda79b67bd34a5f3d8860405162000d9391815260200190565b6001600160a01b038085166000908152600560205260409020548591161562002d785760405162461bcd60e51b815260206004820152601960248201527f616c72656164792072656769737465726564207374616b657200000000000000604482015260640162000278565b8580341462002d9b5760405162461bcd60e51b81526004016200027890620042a6565b60405163374823d760e21b9062002dbf908990899089908990899060200162004481565b60405160208183030381529060405260008060009054906101000a90046001600160a01b03166001600160a01b031663f6e19bff6040518163ffffffff1660e01b8152600401602060405180830381865afa15801562002e23573d6000803e3d6000fd5b505050506040513d601f19601f8201168201806040525081019062002e499190620042dd565b90506001600160a01b0381161562002ef05760405163df35f56d60e01b81526001600160a01b0382169063df35f56d9062002e8d90869033908790600401620042fd565b602060405180830381865afa15801562002eab573d6000803e3d6000fd5b505050506040513d601f19601f8201168201806040525081019062002ed191906200433c565b62002ef05760405162461bcd60e51b815260040162000278906200435c565b60008054906101000a90046001600160a01b03166001600160a01b031663d479ed716040518163ffffffff1660e01b8152600401602060405180830381865afa15801562002f42573d6000803e3d6000fd5b505050506040513d601f19601f8201168201806040525081019062002f689190620043f4565b8a1015801562002fef575060008054906101000a90046001600160a01b03166001600160a01b031663478b66536040518163ffffffff1660e01b8152600401602060405180830381865afa15801562002fc5573d6000803e3d6000fd5b505050506040513d601f19601f8201168201806040525081019062002feb9190620043f4565b8a11155b6200302d5760405162461bcd60e51b815260206004820152600d60248201526c6f7574206f6620626f756e647360981b604482015260640162000278565b6001600160a01b0389163303620030875760405162461bcd60e51b815260206004820152601960248201527f6f70657261746f722063616e6e6f74206265207374616b657200000000000000604482015260640162000278565b6001600160a01b038916620030b05760405162461bcd60e51b81526004016200027890620043ce565b336000908152600660205260409020546001600160a01b031615620031185760405162461bcd60e51b815260206004820152601e60248201527f6f70657261746f7220697320616c726561647920726567697374657265640000604482015260640162000278565b6001600160a01b038816620031705760405162461bcd60e51b815260206004820152601d60248201527f66656520726563697069656e74206973207a65726f2061646472657373000000604482015260640162000278565b60008054906101000a90046001600160a01b03166001600160a01b03166335ff1e286040518163ffffffff1660e01b8152600401602060405180830381865afa158015620031c2573d6000803e3d6000fd5b505050506040513d601f19601f82011682018060405250810190620031e89190620043f4565b871115620032395760405162461bcd60e51b815260206004820152601a60248201527f6665652072617465206578636565647320707265636973696f6e000000000000604482015260640162000278565b6030865114620032855760405162461bcd60e51b8152602060048201526016602482015275696e76616c696420626c73207075626c6963206b657960501b604482015260640162000278565b60006040518060a001604052808c81526020018b6001600160a01b031681526020018a6001600160a01b03168152602001898152602001888152509050620032cd8162003aa0565b5050505050505050505050565b606062002230600362003cbf565b6001600160a01b038116600090815260018301602052604081205415155b9392505050565b6001600160a01b0382166000908152600560208190526040909120908101541562003629576008810154600182015460009162003354916001600160a01b031631620043b4565b9050600082600501546b033b2e3c9fd0803ce800000083620033779190620044c7565b620033839190620044e9565b9050808360060160008282546200339b91906200440e565b9091555050600054604080516306bfe3c560e31b815290516001600160a01b03909216916335ff1e28916004808201926020929091908290030181865afa158015620033eb573d6000803e3d6000fd5b505050506040513d601f19601f82011682018060405250810190620034119190620043f4565b6003840154620034229083620044c7565b6200342e9190620044e9565b8360070160008282546200344391906200440e565b909155505060018301546001600160a01b0390811680316008860155600585015460068601546007870154604080519384529331602084015292820186905260608201526080810191909152908616907ffbe8b7d19566e22844442fd8f565b742cfa5532230553f133818c8bb886c84ee9060a00160405180910390a26001600160a01b0384161562003626576001600160a01b038086166000908152600b60209081526040808320938816835292905220600381015460068501546b033b2e3c9fd0803ce8000000916200351891620043b4565b8254620035269190620044c7565b620035329190620044e9565b8160010160008282546200354791906200440e565b9091555050600481015460078501546b033b2e3c9fd0803ce8000000916200356f91620043b4565b82546200357d9190620044c7565b620035899190620044e9565b8160020160008282546200359e91906200440e565b909155505060068401546003820181905560078501546004830181905582546001840154600285015460408051938452602084019290925290820152606081019290925260808201526001600160a01b0386811691908816907fc7871c79bab287e5a6d87fe9d0e085c707ecfa60d55493e8ad92956b89af3b9d9060a00160405180910390a3505b50505b6001600160a01b0383166000908152600a602052604090206001015415801590620036f2575060008054906101000a90046001600160a01b03166001600160a01b0316633e9e0ade6040518163ffffffff1660e01b8152600401602060405180830381865afa158015620036a1573d6000803e3d6000fd5b505050506040513d601f19601f82011682018060405250810190620036c79190620043f4565b6001600160a01b0384166000908152600a6020526040902060010154620036ef9042620043b4565b10155b1562003761576001600160a01b0383166000818152600a60209081526040808320805460058452828520600301908155848255600190910193909355915491519182527fbda9217c3e4f8495e5662ad216dacde11b9ea1e945027fbdd43b7817b9d78fe5910160405180910390a25b505050565b6001600160a01b0380841660009081526005602090815260408083209254815163478b665360e01b815291519394169263478b6653926004808401939192918290030181865afa158015620037bf573d6000803e3d6000fd5b505050506040513d601f19601f82011682018060405250810190620037e59190620043f4565b828260050154620037f791906200440e565b11156200383e5760405162461bcd60e51b8152602060048201526014602482015273657863656564656420746865206d6178696d756d60601b604482015260640162000278565b6001600160a01b038085166000908152600b602090815260408083209387168352929052908120600583018054919285926200387c9084906200440e565b9091555050805483908290600090620038979084906200440e565b925050819055508260026000828254620038b291906200440e565b90915550505050505050565b6001600160a01b038084166000908152600560209081526040808320600b835281842094871684529390915290208054831115620039365760405162461bcd60e51b8152602060048201526014602482015273696e73756666696369656e742062616c616e636560601b604482015260640162000278565b82600260008282546200394a9190620043b4565b9250508190555082826005016000828254620039679190620043b4565b9091555050805483908290600090620038b2908490620043b4565b600062003306836001600160a01b03841662003cce565b600060096000336001600160a01b03166001600160a01b03168152602001908152602001600020905060405180606001604052808481526020014281526020018342620039e791906200440e565b9052336000908152600860209081526040808320855484528252808320845181559184015160018301559290920151600290920191909155815490829062003a2f8362004429565b90915550508054604080518581524260208201529081018490523391907f4846f03be8ef87cb6e611b3a3b878a0aadd7c010f3f25707aa472b41de9dc75d9060600160405180910390a3505050565b600062000817825490565b600062003306836001600160a01b03841662003dd2565b6001546040516000916001600160a01b03169062003abe9062003e82565b6001600160a01b039091168152602001604051809103906000f08015801562003aeb573d6000803e3d6000fd5b5060405163189acdbd60e31b81523060048201529091506001600160a01b0382169063c4d66de890602401600060405180830381600087803b15801562003b3157600080fd5b505af115801562003b46573d6000803e3d6000fd5b50505050602082810180516001600160a01b0390811660009081526005845260408082208054336001600160a01b0319918216179091558451841683528183206001018054821688861617905581880151855185168452828420600201805490921690851617905560608701518451841683528183206003015560808701519351909216815220815162003be4936004909201929091019062003e90565b506020808301805133600090815260068452604080822080546001600160a01b039485166001600160a01b03199182161790915584518785168452600790965291208054949092169316929092179091555162003c449060039062003a89565b506020820151825162003c5a9190819062003766565b81602001516001600160a01b03167f29b4f2b2fa8adbe9944df75b6479b945258f7677d74e9a924b2bc8a6198781fa3383856040015186606001518760000151886080015160405162003cb3969594939291906200450c565b60405180910390a25050565b60606000620033068362003e24565b6000818152600183016020526040812054801562003dc757600062003cf5600183620043b4565b855490915060009062003d0b90600190620043b4565b905081811462003d7757600086600001828154811062003d2f5762003d2f6200455c565b906000526020600020015490508087600001848154811062003d555762003d556200455c565b6000918252602080832090910192909255918252600188019052604090208390555b855486908062003d8b5762003d8b62004572565b60019003818190600052602060002001600090559055856001016000868152602001908152602001600020600090556001935050505062000817565b600091505062000817565b600081815260018301602052604081205462003e1b5750815460018181018455600084815260208082209093018490558454848252828601909352604090209190915562000817565b50600062000817565b60608160000180548060200260200160405190810160405280929190818152602001828054801562003e7657602002820191906000526020600020905b81548152602001906001019080831162003e61575b50505050509050919050565b61012f806200458983390190565b82805462003e9e9062004445565b90600052602060002090601f01602090048101928262003ec2576000855562003f0d565b82601f1062003edd57805160ff191683800117855562003f0d565b8280016001018555821562003f0d579182015b8281111562003f0d57825182559160200191906001019062003ef0565b5062003f1b92915062003f1f565b5090565b5b8082111562003f1b576000815560010162003f20565b6001600160a01b038116811462003f4c57600080fd5b50565b6000806040838503121562003f6357600080fd5b823562003f708162003f36565b946020939093013593505050565b60006020828403121562003f9157600080fd5b8135620033068162003f36565b60006020828403121562003fb157600080fd5b5035919050565b6000815180845260005b8181101562003fe05760208185018101518683018201520162003fc2565b8181111562003ff3576000602083870101525b50601f01601f19169290920160200192915050565b6001600160a01b038a811682528981166020830152881660408201526060810187905261012060808201819052600090620040468382018962003fb8565b9150508560a08301528460c08301528360e0830152826101008301529a9950505050505050505050565b600080604083850312156200408457600080fd5b8235620040918162003f36565b91506020830135620040a38162003f36565b809150509250929050565b801515811462003f4c57600080fd5b60008060408385031215620040d157600080fd5b8235620040de8162003f36565b91506020830135620040a381620040ae565b634e487b7160e01b600052604160045260246000fd5b600080600080600060a086880312156200411f57600080fd5b853594506020860135620041338162003f36565b93506040860135620041458162003f36565b925060608601359150608086013567ffffffffffffffff808211156200416a57600080fd5b818801915088601f8301126200417f57600080fd5b813581811115620041945762004194620040f0565b604051601f8201601f19908116603f01168101908382118183101715620041bf57620041bf620040f0565b816040528281528b6020848701011115620041d957600080fd5b8260208601602083013760006020848301015280955050505050509295509295909350565b6020808252825182820181905260009190848201906040850190845b81811015620042415783516001600160a01b0316835292840192918401916001016200421a565b50909695505050505050565b6020808252601390820152723ab73932b3b4b9ba32b932b21039ba30b5b2b960691b604082015260600190565b6020808252601290820152717374616b657220697320696e61637469766560701b604082015260600190565b6020808252601d908201527f616d6f756e7420616e64206d73672e76616c7565206d69736d61746368000000604082015260600190565b600060208284031215620042f057600080fd5b8151620033068162003f36565b6001600160e01b0319841681526001600160a01b0383166020820152606060408201819052600090620043339083018462003fb8565b95945050505050565b6000602082840312156200434f57600080fd5b81516200330681620040ae565b60208082526022908201527f6f7065726174696f6e206e6f74207065726d697474656420627920636f756e636040820152611a5b60f21b606082015260800190565b634e487b7160e01b600052601160045260246000fd5b600082821015620043c957620043c96200439e565b500390565b6020808252600c908201526b7a65726f206164647265737360a01b604082015260600190565b6000602082840312156200440757600080fd5b5051919050565b600082198211156200442457620044246200439e565b500190565b6000600182016200443e576200443e6200439e565b5060010190565b600181811c908216806200445a57607f821691505b6020821081036200447b57634e487b7160e01b600052602260045260246000fd5b50919050565b8581526001600160a01b038581166020830152841660408201526060810183905260a060808201819052600090620044bc9083018462003fb8565b979650505050505050565b6000816000190483118215151615620044e457620044e46200439e565b500290565b6000826200450757634e487b7160e01b600052601260045260246000fd5b500490565b6001600160a01b038781168252868116602083015285166040820152606081018490526080810183905260c060a08201819052600090620045509083018462003fb8565b98975050505050505050565b634e487b7160e01b600052603260045260246000fd5b634e487b7160e01b600052603160045260246000fdfe608060405234801561001057600080fd5b5060405161012f38038061012f83398101604081905261002f91610056565b7f4ef8d65ed4f969898f05d331f7b880c9611386779b412e35e117f26e0983c85d55610086565b60006020828403121561006857600080fd5b81516001600160a01b038116811461007f57600080fd5b9392505050565b609b806100946000396000f3fe608060405236601057600e6013565b005b600e5b6040603c7f4ef8d65ed4f969898f05d331f7b880c9611386779b412e35e117f26e0983c85d5490565b6042565b565b3660008037600080366000845af43d6000803e8080156060573d6000f35b3d6000fdfea2646970667358221220a2f12c3040cc2a5469fe6b19f0e49b052995dfd1b041b5db4aec0ea3370f467d64736f6c634300080e0033a2646970667358221220357a4c72433c23dbd4b55153177ee0396a6b57fc6d2c426d402dadcd47564d1e64736f6c634300080e0033",
      "storage": {
        "0x0000000000000000000000000000000000000000000000000000000000000000": "0x0000000000000000000000000000000000000000000000000000000000001000",
        "0x0000000000000000000000000000000000000000000000000000000000000001": "0x0000000000000000000000000000000000000000000000000000000000001002"
      },
      "balance": "0x0"
    },
    "0000000000000000000000000000000000001002": {
      "code": "0x6080604052600436106100435760003560e01c80637f38ee531461004f5780638530869a1461008b578063a2cc9ab6146100ad578063c4d66de8146100cd57600080fd5b3661004a57005b600080fd5b34801561005b57600080fd5b5060005461006f906001600160a01b031681565b6040516001600160a01b03909116815260200160405180910390f35b34801561009757600080fd5b506100ab6100a636600461071b565b6100ed565b005b3480156100b957600080fd5b506100ab6100c836600461071b565b6104de565b3480156100d957600080fd5b506100ab6100e8366004610747565b610688565b6000546001600160a01b031633146101205760405162461bcd60e51b81526004016101179061076b565b60405180910390fd5b6001600160a01b0382166101465760405162461bcd60e51b8152600401610117906107bd565b600081116101965760405162461bcd60e51b815260206004820152601b60248201527f476f7652657761726465653a20616d6f756e74206973207a65726f00000000006044820152606401610117565b478111156101b65760405162461bcd60e51b815260040161011790610807565b813b8015610421576040516301ffc9a760e01b815263f4f2499160e01b60048201526001600160a01b038416906301ffc9a790602401602060405180830381865afa925050508015610225575060408051601f3d908101601f1916820190925261022291810190610848565b60015b6102a2576000836001600160a01b03168360405160006040518083038185875af1925050503d8060008114610276576040519150601f19603f3d011682016040523d82523d6000602084013e61027b565b606091505b505090508061029c5760405162461bcd60e51b81526004016101179061086a565b50610496565b80156103a757604051630969acb360e01b8152600481018490526001600160a01b03851690630969acb39085906024016000604051808303818588803b1580156102eb57600080fd5b505af1935050505080156102fd575060015b61035e5760405162461bcd60e51b815260206004820152602c60248201527f476f7652657761726465653a2066656520726563697069656e7420636f6e747260448201526b1858dd081c995d995c9d195960a21b6064820152608401610117565b836001600160a01b03167f075a2720282fdf622141dae0b048ef90a21a7e57c134c76912d19d006b3b3f6f8460405161039991815260200190565b60405180910390a250505050565b6000846001600160a01b03168460405160006040518083038185875af1925050503d80600081146103f4576040519150601f19603f3d011682016040523d82523d6000602084013e6103f9565b606091505b505090508061041a5760405162461bcd60e51b81526004016101179061086a565b5050610496565b6000836001600160a01b03168360405160006040518083038185875af1925050503d806000811461046e576040519150601f19603f3d011682016040523d82523d6000602084013e610473565b606091505b50509050806104945760405162461bcd60e51b81526004016101179061086a565b505b826001600160a01b03167f075a2720282fdf622141dae0b048ef90a21a7e57c134c76912d19d006b3b3f6f836040516104d191815260200190565b60405180910390a2505050565b6000546001600160a01b031633146105085760405162461bcd60e51b81526004016101179061076b565b6001600160a01b03821661052e5760405162461bcd60e51b8152600401610117906107bd565b6000811161057e5760405162461bcd60e51b815260206004820152601b60248201527f476f7652657761726465653a20616d6f756e74206973207a65726f00000000006044820152606401610117565b4781111561059e5760405162461bcd60e51b815260040161011790610807565b6000826001600160a01b03168260405160006040518083038185875af1925050503d80600081146105eb576040519150601f19603f3d011682016040523d82523d6000602084013e6105f0565b606091505b505090508061064d5760405162461bcd60e51b815260206004820152602360248201527f476f7652657761726465653a20726577617264207472616e73666572206661696044820152621b195960ea1b6064820152608401610117565b826001600160a01b03167fe2403640ba68fed3a2f88b7557551d1993f84b99bb10ff833f0cf8db0c5e0486836040516104d191815260200190565b6000546001600160a01b0316156106e15760405162461bcd60e51b815260206004820181905260248201527f476f7652657761726465653a20616c726561647920696e697469616c697a65646044820152606401610117565b600080546001600160a01b0319166001600160a01b0392909216919091179055565b6001600160a01b038116811461071857600080fd5b50565b6000806040838503121561072e57600080fd5b823561073981610703565b946020939093013593505050565b60006020828403121561075957600080fd5b813561076481610703565b9392505050565b60208082526032908201527f476f7652657761726465653a2063616c6c6572206973206e6f742074686520476040820152711bdd94dd185ada5b99c818dbdb9d1c9858dd60721b606082015260800190565b6020808252602a908201527f476f7652657761726465653a20726563697069656e7420697320746865207a65604082015269726f206164647265737360b01b606082015260800190565b60208082526021908201527f476f7652657761726465653a20696e73756666696369656e742062616c616e636040820152606560f81b606082015260800190565b60006020828403121561085a57600080fd5b8151801515811461076457600080fd5b6020808252818101527f476f7652657761726465653a20666565207472616e73666572206661696c656460408201526060019056fea264697066735822122054f672bfaa2097fe8d2de34248fbf0866daf01ad61b2c538d0ff16a0275f5b2364736f6c634300080e0033",
      "balance": "0x0"
    },
    "000f3df6d732807ef1319fb7b8bb8522d0beac02": {
      "code": "0x3373fffffffffffffffffffffffffffffffffffffffe14604d57602036146024575f5ffd5b5f35801560495762001fff810690815414603c575f5ffd5b62001fff01545f5260205ff35b5f5ffd5b62001fff42064281555f359062001fff015500",
      "balance": "0x2a"
    },
    "0c2c51a0990aee1d73c1228de158688341557508": {
      "balance": "0xc097ce7bc90715b34b9f1000000000"
    },
    "14e46043e63d0e3cdcf2530519f4cfaf35058cb2": {
      "balance": "0xc097ce7bc90715b34b9f1000000000"
    },
    "16c57edf7fa9d9525378b0b81bf8a3ced0620c1c": {
      "balance": "0xc097ce7bc90715b34b9f1000000000"
    },
    "1f4924b14f34e24159387c0a4cdbaa32f3ddb0cf": {
      "balance": "0xc097ce7bc90715b34b9f1000000000"
    },
    "1f5bde34b4afc686f136c7a3cb6ec376f7357759": {
      "balance": "0xc097ce7bc90715b34b9f1000000000"
    },
    "2d389075be5be9f2246ad654ce152cf05990b209": {
      "balance": "0xc097ce7bc90715b34b9f1000000000"
    },
    "3ae75c08b4c907eb63a8960c45b86e1e9ab6123c": {
      "balance": "0xc097ce7bc90715b34b9f1000000000"
    },
    "4340ee1b812acb40a1eb561c019c327b243b92df": {
      "balance": "0xc097ce7bc90715b34b9f1000000000"
    },
    "4a0f1452281bcec5bd90c3dce6162a5995bfe9df": {
      "balance": "0xc097ce7bc90715b34b9f1000000000"
    },
    "4dde844b71bcdf95512fb4dc94e84fb67b512ed8": {
      "balance": "0xc097ce7bc90715b34b9f1000000000"
    },
    "5f552da00dfb4d3749d9e62dcee3c918855a86a0": {
      "balance": "0xc097ce7bc90715b34b9f1000000000"
    },
    "654aa64f5fbefb84c270ec74211b81ca8c44a72e": {
      "balance": "0xc097ce7bc90715b34b9f1000000000"
    },
    "717f8aa2b982bee0e29f573d31df288663e1ce16": {
      "balance": "0xc097ce7bc90715b34b9f1000000000"
    },
    "7435ed30a8b4aeb0877cef0c6e8cffe834eb865f": {
      "balance": "0xc097ce7bc90715b34b9f1000000000"
    },
    "7dcd17433742f4c0ca53122ab541d0ba67fc27df": {
      "code": "0x3680600080376000206000548082558060010160005560005263656d697460206000a2",
      "balance": "0x0"
    },
    "83c7e323d189f18725ac510004fdc2941f8c4a78": {
      "balance": "0xc097ce7bc90715b34b9f1000000000"
    },
    "84e75c28348fb86acea1a93a39426d7d60f4cc46": {
      "balance": "0xc097ce7bc90715b34b9f1000000000"
    },
    "8bebc8ba651aee624937e7d897853ac30c95a067": {
      "storage": {
        "0x0000000000000000000000000000000000000000000000000000000000000001": "0x0000000000000000000000000000000000000000000000000000000000000001",
        "0x0000000000000000000000000000000000000000000000000000000000000002": "0x0000000000000000000000000000000000000000000000000000000000000002",
        "0x0000000000000000000000000000000000000000000000000000000000000003": "0x0000000000000000000000000000000000000000000000000000000000000003"
      },
      "balance": "0x1",
      "nonce": "0x1"
    },
    "c7b99a164efd027a93f147376cc7da7c67c6bbe0": {
      "balance": "0xc097ce7bc90715b34b9f1000000000"
    },
    "d803681e487e6ac18053afc5a6cd813c86ec3e4d": {
      "balance": "0xc097ce7bc90715b34b9f1000000000"
    },
    "e7d13f7aa2a838d24c59b40186a0aca1e21cffcc": {
      "balance": "0xc097ce7bc90715b34b9f1000000000"
    },
    "ea9a4c72166bf3048fddf40bf804a72dceeacf54": {
      "balance": "0xc097ce7bc90715b34b9f1000000000"
    },
    "eda8645ba6948855e3b3cd596bbb07596d59c603": {
      "balance": "0xc097ce7bc90715b34b9f1000000000"
    }
  },
  "number": "0x0",
  "gasUsed": "0x0",
  "parentHash": "0x0000000000000000000000000000000000000000000000000000000000000000",
  "baseFeePerGas": "0x3b9aca00",
  "fees": null,
  "excessBlobGas": null,
  "blobGasUsed": null
}