{
  "config": {
    "chainId": 3503995874084926,
    "homesteadBlock": 0,
    "eip150Block": 0,
    "eip155Block": 0,
    "eip158Block": 0,
    "byzantiumBlock": 0,
    "constantinopleBlock": 0,
    "petersburgBlock": 0,
    "istanbulBlock": 0,
    "muirGlacierBlock": 0,
    "berlinBlock": 0,
    "londonBlock": 0,
    "arrowGlacierBlock": 0,
    "grayGlacierBlock": 0,
    "pangyoBlock": 0,
    "applepieBlock": 0,
    "briocheBlock": 0,
    "ethash": {},
    "brioche": {
      "blockReward": 1000000000000000000,
      "firstHalvingBlock": 50,
      "halvingPeriod": 50,
      "finishRewardBlock": 450,
      "halvingTimes": 8,
      "halvingRate": 50
    },
    "qbft": {
      "requestTimeoutSeconds": 1000,
      "blockPeriodSeconds": 3,
      "proposerPolicy": 0,
      "epochLength": 10,
      "blockReward": "0xde0b6b3a7640000",
      "validators": [
        "0xbd928535fc7e5e8fa107df86c5b6126ef7eb5a55"
      ],
      "blsPublicKeys": [
        "0xb6119489981fe0800895d8f08a0dfcf02b59492ce952515fed4e36410a51ec813313a549e82d343ec3d0924e159e8051"
      ],
      "targetValidators": 0,
      "maxRequestTimeoutSeconds": 4,
      "govParams": {
        "minimumStaking": "0xde0b6b3a7640000",
        "maximumStaking": "0xffffffffffffffffffffffffffffffff",
        "unbondingPeriodStaker": 604800,
        "unbondingPeriodDelegator": 604800,
        "feePrecision": 1000000000000000000,
        "changeFeeDelay": 604800,
        "minStakers": 1
      }
    }
  },
  "nonce": "0x0",
  "timestamp": "0x0",
  "extraData": "0xf878a0000000000000000000000000000000000000000000000000000000000000000080c0c080c0c0f84fdad994bd928535fc7e5e8fa107df86c5b6126ef7eb5a55831cfde0c180f1b0b6119489981fe0800895d8f08a0dfcf02b59492ce952515fed4e36410a51ec813313a549e82d343ec3d0924e159e8051",
  "gasLimit": "0x23f3e20",
  "difficulty": "0x1",
  "mixHash": "0x0000000000000000000000000000000000000000000000000000000000000000",
  "coinbase": "0x0000000000000000000000000000000000000000",
  "alloc": {
    "0000000000000000000000000000000000001000": {
      "code": "0x6080604052348015600f57600080fd5b506004361060735760003560e01c80634dbd834d1160545780634dbd834d1460a25780635f0b96e51460aa578063d479ed711460b2578063ea3e16f61460ba57600080fd5b806335ff1e281460785780633e9e0ade146092578063478b665314609a575b600080fd5b608060045481565b60405190815260200160405180910390f35b608060055481565b608060015481565b608060035481565b608060065481565b608060005481565b60806002548156fea26469706673582212204624dc23658fe20a00f7f252c41a22deea300b5ef72cf6150f78cc27758cc6e664736f6c634300080e0033",
      "storage": {
        "0x0000000000000000000000000000000000000000000000000000000000000000": "0x0000000000000000000000000000000000000000000000000de0b6b3a7640000",
        "0x0000000000000000000000000000000000000000000000000000000000000001": "0x00000000000000000000000000000000ffffffffffffffffffffffffffffffff",
        "0x0000000000000000000000000000000000000000000000000000000000000002": "0x0000000000000000000000000000000000000000000000000000000000093a80",
        "0x0000000000000000000000000000000000000000000000000000000000000003": "0x0000000000000000000000000000000000000000000000000000000000093a80",
        "0x0000000000000000000000000000000000000000000000000000000000000004": "0x0000000000000000000000000000000000000000000000000de0b6b3a7640000",
        "0x0000000000000000000000000000000000000000000000000000000000000005": "0x0000000000000000000000000000000000000000000000000000000000093a80",
        "0x0000000000000000000000000000000000000000000000000000000000000006": "0x0000000000000000000000000000000000000000000000000000000000000001"
      },
      "balance": "0x0"
    },
    "0000000000000000000000000000000000001001": {
      "code": "0x6080604052600436106101c65760003560e01c806366993646116100f75780639dbccf6a11610095578063dd208f5c11610064578063dd208f5c1461069c578063e12ea478146106af578063e86d059e146106c5578063fed1252a1461071157600080fd5b80639dbccf6a14610605578063a694fc3a1461063b578063ad72eae21461064e578063d617246e1461068257600080fd5b806375b29e7e116100d157806375b29e7e146105675780638280a25a146105b05780638ed86b84146105c557806392fd2daf146105e557600080fd5b8063669936461461047f5780636d70f7ae146104fc5780636f1e85331461054757600080fd5b80632e1a7d4d1161016457806341bd370b1161013e57806341bd370b146103f55780634d99dd16146104155780634e745f1f146104355780635748f6f31461046a57600080fd5b80632e1a7d4d1461039f57806339ba7283146103bf5780633d6aa5e1146103d557600080fd5b8063165defa4116101a0578063165defa4146102fb5780632360407114610311578063264ebc38146103315780632e17de781461037f57600080fd5b8063026e402b1461025357806303cb278a14610266578063073ea6ae146102cd57600080fd5b3661024e57336000908152600560205260409020546101ed906001600160a01b0316610733565b61024c5760405162461bcd60e51b815260206004820152602560248201527f6f6e6c7920616e206163746976652072657761726465652063616e2073656e646044820152641031b7b4b760d91b60648201526084015b60405180910390fd5b005b600080fd5b61024c610261366004612b91565b610746565b34801561027257600080fd5b506102ad610281366004612b91565b600660209081526000928352604080842090915290825290208054600182015460029092015490919083565b604080519384526020840192909252908201526060015b60405180910390f35b3480156102d957600080fd5b506102ed6102e8366004612bbb565b6108e2565b6040519081526020016102c4565b34801561030757600080fd5b506102ed60005481565b34801561031d57600080fd5b5061024c61032c366004612bbb565b610929565b34801561033d57600080fd5b5061036761034c366004612bbb565b6005602052600090815260409020546001600160a01b031681565b6040516001600160a01b0390911681526020016102c4565b34801561038b57600080fd5b5061024c61039a366004612bd6565b610a36565b3480156103ab57600080fd5b5061024c6103ba366004612bd6565b610d22565b3480156103cb57600080fd5b506102ed600a5481565b3480156103e157600080fd5b506102ed6b033b2e3c9fd0803ce800000081565b34801561040157600080fd5b5061024c610410366004612bd6565b610ffc565b34801561042157600080fd5b5061024c610430366004612b91565b611261565b34801561044157600080fd5b50610455610450366004612bbb565b6114d4565b6040516102c499989796959493929190612bef565b34801561047657600080fd5b506102ed6115b6565b34801561048b57600080fd5b506104d461049a366004612c95565b6009602090815260009283526040808420909152908252902080546001820154600283015460038401546004909401549293919290919085565b604080519586526020860194909452928401919091526060830152608082015260a0016102c4565b34801561050857600080fd5b50610537610517366004612bbb565b6001600160a01b0390811660009081526004602052604090205416151590565b60405190151581526020016102c4565b34801561055357600080fd5b50610537610562366004612bbb565b610733565b34801561057357600080fd5b5061059b610582366004612bbb565b6008602052600090815260409020805460019091015482565b604080519283526020830191909152016102c4565b3480156105bc57600080fd5b506102ed603081565b3480156105d157600080fd5b5061024c6105e0366004612bbb565b6115c7565b3480156105f157600080fd5b5061024c610600366004612cc8565b611722565b34801561061157600080fd5b50610367610620366004612bbb565b6004602052600090815260409020546001600160a01b031681565b61024c610649366004612bd6565b611a3b565b34801561065a57600080fd5b5061059b610669366004612bbb565b6007602052600090815260409020805460019091015482565b34801561068e57600080fd5b50600b546105379060ff1681565b61024c6106aa366004612d04565b611c1b565b3480156106bb57600080fd5b5061036761100081565b3480156106d157600080fd5b506102ed6106e0366004612bbb565b6001600160a01b03908116600090815260096020908152604080832060038352818420549094168352929052205490565b34801561071d57600080fd5b506107266121d2565b6040516102c49190612daa565b60006107406001836121de565b92915050565b6001600160a01b0380831660009081526003602052604090205483911661077f5760405162461bcd60e51b815260040161024390612df7565b61078a6001826121de565b6107a65760405162461bcd60e51b815260040161024390612e24565b818034146107c65760405162461bcd60e51b815260040161024390612e50565b6001600160a01b038416330361081e5760405162461bcd60e51b815260206004820152601e60248201527f7374616b65722063616e6e6f742064656c656761746520746f2073656c6600006044820152606401610243565b6001600160a01b038085166000908152600360205260409020541633036108875760405162461bcd60e51b815260206004820181905260248201527f6f70657261746f722063616e6e6f742064656c656761746520746f2073656c666044820152606401610243565b6108918433612203565b61089c843385612616565b6040518381526001600160a01b0385169033907fe5541a6b6103d4fa7e021ed54fad39c66f27a76bd13d374cf6240ae6bd0bb72b9060200160405180910390a350505050565b6001600160a01b0380821660008181526009602090815260408083206003808452828520805490971685529083529083205493835290526005909201546107409190612e9d565b336000908152600460209081526040808320546001600160a01b0390811680855260039093529220549091166109715760405162461bcd60e51b815260040161024390612df7565b6001600160a01b0382166109b65760405162461bcd60e51b815260206004820152600c60248201526b7a65726f206164647265737360a01b6044820152606401610243565b336000908152600460209081526040808320546001600160a01b03908116808552600384529382902060020180548783166001600160a01b031982168117909255835192168083529382015283917ff1dbd322e431f00d83a6dbf85d09896187639f7dd04d0a0baeaf298d7e2c4ec591015b60405180910390a250505050565b336000908152600460209081526040808320546001600160a01b039081168085526003909352922054909116610a7e5760405162461bcd60e51b815260040161024390612df7565b610a896001826121de565b610aa55760405162461bcd60e51b815260040161024390612e24565b60008211610ae65760405162461bcd60e51b815260206004820152600e60248201526d616d6f756e74206973207a65726f60901b6044820152606401610243565b336000818152600460205260409020546001600160a01b031690610b0b908290612203565b610b1681338561275d565b6001600160a01b0381166000908152600960209081526040808320338452825291829020825163d479ed7160e01b8152925190926110009263d479ed71926004808401938290030181865afa158015610b73573d6000803e3d6000fd5b505050506040513d601f19601f82011682018060405250810190610b979190612eb4565b81541015610c7a57805415610c055760405162461bcd60e51b815260206004820152602e60248201527f616d6f756e74206d75737420657175616c2062616c616e636520746f2064656160448201526d31ba34bb30ba329039ba30b5b2b960911b6064820152608401610243565b610c10600183612818565b506001600160a01b038216600090815260036020526040812060050154600a805491929091610c40908490612ecd565b90915550506040516001600160a01b038316907fb97b17a738bc54faf4f156f2072573525abf5a6f9fe4e3f78a2f159d7a85180590600090a25b610ce7846110006001600160a01b031663ea3e16f66040518163ffffffff1660e01b8152600401602060405180830381865afa158015610cbe573d6000803e3d6000fd5b505050506040513d601f19601f82011682018060405250810190610ce29190612eb4565b61282d565b816001600160a01b03167f0f5bb82176feb1b5e747e28471aa92156a04d9f3ab9f45f28e2d704232b93f7585604051610a2891815260200190565b3360009081526007602052604090206001810154815411610d855760405162461bcd60e51b815260206004820152601960248201527f6e6f2063726564656e7469616c20746f207769746864726177000000000000006044820152606401610243565b80548215610e7f57828260010154610d9d9190612ecd565b8254909150811115610df15760405162461bcd60e51b815260206004820181905260248201527f6f7574206f66206d617820757365722063726564656e7469616c20696e6465786044820152606401610243565b33600090815260066020526040812060018481015442939190610e15908890612ecd565b610e1f9190612e9d565b8152602001908152602001600020600201541115610e7f5760405162461bcd60e51b815260206004820152601b60248201527f7769746864726177616c2074696d65206e6f74207265616368656400000000006044820152606401610243565b60018201545b81811015610ff657336000908152600660209081526040808320848452909152902084158015610eb85750806002015442105b15610ec35750610ff6565b600184018054906000610ed583612ee5565b9091555050805460405160009133918381818185875af1925050503d8060008114610f1c576040519150601f19603f3d011682016040523d82523d6000602084013e610f21565b606091505b5050905080610f725760405162461bcd60e51b815260206004820181905260248201527f6661696c656420746f2073656e64207769746864726177616c20616d6f756e746044820152606401610243565b6001850154825460405133927f92ccf450a286a957af52509bc1c9939d1a6a481783e142e41e2499f0bb66ebc692610fb292918252602082015260400190565b60405180910390a250503360009081526006602090815260408083208484529091528120818155600181018290556002015580610fee81612ee5565b915050610e85565b50505050565b336000908152600460209081526040808320546001600160a01b0390811680855260039093529220549091166110445760405162461bcd60e51b815260040161024390612df7565b61104f6001826121de565b61106b5760405162461bcd60e51b815260040161024390612e24565b6110006001600160a01b03166335ff1e286040518163ffffffff1660e01b8152600401602060405180830381865afa1580156110ab573d6000803e3d6000fd5b505050506040513d601f19601f820116820180604052508101906110cf9190612eb4565b82111561111e5760405162461bcd60e51b815260206004820152601a60248201527f6665652072617465206578636565647320707265636973696f6e0000000000006044820152606401610243565b336000908152600460209081526040808320546001600160a01b0316808452600890925290912060010154156111965760405162461bcd60e51b815260206004820152601b60248201527f7265717565737420616c7265616479206973206f6e20676f696e6700000000006044820152606401610243565b6001600160a01b038116600090815260036020819052604082200154906111bc836108e2565b1115611200576040805180820182528581524260208083019182526001600160a01b0386166000908152600890915292909220905181559051600190910155611220565b6001600160a01b0382166000908152600360208190526040909120018490555b60408051828152602081018690526001600160a01b038416917f4ceabe57088ae1780628bab06acc8e4adffee3a9190c4325dc57b557298782fd9101610a28565b6001600160a01b0380831660009081526003602052604090205483911661129a5760405162461bcd60e51b815260040161024390612df7565b6001600160a01b03831633036112f25760405162461bcd60e51b815260206004820181905260248201527f7374616b65722063616e6e6f7420756e64656c656761746520746f2073656c666044820152606401610243565b6001600160a01b038084166000908152600360205260409020541633036113665760405162461bcd60e51b815260206004820152602260248201527f6f70657261746f722063616e6e6f7420756e64656c656761746520746f207365604482015261363360f11b6064820152608401610243565b6113708333612203565b61137b83338461275d565b61138483610733565b156113d2576113cd826110006001600160a01b0316634dbd834d6040518163ffffffff1660e01b8152600401602060405180830381865afa158015610cbe573d6000803e3d6000fd5b61148e565b81600a60008282546113e49190612e9d565b9091555050604051600090339084908381818185875af1925050503d806000811461142b576040519150601f19603f3d011682016040523d82523d6000602084013e611430565b606091505b505090508061148c5760405162461bcd60e51b815260206004820152602260248201527f6661696c656420746f2073656e6420756e64656c65676174696e6720616d6f756044820152611b9d60f21b6064820152608401610243565b505b6040518281526001600160a01b0384169033907f4d10bd049775c77bd7f255195afba5088028ecb3c7c277d393ccff7934f2f92c906020015b60405180910390a3505050565b6003602081905260009182526040909120805460018201546002830154938301546004840180546001600160a01b0394851696938516959490931693919261151b90612efe565b80601f016020809104026020016040519081016040528092919081815260200182805461154790612efe565b80156115945780601f1061156957610100808354040283529160200191611594565b820191906000526020600020905b81548152906001019060200180831161157757829003601f168201915b5050505050908060050154908060060154908060070154908060080154905089565b60006115c26001612906565b905090565b6001600160a01b0381166000908152600860205260409020600101546116235760405162461bcd60e51b81526020600482015260116024820152706e6f20726571756573742065786973747360781b6044820152606401610243565b6110006001600160a01b0316633e9e0ade6040518163ffffffff1660e01b8152600401602060405180830381865afa158015611663573d6000803e3d6000fd5b505050506040513d601f19601f820116820180604052508101906116879190612eb4565b6001600160a01b0382166000908152600860205260409020600101546116ad9042612e9d565b10156117145760405162461bcd60e51b815260206004820152603060248201527f74686520726571756573742063616e6e6f74206265206578656375746564206260448201526f65666f72652064656c61792074696d6560801b6064820152608401610243565b61171f816000612203565b50565b6001600160a01b0380831660009081526003602052604090205483911661175b5760405162461bcd60e51b815260040161024390612df7565b6001600160a01b03831660009081526009602090815260408083203384529091529020541515806117b157506001600160a01b038316600090815260096020908152604080832033845290915290206001015415155b6117f25760405162461bcd60e51b81526020600482015260126024820152716e6f2072657761726420746f20636c61696d60701b6044820152606401610243565b6001600160a01b038316600090815260036020908152604080832060098352818420338086529352922090611828908690612203565b600181015482546000906001600160a01b03163314611854575060028201546118518183612e9d565b91505b600060018401819055600284015585156119035761187187610733565b61188d5760405162461bcd60e51b815260040161024390612e24565b60018401546040516351664d5b60e11b8152306004820152602481018490526001600160a01b039091169063a2cc9ab690604401600060405180830381600087803b1580156118db57600080fd5b505af11580156118ef573d6000803e3d6000fd5b505050506118fe873384612616565b61196a565b60018401546040516351664d5b60e11b8152336004820152602481018490526001600160a01b039091169063a2cc9ab690604401600060405180830381600087803b15801561195157600080fd5b505af1158015611965573d6000803e3d6000fd5b505050505b80156119dd5760018401546002850154604051634298434d60e11b81526001600160a01b03918216600482015260248101849052911690638530869a90604401600060405180830381600087803b1580156119c457600080fd5b505af11580156119d8573d6000803e3d6000fd5b505050505b60018401546001600160a01b0390811631600886015560408051848152881515602082015233928a16917f474b676872b832a32b60b6ff2df36847e8fd775f466e7cf289d1a0ab7aaffe4e910160405180910390a350505050505050565b336000908152600460209081526040808320546001600160a01b039081168085526003909352922054909116611a835760405162461bcd60e51b815260040161024390612df7565b81803414611aa35760405162461bcd60e51b815260040161024390612e50565b336000818152600460205260409020546001600160a01b031690611ac8908290612203565b611ad181610733565b611bd5576110006001600160a01b031663d479ed716040518163ffffffff1660e01b8152600401602060405180830381865afa158015611b15573d6000803e3d6000fd5b505050506040513d601f19601f82011682018060405250810190611b399190612eb4565b841015611b945760405162461bcd60e51b815260206004820152602360248201527f616d6f756e74206973206c657373207468616e206d696e696d756d207374616b604482015262696e6760e81b6064820152608401610243565b611b9f600182612910565b506001600160a01b038116600090815260036020526040812060050154600a805491929091611bcf908490612e9d565b90915550505b611be0813386612616565b806001600160a01b03167f9e71bc8eea02a63969f509818f2dafb9254532904319f9dbda79b67bd34a5f3d85604051610a2891815260200190565b85803414611c3b5760405162461bcd60e51b815260040161024390612e50565b6001600160a01b0380871660009081526003602052604090205487911615611ca55760405162461bcd60e51b815260206004820152601960248201527f616c72656164792072656769737465726564207374616b6572000000000000006044820152606401610243565b6110006001600160a01b031663d479ed716040518163ffffffff1660e01b8152600401602060405180830381865afa158015611ce5573d6000803e3d6000fd5b505050506040513d601f19601f82011682018060405250810190611d099190612eb4565b8810158015611d7b57506110006001600160a01b031663478b66536040518163ffffffff1660e01b8152600401602060405180830381865afa158015611d53573d6000803e3d6000fd5b505050506040513d601f19601f82011682018060405250810190611d779190612eb4565b8811155b611db75760405162461bcd60e51b815260206004820152600d60248201526c6f7574206f6620626f756e647360981b6044820152606401610243565b6001600160a01b0387163303611e0f5760405162461bcd60e51b815260206004820152601960248201527f6f70657261746f722063616e6e6f74206265207374616b6572000000000000006044820152606401610243565b6001600160a01b038716611e545760405162461bcd60e51b815260206004820152600c60248201526b7a65726f206164647265737360a01b6044820152606401610243565b336000908152600460205260409020546001600160a01b031615611eba5760405162461bcd60e51b815260206004820152601e60248201527f6f70657261746f7220697320616c7265616479207265676973746572656400006044820152606401610243565b6001600160a01b038616611f105760405162461bcd60e51b815260206004820152601d60248201527f66656520726563697069656e74206973207a65726f20616464726573730000006044820152606401610243565b6110006001600160a01b03166335ff1e286040518163ffffffff1660e01b8152600401602060405180830381865afa158015611f50573d6000803e3d6000fd5b505050506040513d601f19601f82011682018060405250810190611f749190612eb4565b851115611fc35760405162461bcd60e51b815260206004820152601a60248201527f6665652072617465206578636565647320707265636973696f6e0000000000006044820152606401610243565b6030831461200c5760405162461bcd60e51b8152602060048201526016602482015275696e76616c696420626c73207075626c6963206b657960501b6044820152606401610243565b600060405161201a90612ad0565b604051809103906000f080158015612036573d6000803e3d6000fd5b506001600160a01b0389811660009081526003602081905260409091208054336001600160a01b03199182161782556001820180548216868616179055600282018054909116938c1693909317909255810188905590915061209c906004018686612adc565b5033600090815260046020908152604080832080546001600160a01b03808e166001600160a01b031992831681179093558616855260059093529220805490911690911790556120ed600189612910565b506120f988338b612616565b6110006001600160a01b0316635f0b96e56040518163ffffffff1660e01b8152600401602060405180830381865afa158015612139573d6000803e3d6000fd5b505050506040513d601f19601f8201168201806040525081019061215d9190612eb4565b6121676001612906565b1061217a57600b805460ff191660011790555b876001600160a01b03167f29b4f2b2fa8adbe9944df75b6479b945258f7677d74e9a924b2bc8a6198781fa33838a8a8e8b8b6040516121bf9796959493929190612f38565b60405180910390a2505050505050505050565b60606115c26001612925565b6001600160a01b038116600090815260018301602052604081205415155b9392505050565b6001600160a01b03821660009081526003602052604090206005810154156124f25760088101546001820154600091612245916001600160a01b031631612e9d565b9050600082600501546b033b2e3c9fd0803ce8000000836122669190612f9d565b6122709190612fbc565b9050808360060160008282546122869190612ecd565b925050819055506110006001600160a01b03166335ff1e286040518163ffffffff1660e01b8152600401602060405180830381865afa1580156122cd573d6000803e3d6000fd5b505050506040513d601f19601f820116820180604052508101906122f19190612eb4565b60038401546123009083612f9d565b61230a9190612fbc565b83600701600082825461231d9190612ecd565b909155505060018301546001600160a01b0390811680316008860155600585015460068601546007870154604080519384529331602084015292820186905260608201526080810191909152908616907ffbe8b7d19566e22844442fd8f565b742cfa5532230553f133818c8bb886c84ee9060a00160405180910390a26001600160a01b038416156124ef576001600160a01b038086166000908152600960209081526040808320938816835292905220600381015460068501546b033b2e3c9fd0803ce8000000916123ef91612e9d565b82546123fb9190612f9d565b6124059190612fbc565b8160010160008282546124189190612ecd565b9091555050600481015460078501546b033b2e3c9fd0803ce80000009161243e91612e9d565b825461244a9190612f9d565b6124549190612fbc565b8160020160008282546124679190612ecd565b909155505060068401546003820181905560078501546004830181905582546001840154600285015460408051938452602084019290925290820152606081019290925260808201526001600160a01b0386811691908816907fc7871c79bab287e5a6d87fe9d0e085c707ecfa60d55493e8ad92956b89af3b9d9060a00160405180910390a3505b50505b6001600160a01b038316600090815260086020526040902060010154158015906125a457506110006001600160a01b0316633e9e0ade6040518163ffffffff1660e01b8152600401602060405180830381865afa158015612557573d6000803e3d6000fd5b505050506040513d601f19601f8201168201806040525081019061257b9190612eb4565b6001600160a01b0384166000908152600860205260409020600101546125a19042612e9d565b10155b15612611576001600160a01b03831660008181526008602090815260408083208054600380855283862001908155848255600190910193909355915491519182527fbda9217c3e4f8495e5662ad216dacde11b9ea1e945027fbdd43b7817b9d78fe5910160405180910390a25b505050565b6001600160a01b038316600090815260036020908152604091829020825163478b665360e01b8152925190926110009263478b6653926004808401938290030181865afa15801561266b573d6000803e3d6000fd5b505050506040513d601f19601f8201168201806040525081019061268f9190612eb4565b82826005015461269f9190612ecd565b11156126e45760405162461bcd60e51b8152602060048201526014602482015273657863656564656420746865206d6178696d756d60601b6044820152606401610243565b6001600160a01b038085166000908152600960209081526040808320938716835292905290812060058301805491928592612720908490612ecd565b9091555050805483908290600090612739908490612ecd565b92505081905550826000808282546127519190612ecd565b90915550505050505050565b6001600160a01b03808416600090815260036020908152604080832060098352818420948716845293909152902080548311156127d35760405162461bcd60e51b8152602060048201526014602482015273696e73756666696369656e742062616c616e636560601b6044820152606401610243565b826000808282546127e49190612e9d565b92505081905550828260050160008282546127ff9190612e9d565b9091555050805483908290600090612751908490612e9d565b60006121fc836001600160a01b038416612932565b600060076000336001600160a01b03166001600160a01b031681526020019081526020016000209050604051806060016040528084815260200142815260200183426128799190612ecd565b905233600090815260066020908152604080832085548452825280832084518155918401516001830155929092015160029092019190915581549082906128bf83612ee5565b90915550508054604080518581524260208201529081018490523391907f4846f03be8ef87cb6e611b3a3b878a0aadd7c010f3f25707aa472b41de9dc75d906060016114c7565b6000610740825490565b60006121fc836001600160a01b038416612a25565b606060006121fc83612a74565b60008181526001830160205260408120548015612a1b576000612956600183612e9d565b855490915060009061296a90600190612e9d565b90508181146129cf57600086600001828154811061298a5761298a612fde565b90600052602060002001549050808760000184815481106129ad576129ad612fde565b6000918252602080832090910192909255918252600188019052604090208390555b85548690806129e0576129e0612ff4565b600190038181906000526020600020016000905590558560010160008681526020019081526020016000206000905560019350505050610740565b6000915050610740565b6000818152600183016020526040812054612a6c57508154600181810184556000848152602080822090930184905584548482528286019093526040902091909155610740565b506000610740565b606081600001805480602002602001604051908101604052809291908181526020018280548015612ac457602002820191906000526020600020905b815481526020019060010190808311612ab0575b50505050509050919050565b60e48061300b83390190565b828054612ae890612efe565b90600052602060002090601f016020900481019282612b0a5760008555612b50565b82601f10612b235782800160ff19823516178555612b50565b82800160010185558215612b50579182015b82811115612b50578235825591602001919060010190612b35565b50612b5c929150612b60565b5090565b5b80821115612b5c5760008155600101612b61565b80356001600160a01b0381168114612b8c57600080fd5b919050565b60008060408385031215612ba457600080fd5b612bad83612b75565b946020939093013593505050565b600060208284031215612bcd57600080fd5b6121fc82612b75565b600060208284031215612be857600080fd5b5035919050565b600061012060018060a01b03808d1684526020818d1681860152818c1660408601528a6060860152826080860152895191508183860152600092505b81831015612c4a57898301810151858401610140015291820191612c2b565b5080821115612c5e57600061014082860101525b60a0840197909752505060c081019390935260e0830191909152610100820152610140601f909201601f1916010195945050505050565b60008060408385031215612ca857600080fd5b612cb183612b75565b9150612cbf60208401612b75565b90509250929050565b60008060408385031215612cdb57600080fd5b612ce483612b75565b915060208301358015158114612cf957600080fd5b809150509250929050565b60008060008060008060a08789031215612d1d57600080fd5b86359550612d2d60208801612b75565b9450612d3b60408801612b75565b935060608701359250608087013567ffffffffffffffff80821115612d5f57600080fd5b818901915089601f830112612d7357600080fd5b813581811115612d8257600080fd5b8a6020828501011115612d9457600080fd5b6020830194508093505050509295509295509295565b6020808252825182820181905260009190848201906040850190845b81811015612deb5783516001600160a01b031683529284019291840191600101612dc6565b50909695505050505050565b6020808252601390820152723ab73932b3b4b9ba32b932b21039ba30b5b2b960691b604082015260600190565b6020808252601290820152717374616b657220697320696e61637469766560701b604082015260600190565b6020808252601d908201527f616d6f756e7420616e64206d73672e76616c7565206d69736d61746368000000604082015260600190565b634e487b7160e01b600052601160045260246000fd5b600082821015612eaf57612eaf612e87565b500390565b600060208284031215612ec657600080fd5b5051919050565b60008219821115612ee057612ee0612e87565b500190565b600060018201612ef757612ef7612e87565b5060010190565b600181811c90821680612f1257607f821691505b602082108103612f3257634e487b7160e01b600052602260045260246000fd5b50919050565b6001600160a01b038881168252878116602083015286166040820152606081018590526080810184905260c060a0820181905281018290526000828460e0840137600060e0848401015260e0601f19601f850116830101905098975050505050505050565b6000816000190483118215151615612fb757612fb7612e87565b500290565b600082612fd957634e487b7160e01b600052601260045260246000fd5b500490565b634e487b7160e01b600052603260045260246000fd5b634e487b7160e01b600052603160045260246000fdfe608060405234801561001057600080fd5b5060c58061001f6000396000f3fe608060405260043610601f5760003560e01c806357eea0a314603157602b565b36602b5760296061565b005b60296061565b348015603c57600080fd5b50604561100381565b6040516001600160a01b03909116815260200160405180910390f35b606a611003606c565b565b3660008037600080366000845af43d6000803e808015608a573d6000f35b3d6000fdfea2646970667358221220b88f7b4896b60b4db020f14e0198ce5d7169edc9fde2eefdf9e348ebd1a5ef4164736f6c634300080e0033a2646970667358221220399b9254a117e3f460bc3bf4e4a577630f3d9edf9aa2fbb8d8a9ae27300f189e64736f6c634300080e0033",
      "balance": "0x0"
    },
    "0000000000000000000000000000000000001003": {
      "code": "0x6080604052600436106100385760003560e01c80638530869a14610044578063a2cc9ab614610066578063e3966bc71461008657600080fd5b3661003f57005b600080fd5b34801561005057600080fd5b5061006461005f366004610641565b6100b8565b005b34801561007257600080fd5b50610064610081366004610641565b6104a0565b34801561009257600080fd5b5061009c61100181565b6040516001600160a01b03909116815260200160405180910390f35b33611001146100e25760405162461bcd60e51b81526004016100d990610679565b60405180910390fd5b6001600160a01b0382166101085760405162461bcd60e51b81526004016100d9906106cb565b600081116101585760405162461bcd60e51b815260206004820152601b60248201527f476f7652657761726465653a20616d6f756e74206973207a65726f000000000060448201526064016100d9565b478111156101785760405162461bcd60e51b81526004016100d990610715565b813b80156103e3576040516301ffc9a760e01b815263f4f2499160e01b60048201526001600160a01b038416906301ffc9a790602401602060405180830381865afa9250505080156101e7575060408051601f3d908101601f191682019092526101e491810190610756565b60015b610264576000836001600160a01b03168360405160006040518083038185875af1925050503d8060008114610238576040519150601f19603f3d011682016040523d82523d6000602084013e61023d565b606091505b505090508061025e5760405162461bcd60e51b81526004016100d99061077f565b50610458565b801561036957604051630969acb360e01b8152600481018490526001600160a01b03851690630969acb39085906024016000604051808303818588803b1580156102ad57600080fd5b505af1935050505080156102bf575060015b6103205760405162461bcd60e51b815260206004820152602c60248201527f476f7652657761726465653a2066656520726563697069656e7420636f6e747260448201526b1858dd081c995d995c9d195960a21b60648201526084016100d9565b836001600160a01b03167f075a2720282fdf622141dae0b048ef90a21a7e57c134c76912d19d006b3b3f6f8460405161035b91815260200190565b60405180910390a250505050565b6000846001600160a01b03168460405160006040518083038185875af1925050503d80600081146103b6576040519150601f19603f3d011682016040523d82523d6000602084013e6103bb565b606091505b50509050806103dc5760405162461bcd60e51b81526004016100d99061077f565b5050610458565b6000836001600160a01b03168360405160006040518083038185875af1925050503d8060008114610430576040519150601f19603f3d011682016040523d82523d6000602084013e610435565b606091505b50509050806104565760405162461bcd60e51b81526004016100d99061077f565b505b826001600160a01b03167f075a2720282fdf622141dae0b048ef90a21a7e57c134c76912d19d006b3b3f6f8360405161049391815260200190565b60405180910390a2505050565b33611001146104c15760405162461bcd60e51b81526004016100d990610679565b6001600160a01b0382166104e75760405162461bcd60e51b81526004016100d9906106cb565b600081116105375760405162461bcd60e51b815260206004820152601b60248201527f476f7652657761726465653a20616d6f756e74206973207a65726f000000000060448201526064016100d9565b478111156105575760405162461bcd60e51b81526004016100d990610715565b6000826001600160a01b03168260405160006040518083038185875af1925050503d80600081146105a4576040519150601f19603f3d011682016040523d82523d6000602084013e6105a9565b606091505b50509050806106065760405162461bcd60e51b815260206004820152602360248201527f476f7652657761726465653a20726577617264207472616e73666572206661696044820152621b195960ea1b60648201526084016100d9565b826001600160a01b03167fe2403640ba68fed3a2f88b7557551d1993f84b99bb10ff833f0cf8db0c5e04868360405161049391815260200190565b6000806040838503121561065457600080fd5b82356001600160a01b038116811461066b57600080fd5b946020939093013593505050565b60208082526032908201527f476f7652657761726465653a2063616c6c6572206973206e6f742074686520476040820152711bdd94dd185ada5b99c818dbdb9d1c9858dd60721b606082015260800190565b6020808252602a908201527f476f7652657761726465653a20726563697069656e7420697320746865207a65604082015269726f206164647265737360b01b606082015260800190565b60208082526021908201527f476f7652657761726465653a20696e73756666696369656e742062616c616e636040820152606560f81b606082015260800190565b60006020828403121561076857600080fd5b8151801515811461077857600080fd5b9392505050565b6020808252818101527f476f7652657761726465653a20666565207472616e73666572206661696c656460408201526060019056fea2646970667358221220061b8473af1433193e94c5378c9e1b8dfdb1119d95c23d31121c1028b8815e5864736f6c634300080e0033",
      "balance": "0x0"
    },
    "000f3df6d732807ef1319fb7b8bb8522d0beac02": {
      "code": "0x3373fffffffffffffffffffffffffffffffffffffffe14604d57602036146024575f5ffd5b5f35801560495762001fff810690815414603c575f5ffd5b62001fff01545f5260205ff35b5f5ffd5b62001fff42064281555f359062001fff015500",
      "balance": "0x2a"
    },
    "0c2c51a0990aee1d73c1228de158688341557508": {
      "balance": "0xc097ce7bc90715b34b9f1000000000"
    },
    "14e46043e63d0e3cdcf2530519f4cfaf35058cb2": {
      "balance": "0xc097ce7bc90715b34b9f1000000000"
    },
    "16c57edf7fa9d9525378b0b81bf8a3ced0620c1c": {
      "balance": "0xc097ce7bc90715b34b9f1000000000"
    },
    "1f4924b14f34e24159387c0a4cdbaa32f3ddb0cf": {
      "balance": "0xc097ce7bc90715b34b9f1000000000"
    },
    "1f5bde34b4afc686f136c7a3cb6ec376f7357759": {
      "balance": "0xc097ce7bc90715b34b9f1000000000"
    },
    "2d389075be5be9f2246ad654ce152cf05990b209": {
      "balance": "0xc097ce7bc90715b34b9f1000000000"
    },
    "3ae75c08b4c907eb63a8960c45b86e1e9ab6123c": {
      "balance": "0xc097ce7bc90715b34b9f1000000000"
    },
    "4340ee1b812acb40a1eb561c019c327b243b92df": {
      "balance": "0xc097ce7bc90715b34b9f1000000000"
    },
    "4a0f1452281bcec5bd90c3dce6162a5995bfe9df": {
      "balance": "0xc097ce7bc90715b34b9f1000000000"
    },
    "4dde844b71bcdf95512fb4dc94e84fb67b512ed8": {
      "balance": "0xc097ce7bc90715b34b9f1000000000"
    },
    "5f552da00dfb4d3749d9e62dcee3c918855a86a0": {
      "balance": "0xc097ce7bc90715b34b9f1000000000"
    },
    "654aa64f5fbefb84c270ec74211b81ca8c44a72e": {
      "balance": "0xc097ce7bc90715b34b9f1000000000"
    },
    "717f8aa2b982bee0e29f573d31df288663e1ce16": {
      "balance": "0xc097ce7bc90715b34b9f1000000000"
    },
    "7435ed30a8b4aeb0877cef0c6e8cffe834eb865f": {
      "balance": "0xc097ce7bc90715b34b9f1000000000"
    },
    "7dcd17433742f4c0ca53122ab541d0ba67fc27df": {
      "code": "0x3680600080376000206000548082558060010160005560005263656d697460206000a2",
      "balance": "0x0"
    },
    "83c7e323d189f18725ac510004fdc2941f8c4a78": {
      "balance": "0xc097ce7bc90715b34b9f1000000000"
    },
    "84e75c28348fb86acea1a93a39426d7d60f4cc46": {
      "balance": "0xc097ce7bc90715b34b9f1000000000"
    },
    "8bebc8ba651aee624937e7d897853ac30c95a067": {
      "storage": {
        "0x0000000000000000000000000000000000000000000000000000000000000001": "0x0000000000000000000000000000000000000000000000000000000000000001",
        "0x0000000000000000000000000000000000000000000000000000000000000002": "0x0000000000000000000000000000000000000000000000000000000000000002",
        "0x0000000000000000000000000000000000000000000000000000000000000003": "0x0000000000000000000000000000000000000000000000000000000000000003"
      },
      "balance": "0x1",
      "nonce": "0x1"
    },
    "bd928535fc7e5e8fa107df86c5b6126ef7eb5a55": {
      "balance": "0xc097ce7bc90715b34b9f1000000000"
    },
    "c7b99a164efd027a93f147376cc7da7c67c6bbe0": {
      "balance": "0xc097ce7bc90715b34b9f1000000000"
    },
    "d803681e487e6ac18053afc5a6cd813c86ec3e4d": {
      "balance": "0xc097ce7bc90715b34b9f1000000000"
    },
    "e7d13f7aa2a838d24c59b40186a0aca1e21cffcc": {
      "balance": "0xc097ce7bc90715b34b9f1000000000"
    },
    "eda8645ba6948855e3b3cd596bbb07596d59c603": {
      "balance": "0xc097ce7bc90715b34b9f1000000000"
    }
  },
  "number": "0x0",
  "gasUsed": "0x0",
  "parentHash": "0x0000000000000000000000000000000000000000000000000000000000000000",
  "baseFeePerGas": "0x3b9aca00",
  "fees": null,
  "excessBlobGas": null,
  "blobGasUsed": null
}