{
  "config": {
    "chainId": 3503995874084926,
    "homesteadBlock": 0,
    "eip150Block": 0,
    "eip155Block": 0,
    "eip158Block": 0,
    "byzantiumBlock": 0,
    "constantinopleBlock": 0,
    "petersburgBlock": 0,
    "istanbulBlock": 0,
    "muirGlacierBlock": 0,
    "berlinBlock": 0,
    "londonBlock": 0,
    "arrowGlacierBlock": 0,
    "grayGlacierBlock": 0,
    "applepieBlock": 0,
    "ethash": {},
    "anzeon": {
      "wbft": {
        "requestTimeoutSeconds": 2,
        "blockPeriodSeconds": 1,
        "epochLength": 10,
        "proposerPolicy": 0,
        "maxRequestTimeoutSeconds": null
      },
      "init": {
        "validators": [
          "0x24ebbd8729857c834446fda662a6fa1f33e5857b"
        ],
        "blsPublicKeys": [
          "0x8f150de35cd6d19260b1f32b58395021f0d1998cc33df4afec7a357104348c2166bcbd19204eea43b567cdc535557b25"
        ]
      },
      "systemContracts": {
        "govValidator": {
          "address": "0x0000000000000000000000000000000000001001",
          "version": "v1",
          "params": {
            "blsPublicKeys": "0x8f150de35cd6d19260b1f32b58395021f0d1998cc33df4afec7a357104348c2166bcbd19204eea43b567cdc535557b25",
            "memberVersion": "1",
            "members": "0x24eBbD8729857C834446FdA662A6FA1f33e5857B",
            "quorum": "1",
            "validators": "0x24eBbD8729857C834446FdA662A6FA1f33e5857B"
          }
        }
      }
    }
  },
  "nonce": "0x0",
  "timestamp": "0x0",
  "extraData": "0xf860808080c0c080c0c0f84fdad99424ebbd8729857c834446fda662a6fa1f33e5857b831cfde0c180f1b08f150de35cd6d19260b1f32b58395021f0d1998cc33df4afec7a357104348c2166bcbd19204eea43b567cdc535557b2586048c27395000",
  "gasLimit": "0x23f3e20",
  "difficulty": "0x1",
  "mixHash": "0x0000000000000000000000000000000000000000000000000000000000000000",
  "coinbase": "0x0000000000000000000000000000000000000000",
  "alloc": {
    "0000000000000000000000000000000000001001": {
      "code": "0x608060405234801561001057600080fd5b50600436106102325760003560e01c80637e056b9111610130578063c73992e4116100b8578063e992c8171161007c578063e992c81714610518578063eeaf68161461052b578063f9bf45531461053e578063facd743b14610551578063feac729d1461056457600080fd5b8063c73992e41461048d578063d1fb945c146104a0578063dfe5b236146104b3578063e14a9da6146104bb578063e169eca1146104e457600080fd5b8063997072f7116100ff578063997072f71461043d5780639dc8012614610454578063a6f324f21461045c578063b9e2bea014610465578063bfbd7f4c1461047a57600080fd5b80637e056b911461041c5780637f4b33e9146104245780638280a25a1461042d5780639070577f1461043557600080fd5b8063500b53d1116101be578063652574101161018257806365257410146103ba5780636ad89315146103cd57806370a78608146103d6578063728f1e9b146103f657806376b826231461040957600080fd5b8063500b53d1146103625780635890ef79146103775780635c646aa61461038c5780635db09ee81461039f57806363869328146103a757600080fd5b80630f43a677116102055780630f43a677146102e45780631392d4ee146102ec5780631703a018146102f457806335efc73414610319578063373058b81461035a57600080fd5b8063013cf08b14610237578063040bba711461026a57806308ae4b0c146102805780630b35fe52146102cc575b600080fd5b61024a610245366004612f36565b61056d565b6040516102619b9a99989796959493929190612fdf565b60405180910390f35b610272610658565b604051908152602001610261565b6102b061028e36600461306f565b60026020526000908152604090205460ff811690610100900463ffffffff1682565b60408051921515835263ffffffff909116602083015201610261565b6102d4610671565b6040519015158152602001610261565b610272610769565b6102d4610775565b6000546103049063ffffffff1681565b60405163ffffffff9091168152602001610261565b61034261032736600461306f565b6035602052600090815260409020546001600160a01b031681565b6040516001600160a01b039091168152602001610261565b6102d4610940565b61037561037036600461308a565b610a17565b005b61037f610c17565b60405161026191906130ca565b61027261039a36600461308a565b610c23565b610375610d7b565b6103756103b536600461306f565b610e7b565b6103426103c8366004613117565b611017565b61027260045481565b6103e96103e436600461306f565b61104f565b6040516102619190613139565b61037561040436600461308a565b6110e9565b610375610417366004613195565b611283565b610375611498565b61027260015481565b610272603081565b610375611595565b600454600090815260036020526040902054610272565b6102d461176f565b61027260395481565b61046d611912565b6040516102619190613216565b61027261048836600461308a565b611aec565b6102d461049b36600461306f565b611c07565b6103756104ae366004612f36565b611c5a565b610272606081565b6103426104c936600461306f565b6036602052600090815260409020546001600160a01b031681565b6103426104f23660046132da565b80516020818301810180516038825292820191909301209152546001600160a01b031681565b610342610526366004612f36565b611cc1565b610272610539366004612f36565b611d30565b603254610342906001600160a01b031681565b6102d461055f36600461306f565b611e6a565b61027260065481565b60056020819052600091825260409091208054600182015460028301546003840154600485015495850154600686015460078701546008880154600989018054989a60ff89169a6101009099046001600160a01b03169997989697909691906105d59061338b565b80601f01602080910402602001604051908101604052809291908181526020018280546106019061338b565b801561064e5780601f106106235761010080835404028352916020019161064e565b820191906000526020600020905b81548152906001019060200180831161063157829003601f168201915b505050505090508b565b6000633b9aca0060395461066c91906133d5565b905090565b3360009081526002602052604081205460ff166106a1576040516305031d1160e31b815260040160405180910390fd5b6006546000036106c457604051631dc0650160e31b815260040160405180910390fd5b60065460009081526005602052604090206002600182015460ff1660078111156106f0576106f0612f4f565b1461070e57604051633c7e994560e11b815260040160405180910390fd5b600154816007015461072091906133f7565b421115610758576001808201805460059260ff1990911690835b0217905550604051636de162e360e01b815260040160405180910390fd5b6107626001611e8c565b91505b5090565b600061066c60336120e9565b60006006546000036107875750600090565b600654600090815260056020908152604080832081516101608101909252805482526001810154919290919083019060ff1660078111156107ca576107ca612f4f565b60078111156107db576107db612f4f565b815260018201546001600160a01b0361010091829004166020830152600283015460408301526003830154606083015260048301546080830152600583015460a0830152600683015460c0830152600783015460e0830152600883015490820152600982018054610120909201916108529061338b565b80601f016020809104026020016040519081016040528092919081815260200182805461087e9061338b565b80156108cb5780601f106108a0576101008083540402835291602001916108cb565b820191906000526020600020905b8154815290600101906020018083116108ae57829003601f168201915b5050505050815250509050600260078111156108e9576108e9612f4f565b816020015160078111156108ff576108ff612f4f565b1461090c57600091505090565b60015481610100015161091f91906133f7565b42111561092e57600091505090565b80608001518160c00151101591505090565b3360009081526002602052604081205460ff16610970576040516305031d1160e31b815260040160405180910390fd5b60065460000361099357604051631dc0650160e31b815260040160405180910390fd5b60065460009081526005602052604090206002600182015460ff1660078111156109bf576109bf612f4f565b146109dd57604051633c7e994560e11b815260040160405180910390fd5b60015481600701546109ef91906133f7565b421115610a0d576001808201805460059260ff19909116908361073a565b6107626000611e8c565b333014610a375760405163574b16a760e11b815260040160405180910390fd5b6001600160a01b03821660009081526002602052604090205460ff1615610a715760405163a929afd160e01b815260040160405180910390fd5b6001600160a01b038216610a985760405163ddf1d6dd60e01b815260040160405180910390fd5b63ffffffff81161580610acc5750600454600090815260036020526040902054610ac39060016133f7565b8163ffffffff16115b15610aea5760405163d173577960e01b815260040160405180910390fd5b604080518082018252600181524263ffffffff90811660208084019182526001600160a01b038716600090815260029091529390932091518254935164ffffffffff1990941690151564ffffffff001916176101009390911692909202919091179055610b556120f3565b6000805463ffffffff83811663ffffffff198316178355600454835260036020526040928390205492519116916001600160a01b038516917fd693483bf3059d721fcb091390377153e45c1b15c85015ea8c5547b92960ff5691610bc991869091825263ffffffff16602082015260400190565b60405180910390a26040805163ffffffff8084168252841660208201527f6b25ecb86b78350c27ff9ed279ad8aec3f418d60a233cdcab2bddb8713e10c5f910160405180910390a15b505050565b606061066c603361219d565b3360009081526002602052604081205460ff16610c53576040516305031d1160e31b815260040160405180910390fd5b600654600090815260056020526040902060018082015460ff166007811115610c7e57610c7e612f4f565b1480610ca257506002600182015460ff166007811115610ca057610ca0612f4f565b145b15610ced576001548160070154610cb991906133f7565b421115610cd45760018101805460ff19166005179055610ced565b60405163437eeb7760e11b815260040160405180910390fd5b604080516001600160a01b038616602082015263ffffffff8516818301528151808203830181526060820190925263500b53d160e01b9190610d6f907f01d1032a94de90ac7a4dabdff5a911afd548ada724cc624dc301d24b68daff2b90610d5b908590859060800161340f565b6040516020818303038152906040526121b1565b935050505b5092915050565b3360009081526002602052604090205460ff16610dab576040516305031d1160e31b815260040160405180910390fd5b600654600003610dce57604051631dc0650160e31b815260040160405180910390fd5b600654600090815260056020526040902060018082015460ff166007811115610df957610df9612f4f565b14158015610e2057506002600182015460ff166007811115610e1d57610e1d612f4f565b14155b15610e3e576040516377036cbb60e01b815260040160405180910390fd5b6001548160070154610e5091906133f7565b421115610e6e576001808201805460059260ff19909116908361073a565b610e7860006123f1565b50565b3360009081526002602052604090205460ff16610eab576040516305031d1160e31b815260040160405180910390fd5b600654600090815260056020526040902060018082015460ff166007811115610ed657610ed6612f4f565b1480610efa57506002600182015460ff166007811115610ef857610ef8612f4f565b145b15610f28576001548160070154610f1191906133f7565b421115610cd45760018101805460ff191660051790555b6001600160a01b03821660009081526002602052604090205460ff1615610f625760405163a929afd160e01b815260040160405180910390fd5b336000818152600260205260408082206001600160a01b03861683529082208154815460ff909116151560ff19821681178355835463ffffffff61010091829004160264ffffffff001990911664ffffffffff1992831617179091559183905280549091169055610fd3908361264e565b6040516001600160a01b0383169033907f05d866cd9c6000815d031b7ce30f30f643766eba16be13cff25924dc8ad8209290600090a3611013338361271a565b5050565b6003602052816000526040600020818154811061103357600080fd5b6000918252602090912001546001600160a01b03169150829050565b603760205260009081526040902080546110689061338b565b80601f01602080910402602001604051908101604052809291908181526020018280546110949061338b565b80156110e15780601f106110b6576101008083540402835291602001916110e1565b820191906000526020600020905b8154815290600101906020018083116110c457829003601f168201915b505050505081565b3330146111095760405163574b16a760e11b815260040160405180910390fd5b6001600160a01b03821660009081526002602052604090205460ff16611142576040516305031d1160e31b815260040160405180910390fd5b63ffffffff81161580611177575060045460009081526003602052604090205461116e90600190613440565b8163ffffffff16115b156111955760405163d173577960e01b815260040160405180910390fd5b6001600160a01b0382166000908152600260205260409020805460ff191690556111be82612797565b6000805463ffffffff83811663ffffffff198316178355600454835260036020526040928390205492519116916001600160a01b038516917fab15a70783712986077aea9a4cbfd4c1561dd8672489037c581fbaf8fc6585169161123291869091825263ffffffff16602082015260400190565b60405180910390a26040805163ffffffff8084168252841660208201527f6b25ecb86b78350c27ff9ed279ad8aec3f418d60a233cdcab2bddb8713e10c5f910160405180910390a1610c128361288d565b3360009081526002602052604090205460ff166112b3576040516305031d1160e31b815260040160405180910390fd5b6001600160a01b0385166112da57604051631a0a9b9f60e21b815260040160405180910390fd5b6001600160a01b03858116600090815260356020526040902054161580159061131d57506001600160a01b03858116600090815260356020526040902054163314155b1561133b57604051633d02709560e11b815260040160405180910390fd5b611347848484846128b8565b336000908152603660205260408082205490516001600160a01b0390911691906038906113779088908890613457565b908152604051908190036020019020546001600160a01b0316148015906113d15750806001600160a01b0316603886866040516113b5929190613457565b908152604051908190036020019020546001600160a01b031614155b156113ef5760405163968978b960e01b815260040160405180910390fd5b6001600160a01b03811661140d576114088686866129d3565b611490565b856001600160a01b0316816001600160a01b03160361148457806001600160a01b031660388686604051611442929190613457565b908152604051908190036020019020546001600160a01b031603611479576040516366b9db0b60e11b815260040160405180910390fd5b611408818686612a2e565b61149081878787612a7e565b505050505050565b3360009081526002602052604090205460ff166114c8576040516305031d1160e31b815260040160405180910390fd5b6006546000036114eb57604051631dc0650160e31b815260040160405180910390fd5b600654600090815260056020526040902060018082015460ff16600781111561151657611516612f4f565b1415801561153d57506002600182015460ff16600781111561153a5761153a612f4f565b14155b1561155b576040516377036cbb60e01b815260040160405180910390fd5b600154816007015461156d91906133f7565b42111561158b576001808201805460059260ff19909116908361073a565b610e7860016123f1565b3360009081526002602052604090205460ff166115c5576040516305031d1160e31b815260040160405180910390fd5b6006546000036115e857604051631dc0650160e31b815260040160405180910390fd5b600654600090815260056020526040902060018082015460ff16600781111561161357611613612f4f565b1415801561163a57506002600182015460ff16600781111561163757611637612f4f565b14155b15611658576040516377036cbb60e01b815260040160405180910390fd5b600154816007015461166a91906133f7565b421115611688576001808201805460059260ff19909116908361073a565b60065460009081526005602052604090206001015461010090046001600160a01b031633146116ca57604051637d1b73b960e01b815260040160405180910390fd5b60016005600060065481526020019081526020016000206005015411806117035750600680546000908152600560205260409020015415155b15611721576040516355fe710960e01b815260040160405180910390fd5b60068054600090815260056020526040808220600101805460ff19166004179055915491513392917f74c34a008ce735d9fcf0bd03a9b238d212ad4c441c020661f4ffbb6442645b8591a350565b600654600090815260056020908152604080832081516101608101909252805482526001810154849383019060ff1660078111156117af576117af612f4f565b60078111156117c0576117c0612f4f565b815260018201546001600160a01b0361010091829004166020830152600283015460408301526003830154606083015260048301546080830152600583015460a0830152600683015460c0830152600783015460e0830152600883015490820152600982018054610120909201916118379061338b565b80601f01602080910402602001604051908101604052809291908181526020018280546118639061338b565b80156118b05780601f10611885576101008083540402835291602001916118b0565b820191906000526020600020905b81548152906001019060200180831161189357829003601f168201915b5050505050815250509050600160078111156118ce576118ce612f4f565b816020015160078111156118e4576118e4612f4f565b0361190a576001548161010001516118fc91906133f7565b421161190a57600191505090565b600091505090565b61197960408051610160810190915260008082526020820190815260200160006001600160a01b0316815260200160008152602001600081526020016000815260200160008152602001600081526020016000815260200160008152602001606081525090565b60065460000361199c57604051631dc0650160e31b815260040160405180910390fd5b60065460009081526005602090815260409182902082516101608101909352805483526001810154909183019060ff1660078111156119dd576119dd612f4f565b60078111156119ee576119ee612f4f565b815260018201546001600160a01b0361010091829004166020830152600283015460408301526003830154606083015260048301546080830152600583015460a0830152600683015460c0830152600783015460e083015260088301549082015260098201805461012090920191611a659061338b565b80601f0160208091040260200160405190810160405280929190818152602001828054611a919061338b565b8015611ade5780601f10611ab357610100808354040283529160200191611ade565b820191906000526020600020905b815481529060010190602001808311611ac157829003601f168201915b505050505081525050905090565b3360009081526002602052604081205460ff16611b1c576040516305031d1160e31b815260040160405180910390fd5b600654600090815260056020526040902060018082015460ff166007811115611b4757611b47612f4f565b1480611b6b57506002600182015460ff166007811115611b6957611b69612f4f565b145b15611b99576001548160070154611b8291906133f7565b421115610cd45760018101805460ff191660051790555b604080516001600160a01b038616602082015263ffffffff8516818301528151808203830181526060820190925263728f1e9b60e01b9190610d6f907fad984fa19ecc08a08cb0478534a5db7986191e1eda181285fa2bfd3c874eff9e90610d5b908590859060800161340f565b600080611c1383612a93565b6004546000908152600360205260409020549091508110611c375750600092915050565b600654600090815260056020526040902060040154600190911b16151592915050565b333014611c7a5760405163574b16a760e11b815260040160405180910390fd5b6039805490829055604080518281526020810184905233917f535d54b8a14e2287f10efd7add38eca14bcf44eb31651abf8eec2499eba393a3910160405180910390a25050565b6004546000908152600360205260408120548210611cf257604051634e23d03560e01b815260040160405180910390fd5b6004546000908152600360205260409020805483908110611d1557611d15613467565b6000918252602090912001546001600160a01b031692915050565b3360009081526002602052604081205460ff16611d60576040516305031d1160e31b815260040160405180910390fd5b600654600090815260056020526040902060018082015460ff166007811115611d8b57611d8b612f4f565b1480611daf57506002600182015460ff166007811115611dad57611dad612f4f565b145b15611ddd576001548160070154611dc691906133f7565b421115610cd45760018101805460ff191660051790555b6039548303611dff5760405163d224a7bb60e01b815260040160405180910390fd5b604080516020810185905263347ee51760e21b91600091016040516020818303038152906040529050611e5f7f3dbc1eb57270fd00d1185f7cc6dad1739ab2a199ec5d792e8797b112105abf948383604051602001610d5b92919061340f565b935050505b50919050565b6001600160a01b03811660009081526034602052604081205415155b92915050565b6000600754600103611eb1576040516306fda65d60e31b815260040160405180910390fd5b600160075560065460009081526005602052604090206002600182015460ff166007811115611ee257611ee2612f4f565b14611f0057604051633c7e994560e11b815260040160405180910390fd5b806003015481600501541015611f2957604051638af69cf160e01b815260040160405180910390fd5b6001548160070154611f3b91906133f7565b421115611f8a5760018101805460ff191660051790556006546040513391907fa07726147f0c03d4479e98c14466ffc4f275943ad74baa7e6bd84b99b02c80dc90600090a360009150506120df565b63ffffffff42166008820155600981018054606091600091611fab9061338b565b90501115612013576040513090611fc690600985019061347d565b6000604051808303816000865af19150503d8060008114612003576040519150601f19603f3d011682016040523d82523d6000602084013e612008565b606091505b509093509050612018565b600192505b82156120325760018201805460ff191660031790556120a1565b831561204c5760018201805460ff1916600617905561205c565b60018201805460ff191660021790555b336001600160a01b03166006547fbe44d5fa8dc3a120b4aca06d60a76b2005f165b171106890c13ea8d26267e61e836040516120989190613139565b60405180910390a35b60065460405184151581523391907f4fce71a6eb6a89b3e4c71722f870a263627cbfddc3a603c307803d89ad39e7cb9060200160405180910390a350505b6000600755919050565b6000611e86825490565b6000600454600161210491906133f7565b905060005b600454600090815260036020526040902054811015612197576000828152600360205260408082206004548352912080548390811061214a5761214a613467565b60009182526020808320909101548354600181018555938352912090910180546001600160a01b0319166001600160a01b039092169190911790558061218f81613518565b915050612109565b50600455565b606060006121aa83612b1c565b9392505050565b3360009081526002602052604081205460ff166121e1576040516305031d1160e31b815260040160405180910390fd5b600654600090815260056020526040902060018082015460ff16600781111561220c5761220c612f4f565b148061223057506002600182015460ff16600781111561222e5761222e612f4f565b145b1561225e57600154816007015461224791906133f7565b421115610cd45760018101805460ff191660051790555b60066000815461226d90613518565b9182905550604080516101608101825286815260016020808301828152338486015260045460608501526000805463ffffffff908116608087015260a0860182905260c0860182905260e086018290524216610100860152610120850181905261014085018a905286815260059092529390208251815592518382018054959750929490929160ff19919091169083600781111561230d5761230d612f4f565b02179055506040820151600182018054610100600160a81b0319166101006001600160a01b039093168302179055606083015160028301556080830151600383015560a0830151600483015560c0830151600583015560e0830151600683015582015160078201556101208201516008820155610140820151805161239c916009840191602090910190612df3565b505060045460005460405133935085927f830652010a654c24b39890c16f53e6f6179becc61702ecd9a8c88461c2ff941a926123e3928a929163ffffffff16908a90613531565b60405180910390a3610d7460015b60065460009081526005602052604081209061240c33612a93565b600454600090815260036020526040902054909150811061244057604051631fdd7d6360e01b815260040160405180910390fd5b60048201546001821b9081161561246a5760405163080fc0bd60e11b815260040160405180910390fd5b6004830180548217905583156125585760058301805490600061248c83613518565b9091555050600680546005850154918501546040805160018152602081019490945283015233917f82b8cb75fd367be519fd5f57abcb2dbb773381c00082e94059c4713c4dfdfc059060600160405180910390a382600301548360050154106125535760018301805460ff191660021790556006805460058501549185015460408051938452602084019190915233927f5064fb9bf50f615c47cc24c49119ba31d2c1a83ad6aed3b226cd42005524b7f4910160405180910390a36125516000611e8c565b505b612648565b60068301805490600061256a83613518565b9091555050600680546005850154918501546040805160008152602081019490945283015233917f82b8cb75fd367be519fd5f57abcb2dbb773381c00082e94059c4713c4dfdfc059060600160405180910390a3600380840154600285015460009081526020929092526040909120546125e49190613440565b836006015411156126485760018301805460ff191660071790556006805460058501549185015460408051938452602084019190915233927f6fa60fd92b2557298bb7b39e7b538b3f00ebf09b9f056bdeac7f0e5d57e8fcbb910160405180910390a35b50505050565b6000600454600161265f91906133f7565b905060005b6004546000908152600360205260409020548110156127125760045460009081526003602052604081208054839081106126a0576126a0613467565b6000918252602090912001546001600160a01b039081169150851681036126c45750825b60008381526003602090815260408220805460018101825590835291200180546001600160a01b0319166001600160a01b03929092169190911790558061270a81613518565b915050612664565b506004555050565b6001600160a01b03808316600090815260366020526040902054168015610c12576001600160a01b03808316600081815260366020818152604080842080548789166001600160a01b0319918216811790925590855260358352818520805482169096179095559488168352529190912080549091169055505050565b600060045460016127a891906133f7565b905060005b60045460009081526003602052604090205481101561288657826001600160a01b031660036000600454815260200190815260200160002082815481106127f6576127f6613467565b6000918252602090912001546001600160a01b031614612874576000828152600360205260408082206004548352912080548390811061283857612838613467565b60009182526020808320909101548354600181018555938352912090910180546001600160a01b0319166001600160a01b039092169190911790555b8061287e81613518565b9150506127ad565b5060045550565b6001600160a01b03808216600090815260366020526040902054168015611013576110138183612b78565b603083146128d957604051631e3e9f4160e21b815260040160405180910390fd5b606081146128fa57604051634be6321b60e01b815260040160405180910390fd5b60325460405160009182916001600160a01b0390911690612925908890889088908890602001613566565b60408051601f198184030181529082905261293f91613588565b600060405180830381855afa9150503d806000811461297a576040519150601f19603f3d011682016040523d82523d6000602084013e61297f565b606091505b5091509150816129a2576040516320e5cb5360e01b815260040160405180910390fd5b808060200190518101906129b691906135a4565b61149057604051631bb31e3560e31b815260040160405180910390fd5b6129de603384612c1c565b5033600081815260366020908152604080832080546001600160a01b0389166001600160a01b03199182168117909255908452603590925290912080549091169091179055610c12838383612c31565b6001600160a01b038316600090815260376020526040908190209051603891612a569161347d565b90815260405190819003602001902080546001600160a01b0319169055610c12838383612c31565b612a888433612b78565b6126488383836129d3565b6000805b600454600090815260036020526040902054811015612b1257826001600160a01b03166003600060045481526020019081526020016000208281548110612ae057612ae0613467565b6000918252602090912001546001600160a01b031603612b005792915050565b80612b0a81613518565b915050612a97565b5060001992915050565b606081600001805480602002602001604051908101604052809291908181526020018280548015612b6c57602002820191906000526020600020905b815481526020019060010190808311612b58575b50505050509050919050565b612b83603383612c9c565b506001600160a01b03808316600081815260356020908152604080832080546001600160a01b0319908116909155948616835260368252808320805490951690945591815260379091528190209051603891612bde9161347d565b908152604080516020928190038301902080546001600160a01b03191690556001600160a01b03841660009081526037909252812061101391612e73565b60006121aa836001600160a01b038416612cb1565b6001600160a01b0383166000908152603760205260409020612c54908383612ead565b508260388383604051612c68929190613457565b90815260405190819003602001902080546001600160a01b03929092166001600160a01b0319909216919091179055505050565b60006121aa836001600160a01b038416612d00565b6000818152600183016020526040812054612cf857508154600181810184556000848152602080822090930184905584548482528286019093526040902091909155611e86565b506000611e86565b60008181526001830160205260408120548015612de9576000612d24600183613440565b8554909150600090612d3890600190613440565b9050818114612d9d576000866000018281548110612d5857612d58613467565b9060005260206000200154905080876000018481548110612d7b57612d7b613467565b6000918252602080832090910192909255918252600188019052604090208390555b8554869080612dae57612dae6135c6565b600190038181906000526020600020016000905590558560010160008681526020019081526020016000206000905560019350505050611e86565b6000915050611e86565b828054612dff9061338b565b90600052602060002090601f016020900481019282612e215760008555612e67565b82601f10612e3a57805160ff1916838001178555612e67565b82800160010185558215612e67579182015b82811115612e67578251825591602001919060010190612e4c565b50610765929150612f21565b508054612e7f9061338b565b6000825580601f10612e8f575050565b601f016020900490600052602060002090810190610e789190612f21565b828054612eb99061338b565b90600052602060002090601f016020900481019282612edb5760008555612e67565b82601f10612ef45782800160ff19823516178555612e67565b82800160010185558215612e67579182015b82811115612e67578235825591602001919060010190612f06565b5b808211156107655760008155600101612f22565b600060208284031215612f4857600080fd5b5035919050565b634e487b7160e01b600052602160045260246000fd5b60088110612f8357634e487b7160e01b600052602160045260246000fd5b9052565b60005b83811015612fa2578181015183820152602001612f8a565b838111156126485750506000910152565b60008151808452612fcb816020860160208601612f87565b601f01601f19169290920160200192915050565b60006101608d8352612ff4602084018e612f65565b60018060a01b038c1660408401528a60608401528960808401528860a08401528760c08401528660e084015285610100840152846101208401528061014084015261304181840185612fb3565b9e9d5050505050505050505050505050565b80356001600160a01b038116811461306a57600080fd5b919050565b60006020828403121561308157600080fd5b6121aa82613053565b6000806040838503121561309d57600080fd5b6130a683613053565b9150602083013563ffffffff811681146130bf57600080fd5b809150509250929050565b6020808252825182820181905260009190848201906040850190845b8181101561310b5783516001600160a01b0316835292840192918401916001016130e6565b50909695505050505050565b6000806040838503121561312a57600080fd5b50508035926020909101359150565b6020815260006121aa6020830184612fb3565b60008083601f84011261315e57600080fd5b50813567ffffffffffffffff81111561317657600080fd5b60208301915083602082850101111561318e57600080fd5b9250929050565b6000806000806000606086880312156131ad57600080fd5b6131b686613053565b9450602086013567ffffffffffffffff808211156131d357600080fd5b6131df89838a0161314c565b909650945060408801359150808211156131f857600080fd5b506132058882890161314c565b969995985093965092949392505050565b6020815281516020820152600060208301516132356040840182612f65565b5060408301516001600160a01b03811660608401525060608301516080830152608083015160a083015260a083015160c083015260c083015160e083015260e08301516101008181850152808501519150506101208181850152808501519150506101408181850152808501519150506101608081850152506132bc610180840182612fb3565b949350505050565b634e487b7160e01b600052604160045260246000fd5b6000602082840312156132ec57600080fd5b813567ffffffffffffffff8082111561330457600080fd5b818401915084601f83011261331857600080fd5b81358181111561332a5761332a6132c4565b604051601f8201601f19908116603f01168101908382118183101715613352576133526132c4565b8160405282815287602084870101111561336b57600080fd5b826020860160208301376000928101602001929092525095945050505050565b600181811c9082168061339f57607f821691505b602082108103611e6457634e487b7160e01b600052602260045260246000fd5b634e487b7160e01b600052601160045260246000fd5b6000826133f257634e487b7160e01b600052601260045260246000fd5b500490565b6000821982111561340a5761340a6133bf565b500190565b6001600160e01b0319831681528151600090613432816004850160208701612f87565b919091016004019392505050565b600082821015613452576134526133bf565b500390565b8183823760009101908152919050565b634e487b7160e01b600052603260045260246000fd5b600080835481600182811c91508083168061349957607f831692505b602080841082036134b857634e487b7160e01b86526022600452602486fd5b8180156134cc57600181146134dd5761350a565b60ff1986168952848901965061350a565b60008a81526020902060005b868110156135025781548b8201529085019083016134e9565b505084890196505b509498975050505050505050565b60006001820161352a5761352a6133bf565b5060010190565b84815283602082015263ffffffff8316604082015260806060820152600061355c6080830184612fb3565b9695505050505050565b8385823760008482016000815283858237600093019283525090949350505050565b6000825161359a818460208701612f87565b9190910192915050565b6000602082840312156135b657600080fd5b815180151581146121aa57600080fd5b634e487b7160e01b600052603160045260246000fdfea26469706673582212204eedf41613d59942d9c2e504a430b409c21ede1e6ce838b069fc1215e94c7a8e64736f6c634300080e0033",
      "storage": {
        "0x0000000000000000000000000000000000000000000000000000000000000000": "0x0000000000000000000000000000000000000000000000000000000000000001",
        "0x0000000000000000000000000000000000000000000000000000000000000004": "0x0000000000000000000000000000000000000000000000000000000000000001",
        "0x0000000000000000000000000000000000000000000000000000000000000032": "0x0000000000000000000000000000000000000000000000000000000000b00001",
        "0x0000000000000000000000000000000000000000000000000000000000000033": "0x0000000000000000000000000000000000000000000000000000000000000001",
        "0x0000000000000000000000000000000000000000000000000000000000000039": "0x0000000000000000000000000000000000000000000000000000048c27395000",
        "0x090d483dcc966fcefc00218f543d7bcf6cc9dd6d537a3647a31f4ffe4ef7b924": "0x00000000000000000000000024ebbd8729857c834446fda662a6fa1f33e5857b",
        "0x09471181440d0161d1674db0c2ba3b5accda3b76a1977dfbb8ce8268f167fbdd": "0x0000000000000000000000000000000000000000000000000000000000000001",
        "0x12c224c7ce33bda4ada2cb7489d4262a3e03d17f2ac2052bd94b16f7299dbbd4": "0x00000000000000000000000024ebbd8729857c834446fda662a6fa1f33e5857b",
        "0x139dcff506d89bd10e06098a481aaeacb4b5e1bb2ca5967fc778585269d7f603": "0x0000000000000000000000000000000000000000000000000000000000000061",
        "0x22157a422870b60da9b0cd759271e465c9e6eaa0c5c538d9d754936d21c0c0cf": "0x0000000000000000000000000000000000000000000000000000000000000001",
        "0x2c644dcf44e265ba93879b2da89e1b16ab48fc5eb8e31bc16b0612d6da8463f1": "0x00000000000000000000000024ebbd8729857c834446fda662a6fa1f33e5857b",
        "0x4c946fa0f82117f30816b8cc10907ba7ba16a746a597d1721c47a79f07f5af18": "0x8f150de35cd6d19260b1f32b58395021f0d1998cc33df4afec7a357104348c21",
        "0x4c946fa0f82117f30816b8cc10907ba7ba16a746a597d1721c47a79f07f5af19": "0x66bcbd19204eea43b567cdc535557b2500000000000000000000000000000000",
        "0x73269b7b98b977ad78887bf5dbe794082a172655d3c3d4359a6e0a2d46ec84aa": "0x00000000000000000000000024ebbd8729857c834446fda662a6fa1f33e5857b",
        "0x82a75bdeeae8604d839476ae9efd8b0e15aa447e21bfd7f41283bb54e22c9a82": "0x00000000000000000000000024ebbd8729857c834446fda662a6fa1f33e5857b",
        "0xa15bc60c955c405d20d9149c709e2460f1c2d9a497496a7f46004d1772c3054c": "0x0000000000000000000000000000000000000000000000000000000000000001"
      },
      "balance": "0x0"
    },
    "000f3df6d732807ef1319fb7b8bb8522d0beac02": {
      "code": "0x3373fffffffffffffffffffffffffffffffffffffffe14604d57602036146024575f5ffd5b5f35801560495762001fff810690815414603c575f5ffd5b62001fff01545f5260205ff35b5f5ffd5b62001fff42064281555f359062001fff015500",
      "balance": "0x2a"
    },
    "0c2c51a0990aee1d73c1228de158688341557508": {
      "balance": "0xc097ce7bc90715b34b9f1000000000"
    },
    "14e46043e63d0e3cdcf2530519f4cfaf35058cb2": {
      "balance": "0xc097ce7bc90715b34b9f1000000000"
    },
    "16c57edf7fa9d9525378b0b81bf8a3ced0620c1c": {
      "balance": "0xc097ce7bc90715b34b9f1000000000"
    },
    "1f4924b14f34e24159387c0a4cdbaa32f3ddb0cf": {
      "balance": "0xc097ce7bc90715b34b9f1000000000"
    },
    "1f5bde34b4afc686f136c7a3cb6ec376f7357759": {
      "balance": "0xc097ce7bc90715b34b9f1000000000"
    },
    "24ebbd8729857c834446fda662a6fa1f33e5857b": {
      "balance": "0xc097ce7bc90715b34b9f1000000000"
    },
    "2d389075be5be9f2246ad654ce152cf05990b209": {
      "balance": "0xc097ce7bc90715b34b9f1000000000"
    },
    "3ae75c08b4c907eb63a8960c45b86e1e9ab6123c": {
      "balance": "0xc097ce7bc90715b34b9f1000000000"
    },
    "4340ee1b812acb40a1eb561c019c327b243b92df": {
      "balance": "0xc097ce7bc90715b34b9f1000000000"
    },
    "4a0f1452281bcec5bd90c3dce6162a5995bfe9df": {
      "balance": "0xc097ce7bc90715b34b9f1000000000"
    },
    "4dde844b71bcdf95512fb4dc94e84fb67b512ed8": {
      "balance": "0xc097ce7bc90715b34b9f1000000000"
    },
    "5f552da00dfb4d3749d9e62dcee3c918855a86a0": {
      "balance": "0xc097ce7bc90715b34b9f1000000000"
    },
    "654aa64f5fbefb84c270ec74211b81ca8c44a72e": {
      "balance": "0xc097ce7bc90715b34b9f1000000000"
    },
    "717f8aa2b982bee0e29f573d31df288663e1ce16": {
      "balance": "0xc097ce7bc90715b34b9f1000000000"
    },
    "7435ed30a8b4aeb0877cef0c6e8cffe834eb865f": {
      "balance": "0xc097ce7bc90715b34b9f1000000000"
    },
    "7dcd17433742f4c0ca53122ab541d0ba67fc27df": {
      "code": "0x3680600080376000206000548082558060010160005560005263656d697460206000a2",
      "balance": "0x0"
    },
    "83c7e323d189f18725ac510004fdc2941f8c4a78": {
      "balance": "0xc097ce7bc90715b34b9f1000000000"
    },
    "84e75c28348fb86acea1a93a39426d7d60f4cc46": {
      "balance": "0xc097ce7bc90715b34b9f1000000000"
    },
    "8bebc8ba651aee624937e7d897853ac30c95a067": {
      "storage": {
        "0x0000000000000000000000000000000000000000000000000000000000000001": "0x0000000000000000000000000000000000000000000000000000000000000001",
        "0x0000000000000000000000000000000000000000000000000000000000000002": "0x0000000000000000000000000000000000000000000000000000000000000002",
        "0x0000000000000000000000000000000000000000000000000000000000000003": "0x0000000000000000000000000000000000000000000000000000000000000003"
      },
      "balance": "0x1",
      "nonce": "0x1"
    },
    "c7b99a164efd027a93f147376cc7da7c67c6bbe0": {
      "balance": "0xc097ce7bc90715b34b9f1000000000"
    },
    "d803681e487e6ac18053afc5a6cd813c86ec3e4d": {
      "balance": "0xc097ce7bc90715b34b9f1000000000"
    },
    "e7d13f7aa2a838d24c59b40186a0aca1e21cffcc": {
      "balance": "0xc097ce7bc90715b34b9f1000000000"
    },
    "eda8645ba6948855e3b3cd596bbb07596d59c603": {
      "balance": "0xc097ce7bc90715b34b9f1000000000"
    }
  },
  "number": "0x0",
  "gasUsed": "0x0",
  "parentHash": "0x0000000000000000000000000000000000000000000000000000000000000000",
  "baseFeePerGas": "0x3b9aca00",
  "excessBlobGas": null,
  "blobGasUsed": null
}