{
  "parentHash": "0xcb50c8b8cf7e31e7e31894b505411b3fe5b10f30e790ceb34594a32658bbfea6",
  "sha3Uncles": "0x1dcc4de8dec75d7aab85b567b6ccd41ad312451b948a7413f0a142fd40d49347",
  "miner": "0x6011f7d0666e6f4c8ae52594b2ea5892254e7be4",
  "stateRoot": "0x3764459848a68f31bfcb853d19160f48f6d138fbba9a6e23f8fcd2281ad552ba",
  "transactionsRoot": "0x26f47dfbf4ce4ac70395918b8edda9cdc0628150fb752709aaede08bfebd1d0a",
  "receiptsRoot": "0x5fef357ed75d21a3ea1849a1f568009d03b1933a967bf053ec200b28d3da99ed",
  "logsBloom": "0x00000200002000010000010000000000000000000000000000000004000000900000400000000000000000000000000044000000000000000000000000000000000000000000000000004000400000000000000000000000000100840000000000000400000000020001100000040000000000000000000200040000000000000000000000000000000001801000000000000000000000000000000000000400000000000000000040000000000000000000000000000000000000000000000000000000000000000040000000000000000000000000000000000000000000000000000000000000000001400004001000000000000000000000000000000000",
  "difficulty": "0x1",
  "number": "0x1f4",
  "gasLimit": "0x23f3e20",
  "gasUsed": "0xfc61",
  "timestamp": "0x1388",
  "extraData": "0xf90252a00000000000000000000000000000000000000000000000000000000000000000b841471af2df37fc819e8cc8b7af4ea54e96356f99bc8e9cf535fb075a6dea9fe66310b69bdf6fa83ddbe543a02c45342f19af08fda88eb40a89adc14e25975e31040080f86301b8608f749d5360248f42442e857b17a970b88fe40a7a261654dbeebac9dcb6f2a9548b5f625e68927ba8b98f74d21a189d000b6ffb8ce7133ee3816a9e2b6686fafe0eb65436cf037f6aa5a7d015be2abf8763aca049f983636af0fe5d391ebb65c0f86301b86092f1f39cf5112a865a8df6ca6b3cc23370341220db6569dbd60bb0cb99d1cb9f5be599a9a9f1a2555c574ac5103e408d103c643809063f1c6117b1aa1793bf8a1cc830c58f58b0ecfffbd56d1001d93b894e28f781a998b32d1636f2f6fd8f0880f86301b86087969c5e02cd48e78f4f9dc52fb8df58815126c839902cd655ce0d69075d54d91a47c21dcd5eccb5981cd0630bb7656708fc8ca8963d1f6da1016765270d1398ab1a9f39410cd9ca22e4d9935c348b2a7e0e2db6a5992c9f5391955d7f3d874bf86301b86092b9e862415ad52fe7c1f71f71429ecdf91b7b88d75aabd060aaced992b5dfd5765c6a57f71d3ea6d41815b38f75aff409c8bb831b3dd96fe2e9c7bb4eb4340a36f2a9f857069ccc63158f333da60b6118a6c73593cfefb00581db2f29b2284486191a20322000f84fdad9946011f7d0666e6f4c8ae52594b2ea5892254e7be4831e8272c180f1b08d6b4a51b675c458e3f3c5af2ead454674a869c0070069690f13267c377fea2bb26af96ddee9846caa7da3d004dd2eb1",
  "mixHash": "0xd9e089edbc7eb70da4ff588367a04e2846ed2bc155e4f5cd347b51800ce9fa14",
  "nonce": "0x0000000000000000",
  "baseFeePerGas": "0x12309ce54000",
  "withdrawalsRoot": null,
  "blobGasUsed": null,
  "excessBlobGas": null,
  "parentBeaconBlockRoot": null,
  "hash": "0xd8ff414bafeab2e4f42d85313bc45162c759c14808b706d07d594a3b1adc112c"
}