{
  "parentHash": "0x017251ffd8f2c6ea0c1c99003249df66eb37a45423b0796a292e4a70e78e166c",
  "sha3Uncles": "0x1dcc4de8dec75d7aab85b567b6ccd41ad312451b948a7413f0a142fd40d49347",
  "miner": "0xb8be4628289be4f8e5b5f12983b25ce3e2c8d9b2",
  "stateRoot": "0x23f444862529eeb19f2d38cdd48106d86288504a5e6397d270eb7d6c114763f3",
  "transactionsRoot": "0x26f47dfbf4ce4ac70395918b8edda9cdc0628150fb752709aaede08bfebd1d0a",
  "receiptsRoot": "0x5fef357ed75d21a3ea1849a1f568009d03b1933a967bf053ec200b28d3da99ed",
  "logsBloom": "0x00000200002000010000010000000000000000000000000000000004000000900000400000000000000000000000000044000000000000000000000000000000000000000000000000004000400000000000000000000000000100840000000000000400000000020001100000040000000000000000000200040000000000000000000000000000000001801000000000000000000000000000000000000400000000000000000040000000000000000000000000000000000000000000000000000000000000000040000000000000000000000000000000000000000000000000000000000000000001400004001000000000000000000000000000000000",
  "difficulty": "0x1",
  "number": "0x1f4",
  "gasLimit": "0x23f3e20",
  "gasUsed": "0xfc61",
  "timestamp": "0x1388",
  "extraData": "0xf90252a00000000000000000000000000000000000000000000000000000000000000000b841ba89a07880a853182e0c7a0dfd76fdb5e5644310b039fcdc8bb2089426b1313a132d7aacf4dbc514d45987023ff6419b97c6fc0dbe09dcbc8daf947404bae8ba0180f86301b860b7a3a4979c3f6bc077ce1f0d04cf6187d62b6d65219cc0af09b491345978abafe906a8b90ef212948f247cf8b3553640007242d3964a43a94a86aec962923e3b0768d47a685236fefe936a5cf9c871bc522c8683ef2a075a0e7e26d9cc769eb8f86301b860ad95648cd0c1a736827800584db1fec5afc0c6cef8daed0cfbc2aea6a3aa19157c9c1303a6578a213e8d6ebe45884f2707e68ea28bbd1e563a878ebd7a474066226d07993eee3d2b4f37a9a4690b0bf38a47467842623133881bd797bbfcb76580f86301b8609011efa34b89ddb9298f674858683534937bf0c3f61174a4e8bad318ee3d8440b87649954e5a78a1bd1b3f22f9df27e209fc121964f55219a02ae737ee1a69e34c541b4b4a18e2717a597ffe17474d4ff968907dea0a8f9ed1a771b889d6058af86301b8609242b6e3989748de0a0117b59b1ec06d2f8c2c868f13c127bdabaa0650427aac4aac0eaf5f450f4de482d4b2b08fc99b0ea452315e2f25f5fb645c42842745aca533597cc847d84602b8cedd305ad66fd3f0becc29d7e40fcae7ccc4a51542f786191a20322000f84fdad994b8be4628289be4f8e5b5f12983b25ce3e2c8d9b2831e8272c180f1b08c811b49423ae1422adc30447b11f8a881f2b4f233b67c6df10ed5e6df482854a30c05f950af790108f37f075dbe93a0",
  "mixHash": "0xafbf70bd83dbba0db618b3ad1bd6f56eff04d020a0554849df15cf7cdc8c2362",
  "nonce": "0x0000000000000000",
  "baseFeePerGas": "0x12309ce54000",
  "withdrawalsRoot": null,
  "blobGasUsed": null,
  "excessBlobGas": null,
  "parentBeaconBlockRoot": null,
  "hash": "0x7379a35686353d5813a7e09ba67d6582bb7557a631f148eafe4df73c60b14e37"
}