{
  "parentHash": "0x48a5e863cec5b40db2e88d5f4256d3bdb0289f8945ec76ad5f6ef364df1652cf",
  "sha3Uncles": "0x1dcc4de8dec75d7aab85b567b6ccd41ad312451b948a7413f0a142fd40d49347",
  "miner": "0xcba83b761af03231e843c8212ef26888cb344291",
  "stateRoot": "0xc716ad9ee10023d21cce4987d014a8541c8846c21a89d7c4f7a86e44ebed796f",
  "transactionsRoot": "0x29645b32924a5e20d77b9871ec2e848d9761f9de658aaf139e0a3104dd1a1ae2",
  "receiptsRoot": "0x5fef357ed75d21a3ea1849a1f568009d03b1933a967bf053ec200b28d3da99ed",
  "logsBloom": "0x00000200002000010000010000000000000000000000000000000004000000900000400000000000000000000000000044000000000000000000000000000000000000000000000000004000400000000000000000000000000100840000000000000400000000020001100000040000000000000000000200040000000000000000000000000000000001801000000000000000000000000000000000000400000000000000000040000000000000000000000000000000000000000000000000000000000000000040000000000000000000000000000000000000000000000000000000000000000001400004001000000000000000000000000000000000",
  "difficulty": "0x1",
  "number": "0x1f4",
  "gasLimit": "0x23f3e20",
  "gasUsed": "0xfc61",
  "timestamp": "0x1388",
  "extraData": "0xf9014da00000000000000000000000000000000000000000000000000000000000000000d594cba83b761af03231e843c8212ef26888cb34429180f843b841b9734048f3ca2eacf093f0536548b4d10f3d0787d2769c7905d885979484f3973f869f6f591d67f4e17d5acd20ab2b5981c9f2bffcad7bc4c80c672411718de400f843b841696cdd59766988bce2f19df5c663c6dad90b1e93f561b16ca130c20eaa7d901c3c1b6c532aa54f8cea2c413f4e3b5cfd0f85cab55ed9f9c5f3a6f449677bc85d0180f843b84163e08e92e9894ecc12f7384fb70951a4ff6784d903c2149cd4479828c286a289442e7553abc539d8747cb0674633d000d6fd5d8fe778d797e8c07dfa9210383800f843b84120df68301a2018476f74d415865739ded83b5f3009b671b3a4ccae869f2350a001366d3674829e77b112483abbb22138304067c0b30df0854d66219ea9ef723b00",
  "mixHash": "0x0000000000000000000000000000000000000000000000000000000000000000",
  "nonce": "0x0000000000000000",
  "baseFeePerGas": "0x8",
  "fees": null,
  "rewards": "0x",
  "minerNodeId": "0x",
  "minerNodeSig": "0x",
  "withdrawalsRoot": null,
  "blobGasUsed": null,
  "excessBlobGas": null,
  "parentBeaconBlockRoot": null,
  "hash": "0x181347c6db8aff1c2ae82e1f4e8ca09cc8471f74a5d7b2a351b822bf672ba07b"
}