{
  "parentHash": "0xc39cf36938ffa3f28dfaef6b429b18fbe7ce217a17ef783f9c493f14571d57fa",
  "sha3Uncles": "0x1dcc4de8dec75d7aab85b567b6ccd41ad312451b948a7413f0a142fd40d49347",
  "miner": "0xeabb4598e5a160b0e78a6ba0b228a010e56af62f",
  "stateRoot": "0xf66206d82039064d8beea732096482d95ffa5d87347cd3005166641cb4700e05",
  "transactionsRoot": "0x29645b32924a5e20d77b9871ec2e848d9761f9de658aaf139e0a3104dd1a1ae2",
  "receiptsRoot": "0x95de1a11802f8510d947a32654da78b804158d854b57fc5cbac6d21b692200e6",
  "logsBloom": "0x00000200002000011000010000000000000000000000000000000004000000900000400000000000000044000000000044000000000000000000000000000000000000000000000000004008400100002000000000000000000100840000000000000420000000020001100000040000000000000000000200040010000000000000000000000000000001801000000000000400000000000000000000000400000000000000000040000000000000000000000000000000000000000000000000008002000000000040000000000000000000000000000000000000000000000000000000000000000001400004001200000000000000000000000000000000",
  "difficulty": "0x1",
  "number": "0x1f4",
  "gasLimit": "0x23f3e20",
  "gasUsed": "0xfc61",
  "timestamp": "0x1388",
  "extraData": "0xf9024ba00000000000000000000000000000000000000000000000000000000000000000b8417f3bead0df21c0621eec9aecf4a2a12b6358b4734e13ef99a1566024ac31f2f355b1fff4b73134971b7fbe7ac5ed5573e207da8035a3258d959869b8a4f1ef6a0180f86301b86081b6cd4e8ea8b4283e4b2e5e88e542705d507192fe8309a69e9d4176dfff35e767f195e8b8e45ac9ed1d9c8b32a990ac06ce8ff78a60d6770b0d959b9da1c197c839516f3abdbcbcb794e28fdad0b8305370ef0b0f85a8a804be081ac3731148f86301b860acc3a39321b2c6b4d2ceb4893e6a4aa604e28918a00f3ab73643752adbb36a710c5ade613178fec2dc61c94f703d46671508c2cd134405b19d8fce891a3b1310706f9d873a45d19db007aa697db297e3f635fae9e1bf8eff303908e7caf776e980f86301b86099c48d4951090d2c935e5f5682a07b2456de1e1d53cbd1d598c943e53b51ba228616c4738d9abdd29072e3c1403da3e70534ad3cb95ab813290f8eab18789389e2155a48e32bd02b8d253d28aa9cb2ec0d29be8d21e1025b870de170e4185fadf86301b8608f62b88183a64b9e626d2d5c6591c87d4ce61b5ef93316003981b4dd95a281fda36572e8d6f6b8846f3e72a08f97c86201cf6bfac05aa8eee6cdfd0ef46cf5582986c459db20700434efc35eca112fdc11b65c083ce1b09fd7b300d07a6337eef84fdad994eabb4598e5a160b0e78a6ba0b228a010e56af62f831e8272c180f1b0a83fff9ad44665317b0f483848c7d6e629059ab98bcda3207609208d4a1f14497a620d8d0451b1e1985bd103d56a9197",
  "mixHash": "0x2f23afea2db2c6cd43c8d724177484c139c87e942b9870b6762adb16b2c1c1b1",
  "nonce": "0x0000000000000000",
  "baseFeePerGas": "0x8",
  "withdrawalsRoot": null,
  "blobGasUsed": null,
  "excessBlobGas": null,
  "parentBeaconBlockRoot": null,
  "hash": "0xce5f557e3ed788ad6624a8d936777cc871e665117e431b81df1c0d8b8b694653"
}