{
  "parentHash": "0xc49c4b3a14006d927e616f063b4d0c6d260c25fefbb1f3a4f8bce2b0334b2987",
  "sha3Uncles": "0x1dcc4de8dec75d7aab85b567b6ccd41ad312451b948a7413f0a142fd40d49347",
  "miner": "0x2455c65fca925a8d4f32dd8560a4863135f71fca",
  "stateRoot": "0x36f433b03b19ee38fbe075ab7c376b032b3d7157ed78a631941548e0946e39d5",
  "transactionsRoot": "0x29645b32924a5e20d77b9871ec2e848d9761f9de658aaf139e0a3104dd1a1ae2",
  "receiptsRoot": "0x3234db2a1953f5942dfb91d2f685ec2be167d2f1dc8707b156b6f6668bb6ab37",
  "logsBloom": "0x0000020000200001000001000000000000000000000000000000000400000090000040000000000000000000000000004500000000000000000000000000000000000000000000000400400c400100000000000000000000000100840000000000000400000000020001100000040000000000000000000200040010000000000000000000000000000001801000000000000000000000000000000000000400000000000000000040000000000000000000400000000000000000000000000000008002000000000040000000000000000000000000000000000000000200000000000000000000000001400004001200000000000000000000000000000000",
  "difficulty": "0x1",
  "number": "0x1f4",
  "gasLimit": "0x23f3e20",
  "gasUsed": "0xfc61",
  "timestamp": "0x1388",
  "extraData": "0xf9024ba00000000000000000000000000000000000000000000000000000000000000000b84109bfd27e9cadb9dcee18fa50464f90bd2801bc493a572ed9901e5a1fea30453117ea5e43a6ff5ce9f0d113a6a547c738b07ed0cf32539209200eb5497d91cb4d0080f86301b860b725318348c0196718737e7344d554933250d21c144282136663387e2f7dc35055dfb263a46e06119e17c146f451e532183a47feadf3e10563380ca8a59a3b69b28fa685c2503a090e96c5c796a3204b74fb2c71d420ff288a3f7a9cc377eb79f86301b8608f93b3b540fa846f47f03662559a5506f90db13c88cb522e26d1c5a991cec36cf36a43118ddd83244400c0eb31a613a412ce23c6bd295ec59d6b781ef2ce97bbd8278b42ff81d75e708fbbb3998fa4dea5d51778a3ece82bdf0105ab8ca87bef80f86301b8609344fd6b1354e7d419ff353c9c497934820d78cf86708852e0d10de27228b4d16dc080926ff7cef788a384678d5dd39f05996e3773a0209fef82578339f08d938e7a2d882a3f17f546ccbf41ea787381612cb9b87bdd955a3177308abe89e375f86301b86082463cd8f93b37908620b3503ade3d4f39026562ebede704b062714bdb8cab59b05abdd08bcc3cb3678966ddc7740a940be8a693958183aea0a4082418acd29109714f1df6bd23721f21d718559ccddbf256163ac35e70b35132a31fd08bf564f84fdad9942455c65fca925a8d4f32dd8560a4863135f71fca831e8272c180f1b096d4360d6e0b12e29aeb494cf1cc742d1ca52eab092455f95980de52c796a4a7d52863fca35f0127f4151610667bd5a9",
  "mixHash": "0x56b523571e46ef587176b98265671d36e8c2035097bb2f6a712141387524c115",
  "nonce": "0x0000000000000000",
  "baseFeePerGas": "0x8",
  "withdrawalsRoot": null,
  "blobGasUsed": null,
  "excessBlobGas": null,
  "parentBeaconBlockRoot": null,
  "hash": "0xf6f73186ff8606cd6f6cba43b5f5767b05c4b8a4949f260a8656ab516b5c7191"
}