{
  "parentHash": "0x3887749c5a09bf3fc72d44f5ceb75dc68d33f054c1fd76da81fb0227d6f1cba3",
  "sha3Uncles": "0x1dcc4de8dec75d7aab85b567b6ccd41ad312451b948a7413f0a142fd40d49347",
  "miner": "0x2bd4c135f35a4aa58db00ccf08f3a8cded846554",
  "stateRoot": "0xd0f9b10c2e965c66f8939be7d06ef630a9b8d57420247319671f84e6e1f24ec7",
  "transactionsRoot": "0x26f47dfbf4ce4ac70395918b8edda9cdc0628150fb752709aaede08bfebd1d0a",
  "receiptsRoot": "0x5fef357ed75d21a3ea1849a1f568009d03b1933a967bf053ec200b28d3da99ed",
  "logsBloom": "0x00000200002000010000010000000000000000000000000000000004000000900000400000000000000000000000000044000000000000000000000000000000000000000000000000004000400000000000000000000000000100840000000000000400000000020001100000040000000000000000000200040000000000000000000000000000000001801000000000000000000000000000000000000400000000000000000040000000000000000000000000000000000000000000000000000000000000000040000000000000000000000000000000000000000000000000000000000000000001400004001000000000000000000000000000000000",
  "difficulty": "0x1",
  "number": "0x1f4",
  "gasLimit": "0x23f3e20",
  "gasUsed": "0xfc61",
  "timestamp": "0x1388",
  "extraData": "0xf90252a00000000000000000000000000000000000000000000000000000000000000000b841d6504b2cc833beb274e745708d5d5837fbc5ff4aa370654c4f5a928b9a4081fe29d54496378e28bf2d95f4584e407e0d4aaa3907076ef1711ad05f4b01403a1f0080f86301b86083c7fec667caead97972ee1a4ca7f704aa6cdac5fa032e239584f878861de06ede5ea1dc93e2882ea35e53dea28b23e005624d2c59d2ff9644537a0c1d9d5371d193bf9b7d5370f2a4a6b4f8384a2205baa04b801c0465e73b3b51b779b06933f86301b860af64693cec6eeb2dff72902d00f7a5582cb49e36df0364b94c568d58e99addbb6c0714dc7407488db2cbfbfdabdd09bb182fe0447a23579a289fe9e06959fadee1dda6e5d8e48fdc409d401109d7fb5e943acaac57284a72679a7579e3bb94f980f86301b86086feb11a433f123feb5bf5967314ee637db08c2b1bf631241d728539f2797fc32ff803a26ab0a7b595d4a238bc7e503d11d081db89a801256c2ba738367a657ce9addc7cd2c7cc4a53eed92f29fec825baa8757a7c5aab537796786815f5d53af86301b8608620eeca02dd877f7f1aa2339bed5659041ddcc100249c6f28945292d0e30a3adaf48c67fdfd259fb7d42e1201ae308618fb784c07d8161590cf0802fe2ef61c01f74b242084f9df26c343eff54e5d9c1b6d526dcf58a1f5112fd3a9d68ddfa586191a20322000f84fdad9942bd4c135f35a4aa58db00ccf08f3a8cded846554831e8272c180f1b0a14609bac26529cdcbf2b223ef468b1de248828e9166f8ebac4776352a0bdb257612918aac553d6e0f14ce33c4c43370",
  "mixHash": "0x0e40eddfbd6bedbf949a9537fc7bb2ea34ac02ad0972f4689c38f6e3cee0c64a",
  "nonce": "0x0000000000000000",
  "baseFeePerGas": "0x12309ce54000",
  "withdrawalsRoot": null,
  "blobGasUsed": null,
  "excessBlobGas": null,
  "parentBeaconBlockRoot": null,
  "hash": "0x2a2794d209b278550d2fdb9ce8938066e726292c0366eabb52bae4da42f005d4"
}