{
  "parentHash": "0x736ce64d2988c8307c550c1b3ee01ea171aa96e772229ad57acfbd9570e3c1d9",
  "sha3Uncles": "0x1dcc4de8dec75d7aab85b567b6ccd41ad312451b948a7413f0a142fd40d49347",
  "miner": "0xa22daa33b09f57c90783345129989c48e23f5742",
  "stateRoot": "0x99824cf52531c3aa9d0c1a6ca745103003efb1873aa1850c8cecf91250c33486",
  "transactionsRoot": "0x29645b32924a5e20d77b9871ec2e848d9761f9de658aaf139e0a3104dd1a1ae2",
  "receiptsRoot": "0x0d2dc08e805c4055168acc9348f628a8c4f8e62213ef9ebf908129defc62eb3c",
  "logsBloom": "0x00000200002000010000010000000000000000000000000000004004000000900000400000000000000000000000000044000000000000000000000000000000000000000000000000004008400100002000000000000000000100840000000000000420000000020001100000040000000000000000000200040010000000000000000000000000000001801000000000000400000000000000000000000400000000000000000040000000000000000000000200000000000000000000000000008002000000000040000000000000000000000000000000000000000000000000000000000000000003400004001200000000000000000000000000000000",
  "difficulty": "0x1",
  "number": "0x1f4",
  "gasLimit": "0x23f3e20",
  "gasUsed": "0xfc61",
  "timestamp": "0x1388",
  "extraData": "0xf9024ba00000000000000000000000000000000000000000000000000000000000000000b841983f523dd9b50885e1286e00b6b8ad2ae48c4a79e633da9ee5c266595a18496c746f1d269ad3ee58c575f34d3dcadfb923e1dbeb7bbd6fdb35f01382027d427f0180f86301b860aae8f4d7c691cbece877b3421843733bf6369895aacedc7cb0fe78818f18f216e1dad5b3208c67f1f11af5bbd7ca6b5a1716d7a8914124bc659c56103bf6ad3a0d303516b2938064c979cef33601a57c668495193dff145d6f077c6f0a7af289f86301b860b53f4a32f73c82e9b1b684307b1d55d13f604aa89d8664473250710d6e1ecb8eea16e641e211c34e38b3ebc88a63522a12a964db75df1b9afb81f8a621b883809172af48f27a7384f6ff5c55a84f482403b824718db7443bfb3aeaecfe005b8280f86301b860b0980084bac56306c6b66266085eddd8ef8d220f3b6545cb55da506b42c37765ac2984e10b91104b2daaddb00bf4251a075eaeb5aab7975f203498927f2a7e1635fb1831891e72c6f9796022a13c07d177f40519512903488f682dd2bb4b845af86301b86086306e312a92c2486a68b8a737708625456d1fc1e1b8d4759dd9915e97c2ce8e4cc30d71b0bdab33794babef1e80f8ac089125d96a34a316b2b4dec7496bc05ec6ddd160a78e6709e5ebe0eef881df5fead004311c6af09af27ac67bb9cb8c1bf84fdad994a22daa33b09f57c90783345129989c48e23f5742831e8272c180f1b0ab912ab8de03cd0669f895cfc81513a81a3f9ee638e9584b7ff5276327b1423f030ad8d45e303886a22b379606a01d5f",
  "mixHash": "0x90b4b790e6223c452695758a3b3b9dca9109e667b6810b4cb25df714cabaeff2",
  "nonce": "0x0000000000000000",
  "baseFeePerGas": "0x8",
  "withdrawalsRoot": null,
  "blobGasUsed": null,
  "excessBlobGas": null,
  "parentBeaconBlockRoot": null,
  "hash": "0x8fee385d93e443c8cd97206edaad27b3c73e83c159fdd5eab39888e4f734c4bc"
}