{
  "parentHash": "0xa15410b625882ffe13cef2e30e6733c33c24404f770655c327f06276fda3e615",
  "sha3Uncles": "0x1dcc4de8dec75d7aab85b567b6ccd41ad312451b948a7413f0a142fd40d49347",
  "miner": "0x7a2b5390bb632269133d3b7eda466b4b44bf2762",
  "stateRoot": "0x6c95616f8f988fb794ba25b6027b4643f4cab89f03d19a317a26561bf07392cd",
  "transactionsRoot": "0x3872575d14095b63f1ccf5e55b1548ffb68e1175d70cc7d39e8bfb24edbfda92",
  "receiptsRoot": "0x71ac7511ee584f8bd35a714fbf557100955ffcc94bec4fd69a3133b6c3888eae",
  "logsBloom": "0x00000200002000010000010000000000000000000000000000000004000000900000400000000000000000000000000044000000000000000000000000000000000000000000000000004008400500002000000200000000000100840000000000000420000000020001100000040000000000000000000200040010000000000000000000000000000001801000000000000400000000000000000000000400000000000000000040000000000000000000000000000000000000000000000000008002000000000040000000020000000000000000000000000000000000000000000000000000000001400004001200000000000000000000000000000000",
  "difficulty": "0x1",
  "number": "0x1f4",
  "gasLimit": "0x23f3e20",
  "gasUsed": "0xfc61",
  "timestamp": "0x1388",
  "extraData": "0xf90252a00000000000000000000000000000000000000000000000000000000000000000b84104146ab708521c17112a712b4841242fd815cea407439ee9921ecd133c7824da4f3e87c915311a82c30225153c8ec9bb24a108fb3bb524d8f4d24205053929180180f86301b860b82c5e057b94ba284bf2e1c72aa1be8bd98a1758003bbb5a13f998917da913d39f0cceabef42d7017c282bcabd47a52110a7cd965931eaf250774e244810a92301b7030601022e3f657619bb9167cbe9719e63298ee4a07f1be6208e5d3fa662f86301b860a9c92e8e6b63384301858395e2af6a6c4b0bee2ab8735afe57327fd6f2252aef74c59b1e2604f08941423515bf617e40003fc0c9374f6fc5799ec94026689bcc51eec82e8c2d6cf651df32b0f7115bf086b91bb680aed31d4fcc55ab5b16d2cc80f86301b860b9a95dbfb04976e9f428199a6b1f54ffaa8cc07e2037952a8e4296172ee6ad7955c903207a26d610cef47fe7ecd940ea0584dbcf58846d7d423d438297b8d3bb483cec136c6efac66a1b6f2a9e6fb714bf21e262093f4f6e07b7c65c661f6502f86301b860a2a281fdbd6b753ad3d7ffdf23981e74d47fb31e938a6bcce354ba5e3d8ab5682432f0eff767ff0b0ec6e12b42a44c961672f63f1151900e4e588a448352cb01eac18d5534343f576133dfda5d94e1a5a885a38723a53a1c64e80448ca9ce4d186048c27395000f84fdad9947a2b5390bb632269133d3b7eda466b4b44bf2762831e8272c180f1b097c400fd91b90fa95292799990277b547df8b87cb866c2e77ac0e0ffa2a6558ef7087a0785870202c45dd49c5de147b3",
  "mixHash": "0x1abd716350517c438bc1671a73af2e285baabea8541ced8f0ed9eeb8fd31dccb",
  "nonce": "0x0000000000000000",
  "baseFeePerGas": "0x48c27395000",
  "withdrawalsRoot": null,
  "blobGasUsed": null,
  "excessBlobGas": null,
  "parentBeaconBlockRoot": null,
  "hash": "0x5963f533df1abbcf81b0e74089902c77112c129855f09a26dbd15e5d034dbf61"
}