{
  "parentHash": "0x3eb648cb666baef911277955f4632552087f4e4227bd7105e3708397af617f4a",
  "sha3Uncles": "0x1dcc4de8dec75d7aab85b567b6ccd41ad312451b948a7413f0a142fd40d49347",
  "miner": "0x9872e15e34150b3f19c735e08ca7b20351a12ecf",
  "stateRoot": "0xc1875f991fac1b21c9a42f18a86b6186225dc26d32f0453679fe7231058ee341",
  "transactionsRoot": "0x26f47dfbf4ce4ac70395918b8edda9cdc0628150fb752709aaede08bfebd1d0a",
  "receiptsRoot": "0x5fef357ed75d21a3ea1849a1f568009d03b1933a967bf053ec200b28d3da99ed",
  "logsBloom": "0x00000200002000010000010000000000000000000000000000000004000000900000400000000000000000000000000044000000000000000000000000000000000000000000000000004000400000000000000000000000000100840000000000000400000000020001100000040000000000000000000200040000000000000000000000000000000001801000000000000000000000000000000000000400000000000000000040000000000000000000000000000000000000000000000000000000000000000040000000000000000000000000000000000000000000000000000000000000000001400004001000000000000000000000000000000000",
  "difficulty": "0x1",
  "number": "0x1f4",
  "gasLimit": "0x23f3e20",
  "gasUsed": "0xfc61",
  "timestamp": "0x1388",
  "extraData": "0xf90252a00000000000000000000000000000000000000000000000000000000000000000b841e09e92fa857cf795b0d73582c251bbb81fc6a5291a8197748d7c9b340c8bd0864198104e8975c150485c0f9572361ae9759490925793257f784d8b4f49a1b8610180f86301b8609425457bfdb6f0626afc67d78b91b85baae3c1ad732f6e35dbe525cf55d0454fe3ced1b07316c375ce997045b0af6e6f0b92c38995696122a6cbee313a3dccfd38a7b32ae132973b15b94516c8375dffb8863f68aeb82a8308fee5fb7b3457f8f86301b860add41855cf2a38bc815fbc6f108e6250fee290336ef1179dddf8a7c1a020fa34a642503c18772ee1d3749448118a82e70381788969a0a6091b6195637bacf954ff7b12271ebb69fe3500c44d10f0a4243133cac6b1264b94fa1bd842cb0e37a280f86301b860b96f9021cd1dd6c4b45614b8069139510f757c60a8c3cb0f60d8d0ed5dff8bad42f62f939adc3ee2d0629cacf9281c4e05498e8b011ba714ecc6fe28cdf42a058e80606b57bcc25186d4cf49385586d9379074e1fc3f711dadc0c0937e599c76f86301b860b1b1dcdfc3e536bd6e218f9873c2d27666e9b3d2fbe0493fdf380c52a6e2c525b2a25614b7c38aeeb97cdf059d51880f0a7330bae2a5829e666b620d1e05b1b73c6599bcb4119f09f32b5196258ad12ea437137394098deb2bb26f2ba8bec01b86191a20322000f84fdad9949872e15e34150b3f19c735e08ca7b20351a12ecf831e8272c180f1b082bf12f6316dc4c41227e026fd5e182f226d56e61655009970fa5af9d7f9796fc72e25932a236359a165f522fbef64b8",
  "mixHash": "0xb7b05742a50404e590d9806416ec20c6e32e1e90fd01dbf18e45a5b4df2e736e",
  "nonce": "0x0000000000000000",
  "baseFeePerGas": "0x12309ce54000",
  "withdrawalsRoot": null,
  "blobGasUsed": null,
  "excessBlobGas": null,
  "parentBeaconBlockRoot": null,
  "hash": "0x3e9cf8d58a360764ec3948ae36cc0c55cddf2d853f036035352e88d849c6cc10"
}