{
  "parentHash": "0xc03c65c1b9feab71dd48f59c51a1388196aa3277afbbfea66f28dc07645cb710",
  "sha3Uncles": "0x1dcc4de8dec75d7aab85b567b6ccd41ad312451b948a7413f0a142fd40d49347",
  "miner": "0x2f33c2ab3813977e65e6fdcc665a45a68ae3feb1",
  "stateRoot": "0x67b139723a3119ff5d58a8ddab1affff134df8128224ecc7f4f733076c673c46",
  "transactionsRoot": "0x29645b32924a5e20d77b9871ec2e848d9761f9de658aaf139e0a3104dd1a1ae2",
  "receiptsRoot": "0x5fef357ed75d21a3ea1849a1f568009d03b1933a967bf053ec200b28d3da99ed",
  "logsBloom": "0x00000200002000010000010000000000000000000000000000000004000000900000400000000000000000000000000044000000000000000000000000000000000000000000000000004000400000000000000000000000000100840000000000000400000000020001100000040000000000000000000200040000000000000000000000000000000001801000000000000000000000000000000000000400000000000000000040000000000000000000000000000000000000000000000000000000000000000040000000000000000000000000000000000000000000000000000000000000000001400004001000000000000000000000000000000000",
  "difficulty": "0x1",
  "number": "0x1f4",
  "gasLimit": "0x23f3e20",
  "gasUsed": "0xfc61",
  "timestamp": "0x1388",
  "extraData": "0xf9014da00000000000000000000000000000000000000000000000000000000000000000d5942f33c2ab3813977e65e6fdcc665a45a68ae3feb1c080f843b8413b42de15bdc53f6e7c5bc3efd3e3c394181af1640ac2b37f55f20ec62a19d754089bb153d61a3fdc4048c70a797ab867161233839c7fc7caf2d64cf3d801046900f843b841fbc6cb2d1ece1d30de1e83aa7c8903c6b6b399de313eacc24156aa5c7d4da8b215f48fb12912d33795060b9d75bf70eccf4e22b016dfd2c1c0163de8e117136500f843b8419d1519ad7f6ee9897981693290762e09ba39754bab3f8ce505869a529661c6b5491b0d8ca2b1ed682862c5a431acb69dd2cb1353d45c642eaaefb374146afab300f843b841185c750888a00488c5a93ebc4944ba77ad69158c80eb28135524aa5f0fabc83a4637f9be5fca926f2c84542988d96b569a61546c9fd1799e58402ccacbc8a2ec00",
  "mixHash": "0x0000000000000000000000000000000000000000000000000000000000000000",
  "nonce": "0x0000000000000000",
  "baseFeePerGas": "0x8",
  "fees": null,
  "rewards": "0x",
  "minerNodeId": "0x",
  "minerNodeSig": "0x",
  "withdrawalsRoot": null,
  "blobGasUsed": null,
  "excessBlobGas": null,
  "parentBeaconBlockRoot": null,
  "hash": "0x62ce63b5f29110839d6c630c4c28bb5fa6dd3f88f0537d3169581f0b5a8ee544"
}