{
  "parentHash": "0xc6402e826d2bcbae58b400f5dba4f429a15ecd2e5ccf1c374f65b24714fa5e8b",
  "sha3Uncles": "0x1dcc4de8dec75d7aab85b567b6ccd41ad312451b948a7413f0a142fd40d49347",
  "miner": "0xf434933872420f3217e32422627e13518202f38c",
  "stateRoot": "0xd469323d5860d80ece70dc13f46b260391f11bac460cd32200928448f28833e7",
  "transactionsRoot": "0x26f47dfbf4ce4ac70395918b8edda9cdc0628150fb752709aaede08bfebd1d0a",
  "receiptsRoot": "0x5fef357ed75d21a3ea1849a1f568009d03b1933a967bf053ec200b28d3da99ed",
  "logsBloom": "0x00000200002000010000010000000000000000000000000000000004000000900000400000000000000000000000000044000000000000000000000000000000000000000000000000004000400000000000000000000000000100840000000000000400000000020001100000040000000000000000000200040000000000000000000000000000000001801000000000000000000000000000000000000400000000000000000040000000000000000000000000000000000000000000000000000000000000000040000000000000000000000000000000000000000000000000000000000000000001400004001000000000000000000000000000000000",
  "difficulty": "0x1",
  "number": "0x1f4",
  "gasLimit": "0x23f3e20",
  "gasUsed": "0xfc61",
  "timestamp": "0x1388",
  "extraData": "0xf90252a00000000000000000000000000000000000000000000000000000000000000000b8410376e42ae8b5b97ae54a377d0449c72dfd08bbd8ce7d847c23ad9d5c19253fed4ceb840db078afff53879738b4e3be36c4dd66379af1844fb80167fab2130e310080f86301b860a5ccb5d9181e3ef05f91b0604c55319994c9e64030a35fb1d10f287729a70b06ddf8a612e29d66398b6a50e9b92e49cf06a77f860dd58cb67a367255c77176cf4bda425468f88043d77cbb3f58f08af5e2289e9b51a3fa72d45b914187ea4e5df86301b86092f72d65c12209cdbe9ce715eceb9d0cc222410d088880f92dbccbb11eade4c774fb268f65edb380c7ff8ba6558d9cf30caa532ee9f2a9bcd1256cc6a41ad9e0c00c9bb88465d80c1e66ce9120189046861dc2827856c10276af2875273b159d80f86301b860b1d23330e103651fa79e77526d735e9d8ce8aa00e61d478ccdb7f2622c95eb529d8d526d9a7e5dd036714f6b9a45e0ea183ea09183bc352ee2bb5b6af8586297a76488bb97e80ed8ee6d4e94e2227038283a24b6a1d6a32b9f4df641e4d142f9f86301b86082061e76692f0c25c3b2e3c26fce02b9be510264bd03ee4cd76b9f6d2ddea564a6287936d9e5172fe51fb6283b30698003cfd110999d62549c7b3d0717acda76bc5dc2c2bc57f009ee86a437d052c7b9f98169b6aba4b9f4782822ccdca70fa786191a20322000f84fdad994f434933872420f3217e32422627e13518202f38c831e8272c180f1b08a78a87fc52fc61d714a1026634d945db1d1d481777c395c744fdfdec75680b2901739d3a5f166e09a018bcf93d5ca97",
  "mixHash": "0xedbc5610a3108c4b9f3fdf42cc3307df30ea67cdbc9a23aba2d01c02cb2f07aa",
  "nonce": "0x0000000000000000",
  "baseFeePerGas": "0x12309ce54000",
  "withdrawalsRoot": null,
  "blobGasUsed": null,
  "excessBlobGas": null,
  "parentBeaconBlockRoot": null,
  "hash": "0xa9568eb63def2ec3c2e936486fc9da0e67244292a3fe3e57772ed194de33860e"
}