{
  "parentHash": "0x346234d2b2d668617bd1cb4869d688ecf3d02a5a647a1b50cc43db82e0bce311",
  "sha3Uncles": "0x1dcc4de8dec75d7aab85b567b6ccd41ad312451b948a7413f0a142fd40d49347",
  "miner": "0xeb0e86b6bec4a61d8d21823b55c2bdc7e4179de0",
  "stateRoot": "0xdc6d166822e7ff2d8db8b49b85fda632b3c4987cbd97b2a146b425ddd78b6091",
  "transactionsRoot": "0x26f47dfbf4ce4ac70395918b8edda9cdc0628150fb752709aaede08bfebd1d0a",
  "receiptsRoot": "0x5fef357ed75d21a3ea1849a1f568009d03b1933a967bf053ec200b28d3da99ed",
  "logsBloom": "0x00000200002000010000010000000000000000000000000000000004000000900000400000000000000000000000000044000000000000000000000000000000000000000000000000004000400000000000000000000000000100840000000000000400000000020001100000040000000000000000000200040000000000000000000000000000000001801000000000000000000000000000000000000400000000000000000040000000000000000000000000000000000000000000000000000000000000000040000000000000000000000000000000000000000000000000000000000000000001400004001000000000000000000000000000000000",
  "difficulty": "0x1",
  "number": "0x1f4",
  "gasLimit": "0x23f3e20",
  "gasUsed": "0xfc61",
  "timestamp": "0x1388",
  "extraData": "0xf90252a00000000000000000000000000000000000000000000000000000000000000000b841ccbc0ba8eecb30ad1f0a3ea70f33cb111b38f8eabcb26c1a58d6d8ca6f216b39422d92b6587614ab484420e2748640217a114642b226632a28ddcebd9226a22f0080f86301b860802172b048fd6cbb28714432f1bd83466945a865a4aa0ec409e734a499d5d3a438643a4df7c44e2e7f9f58312ef4a06a0709ac20454c186d73d400cfa94808f6971ee1cf60c9f632a23c43e98c7cc73ac86a260fc0bbd1b0d75384e180850055f86301b860b30001165847db1ecdb7217109a9793256feac15e64c1e0e47dbb9065e28ea579b9a065ad801432c2dcfa138419012fa0a8c9d45c55afb5d1e3b673fad3da41112d7eaff5aee57010a45e79733b348dab084169f7398f52819fdea7c7a21681e80f86301b860996586e84ebf7e85393d844c430b10d651124a0608c988b254e0c63e8102917ae42d8feb12a8a174a5c4fc10f808a6830858c57972a39008ba1f375f803e49f7695a7f0cbb97377864f140a46a33d2ec2dfcee3ac376ef443f8b9d0a9991282af86301b8608028252e76f7d27b18ad9935cf97d10d3ee596d0853718192e2274d86210922d27262d995a74e46bb53cee397630af5b01b283c652df9267d81596ad42160993f6192fdbf22bde4a17123513bb4ca3b23a85bdbdfa8513551d01f9dd9b7105fc86191a20322000f84fdad994eb0e86b6bec4a61d8d21823b55c2bdc7e4179de0831e8272c180f1b0b6fc612b153bd854d2f7cc3f3736f8994c67bcceb7efc7282b013bce7ee0618efe2c640eace4a88d78f4cd46087801b5",
  "mixHash": "0x5ceafa251293d8db210e7ff450382a28ad6acdb7302fb4dc49bd4519ddb9172c",
  "nonce": "0x0000000000000000",
  "baseFeePerGas": "0x12309ce54000",
  "withdrawalsRoot": null,
  "blobGasUsed": null,
  "excessBlobGas": null,
  "parentBeaconBlockRoot": null,
  "hash": "0x8311db2ab904011718ea03cceadf881124ddcb1ed699f5c9a9e8cc134736ea6a"
}