{
  "parentHash": "0x8124d03b28a28834377c14e2a8b639e6b052695bcbe30e97e5cf2cb7b2686406",
  "sha3Uncles": "0x1dcc4de8dec75d7aab85b567b6ccd41ad312451b948a7413f0a142fd40d49347",
  "miner": "0xe132ef23dc1c31c4c14d34fcf0a556348b72b5ec",
  "stateRoot": "0x6b335a45427533ab7e29ddc928253fc4535e1318a827f7534294f81a6173cbcd",
  "transactionsRoot": "0x29645b32924a5e20d77b9871ec2e848d9761f9de658aaf139e0a3104dd1a1ae2",
  "receiptsRoot": "0xf0ed744a8bef322abb9973a45b99b2f56d879d67760a605e542bdf42cf99f55b",
  "logsBloom": "0x00000200002000010000010000000000000000000000000000000004000000900000400000000000000000000000000044000000000000000000000000000000400000000000000000004808400100002000000000000000000100840000000000000420000000020081100000040000000000000000000200040010000000000000000000000000000001801000000000000400000000000000000000000400000000000000000040000000000000000000000000000000000000000000000000008002000000000040000000000000000000000000000000000000000000000000000000000000000001400004001200000000000000000000000000000000",
  "difficulty": "0x1",
  "number": "0x1f4",
  "gasLimit": "0x23f3e20",
  "gasUsed": "0xfc61",
  "timestamp": "0x1388",
  "extraData": "0xf9024ba00000000000000000000000000000000000000000000000000000000000000000b841c0fd82e143bfafe88d1e85115145a1796f15f0e3444fd0462e02f77548ccedf31055100ef7a96fcd4910acd812c4ab8839851626abdbb3af6f16aaaaf912c7090180f86301b8608ba8522169761e64d548a6ee2c9048055453d98bc6091932cbf4d91055e96b172aa30d1da458edef6b163dd46d7f9e3c0cdcb277c6325e14fbf92c864f7d9c4e22c8e5c99e36bb0314014671c01077d033baee71df8ab729788d453ddad504eff86301b860b439d536697892876d979be9acb184efa93c4cd9e64f891c496f5373b2a1b9e9c1042b8005c347bf5869b0414185912d090a1a47d79b18da36c51fcdc6b8ceeaf47e43b682c44618f618f243a612f40ed25e5caf6a73e943bc30077d29e8c7dc80f86301b86093ca5bf7cf6c8e33706c4d473ca6c9a04dd741bf853f365d47394d116709e7ceb783e53c12a8e161d3a27b3df41b50ea01dcc35bdbdf03ad100e8263b7532b7c151bf1e80dd0e73cd94913b472163459cdc93381f94d982e2539e90abd453ba9f86301b860913a4d04ee3dfda15e268c194a0dcc61ac377d57e466a34a474df3153888e2f0de7c79066d107fec34ce0decd07d491e1603537f7fe826ff92f72d61fc6d008c8c8391b2a409e323dd5d953b284ebf03bc9696d83e30e5a6e91236ca8443550bf84fdad994e132ef23dc1c31c4c14d34fcf0a556348b72b5ec831e8272c180f1b0af5c14bcd06abc9708d8894f56fb4f25ce7ba0cc5a44908c04c52863156070715306e137b32b9311cb96af957b6ad80d",
  "mixHash": "0x9fd980376cf6ed7abc91cefa4ee40a99b5d323fafb0a3c79376fc857a9400ec4",
  "nonce": "0x0000000000000000",
  "baseFeePerGas": "0x8",
  "withdrawalsRoot": null,
  "blobGasUsed": null,
  "excessBlobGas": null,
  "parentBeaconBlockRoot": null,
  "hash": "0x932e4d310be6e972b5e9d505a7138a656845746a03d5b028cf58673a144efb2f"
}