{
  "parentHash": "0x428e9b575f19c93cf179b4ed60de73841ae90bf8acfa87bfff507c1384c75238",
  "sha3Uncles": "0x1dcc4de8dec75d7aab85b567b6ccd41ad312451b948a7413f0a142fd40d49347",
  "miner": "0xd678f792087453e2ae2ae0242bff31190dd796ac",
  "stateRoot": "0xf835b6fb8640ba7751c23c14fab45b390c26f46986c41253438702cddc008df1",
  "transactionsRoot": "0x29645b32924a5e20d77b9871ec2e848d9761f9de658aaf139e0a3104dd1a1ae2",
  "receiptsRoot": "0xd86f991e99cbbf58c22ea65dfbb00456cc25b8355760bcd078d707d423c07bd1",
  "logsBloom": "0x00000204002000010000010000000000000000000000000000000004000000900000400000000000000000000000000044000000000000000000000000000000000000000000000000004008400100002000000010000000000100840000000020000420000000020001100000040000000000000000000200040010000000000000000000000000000001801000000000000400000000000000000000000400000000000000000040000000000000000000000000000000000000000000000000008002000000000040000000000000000000000000000000000000000000000000000000000000000001400004001200000000000000000000000000000000",
  "difficulty": "0x1",
  "number": "0x1f4",
  "gasLimit": "0x23f3e20",
  "gasUsed": "0xfc61",
  "timestamp": "0x1388",
  "extraData": "0xf9024ba00000000000000000000000000000000000000000000000000000000000000000b8419ef6f0b136eaacbd0bdd561616f036ff70f5e7debcb900365833a1ec25f358da622f39a1ef8973941f6bb997370992c534c4c174cb8968b9f86862801dc433b10080f86301b860ac8ca71b18f5bd5bae477397abf1c9306eed9c27d4549d259a6314bf640f70794a53f4875e56e6545ba6f4424f6b0d92025ba460ce2fe21ca64b54e52575dbc3d537a3b391be92300b4edb5369d268af0f091e44e8f63dd6ad5b8dd96c584806f86301b8608ac8048d28e1b31580e23fe7f39b3e44063e831d490ecf8b41d4752f4d2a1d92c619c9907a1ed30c442313d8a0b9c4070890ff127a42e2d24901328c2abebd560ea456c85c868f53ebf5804ed454286cf20511b427ca1fb678cff050f14a769580f86301b860a7ab655d368e539ff32238e012f8c3d47acb2ca040451b0cdb47ae5a31422a4009d71923e81e491fc584cca651e2c64d0124c66e44db4e0892130db5b986e22479dc3df454fd4fc6722217e2c54b9588b3a61ae1b979eccc71d8c9dc9e2f061bf86301b86082c0bc4dd620539dd7ed1d85f86452f8417c206b28f75f3189976e0fc1a74f14814ed510188d96bbab1550a2dbcf308001183d42719f64cf727488c6c341efda328afcd4f63cca82fe90e74568d027aea2e863d32f6fd4eb58b04e85058a5a97f84fdad994d678f792087453e2ae2ae0242bff31190dd796ac831e8272c180f1b0a819d32744318eb8309eacafa29adced40534e5909557ec6cce50709c871a6bb29161dd703fdea115ed081329b4100c7",
  "mixHash": "0x1d256d3eeb24ad188269aecbf4f10fa569ee13ae5a2a99e972502a58be6048b4",
  "nonce": "0x0000000000000000",
  "baseFeePerGas": "0x8",
  "withdrawalsRoot": null,
  "blobGasUsed": null,
  "excessBlobGas": null,
  "parentBeaconBlockRoot": null,
  "hash": "0x38bc3ee13524f882db64518115402755cd92dbd79fc712c57b829ecea9a6afa5"
}