{
  "parentHash": "0xab17dae5523399db853ad6020b6b7bf6752a111fcd0b9c2e830aeac4a84d563a",
  "sha3Uncles": "0x1dcc4de8dec75d7aab85b567b6ccd41ad312451b948a7413f0a142fd40d49347",
  "miner": "0x25b30fe3fe7f6e4f9320a4ad8e796ec485d897d3",
  "stateRoot": "0xc3e0ff309217ed472a9495d90c5a0c4ba55de4c222f80df98c099c90ca552596",
  "transactionsRoot": "0x3872575d14095b63f1ccf5e55b1548ffb68e1175d70cc7d39e8bfb24edbfda92",
  "receiptsRoot": "0x71e2531ec30b55fb2312fba2fc9f1a6e12febd8e00edc9fffe0ee701e297b8d5",
  "logsBloom": "0x00000200002000010000010000000000000000000000000000000004000000900000401000000000000000000000000044000000000000000000000000000000000000000000000000004008400100002800000000000000100100840000000000000420000000020001100000040000000000000000000200040010000000000000000000000000000001801000000000000400000000000000000000000400000000000000000040000000000000000000000000000000000000000000000000008002000000000040000000000000000000000000000000000000000000000000000000000000000001400004001200000000000000000000000000000000",
  "difficulty": "0x1",
  "number": "0x1f4",
  "gasLimit": "0x23f3e20",
  "gasUsed": "0xfc61",
  "timestamp": "0x1388",
  "extraData": "0xf90252a00000000000000000000000000000000000000000000000000000000000000000b841f631571d2d4b2a60ee1964652674f784cad13a41bb535a77acdb0c1e0c4a04c7786499b92eb7de0408a16de90f9b8c86de59598653dcf8bfe7ff72875db422bb0180f86301b86091f44b01337e70c9a7d8b25c3fa9fb00b521e575f89c5d70845c0f39795850f80186802ff0130c0c1fb25231c82f67450b5416eaf6ae790166ea22757f166e42e89eac11c9d023896d1b69c92db2e3d4d5d153ec8fc4a73d26a5fe75481ca8dcf86301b860a7b632a4c00031f161c4371b7de5a5d5c4baf2e6667ad5f6b848988689d630ae9d95f9087efe690d69397f1617a3c55114c6a6212e0fb3e65c1d7b1e9424b5686f043ba8e8784c290779273e1a129066366040e963813d823f49caac21c11f8280f86301b860914733ee4f27275c87bb0f6056726217e858e77ff8bb8781427a3c8b223c8f6751d5cf2bb2fef07fad04626724596d2308f568a3431be82ca523fcccf93ac35e2bd9c8895913f20d7ead3768dd0493c9825b4e0dbd8e68edf73d216d40d6d5e9f86301b8608297289f0cf71a3e6578968bc14297a4733194bac7967d10a6dccd07270f4f313865ee393190510ad8152d98d6f168100532454a0d2b1f9109c92bbe53a1357ba6052d218aaa39bf9e0c574bfaa128243f27ee85085d0ea70fda66afef4124e8f84fdad99425b30fe3fe7f6e4f9320a4ad8e796ec485d897d3831e8272c180f1b0a48c327a493daef597a08406347e798e98f7d9cd602b42f428998833631c3a33dc36166714a7bd33d9468103a3eb686c86048c27395000",
  "mixHash": "0x8a330443c6e1609cf23c092410df6a36373ae3891fc7c85d44bf4fc69b7c2e16",
  "nonce": "0x0000000000000000",
  "baseFeePerGas": "0x48c27395000",
  "withdrawalsRoot": null,
  "blobGasUsed": null,
  "excessBlobGas": null,
  "parentBeaconBlockRoot": null,
  "hash": "0x184c0f708bd5fe5d152d2de838355965f2e7a09aff392601403846e7fd2fd95b"
}