{
  "parentHash": "0x0e4d1fff00f6b4b87b4f51d7828bf79be69069571c3b8371aeef283b0cafccba",
  "sha3Uncles": "0x1dcc4de8dec75d7aab85b567b6ccd41ad312451b948a7413f0a142fd40d49347",
  "miner": "0x66bf7c596b7a685aff9c65c859066c0530bff916",
  "stateRoot": "0xfb19fc278e08103163af851f38b64ba62912a8da696775e2757df323b2530454",
  "transactionsRoot": "0x29645b32924a5e20d77b9871ec2e848d9761f9de658aaf139e0a3104dd1a1ae2",
  "receiptsRoot": "0x5fef357ed75d21a3ea1849a1f568009d03b1933a967bf053ec200b28d3da99ed",
  "logsBloom": "0x00000200002000010000010000000000000000000000000000000004000000900000400000000000000000000000000044000000000000000000000000000000000000000000000000004000400000000000000000000000000100840000000000000400000000020001100000040000000000000000000200040000000000000000000000000000000001801000000000000000000000000000000000000400000000000000000040000000000000000000000000000000000000000000000000000000000000000040000000000000000000000000000000000000000000000000000000000000000001400004001000000000000000000000000000000000",
  "difficulty": "0x1",
  "number": "0x1f4",
  "gasLimit": "0x23f3e20",
  "gasUsed": "0xfc61",
  "timestamp": "0x1388",
  "extraData": "0xf90209a0000000000000000000000000000000000000000000000000000000000000000080f86301b8608c31d814c6cf51643cd0b105354ae023b1af195c3d3c86b99c170a004ef785ffbad2881884efaf772fa22d02f0b979b914d01929587fd90a72ccd4266190ed16d48bc0bd2c43a2ba845c058c64fe628b3b4c26958c87a7c4a6e07dd187d80548f86301b8608bba425bbc5c983cdccbe9d393febe3c74c80ac97aa4961540c5630b2ae37985ab095279df616a936cef2b018f48417d0046c817e94e6531d9c9216e706b6c03e5565e775f2ebc1dbc29bd67436a3d99471d386969b2911fd7c256b8965404c380f86301b860a8737d9ba2b848ce4baf6f1354ebf10b22fa789b0e619d4461a1a6dcf0d685af8f16bdf256080dd33a231ba346fa23740dceec1c4050fe2b1f8a3348775ac5e0a3503182417ac55320e6ef596a4dfaed40760768877692e7dd00e28195d6cb21f86301b86094218d40150e2fafb6699cf7dbef06009d03063651cd59c295b3424e81300e155dafb9f1e8695d53e5fe9042126d8e440c5e2340ff586cb6efc230b97b03c905aa769269df1e41bbdc0f41d583ad49f4a135d0916626a12cddcdcdf8247554a2f850dad99466bf7c596b7a685aff9c65c859066c0530bff916831e8272c180f1b0a730b5a7a36d8ea69f7d20afe57a97b6443d1ab4b9de05d28bfca0824e5a96e0496457fadf4e773360332dc4aefb6f1401",
  "mixHash": "0x0000000000000000000000000000000000000000000000000000000000000000",
  "nonce": "0x0000000000000000",
  "baseFeePerGas": "0x8",
  "fees": null,
  "rewards": "0x",
  "minerNodeId": "0x",
  "minerNodeSig": "0x",
  "withdrawalsRoot": null,
  "blobGasUsed": null,
  "excessBlobGas": null,
  "parentBeaconBlockRoot": null,
  "hash": "0xa73c58cac998f47dfe992fc07628d56479ba4ee449646aa13b7156a00bfacde7"
}