{
  "parentHash": "0x036f1c3e76c9e4ffb7aa6756042003917061a3554592ee3f9634737083d3fe87",
  "sha3Uncles": "0x1dcc4de8dec75d7aab85b567b6ccd41ad312451b948a7413f0a142fd40d49347",
  "miner": "0x293c1292a702d810a1a15c63efc052fd368c587b",
  "stateRoot": "0xbd6730b98e73f8208ef9d16946531da10e09ecc9775145bf804b7f13c2424e5e",
  "transactionsRoot": "0x26f47dfbf4ce4ac70395918b8edda9cdc0628150fb752709aaede08bfebd1d0a",
  "receiptsRoot": "0x5fef357ed75d21a3ea1849a1f568009d03b1933a967bf053ec200b28d3da99ed",
  "logsBloom": "0x00000200002000010000010000000000000000000000000000000004000000900000400000000000000000000000000044000000000000000000000000000000000000000000000000004000400000000000000000000000000100840000000000000400000000020001100000040000000000000000000200040000000000000000000000000000000001801000000000000000000000000000000000000400000000000000000040000000000000000000000000000000000000000000000000000000000000000040000000000000000000000000000000000000000000000000000000000000000001400004001000000000000000000000000000000000",
  "difficulty": "0x1",
  "number": "0x1f4",
  "gasLimit": "0x23f3e20",
  "gasUsed": "0xfc61",
  "timestamp": "0x1388",
  "extraData": "0xf90252a00000000000000000000000000000000000000000000000000000000000000000b841da6f9d842b3e0aae2e0ff367a49621b6149911eb9865809d1dcaaf043f016ec167e8257d83232eac35e52eca7b1cbe7824310de0173ad627147f27147dcd783e0080f86301b860acb35a8e30f560380d1ca74112f1e8f65b1a8a6329175d40558a44c655f3a032004e0e1e599b704a825c70890cc90a4c19bb1918d10b97dc95c5c2b5ac0518e1480e6f40096cc9fe9146f423d870cb0e8c95c71cf89b7421ca9ed0e7c845baf8f86301b8609499f187cabfc4ca3f059013ed43181cb5834af267675157c5471ae3709a6fbd7651f4d83a1111375aecfc97b4fecfe90f834991fb7d6b8d15a44d788fa4475b34d8d6ac6f1a6cbe48af4e4044908b5e833ee95efd0fc89919843e53ad2a524d80f86301b86086d23c18aea465ec3f6a430fc96260b2dbfc3659691fe2933f811f799a6faffd8837209c14431483e6b1f3899b55ad58140a11f4d32685a83c09c36ed0bb5214067a2ef6461bbef08a387ff1eb192c6cfd6ff55de99fbe5d1a9232084cf7fd75f86301b860995b9d7cd71796538bbff644c04333a1afd17e0960bda05275bace7b9f97e41fa6b4b06f998dbf04280f266411c2ea71065d46f9213d41283ed3484a719a7bac5baba186dd356450576a53facf21f370851ad4d188c6eace4a237488c6177acf86191a20322000f84fdad994293c1292a702d810a1a15c63efc052fd368c587b831e8272c180f1b0ad60264aba1a7346f6f8ce1e7269553710fa95f4a72a48edba488b7e63335776053d7b931239b03ea43428053389c3b3",
  "mixHash": "0xd510be966c4deda5d65c24b615b4cc011b957caa727fee2c6830269228fecd5e",
  "nonce": "0x0000000000000000",
  "baseFeePerGas": "0x12309ce54000",
  "withdrawalsRoot": null,
  "blobGasUsed": null,
  "excessBlobGas": null,
  "parentBeaconBlockRoot": null,
  "hash": "0xeaaaab98c6db09b24ecdedc9412123be70a322fa3fdb2aff0db881a20e05b86a"
}