{
  "parentHash": "0x0dd9092ebc9955b6dea7ee7a5716a54c22b314e14b5af4b52b52a51036e724ef",
  "sha3Uncles": "0x1dcc4de8dec75d7aab85b567b6ccd41ad312451b948a7413f0a142fd40d49347",
  "miner": "0xbd928535fc7e5e8fa107df86c5b6126ef7eb5a55",
  "stateRoot": "0x93dcfda1cfa6234c11ce54090d27a582510872b30cf75068a6c58b5cdd4bb154",
  "transactionsRoot": "0x29645b32924a5e20d77b9871ec2e848d9761f9de658aaf139e0a3104dd1a1ae2",
  "receiptsRoot": "0x5fef357ed75d21a3ea1849a1f568009d03b1933a967bf053ec200b28d3da99ed",
  "logsBloom": "0x00000200002000010000010000000000000000000000000000000004000000900000400000000000000000000000000044000000000000000000000000000000000000000000000000004000400000000000000000000000000100840000000000000400000000020001100000040000000000000000000200040000000000000000000000000000000001801000000000000000000000000000000000000400000000000000000040000000000000000000000000000000000000000000000000000000000000000040000000000000000000000000000000000000000000000000000000000000000001400004001000000000000000000000000000000000",
  "difficulty": "0x1",
  "number": "0x1f4",
  "gasLimit": "0x23f3e20",
  "gasUsed": "0xfc61",
  "timestamp": "0x1388",
  "extraData": "0xf90208a0000000000000000000000000000000000000000000000000000000000000000080f86301b860b589b722dc5aadb05f48c8960b829d16812b5ce98c7c85016716fa7415c83e3c6c3c9cb3d33ce869d6049a390060dc52184f06ea4f34e8248c40c0e0d615029399323eb09a496a099a6f1bfa74ad726812d3708245d0e878c945dd2ab0e22ad8f86301b8608e1d6edff74a1cd9e236e687c1b41fd1fb2602bf341e8118bf8c5d465f0fda815db2431d71d53f3369bbb909b357f25a143b80bb85a0258b03321537797284e8e604dc87b55f32d2e64f30403a02bb3672fd233c83da7f1d09c20e3cb5d05c8880f86301b86091dc9b5ae4dfb80dc757436c93e0c18aba413b0122a61b026e1f41aca821569d65f77171a6ae202fc90fc92d18cbe0b70bea60b730f6e8685a1073b9ea9187465a47d9f24f45c7bd773b5d00f90c1af94080de25115c41d8dd96c04d7a12f96bf86301b860a7d86355b75f24a6e129142b6bcebf98747b1e906581f3c2459eb841e3cdbf61ab3276ce7508aea05364b6e6f2b15c050978203f0160c2c768ca45be6383acf8891692aaad2fe97c220d3275d634c6520ca7d2636d83d06dc8f57b2d7bd0b26bf84fdad994bd928535fc7e5e8fa107df86c5b6126ef7eb5a55831e8272c180f1b0b6119489981fe0800895d8f08a0dfcf02b59492ce952515fed4e36410a51ec813313a549e82d343ec3d0924e159e8051",
  "mixHash": "0x0000000000000000000000000000000000000000000000000000000000000000",
  "nonce": "0x0000000000000000",
  "baseFeePerGas": "0x8",
  "fees": null,
  "rewards": "0x",
  "minerNodeId": "0x",
  "minerNodeSig": "0x",
  "withdrawalsRoot": null,
  "blobGasUsed": null,
  "excessBlobGas": null,
  "parentBeaconBlockRoot": null,
  "hash": "0x4dadb903aa3fd550180fbf4819eea1771f966017f4daded64d1103c98c70ecd3"
}