{
  "parentHash": "0x1acae07cba18f35533545765a20ba0073e105bd754bef5f42ecea25f1a272d3a",
  "sha3Uncles": "0x1dcc4de8dec75d7aab85b567b6ccd41ad312451b948a7413f0a142fd40d49347",
  "miner": "0x45dfd9f6da52abaee54ad49226c698e45b2f3777",
  "stateRoot": "0x9f2b9986ee9bcd0a99033304705f7c6f4eb591b2612b6ffb99e6ce7f3882ea58",
  "transactionsRoot": "0x3872575d14095b63f1ccf5e55b1548ffb68e1175d70cc7d39e8bfb24edbfda92",
  "receiptsRoot": "0x8cbf43991cfba05f524012a3d1815e02479bf3cc4b634e990a7da7cfb62b2a11",
  "logsBloom": "0x00040200002000010000010000000000000000000000000000000004000000900000400000000000000000000800000044000000000000000000000000000000000000000000000000004008400100002000000000000000000100840000000000000420000000020001100000040000000010000000000200040010000000000000000000000000000001801000000000000400000000000000000000000400000000000000000040000000000000000000000000000000000000000000000000008002000000000040000000000000000000000000000000000000000000000000000000000000000001400004001200000000000000000000000000000000",
  "difficulty": "0x1",
  "number": "0x1f4",
  "gasLimit": "0x23f3e20",
  "gasUsed": "0xfc61",
  "timestamp": "0x1388",
  "extraData": "0xf90252a00000000000000000000000000000000000000000000000000000000000000000b841c03c0aeae78257456db9b1a33f953fd10edd9ec061496eeaf6adb1cd43954f527f7a984ebdec5049422044ae77f5033d869a84d442b076e072c14be8eec6f6ff0180f86301b8608c8ef357caafeac2003cead9edaad94202761a87bd2edffce3261e0396176f9559dd02a71887061d354af0220a4c1a460cc3926eab2be9ed38995a66e549db154ad27a2772c1fa17a5f826685831c7e14a8e1a884acf24c47e25a652431c4357f86301b86097810d10d423f3c8f067b48082cd19aa92708d85eed96a500ac14211b32bbd92ebfd5d0ea31ae60c687f20174e7eb31f0282bf22bde1600c056717b2bf861839185ba7df560d7ff9429a0abf0a79f8d30b198d1e05636a02e78520acf09f1f6880f86301b860957faca68736bf2e6270d3b9b223c56eea95c14b46d53540d5b7c789f903d70aad20a0597bd556daabf8dfb663aad6570b0f01a4ff0e6ea5da31efdeff9015cd9d893d67b26ee326e30476fb6bcc7f8c6574e812b8e0aa21fea50603c5b35479f86301b860adc8900c57e770c6215bf79378dec5db7c688cdc6f66bd68f05a9c6d173a635184663018485bac99d4092c69d7f894020d54e5f09bfb9e00d43d1fc12c620ffdd5215f69eb2980eccda1307b6e2a7d423394cdc754283932d5320d5ecfba5f8c86048c27395000f84fdad99445dfd9f6da52abaee54ad49226c698e45b2f3777831e8272c180f1b092272a6e9692aa2ffe724257fe911e17189c5081b73c55ba1aacbd81248b6261fbfc5578c46407b94ba8dcdf6f8c926b",
  "mixHash": "0x00f2edc2326d5ba58a90a3418bfc9c4dc8f0da3fb462fdc2ae67411a2820d390",
  "nonce": "0x0000000000000000",
  "baseFeePerGas": "0x48c27395000",
  "withdrawalsRoot": null,
  "blobGasUsed": null,
  "excessBlobGas": null,
  "parentBeaconBlockRoot": null,
  "hash": "0x6cbff26011501e62103a791266876e8af1a5399b7b9aaa37de3abe2a9e56d2de"
}