{
  "parentHash": "0x5153c8a0b1b38dadf6cdf238d1bcc10eb9d7bb2b9d08fa45f91c8f82eb2f6c3a",
  "sha3Uncles": "0x1dcc4de8dec75d7aab85b567b6ccd41ad312451b948a7413f0a142fd40d49347",
  "miner": "0x8ec5137c7e4d166d7fd2b48310551a7ee2664aa7",
  "stateRoot": "0xe75ed2d595ac0c8ccb0a59991abaf2294e605566d21b46dd98973c537306159e",
  "transactionsRoot": "0x29645b32924a5e20d77b9871ec2e848d9761f9de658aaf139e0a3104dd1a1ae2",
  "receiptsRoot": "0x5fef357ed75d21a3ea1849a1f568009d03b1933a967bf053ec200b28d3da99ed",
  "logsBloom": "0x00000200002000010000010000000000000000000000000000000004000000900000400000000000000000000000000044000000000000000000000000000000000000000000000000004000400000000000000000000000000100840000000000000400000000020001100000040000000000000000000200040000000000000000000000000000000001801000000000000000000000000000000000000400000000000000000040000000000000000000000000000000000000000000000000000000000000000040000000000000000000000000000000000000000000000000000000000000000001400004001000000000000000000000000000000000",
  "difficulty": "0x1",
  "number": "0x1f4",
  "gasLimit": "0x23f3e20",
  "gasUsed": "0xfc61",
  "timestamp": "0x1388",
  "extraData": "0xf90208a0000000000000000000000000000000000000000000000000000000000000000080f86301b860b1a83d700ac5bed1046b6dc4e26f59cd7bf7159caec4cc95949a8f4de2438f598ad067235a552e9e0fd7cd1917d842da17683f234db2bac02fa962d63244c9ed903372cb18c5d8b35df1e7841396dd70a6b9900cceeda20213de880e4f16fba0f86301b86092588e71e98db5ec2fe13ac3243325440c52a75f5e8752bd5bffebd853e970a74087c08692fb1efcd8aad7cde04c9d84001ebfdfeba59d4259c170382312dc94b028b6ea8bc630d4bdcfd3921910add11c18d46cddcca8f8e370eb5dbcf45ff780f86301b860a3f760d2286cbc9da33d918d178f1ebb0c8cdb47f4cba41fe2d88ad6a7e9adc54f98d0e4fadbb347d8f1c2741c8902d309efae8a1cc36f7bf24f42cfb475baeab653b5689c3436a7e08d041cedd0706e27dba8c050d46d8e63cef4da405609acf86301b860b40b48a9d8a8d45b1854e5a5b9d31effbf0fb6e91f89ad2202eb359bb9dc4a24dc7564180d3db11823e64eadacc16d38141ab53709e2689bcb895ebb89c0d5e8df7bbb22fef21f79a8dff1176de257b5f380eb45d1499c5c86435d03f24428bcf84fdad9948ec5137c7e4d166d7fd2b48310551a7ee2664aa7831e8206c180f1b08666898868250923175fbe71a27b268c7ef7d04a29c402823b23d1487168ad17d12edf29b7b3615f7813c9c7c48d97f3",
  "mixHash": "0x0000000000000000000000000000000000000000000000000000000000000000",
  "nonce": "0x0000000000000000",
  "baseFeePerGas": "0x8",
  "fees": null,
  "rewards": "0x",
  "minerNodeId": "0x",
  "minerNodeSig": "0x",
  "withdrawalsRoot": null,
  "blobGasUsed": null,
  "excessBlobGas": null,
  "parentBeaconBlockRoot": null,
  "hash": "0xd29150ff5874d0d8ece9063d597ade7d4f72102cc7bf979d4243d59aa2b430a6"
}