{
  "parentHash": "0x42fc19e7d379ccf4a6dd8bf14326f2aaa476546b4bfe95aa7f69a0dec25e7168",
  "sha3Uncles": "0x1dcc4de8dec75d7aab85b567b6ccd41ad312451b948a7413f0a142fd40d49347",
  "miner": "0xa0316f3745ef716a5ab3b4e55660acdb9b552445",
  "stateRoot": "0x179dd6d625610cde8deb543f808434295392e04eb8637f058eae13a24a43e6c5",
  "transactionsRoot": "0x29645b32924a5e20d77b9871ec2e848d9761f9de658aaf139e0a3104dd1a1ae2",
  "receiptsRoot": "0x5fef357ed75d21a3ea1849a1f568009d03b1933a967bf053ec200b28d3da99ed",
  "logsBloom": "0x00000200002000010000010000000000000000000000000000000004000000900000400000000000000000000000000044000000000000000000000000000000000000000000000000004000400000000000000000000000000100840000000000000400000000020001100000040000000000000000000200040000000000000000000000000000000001801000000000000000000000000000000000000400000000000000000040000000000000000000000000000000000000000000000000000000000000000040000000000000000000000000000000000000000000000000000000000000000001400004001000000000000000000000000000000000",
  "difficulty": "0x1",
  "number": "0x1f4",
  "gasLimit": "0x23f3e20",
  "gasUsed": "0xfc61",
  "timestamp": "0x1388",
  "extraData": "0xf87ea00000000000000000000000000000000000000000000000000000000000000000d594a0316f3745ef716a5ab3b4e55660acdb9b552445c080f843b84108bb553375ea15542fd92a34488ad9a286e805233b38325dc5cfed1b081163723ad446bc7da95a4c85abb580753afb0fdf56ea9b4982f753b2bafc6312004e2c01",
  "mixHash": "0x0000000000000000000000000000000000000000000000000000000000000000",
  "nonce": "0x0000000000000000",
  "baseFeePerGas": "0x8",
  "fees": "0x0",
  "rewards": "0x",
  "minerNodeId": "0x",
  "minerNodeSig": "0x",
  "withdrawalsRoot": null,
  "blobGasUsed": null,
  "excessBlobGas": null,
  "parentBeaconBlockRoot": null,
  "hash": "0x9df96fa66dfaa334d6a95a33f8066a0bcd031a9f82fb0429f8c9a49cc538ad44"
}