{
  "parentHash": "0xba47a31bc79501450c08e3909695ac85d8db505ed7ba62d7e3df6ea3d69b474a",
  "sha3Uncles": "0x1dcc4de8dec75d7aab85b567b6ccd41ad312451b948a7413f0a142fd40d49347",
  "miner": "0x19d8eb1dcdb615acb94c9287d02cd1da84148175",
  "stateRoot": "0x44a67dcfedcdb6f859d641f3a37adf8e2182662b96e80c0ebfff5ad63ec2ad39",
  "transactionsRoot": "0x26f47dfbf4ce4ac70395918b8edda9cdc0628150fb752709aaede08bfebd1d0a",
  "receiptsRoot": "0x5fef357ed75d21a3ea1849a1f568009d03b1933a967bf053ec200b28d3da99ed",
  "logsBloom": "0x00000200002000010000010000000000000000000000000000000004000000900000400000000000000000000000000044000000000000000000000000000000000000000000000000004000400000000000000000000000000100840000000000000400000000020001100000040000000000000000000200040000000000000000000000000000000001801000000000000000000000000000000000000400000000000000000040000000000000000000000000000000000000000000000000000000000000000040000000000000000000000000000000000000000000000000000000000000000001400004001000000000000000000000000000000000",
  "difficulty": "0x1",
  "number": "0x1f4",
  "gasLimit": "0x23f3e20",
  "gasUsed": "0xfc61",
  "timestamp": "0x1388",
  "extraData": "0xf90252a00000000000000000000000000000000000000000000000000000000000000000b8414c32f90e79de1fef83035bd577fd5d4f6894a58bba3d2afcdb803b06adfaef377ef0d62af640d33bb1811a86c71de59621faf2ffed56d56d8d9226ba8d6785210180f86301b860a537f3a70a942137d8911082f446cc76f6bb4c1ee213f91579827d0db7c9a7e7f3eb5f2c63d2c73b4e2577fa6d0ece170f50e313cd80dbb5cbebf9e199720de646db064b735aaea2fa5ebc0de314d51e02ce00064b8a0eec6c4dad55086da11bf86301b860865e38404ccd6bf9b29907e076ab8811a380e6aa130d0dfef1ff52202ad5491444c0ff4e2b000b063cd10eb6a2c213ed0ddd6f312cc48315a8e55ff3ab9f7aba7ab09e76a927639ce13dc8807378cb12d070cdaabaeeb8f2e9d98aad5fa3668980f86301b860b65334f3e88b17954938955090f432692979c7e0c46414aa70a8aa40a5f88436fcb8684816968d2f4cdf09f1003b999f1273386187ee165f43fd5f7ea0c11b53620e4031b11ba5e889e80a0a2758088e831e2cdc6b51667bc9f1759c5d03a803f86301b860a44fca5248ff652ae373b74dd51069367ee11f84cd7db06853ceee1ce8569a6c7c1cedbd5fe2381f0db51df88b5ff7d0136a7c1e8308d81d8ddb322fbe53f1bea78ea0fc8ea8966eb191bf5842a548921dd4d94457fe83cdb8993f2dec53cdbe86191a20322000f84fdad99419d8eb1dcdb615acb94c9287d02cd1da84148175831e8272c180f1b0b84d9b11385f96b8f086ad86ab0e74ae37ce7781a5cc843a4c24656769f56fb1dc8e4846eac20eb14a2650c7ace130b7",
  "mixHash": "0xe572f0eb8985b441c31f66f809a71864197ef7b1b1c790afa5bfc716cd7d99e7",
  "nonce": "0x0000000000000000",
  "baseFeePerGas": "0x12309ce54000",
  "withdrawalsRoot": null,
  "blobGasUsed": null,
  "excessBlobGas": null,
  "parentBeaconBlockRoot": null,
  "hash": "0x828b52fdff36e3c68f95d1f94763d1cdd3830b88986af048463a30cad04a1fd3"
}