{
  "parentHash": "0x50905806e4cdbdaa152d754a47de89a9dad895e8e745cd509c004a58ecc18389",
  "sha3Uncles": "0x1dcc4de8dec75d7aab85b567b6ccd41ad312451b948a7413f0a142fd40d49347",
  "miner": "0x40e0c2e67680de67eff40e419519968895897bc9",
  "stateRoot": "0x285a76cca4c19c287d189805b1c4cacbf0031692431a759cfe93c699ba60cd05",
  "transactionsRoot": "0x26f47dfbf4ce4ac70395918b8edda9cdc0628150fb752709aaede08bfebd1d0a",
  "receiptsRoot": "0x5fef357ed75d21a3ea1849a1f568009d03b1933a967bf053ec200b28d3da99ed",
  "logsBloom": "0x00000200002000010000010000000000000000000000000000000004000000900000400000000000000000000000000044000000000000000000000000000000000000000000000000004000400000000000000000000000000100840000000000000400000000020001100000040000000000000000000200040000000000000000000000000000000001801000000000000000000000000000000000000400000000000000000040000000000000000000000000000000000000000000000000000000000000000040000000000000000000000000000000000000000000000000000000000000000001400004001000000000000000000000000000000000",
  "difficulty": "0x1",
  "number": "0x1f4",
  "gasLimit": "0x23f3e20",
  "gasUsed": "0xfc61",
  "timestamp": "0x1388",
  "extraData": "0xf90252a00000000000000000000000000000000000000000000000000000000000000000b841bcbb60a83ccb1fe48d8305850eeb3eb15d2a7742401e48c1f205d64b9ac73f983b3d0292ac743ba8db2e51d64b349226d8941b6b5af5dac35041cecfe9cc11340080f86301b860b1e8abcb1feeac90de22f2cbb84526cb8828e1725deff611d2a61137de1ba4ebace08380fdb843c193e130ba9ff5f8cb0feda2136ea2e7945e853defadd0ea0f9f84d018431573c155a3af2090fb41eff98ec0542e9dd8e991261cc998bc4214f86301b86092acc27d848c343fa37197661f78bd40d82cdbe7b0e185427a1727762abc867906b98aa2514382c4c0bb19b40d22c46f0c202dd2f22a186b2cf1271d0163915a45133b858bd3d5aa64e013099728c8217d5322e2765e05eeb27810741ec1a5b980f86301b860aaacc203d46e3e6f3135458857d2153a5b58b89a3dd660ef5eea03bba349b70aa24ae5c8363240862ba8180ba5774d690525e8a88d01488950b96ff45a9075d76ccd9862cb730e78df71d50cc10955ebfa609913f44b0b620aeaf5db55f806c6f86301b860ae51e4f47c03f1bca8a04a7d4a0cc825cbf7443b283d35810cdd0a48a6f448f25e9d637d5d1d57f4b4ceef8336b093a50ce472d5f8d273f89eda6ac465019d0ff1d11690ea13fdf602c37cec07f29978d592ed60c26321496bf797bfc1af7e3286191a20322000f84fdad99440e0c2e67680de67eff40e419519968895897bc9831e8272c180f1b081345f531d6a13ad5fc0afb8a9ad0da895101aaedcb3b0bd749cbaa2e88357c907e67909d5b6c7c50c49a35f0af45465",
  "mixHash": "0x66726bc9f1f88bc3a6afa82a6b288e93958b2bc2e053bc063c1687f4f432c9c2",
  "nonce": "0x0000000000000000",
  "baseFeePerGas": "0x12309ce54000",
  "withdrawalsRoot": null,
  "blobGasUsed": null,
  "excessBlobGas": null,
  "parentBeaconBlockRoot": null,
  "hash": "0x4e70ea840d9ece6efee74427615fa82d32c74b03349c40aa3d555668cecefc09"
}