{
  "parentHash": "0xddf6a7788174af508ece79ef067aea2e19ac1cefbd576fe47f7dbf464f9d5b6a",
  "sha3Uncles": "0x1dcc4de8dec75d7aab85b567b6ccd41ad312451b948a7413f0a142fd40d49347",
  "miner": "0xc9e96e1c5d9c0f4501854b24dee97719d8d2dfed",
  "stateRoot": "0x9f75db9f4305476b0ee6f8e42bd91092fcef6f4797cd5fc864bb91b612660156",
  "transactionsRoot": "0x29645b32924a5e20d77b9871ec2e848d9761f9de658aaf139e0a3104dd1a1ae2",
  "receiptsRoot": "0x5fef357ed75d21a3ea1849a1f568009d03b1933a967bf053ec200b28d3da99ed",
  "logsBloom": "0x00000200002000010000010000000000000000000000000000000004000000900000400000000000000000000000000044000000000000000000000000000000000000000000000000004000400000000000000000000000000100840000000000000400000000020001100000040000000000000000000200040000000000000000000000000000000001801000000000000000000000000000000000000400000000000000000040000000000000000000000000000000000000000000000000000000000000000040000000000000000000000000000000000000000000000000000000000000000001400004001000000000000000000000000000000000",
  "difficulty": "0x1",
  "number": "0x1f4",
  "gasLimit": "0x23f3e20",
  "gasUsed": "0xfc61",
  "timestamp": "0x1388",
  "extraData": "0xf9024ba00000000000000000000000000000000000000000000000000000000000000000b84117279e523fb95aa8284340a5ea81681791f14b4ee745f4ea7f18343b3a8fedc05cd658a04de876fe438b6bb8e10ce728cb7b126a54a20a9d5e25e911ca3d08ba0180f86301b860a3e1a513c6659348782e45d3660550d4c033b1c4c9bc566f4ecc289076b50f4a24e4c918264df2c548365aa02b041add02e9a15c430a080d2660cff3daa68beba2a860d1efd3c349860c3eb67c56bc3ca91bbf083f85af3a28972f9071a3ad14f86301b8608918baa5d1d38fe15c132a012b1fdace74df0f63ef45f0e9e796f1b99b6fb1c697a459a68e52d3b70270e2373a86bdb41988d9d1eabb0b265659edfac6ddf74e5619c0005704d3380b20ec4a55c2acccf183869a8415d8e21baed040a44c489180f86301b860b4e910e9979a9942cfc809d2cefbc06ab6449ccd048059932e6b5bc9b6edabf213a33f47815950adb2fd5eb56dddfb000a44b2b0807b565117b8786c17e1c76ea1eae43414d85e060dd5c373c048b87a4eddebf324db3531fb38e9184d2ee77bf86301b860a3b9d3775a18ed29340b04ede3a01c30b1bb5cf04bb7f481089504912272ff0464cb8c717be2f1cf5dd8c3eaa7e8b01c0994f5a428bd6d1d425639f7269d2441f980b1d69aadba165492c78ed5794196af3a1c439c830865fc5f76539cc9e011f84fdad994c9e96e1c5d9c0f4501854b24dee97719d8d2dfed831e8272c180f1b099057da9cd0b9d98a106c2fa1094c25321f210907bf4cb435d3bb278d15b99581729cb32b5f90871813a478d4f52f6d0",
  "mixHash": "0x1bfa7dba3d7852e69086ef2e7a34e919348c54bc5bec65266112834c6ec0b3a1",
  "nonce": "0x0000000000000000",
  "baseFeePerGas": "0x8",
  "withdrawalsRoot": null,
  "blobGasUsed": null,
  "excessBlobGas": null,
  "parentBeaconBlockRoot": null,
  "hash": "0xbe5d0214a73afbf4993662bbb7350e1aba17da05ef9dab4871a8979ffb846054"
}