{
  "parentHash": "0x654ba61237a2c55443dbcc82a5ee347703790cd74e6fdf0feb84afdec8dd7c82",
  "sha3Uncles": "0x1dcc4de8dec75d7aab85b567b6ccd41ad312451b948a7413f0a142fd40d49347",
  "miner": "0xffc5a86168daddd67802ea5a363b01c3c7fbf5ae",
  "stateRoot": "0x9dd759fec7b127a0950189d44204693fd0428a26bdcee1d26aea07451193b4c9",
  "transactionsRoot": "0x3872575d14095b63f1ccf5e55b1548ffb68e1175d70cc7d39e8bfb24edbfda92",
  "receiptsRoot": "0xf5d1df1ed886ae5af218f2540713389cc0c707e261516c89685ae33fba95b03e",
  "logsBloom": "0x0000020000200001000001400000000000000000000000000000000400000090000040000000000000000000000000004400000000000000000000000000000000000000000000000000400840010000200000000000000000010084000000000000042000000002000110000004000000000000000000020004001000000000000000000000000000000180100000000000040000000000000000000000040000000000000000004000000000000000000000000000000000000000000000000000800200000000004000000000000000000000000000000000000000000000000000000000000000000140000c001200000000000200000000000000000000",
  "difficulty": "0x1",
  "number": "0x1f4",
  "gasLimit": "0x23f3e20",
  "gasUsed": "0xfc61",
  "timestamp": "0x1388",
  "extraData": "0xf90252a00000000000000000000000000000000000000000000000000000000000000000b841d976106f35d17ab6da8d52d3ad49c5f48db2384e7092badd1c9960f86a8a03607403e63786ebfffeed2e35edd49159dfac090047b5473e72260d8fdec6b1be480180f86301b860b4f89ee4bd11ed9a5b014dc831b2a279d586e8690adc4004f891ae487e4e2bc52d8f220147313258c9228adfc1b507ea17c9bd5ddf6040155499694e87163f61f37af95fa46157c14572ae67650c395df88a9818211301830486b10bd77f9651f86301b860922665f79abcf7bb519c6d54c5a0208c6c3aead0e541d3a7886c2b79933c5c14754eb7a2acc51d699a04b7aa27eedbe911105fe057c91e35d5eddec5664556d862c3f9a407c72d050ac34b1360bfb5ce9adb8a94fbfc391d16a530262b2325ac80f86301b860ad035e6a112cc5cb9398f4e32bba33ba4a2d99ccaeafb38edca2d91301e0eb554c56960ddb293a8a8c7b4b5a5f4eacb90cb6cd5d0803481fbf5c6c892eaf0cd1d3115b19e8e2d39411e710d6999e3a533524d84e4b1b8b3cea71ab62aefaee93f86301b860acad8d7a796a469957429fe9fda01d626a295fd1130d534ba3790d21f0ba6d98f70039bcd7d7c73ceba86bc04a51426f08c477d8e069f354227e7f14cde961a4f79b22fb1469f9d82f6ada586a709f8b2684d25fc9d6b205a8180e39ac61ea4b86048c27395000f84fdad994ffc5a86168daddd67802ea5a363b01c3c7fbf5ae831e8272c180f1b0a611afc36b2f7d6063e13fe24c45a0bdfd92f0b705010672dda362250eb11ef53c571fdf5ab65f5d0e85929d11ac55b5",
  "mixHash": "0xbb2b4a525be8651d013d7ef43c6d78648864ef5bd5ce2831e337fb7fb468a33b",
  "nonce": "0x0000000000000000",
  "baseFeePerGas": "0x48c27395000",
  "withdrawalsRoot": null,
  "blobGasUsed": null,
  "excessBlobGas": null,
  "parentBeaconBlockRoot": null,
  "hash": "0xa9fbfe6071601c170a95b63f085d36d70309cbf984ba6455ce2d89f61aac5100"
}