{
  "parentHash": "0x0216dd8b993dd7e40ce5ec69776a433fa750bef58d2a5b21799214195b49891a",
  "sha3Uncles": "0x1dcc4de8dec75d7aab85b567b6ccd41ad312451b948a7413f0a142fd40d49347",
  "miner": "0xea6b08bfc88844ee529c7e6cf3fc3a2d44fe586b",
  "stateRoot": "0x5658885c88124e67da338363a375e59dbcf6581a6115e10da5f330cd6a61a9ac",
  "transactionsRoot": "0x3872575d14095b63f1ccf5e55b1548ffb68e1175d70cc7d39e8bfb24edbfda92",
  "receiptsRoot": "0x5fef357ed75d21a3ea1849a1f568009d03b1933a967bf053ec200b28d3da99ed",
  "logsBloom": "0x00000200002000010000010000000000000000000000000000000004000000900000400000000000000000000000000044000000000000000000000000000000000000000000000000004000400000000000000000000000000100840000000000000400000000020001100000040000000000000000000200040000000000000000000000000000000001801000000000000000000000000000000000000400000000000000000040000000000000000000000000000000000000000000000000000000000000000040000000000000000000000000000000000000000000000000000000000000000001400004001000000000000000000000000000000000",
  "difficulty": "0x1",
  "number": "0x1f4",
  "gasLimit": "0x23f3e20",
  "gasUsed": "0xfc61",
  "timestamp": "0x1388",
  "extraData": "0xf90252a00000000000000000000000000000000000000000000000000000000000000000b841c5bde01f820b0da4e2a58b167181ef22aed654c261baad4825a73d12a61001f902f24fd46987fa3f337d641ef37f7827856ebe01fdbffa3b7060abb37718afde0080f86301b860ae6fa2db2fa0d25a711bb92f5fb470656b08e1b37e02727cf2e35ec1fca033588e09f03b1d429e1f1637873fd3561a3a195aeb9eb072b65beb5a13aa2d599f08cc751e8b279a8c663f57cda110502a6902052d120f210e78c3c3215240ce791af86301b860992135f7888ec7abbed7eb6d50ab6a68a4f9636d89552e277332b121b42eb2c63801f60dd20ed3c8efdbcdd2fada1b4f165acefd6715ec2f389e16f78cf0653bc027c7ae774e73d8715983898c0a1b590e40e4f50ce828e1756b3fc5d6d10cc780f86301b8608fe855f1fa6cd652435ff720df37417c2b643af50c100b41c4b0d4b48b1cdae656a134ffb715277c84937b617ee134e6016b1fab3935b7e621b73c10e2976e970bf551156f8af0c5c50b3c3b2390486d0d5a85b11fcb7784ff5257e5b8a0a61cf86301b860ac1d25ad03464781647ddc0a1c4e3ff67d88dc74414a4d080a1a17ddcd0b3cb850c80d9be18b40d469f390df8cf57e1812e7f2c432159c5ad2712123fbd46e90d537d6933493d4faa212ea8260fd7090da966e41a542c9cdd62687478f071da986048c27395000f84fdad994ea6b08bfc88844ee529c7e6cf3fc3a2d44fe586b831e8272c180f1b0aef28b164b510a4a7e05b3b3b8319139dc24e895bb6eee09b754d1bc3c5e1dfe99831342bc178feabbf0de30f151c333",
  "mixHash": "0xc123b8e7ce75b39c3c1bcfdd9409f362a486173b2c2c8dfc9397c70ce09d1c4f",
  "nonce": "0x0000000000000000",
  "baseFeePerGas": "0x48c27395000",
  "withdrawalsRoot": null,
  "blobGasUsed": null,
  "excessBlobGas": null,
  "parentBeaconBlockRoot": null,
  "hash": "0x1a3d0c1e4ab65d76f0c53ac7b6912f18be25d68d4bd6e0719d461f3f70aae87e"
}