{
  "parentHash": "0xb0b8ed75f00aa09ba34851fa2ef092fda3b9cf257a1dbc1ae1f14aea29c20cd0",
  "sha3Uncles": "0x1dcc4de8dec75d7aab85b567b6ccd41ad312451b948a7413f0a142fd40d49347",
  "miner": "0x9d7ad0ed18f65b0c69e2f62386cbdb0d98d4769b",
  "stateRoot": "0x9fcc702b9cf73b605faadca3aa3ca245ac00ff71b8d352a7977050fadb49f50e",
  "transactionsRoot": "0x26f47dfbf4ce4ac70395918b8edda9cdc0628150fb752709aaede08bfebd1d0a",
  "receiptsRoot": "0x5fef357ed75d21a3ea1849a1f568009d03b1933a967bf053ec200b28d3da99ed",
  "logsBloom": "0x00000200002000010000010000000000000000000000000000000004000000900000400000000000000000000000000044000000000000000000000000000000000000000000000000004000400000000000000000000000000100840000000000000400000000020001100000040000000000000000000200040000000000000000000000000000000001801000000000000000000000000000000000000400000000000000000040000000000000000000000000000000000000000000000000000000000000000040000000000000000000000000000000000000000000000000000000000000000001400004001000000000000000000000000000000000",
  "difficulty": "0x1",
  "number": "0x1f4",
  "gasLimit": "0x23f3e20",
  "gasUsed": "0xfc61",
  "timestamp": "0x1388",
  "extraData": "0xf90252a00000000000000000000000000000000000000000000000000000000000000000b8412a66cde25aabd4208d83fb064807b99928449077a2274953404ba2085f0bb91b37b3a0a5083bde3eb5f5cfa5112f6a8b90841de2b18e40a2aff3e6762d1040010080f86301b860a9e752e25e0b3cc645661bb81ae0ae3e22acf9fb500067821ed96aa592ca7d1b4d8e1c9442393fd1bf0923945f9d6665043eef9e25f041c0d9dccfcff4627a45ccdd886aa1ae17e466263efac262d476b3bc388b5c6a17d73276af30e043aac0f86301b860b2e52a497eddfe3747c349e8a9399c214ac8bbfc435815391ec2a2736b979333966f54ebc218336150bc360f1f48f12f0aded5ad4ca8cd44876421cd26cab6136d8a8c324aea26c3b37eed512b65ec702f5ff996ddd7c2b6d09ef91c91c075e380f86301b860a7333478923198ebcb78e13408a6dd81709c53512df901d92cbc9063d68410f35315bc3a88c1432917c8a3060f89c0cc11a81deae92e7e81c556266b0649cbd4ce672a5e231bfaae487fc8ffdaeaec912930cd557246ea1119ae1eb77de38134f86301b860ad2e6fc27c414ee0636f15bc8062d7a906c7a6f5aff3150a16c70843934a958ce53574f18243d01ff85371f45bda762e04be2b6ba03798961fb91015bbff70fdf475c40acf62204870743f7a34ad67d44e1f446d3441015f79933068d74938fa86191a20322000f84fdad9949d7ad0ed18f65b0c69e2f62386cbdb0d98d4769b831e8272c180f1b0ab3f1817dbfc3a7503c85383f27e848d89a3e4e15605d54f02097b6accf8765a54524afdaab1965d78f4c6e45dfa54d8",
  "mixHash": "0x7780b717f514e27041bb150d412f9db2c3ed0e23543d32591db99e985fdd4ed3",
  "nonce": "0x0000000000000000",
  "baseFeePerGas": "0x12309ce54000",
  "withdrawalsRoot": null,
  "blobGasUsed": null,
  "excessBlobGas": null,
  "parentBeaconBlockRoot": null,
  "hash": "0x848cf76f91f95f53ff11aacebedbb43f7118f0929a069b2b35582c5896ad2fb7"
}