{
  "parentHash": "0x39de821dd91737723775c4b478ec59cefa11c26446647b3a0ccc44338086dc0d",
  "sha3Uncles": "0x1dcc4de8dec75d7aab85b567b6ccd41ad312451b948a7413f0a142fd40d49347",
  "miner": "0x05722118af223465609ea1d352bc60fa2f7ef45a",
  "stateRoot": "0x923a6a48ae7b86686e3e087f5a3f34f4085a304c746797cf1353d1917416405d",
  "transactionsRoot": "0x29645b32924a5e20d77b9871ec2e848d9761f9de658aaf139e0a3104dd1a1ae2",
  "receiptsRoot": "0xd501f73043954e216e007c434307ca6bdb3d61936ba209bf3c00f2e80ac02d85",
  "logsBloom": "0x00000200002000010000010000000000000000000000000000000004000000900000400000000000000000000000000044000200000000000000000000000000000000000000000000004008400100002000000000000000000100840000000000000420000000020001100000040000000000000000000200040010000000000000000000000000000001801000000000000400000000000400000000000400000000000000000040000000000000000000000000000000000000000000000000008002000000000040000000000000000000000000000000000000000000000000000000000000000001400004001200000100000000000000000000000000",
  "difficulty": "0x1",
  "number": "0x1f4",
  "gasLimit": "0x23f3e20",
  "gasUsed": "0xfc61",
  "timestamp": "0x1388",
  "extraData": "0xf9024ba00000000000000000000000000000000000000000000000000000000000000000b84148a4b3ec8bcad8300981af73e2dfa1cf63ac3506b531abd91a728053209432a9680d710c663ceb65682d2f165d6ef4f1806611af1230c1e89021666451f71b270080f86301b860b9903c54201c10d0ce14ed00272270e7968bc664ab82ca397a5948f4f24a45f629af080d8f17615cfdf8e782a31602020a2df3432b22c368c127480f1c03f1ae8d851cfb2c67f24966b4d34aaf3b38b1d27f25eb98ea9ca2e1e1ca447227c771f86301b860933570db89b3ae85754e4ca11269b02f12345a3e1c3444deab87e1493fc92dd566740527f465263824a93d33e561ca040f18a4c5f1fdd1763031880ca01f0db44f7d1e9250c43ae47e88d13a160d4a27f56648aeeabdafe55c4432e26ce619f280f86301b8608d982b71440cf50de4ea178c042f21428ea98e4433555f95341c6f9065fba79261087d0f1e916b428abb809e75f227250ba2eac064b61854b3a86ec88f31131b54d352dfdf0cfca43e0ae78f1fa8107aefbb655b6f0110868154d6ebf6bcb7c7f86301b8608a4d21fba8082eae5229a5f0a2f8b500b4e8b72526826ad552952e7c4a0a69bbe113251798dc5c8e503446935cbc995f141c84916e6bacf599e3b776dd44b3a0d3f4827ed1aa41b1f581a3d1d6656003ed9261ad13c12f6226cfdf9a6f1637aff84fdad99405722118af223465609ea1d352bc60fa2f7ef45a831e8272c180f1b08ce16029cb1add56c05bb41331701e5793fbda35a2d73866629e1a24d7dedba28d7d8fcd0f97fd9e09ebbd3dc1f82fbd",
  "mixHash": "0x536987acad85861c9cbe8cfb8ac6362b463d2896dee73eac779e997c295e5fe2",
  "nonce": "0x0000000000000000",
  "baseFeePerGas": "0x8",
  "withdrawalsRoot": null,
  "blobGasUsed": null,
  "excessBlobGas": null,
  "parentBeaconBlockRoot": null,
  "hash": "0x5ca18b787c83db571c73653ce2df017fc8aaf29b70ec6bd43a04314e0a15f24c"
}