{
  "parentHash": "0xd0c8ef8b81628b09f992072c8438e9d5b269a51c5fe3e63dda0a565b17a3c4be",
  "sha3Uncles": "0x1dcc4de8dec75d7aab85b567b6ccd41ad312451b948a7413f0a142fd40d49347",
  "miner": "0xea29c2f571ce65540faa27bb47ed99ace4184658",
  "stateRoot": "0xb0970d2b8a6d9d1cf2cf86d7314b1c2242dc5e37bc403b9d54ae0ec6ba882d22",
  "transactionsRoot": "0x26f47dfbf4ce4ac70395918b8edda9cdc0628150fb752709aaede08bfebd1d0a",
  "receiptsRoot": "0x5fef357ed75d21a3ea1849a1f568009d03b1933a967bf053ec200b28d3da99ed",
  "logsBloom": "0x00000200002000010000010000000000000000000000000000000004000000900000400000000000000000000000000044000000000000000000000000000000000000000000000000004000400000000000000000000000000100840000000000000400000000020001100000040000000000000000000200040000000000000000000000000000000001801000000000000000000000000000000000000400000000000000000040000000000000000000000000000000000000000000000000000000000000000040000000000000000000000000000000000000000000000000000000000000000001400004001000000000000000000000000000000000",
  "difficulty": "0x1",
  "number": "0x1f4",
  "gasLimit": "0x23f3e20",
  "gasUsed": "0xfc61",
  "timestamp": "0x1388",
  "extraData": "0xf90252a00000000000000000000000000000000000000000000000000000000000000000b84180ba8dc6838e1f7f9ef11791ad682fb68f1156ae45d8969c2ba5dbe4597cf6a735df07cd289aa587b397177d00327a2e15d46252202b3ee166cea4830f886db90080f86301b860b8233914ebc8ebaa1d290efe85b74cced2f0ffcb58a126533e28ffd2ee7d14cd25ba3767052690f4c3c65353103be26e1216982d622171eb1bcfebac339f6677411ef065acb69e55bb1939d03a94f0d07d94d5b7129feee4d0dbf2b349561102f86301b86093a867d44c3b195ab41a7e4145272bba3b354908e59fd6f5822f85477897ecb81b0f627b007492ca9adc00ae5b41acf213e4cdbee411e849dad4c24d3cfef17f0094af387bc1d5aec830f0f22218be3908362bc0f73ff88e0cc14f25edeed37080f86301b860b4fadeee270dd079233619ec380b502e6d826a77b29648026c5336716a37bb29a58c42ccb5049e8e8d3aa5170e3b1d470d5de856dbeb85b68a9e6c54a86aba1e2333ce9002cf5bb843577568c2314cc99a54d3cbc1c644bfdac815add6532039f86301b86086f13f226fa16aeead5a706048b0fddedea383bb3a9eb133fff2f9fa0cc7ed8d04ef45aa749f35f6572a6cd4eaca277513d06707fc296fd627048a2dfb6c2ce1a4062861da6cabea617dd5a85d8ab28892a2d0fbbc0aee850e682b559db462a086191a20322000f84fdad994ea29c2f571ce65540faa27bb47ed99ace4184658831e8272c180f1b095a53382bc7f9eafbd9edd93f8aaa1fe54eb91fe7780d084730fcfb66844f1042ca76a864ffe732f0c8dbd9b4b287651",
  "mixHash": "0xf8a344d12ac761d72c2d054fdcca6e73c9e94fea03347597dd252a5ac5e62f31",
  "nonce": "0x0000000000000000",
  "baseFeePerGas": "0x12309ce54000",
  "withdrawalsRoot": null,
  "blobGasUsed": null,
  "excessBlobGas": null,
  "parentBeaconBlockRoot": null,
  "hash": "0x7d75bf23401883ee8ac5c7d18dc1e4b92e7bf4aaf70bbb2f5f956863a3fab3b2"
}