{
  "parentHash": "0x8fdde3fa39a6b3911a4f9900d9e7dc27633290ca5e4f79dd2a26319fcb8448ea",
  "sha3Uncles": "0x1dcc4de8dec75d7aab85b567b6ccd41ad312451b948a7413f0a142fd40d49347",
  "miner": "0xb4e1bcd2a12071ba0c8e3fa901a691767767ce83",
  "stateRoot": "0x8743d58b9a26e2c3c653bd8c3dd7f6c661316d40634f9cf495199bf34bc86f2a",
  "transactionsRoot": "0x26f47dfbf4ce4ac70395918b8edda9cdc0628150fb752709aaede08bfebd1d0a",
  "receiptsRoot": "0x5fef357ed75d21a3ea1849a1f568009d03b1933a967bf053ec200b28d3da99ed",
  "logsBloom": "0x00000200002000010000010000000000000000000000000000000004000000900000400000000000000000000000000044000000000000000000000000000000000000000000000000004000400000000000000000000000000100840000000000000400000000020001100000040000000000000000000200040000000000000000000000000000000001801000000000000000000000000000000000000400000000000000000040000000000000000000000000000000000000000000000000000000000000000040000000000000000000000000000000000000000000000000000000000000000001400004001000000000000000000000000000000000",
  "difficulty": "0x1",
  "number": "0x1f4",
  "gasLimit": "0x23f3e20",
  "gasUsed": "0xfc61",
  "timestamp": "0x1388",
  "extraData": "0xf90252a00000000000000000000000000000000000000000000000000000000000000000b841e1996857a2fa7dd1c6e37b3bb3aba0cd8f23d203d8709fb21a244a6f20aba7070ea0f3fbe9b921f156e15c4ae605e27f7e032664327613c9131cea088fe083280080f86301b860b8d9f97818560b474da9ab26d1e4e8f2e013b38586162fb0310b6b254c9abbab1d91f67ee9fa591c4f42d89375ec0f600459d63d5a12b4b7836c9caf1b73b6833469996042578d1cce5208b7f82efbc3dd794564b0875f1397b416eb3246be1df86301b860a3dd7c960a478b46c4135438468d5141b3b47aefcc172da21456e462ba75f3e319ba37380cfdd0fbc19ba888298fcbd1160c186245dda9a6962491982d4abafc97de13a0247a805023288b7c996afaf30239c3a9cf7865702de2c3b3f7dc942780f86301b860a8f2b9cdaddaea309f450f411bd4876df04f0a0fec3f822726f4a9204498b1d689dbe36f7cbdbf664ab3918eca767f85028044bef32ff7662a229ec0173180620b2d3aee27528374bc281dd85bf6b614517fd1706370ea2ab8bb055a39760081f86301b860b57ff81bb011664052ab84f43d13bbec2cb1ab47f9178ac53dd939ef65e157f46c5e16773e6b14d3a835e1b2c56969a605864460e4609559713fa05af0f416e9d0c812ab96f52957430b32e2575614e5922f4a9dcefc2bf7a9d9cf975d7d65a586191a20322000f84fdad994b4e1bcd2a12071ba0c8e3fa901a691767767ce83831e8272c180f1b0aef372621aa0b8d8c3769b0d9d71cc523dafc5dd6ad15bfe9f6926837100c49b028aff998f0c7aeb1f3d08c862f00b0c",
  "mixHash": "0x8f80f38d2f2e73b353f27bf40561c858c6eb71105e67215bedb3faa9a73f627d",
  "nonce": "0x0000000000000000",
  "baseFeePerGas": "0x12309ce54000",
  "withdrawalsRoot": null,
  "blobGasUsed": null,
  "excessBlobGas": null,
  "parentBeaconBlockRoot": null,
  "hash": "0x109186b6b5212b47ae3a64988b7ba1aec12da20603987478b85d7a0ba6615b4d"
}