{
  "parentHash": "0x8d50505cfe610bbe8482be4292569c6372908ccae1be5f6f4edb04627a8592d6",
  "sha3Uncles": "0x1dcc4de8dec75d7aab85b567b6ccd41ad312451b948a7413f0a142fd40d49347",
  "miner": "0x24ebbd8729857c834446fda662a6fa1f33e5857b",
  "stateRoot": "0x8d3a203385db481e19f0219e4625e5a732b8804035b3035dc5fa0f3d54305851",
  "transactionsRoot": "0x3872575d14095b63f1ccf5e55b1548ffb68e1175d70cc7d39e8bfb24edbfda92",
  "receiptsRoot": "0x5fef357ed75d21a3ea1849a1f568009d03b1933a967bf053ec200b28d3da99ed",
  "logsBloom": "0x00000200002000010000010000000000000000000000000000000004000000900000400000000000000000000000000044000000000000000000000000000000000000000000000000004000400000000000000000000000000100840000000000000400000000020001100000040000000000000000000200040000000000000000000000000000000001801000000000000000000000000000000000000400000000000000000040000000000000000000000000000000000000000000000000000000000000000040000000000000000000000000000000000000000000000000000000000000000001400004001000000000000000000000000000000000",
  "difficulty": "0x1",
  "number": "0x1f4",
  "gasLimit": "0x23f3e20",
  "gasUsed": "0xfc61",
  "timestamp": "0x1388",
  "extraData": "0xf90252a00000000000000000000000000000000000000000000000000000000000000000b841112015b7a7150d67f2ae8405f617e0d9257f0fffb688f694bbd8ff1896b8230b673a100ed9750b2bb5867b2d4941670463bed081cefb0ea18591ba9519d8166a0080f86301b86084e221db1a8d3c3c3c20b675004a8c33a6fc3b91f5f70158f2c6038ff5f402bb2c334c0bb2cc093544fb9a9518e628790775cab1a2a9cde64aa7dacc0c6fc810e3b494848b0bc37b775b4727e9b36363b1bbbfe73d42f902b402ed4426a2e437f86301b8608cbb21a5038ca6a290189b34ca3eedc48b386fa12269813cf961969da8c922177a725ec2f97286c2a1ace9ac013780c209204032eb8465a272b207538c1056ff28376a9554208cc1a585be6ace025495f32e052ccd0a0fc022df13c781ff441780f86301b860899583027423ee7711776a2ee158129738126db3643f97ef0b58d797d680d6692c92d47e262ee1d47a8f74c27056d9e30aa818a8537522103deff207f4063918ca4343a8f9f69ef9d52e780899bfccab417b8ec2e47e19cd8277be579b7faaeef86301b8608a453cd31602795026961bc7727b755028cdb54bc2e1322075aed17309a9cb399ce5838ab40cd5ff1c0e2baa16dcf3f218b3543822142650f6193d6d3a04a74072039b326303e1619df223f4e64cc56dff167cffa475d1ecee7e3b3d32db6f17f84fdad99424ebbd8729857c834446fda662a6fa1f33e5857b831e8272c180f1b08f150de35cd6d19260b1f32b58395021f0d1998cc33df4afec7a357104348c2166bcbd19204eea43b567cdc535557b2586048c27395000",
  "mixHash": "0xf51fc6ccddd51bb33931ac91e8cb3ca907b069aa7eabc0d09bf8883f5c7232e7",
  "nonce": "0x0000000000000000",
  "baseFeePerGas": "0x48c27395000",
  "withdrawalsRoot": null,
  "blobGasUsed": null,
  "excessBlobGas": null,
  "parentBeaconBlockRoot": null,
  "hash": "0x13b4511367ca8cf79e4a8b5c4a1c0f4f96be342f646c0f6e350af6eaa408c21c"
}