{
  "parentHash": "0x168f4405a09260a3840e1a7a16924bed6f5d3aa791e61e44793787749ca36989",
  "sha3Uncles": "0x1dcc4de8dec75d7aab85b567b6ccd41ad312451b948a7413f0a142fd40d49347",
  "miner": "0x49eb5ada9525dde58498ea86337b8e8a8a5d8980",
  "stateRoot": "0xb9c7d8177621ef7f36c2205fc7decc6beae9261d84306147b5bb942eae5d62bb",
  "transactionsRoot": "0x3872575d14095b63f1ccf5e55b1548ffb68e1175d70cc7d39e8bfb24edbfda92",
  "receiptsRoot": "0x13ea4c22d3aef33af60bb9dc84ff0eb156440f70ac7b852f3ce69d645c8d4427",
  "logsBloom": "0x00000200002000010000010000000000000000000000000000000004000000900000400000000000000000000000000044000000000000000000000030000000000000000000000000004008400100002000000000000000000100840000000000000420000000020001100000040000000000000000000200040010000000000000000000000000000001801000000000000400000000000000000000000400010000000000000040000000000000000000000000000000000000000000000000008002000000000040000000000000000000000000000000000000000000000000000000000000000001400004001200000000000000000000000000000000",
  "difficulty": "0x1",
  "number": "0x1f4",
  "gasLimit": "0x23f3e20",
  "gasUsed": "0xfc61",
  "timestamp": "0x1388",
  "extraData": "0xf90252a00000000000000000000000000000000000000000000000000000000000000000b841f3769863d7195ef5ae1b4465e5b34c482857bf9bfd0808dc86a35d69829a8c8d038f145869436af9c4ef37cee921c408d1884c45d21e8db5e0e4fcc38ec24da10180f86301b86085f636525e2b4f5c65866570c5c3bd0b17f0c7c90123e93abdbd095313dbb0ade8ae2d3b85be09d39fddf13d0ff5cd6f0b7501afcc15eb231c7452e1b7de1602ead44ec218785322af8bdfeab5e0588bf5313489c850f0b6a143eeb1694ef4e6f86301b86094d58c8e69b2d0a347846a4a7826b78457d64f4e603eb83485740f3698efef4a68e4f083d441388295053f79bb1e466100583c8cf7565493151e7c44fdd12c13dbf3b488ed93fe64d3d054e26c1f559f17b40bb3726c9ee855ac9b2025fbb8f980f86301b860b752b60e45b6b44f79df6714bb046bac9d357801a634032c8ca2dc923a739251e96329fb00616b2dc1c12653b2e359080ef79778c7512029ecb0e1113d7e43b612c53cd36c49c496ff10fe382d6113afa95cc08655702076a8845812f963cd76f86301b860a9c618883791a974819fb60a6b4c579cfe262d9aa13459449b1a77eb83aeae82f9d3ad95050a2ed3c8bb58e7f3725c5404d589037fb90298534fa6481985829d5242640601d5226f5defbe647e019d47293f0bfc07104fe179d57e35fd96120586048c27395000f84fdad99449eb5ada9525dde58498ea86337b8e8a8a5d8980831e8272c180f1b08b38c12349509ae6cfb284322145df6c267920a12632f4d0bb96b45ffbc36305e545b09ed98593db78184e3961f8774c",
  "mixHash": "0xaf2dec2db48efd0029b531df41fe98a52654ca6efd66954adaa38cfc2f1a7bd1",
  "nonce": "0x0000000000000000",
  "baseFeePerGas": "0x48c27395000",
  "withdrawalsRoot": null,
  "blobGasUsed": null,
  "excessBlobGas": null,
  "parentBeaconBlockRoot": null,
  "hash": "0xd90263f1e2212a4950a59443f92c4dce4c0263efa6876b00732b4aaea1c83c62"
}