{
  "parentHash": "0x4f92eff9841d47a75501a2df5c4dd18f7495275b233ac0fbb798646b3f594c80",
  "sha3Uncles": "0x1dcc4de8dec75d7aab85b567b6ccd41ad312451b948a7413f0a142fd40d49347",
  "miner": "0xe1ea67c1e427baa8f9a9aa126a610f4d1aba5948",
  "stateRoot": "0xab37832acea58795e9f6d5ca63c47f016cace0ee5d241ddf66e0be82a73609a3",
  "transactionsRoot": "0x29645b32924a5e20d77b9871ec2e848d9761f9de658aaf139e0a3104dd1a1ae2",
  "receiptsRoot": "0x5fef357ed75d21a3ea1849a1f568009d03b1933a967bf053ec200b28d3da99ed",
  "logsBloom": "0x00000200002000010000010000000000000000000000000000000004000000900000400000000000000000000000000044000000000000000000000000000000000000000000000000004000400000000000000000000000000100840000000000000400000000020001100000040000000000000000000200040000000000000000000000000000000001801000000000000000000000000000000000000400000000000000000040000000000000000000000000000000000000000000000000000000000000000040000000000000000000000000000000000000000000000000000000000000000001400004001000000000000000000000000000000000",
  "difficulty": "0x1",
  "number": "0x1f4",
  "gasLimit": "0x23f3e20",
  "gasUsed": "0xfc61",
  "timestamp": "0x1388",
  "extraData": "0xf90208a0000000000000000000000000000000000000000000000000000000000000000080f86301b86087c947b73aaf5618d17b729db8a794b6ae13c9c9877885c7f40322b64d270d3ab5ec2af99f9e02804abb089b08d07c1d0786babed9a3cb3461067104b48bb6fef1f1e0f46d5702328ea258d6528b1fdd764ada3536cad417ab4737a6d8928644f86301b8608124b4788e1a74b694e7632c2db847f9769ca162224fb3faaa1a10120a6fdb4ec0d7a14d4ef0c6f7940cfa37e69493f7079a9a78a293b0304e9c497ac16eeac5d14b3d33b60f73bc6bd23ec59a31fc5b57ca93b99f76728a87c116ec48fb20a280f86301b8608e916d0c8807ad42d0847c448490df4212d86b07bafefb3c2f7e7fa6cacb47eef1d70f3fb3bd6ed67e5d8ea3d1e5328b0cc68efdf5ed95ef63fd4c8322b8d59bae99824b7e80d380f984de3f413eff27d2008074b1209062fe50fd976373572bf86301b860b43d2bfa08a05f264e197abbab643ed0a4ba4bfbe2640389bae0ba08ee1dd1350160fb668d1cf7f9048a5eb6c0239a720310fe91a3e923c0db9994b94a402a4db06cfe3af49abd47e5043c037f21053be0ceb5a83076f92138babb4db274f388f84fdad994e1ea67c1e427baa8f9a9aa126a610f4d1aba5948831e8206c180f1b081a77a7a03b4628f42027d6fadac0b580f767772aa61f943e8db601e8b2670b7a3277b2fd7741c6d259614e2afc5c04a",
  "mixHash": "0x0000000000000000000000000000000000000000000000000000000000000000",
  "nonce": "0x0000000000000000",
  "baseFeePerGas": "0x8",
  "fees": null,
  "rewards": "0x",
  "minerNodeId": "0x",
  "minerNodeSig": "0x",
  "withdrawalsRoot": null,
  "blobGasUsed": null,
  "excessBlobGas": null,
  "parentBeaconBlockRoot": null,
  "hash": "0x23c58355e2c39b1605816064e59dfaaf2ae4e6c57f75a0a93a7aa71eee393526"
}