{
  "parentHash": "0xa29e2a7a60a4d753a1c9c2b9609ff2fa463f6ddbd048a28c1707fe64c00ac78c",
  "sha3Uncles": "0x1dcc4de8dec75d7aab85b567b6ccd41ad312451b948a7413f0a142fd40d49347",
  "miner": "0xa0085d3a064c45b77cca48cc96d99ab441b5f863",
  "stateRoot": "0x3500120334a18c489e67ed06013cc83a07a855e41935614a650408b84f9b2cc8",
  "transactionsRoot": "0x3872575d14095b63f1ccf5e55b1548ffb68e1175d70cc7d39e8bfb24edbfda92",
  "receiptsRoot": "0xc4910f7fbb88e966e1ea968d55d54be227eaf44b1b8870f7cb25a935031d00c0",
  "logsBloom": "0x00000200002000010000010000000000000000000000000400000004000000900000400000000000000002000000000044000000000000000000000000000000000000000000000000004008400100002000000000000000000100840000000000000420000000020001100000040000000000000000000200040010000000000000000000000000000001801000000000000400000000000000000000000400000000000000000040000000000000002000000000000000000000000000000000008002000000000040000000000000000000000000000000000000000000000000000000000000000001400004001200000000000000000000000000000000",
  "difficulty": "0x1",
  "number": "0x1f4",
  "gasLimit": "0x23f3e20",
  "gasUsed": "0xfc61",
  "timestamp": "0x1388",
  "extraData": "0xf90252a00000000000000000000000000000000000000000000000000000000000000000b8411364351ef7768a1470e24179f551a33f1a7bfe8eaa9e11ea1abe048cfba82c5c65c12a79fcbeeb23f1373522a0f05b00686ee9fe656cc05321e71c8eda82be3f0080f86301b86085e85a221edf9745685390116fac2e273c791d9dc066eab8b5349fc4ea9816e48ce42ca8564ad1fab676d3075504119b1112f58f735fa759c3dd7812ed374e0c7d3ca70298e2d398ba0030e4296a1c49ae1feff2296677a7567863538d7e9c00f86301b8608f655eeea41bbdc8e8d20d529835a99926bd116ef4fb003d78ae5ddea1e7c80c45bb5fb69c87331743551a2289e0174e139743a44676ceb8c983c2a1be341bd73d97ebe135e524ad87f7caf16f768ca698fec4d280220b072f036c8b96c8606380f86301b86082d0e239d19856f2dc7b0ac0f21dc678855111b4c5eae5995891a71e2bc9269d5c99a8225c2c543eb074f70f89694af1024ca8313f7d67453bf62d7cbe519bbd0743a5fca29adfdc46cc0caf94666177daaced72fc8b60d98cc87219f0cb41c5f86301b860917e0af513b8d8291b0f02a48517857d63b8cf61d38b2198d8bb2f52712525070cf59eca515f33a93815d408ec893cdb15651fbfc24ef775a68645fc5c2aa1f963243f10ce802f11d513daf8c9ab80db4190ff64555a299c79bad59db8caeccaf84fdad994a0085d3a064c45b77cca48cc96d99ab441b5f863831e8272c180f1b080f18b080e5cbf2bc4d9dc2067672fe0a3f14735c7879b8fd6c5d4398d2fa2145f3c0ec8739895d896fe0d1609ece90386048c27395000",
  "mixHash": "0x86c7b84c45a2b666fbe13e8663c6b7a5c047359540b20002dc5edc5e770f2a94",
  "nonce": "0x0000000000000000",
  "baseFeePerGas": "0x48c27395000",
  "withdrawalsRoot": null,
  "blobGasUsed": null,
  "excessBlobGas": null,
  "parentBeaconBlockRoot": null,
  "hash": "0x0f4ef697f89213400878f905c82f51e052fcfbccd5e8471b619bf9ae959f68b4"
}