{
  "parentHash": "0xb035e6e8faeb41c07406bd0496e3415b1fbbeaa59922cdad29f53695cf73f864",
  "sha3Uncles": "0x1dcc4de8dec75d7aab85b567b6ccd41ad312451b948a7413f0a142fd40d49347",
  "miner": "0x6fec08ee139a731fb9eaea26048fd7c86f4bed4c",
  "stateRoot": "0x6f296ca11d499fcc9dbbded3e1bdf276ccbfaab5bb42af7caa4f19ee52dafeb1",
  "transactionsRoot": "0x29645b32924a5e20d77b9871ec2e848d9761f9de658aaf139e0a3104dd1a1ae2",
  "receiptsRoot": "0x5fef357ed75d21a3ea1849a1f568009d03b1933a967bf053ec200b28d3da99ed",
  "logsBloom": "0x00000200002000010000010000000000000000000000000000000004000000900000400000000000000000000000000044000000000000000000000000000000000000000000000000004000400000000000000000000000000100840000000000000400000000020001100000040000000000000000000200040000000000000000000000000000000001801000000000000000000000000000000000000400000000000000000040000000000000000000000000000000000000000000000000000000000000000040000000000000000000000000000000000000000000000000000000000000000001400004001000000000000000000000000000000000",
  "difficulty": "0x1",
  "number": "0x1f4",
  "gasLimit": "0x23f3e20",
  "gasUsed": "0xfc61",
  "timestamp": "0x1388",
  "extraData": "0xf9024ca00000000000000000000000000000000000000000000000000000000000000000b841bae9de07ba358a646e9f5a5f65b1baeead5515a2b3f35ca11a94c69f0a948cca5f74eb62435bc9920f6a6e0c0cd796cc60e7dd568602493e7a26967be051d55a0180f86301b86085a8c38f7bfc00cf33d653f997205186389ae300519331127384175f4bf8ef8cc21e5a0f74108e4b61fe32e6fde013ed0c3f51b59e91b9e4fb7286b6076edf72b79810bfddc8593ed05b7207049a3bdf811a167eacfaec56c9355e281a0450b7f86301b860aa0f8b4879a5b9abea4dd1d084ce4d86d2a729ab91ea5b02e9647015d3afe4169d3ecda68d3e098701a1cedb35917af802c4b98ff8e8ed654ab00a463e6240ccb1397177fcb89bb0387c4122567c030257cf03e441b9fac956eb5a408b6f3e7d80f86301b8608fa5dea62e958a49de85ee6b087801ecb8f65190acd70bb73659a64e5fe93c80735de105565ba849fde8835218ec8e8004cdb4aabfae6158889fba3330c9a3ad6305b24accc5127457515fce1af2211fdad59b539ec32d72911cb63369cf75d6f86301b86083092aa67c5a7b1f3ca847672507a9ce8fbf9254f61639df40391fd6a3794170f837c136b2601b8bba1b63b60fcc01630a4dd7ec1c35c234614b9673015af48d170adcd1884413292092ddb054822cecb1d56c8d7395f4ff25fc06698c13430df850dad9946fec08ee139a731fb9eaea26048fd7c86f4bed4c831e8272c180f1b08de809ed3a81f991f2cb092a4e8e1ee5bcb537e415051a5346fc40803493dd3b3fb0097c63da7f1dcd1f194abe63b3ca01",
  "mixHash": "0x1f9648322c628817a7b41e035f69be676d56d728ea64360875ec8ee3b4c0f72e",
  "nonce": "0x0000000000000000",
  "baseFeePerGas": "0x8",
  "fees": null,
  "rewards": "0x",
  "minerNodeId": "0x",
  "minerNodeSig": "0x",
  "withdrawalsRoot": null,
  "blobGasUsed": null,
  "excessBlobGas": null,
  "parentBeaconBlockRoot": null,
  "hash": "0xe88854e759a05be22960d00adb17fd7a0d3858769c4a81bc180021f682ff57bb"
}