{
  "parentHash": "0xb3ef5605791f75dc1e7597201e8539b77add51126b43758f030537f954afdc7c",
  "sha3Uncles": "0x1dcc4de8dec75d7aab85b567b6ccd41ad312451b948a7413f0a142fd40d49347",
  "miner": "0x8cd303240c459e56c9df59cf3722af55d535008d",
  "stateRoot": "0xbd3e06530a0716477b544e731faea076f7b50a024b6f1922ef484e13a1f2ea32",
  "transactionsRoot": "0x29645b32924a5e20d77b9871ec2e848d9761f9de658aaf139e0a3104dd1a1ae2",
  "receiptsRoot": "0x5fef357ed75d21a3ea1849a1f568009d03b1933a967bf053ec200b28d3da99ed",
  "logsBloom": "0x00000200002000010000010000000000000000000000000000000004000000900000400000000000000000000000000044000000000000000000000000000000000000000000000000004000400000000000000000000000000100840000000000000400000000020001100000040000000000000000000200040000000000000000000000000000000001801000000000000000000000000000000000000400000000000000000040000000000000000000000000000000000000000000000000000000000000000040000000000000000000000000000000000000000000000000000000000000000001400004001000000000000000000000000000000000",
  "difficulty": "0x1",
  "number": "0x1f4",
  "gasLimit": "0x23f3e20",
  "gasUsed": "0xfc61",
  "timestamp": "0x1388",
  "extraData": "0xf90155a0000000000000000000000000000000000000000000000000000000000000000080f843b841703d966c5908d310d8ce0cbd0de937c321ae37b73f9b68d0afa11b71af67a3162037eb278bff6c61f0cf42fed73ecb9fde1e375a4a6906643f6067faeaccfdfe01f843b84121a2dc9d498f86398c4468d242cafcffd7f329780cd605aa48470363299657cc0e97c4557ae125ea4a8440de742a6a2e6841cf4d6e0f2693bfb2bb1657f0631e0180f843b841190c3e25f07f0de4554ca8dbc87ac619ab7ad796c231c7017fccaf4d1204f0652c42443a95224ef8f1a558011ff43b22a7a3cc88a86594d3ae61454c2dae274001f843b841dd18a7beb308618b1d2d8efe16a2498e7d7d58cd6888b003291cb3058aaaea2934934ab30ff94da627bbb4b63b6ba75d2ffba346f28efbbfbd24281db619fde101dddad9948cd303240c459e56c9df59cf3722af55d535008d831e8206c180",
  "mixHash": "0x0000000000000000000000000000000000000000000000000000000000000000",
  "nonce": "0x0000000000000000",
  "baseFeePerGas": "0x8",
  "fees": null,
  "rewards": "0x",
  "minerNodeId": "0x",
  "minerNodeSig": "0x",
  "withdrawalsRoot": null,
  "blobGasUsed": null,
  "excessBlobGas": null,
  "parentBeaconBlockRoot": null,
  "hash": "0xf261ec0838131b4eb985e3cc01ea62b72bd9e2990ffc11a15ef77ae4a1ed96cf"
}