{
  "parentHash": "0x724c3d43e443923bec87d4a1693254f46aa13c7564665810fdbde24fde09f95c",
  "sha3Uncles": "0x1dcc4de8dec75d7aab85b567b6ccd41ad312451b948a7413f0a142fd40d49347",
  "miner": "0x6633be7d18b3ca06200243a78b4036299a3b64e5",
  "stateRoot": "0x23513212069a2f522fe6240fd500c9f9c1d871fa46106a02c3f675c5315f5b95",
  "transactionsRoot": "0x3872575d14095b63f1ccf5e55b1548ffb68e1175d70cc7d39e8bfb24edbfda92",
  "receiptsRoot": "0xc9acc15cfc8e9ca6ccf8196ba1bae5e4ecd8b0a33a39dbe5a815bb84e4b2aeb0",
  "logsBloom": "0x00000200002000010000010000000000000000000000000000000004000000900000400000000000000000000000000044000000000000000000000000000000000000000000000000004008400100002000000000000000000100840000000000000420000000020001100000040000000000000000000200040010000000000080000000000000000001801000000000000400000000000000000000040400000000000000000040000000000000000000000000000000000000000200000000008002000000000040000000000000000000000000000000000000000000000000000000000000000001400004001200000000000000000000000000000000",
  "difficulty": "0x1",
  "number": "0x1f4",
  "gasLimit": "0x23f3e20",
  "gasUsed": "0xfc61",
  "timestamp": "0x1388",
  "extraData": "0xf90252a00000000000000000000000000000000000000000000000000000000000000000b841e2ac22e755f6f0d617da098b5ff4ec45fd7f0c59c02b1d5ea4be05d66ed409002fa566125779c278ed47c0ced5227e3eb020054dfcd1e1357e23c09a12b128780180f86301b8608f9e4ec41ab6ec6f59254186582d739a4fad1e5c8a65923f3a696c087383f8e48bf4297a88c0b0fc821988066165ae7619c2ae3bcd95201b9270ed8d875e0398efa5c637cf1f453e9381acadf47a684c603accce229a237bf4d4a4609fde6177f86301b860a2207e24b217033aa84aa33fb85bc15aada85de0e399412d5bacfa70916d129e75530287976b71d5c9aca090e255c258152991455ce994550e37ff13b91e3e2100ac27828a1b7ee4495804cde5195c4fd9a850dc444d9e308cc710dee2aed04780f86301b860a784540fe3d61fda7c687850c160a6af7ec1227f64e2d64b7e804be0bb69ee8b2cb32a574284cb51fb3a34286d2294c20848bbecc12f5983a9c062cc92927adf120e82e494c0c7a13263c67e239e3eabc51908c57d6ae9b258912ae8f6bca7b1f86301b8608e3b1d64574b7c1d610fea83dea02b68ac7f63824d4b60c3470cbbda8449ebd5cb3c73bc4d3d2c1f235e76bb243d2a6710a6b5e27c1d79313af9cb3896835f0689580d14070177c2e581748b2a3ab16ca2d2320fecdeac4a39e504bca0d1cb2286048c27395000f84fdad9946633be7d18b3ca06200243a78b4036299a3b64e5831e8272c180f1b0a269277ce65d2e54876e7c6d9c2853217cdd396284da65e8226bd12dbb7f68942b4f51357d2533b62799cfe6f6eb2b1e",
  "mixHash": "0x7522f035f590bf0c430acb12d4a9fedff84ca00b1b7d113e55a47bf84fd1cc05",
  "nonce": "0x0000000000000000",
  "baseFeePerGas": "0x48c27395000",
  "withdrawalsRoot": null,
  "blobGasUsed": null,
  "excessBlobGas": null,
  "parentBeaconBlockRoot": null,
  "hash": "0xf2a5ef465a31ec8aa79aaeeb75405f1e86cdab97b36e8a956976577c1093c2a0"
}