{
  "parentHash": "0x9daad9c44b0b7194119e82997b17b74101036464e2925eaa94c96b92ad7f0577",
  "sha3Uncles": "0x1dcc4de8dec75d7aab85b567b6ccd41ad312451b948a7413f0a142fd40d49347",
  "miner": "0xa3e2c8156589f12430d59c7c166ba389b25a9bb2",
  "stateRoot": "0x4fa99e6f4a0f4505acc3621c46511a32799c98e2566d2b4437ad0b8d6f6185b2",
  "transactionsRoot": "0x3872575d14095b63f1ccf5e55b1548ffb68e1175d70cc7d39e8bfb24edbfda92",
  "receiptsRoot": "0x71525fac3a3cc11b2a6c8551ba1992bef8feb5e4015f6f9893ae6a9748d3713d",
  "logsBloom": "0x00000200002000010000010000000000000000000000000000000004000000900000400000000010000000000000000044000000000000000000000000000000000000000000000000004008400100002000000000000000000100840000000000000420000000020001100000040000000000000000000200040010000000000000000000000000000001801000000000000400000100000000000000000400000000000000000040000000000000000000000000000000020000000000000000008002000000000040000000000000000000000000000000000000000000000000000000000000000001400004001200000000000000000000000000000000",
  "difficulty": "0x1",
  "number": "0x1f4",
  "gasLimit": "0x23f3e20",
  "gasUsed": "0xfc61",
  "timestamp": "0x1388",
  "extraData": "0xf90252a00000000000000000000000000000000000000000000000000000000000000000b841a6866edd2f3b911e06da82e153a035a37bd65f49ab1c0dda06b2f2ca6296a0587af5db82eea23b88e75875f4c72f0e7f5f3e4fb60352ba0bc71edcee98ee17b90180f86301b86084697a9fd242aa0ce69070a3825f79135bb343b3874d9b10f2ed293adcbec79faaed5a7100545aa9f6f88c6a3f271524000db3f53db03b05fbe90125b5666316ab13e958d39d2f1d8348321f28161257c9f0a5dc8f8c3b14168415047689f3f0f86301b86083c9dc945de5e2327ba48792b2cdeec6e7f81077999d54340cccddd31ce87fe0d9390d03f5b48037a7956c516ea64e15129eef262af09b4c509de188dc10019b45bb6ade48847571399efe1276580deebfd4532f06fe5f25c67f70f44cbfd40780f86301b86085004e007665f75616bc771dce6a2082c1ce1e9d10ad1410652fe14543edcdec75fe2fd02fb853b4919153d7935b2aee1438b76a569a16f06f2f39b78088070cbc161d6e110df092898c0e50cce09eb43fe1ea13c6e1f7001e7bc0fb1c96823bf86301b86097cc7f8fc5dcf17f8dcd0b905495d5ffa77f9d23b4dc330ea9ac1f648b72a3b8e33cb1e5549e1827328bbb036dab82b3061d15eeebb8851721348d1c1c5aababdee8f96865daa3f40ec9db6e3d25512a2f45e9d4f88dd257751c9c3c988eef1c86048c27395000f84fdad994a3e2c8156589f12430d59c7c166ba389b25a9bb2831e8272c180f1b0ad375b6c580c9a401fc91ca7fab8b866f0092b28b82dd1531845cb64fc50712aee967348666e4d8eb776fb2c16667eb6",
  "mixHash": "0x92ee1d96daf95c7e330fca3d5419fff53bb9f872db80f8c84463d922d513ea8b",
  "nonce": "0x0000000000000000",
  "baseFeePerGas": "0x48c27395000",
  "withdrawalsRoot": null,
  "blobGasUsed": null,
  "excessBlobGas": null,
  "parentBeaconBlockRoot": null,
  "hash": "0x52ee93480908d46a0cb4472cd16851f165b20328b405cef2f90826b271256eee"
}