{
  "parentHash": "0xe84c01e1477ded5ac2f224ea2ececf599d7f81915a399a02cb1b5830ed27a0d6",
  "sha3Uncles": "0x1dcc4de8dec75d7aab85b567b6ccd41ad312451b948a7413f0a142fd40d49347",
  "miner": "0x93a6e023380719a1bae7d103a166d29579daea62",
  "stateRoot": "0xe7c02017e60c5c514b2a82551e1bb916be94cc130e0f311cda87660c1d47512b",
  "transactionsRoot": "0x29645b32924a5e20d77b9871ec2e848d9761f9de658aaf139e0a3104dd1a1ae2",
  "receiptsRoot": "0x19cbf77495d6cd9e7f774cc2f63b1b0d1658a8df274697cfd2d58782e025292f",
  "logsBloom": "0x00000200002000010000010000000000000000000000000000000004000000900000400000000000000000000000000044000000000000000000000000000000000000000000000000004008400100002008000000000000000100840000000001000420000000020001100000040000000000000000000200040010000000000000000000000000000001811000000000000400000000000000000000000400000000000000000040000000000000000000000000000000000000000000000000008002000000000040000000000000000000000000000000000000000000000000000000000000000001400004001200000000000000000000000000000000",
  "difficulty": "0x1",
  "number": "0x1f4",
  "gasLimit": "0x23f3e20",
  "gasUsed": "0xfc61",
  "timestamp": "0x1388",
  "extraData": "0xf9024ba00000000000000000000000000000000000000000000000000000000000000000b841749d998cd841c0635709ed8f8b153dedd81af37c20fc6685988e2adac16f7f094f4ed0d38a951480a5aaa499a3388843658d7ef99d6618c05d3c729a59dc1f390180f86301b860b86db0aeeaf15db9794cd4430e8583d136786d22ea93ee986b08e80e1c4f476a8c15993e6e5ad4aeaea9b8926f2aacd810f74697e17d9a70b53c2f552ce3607bb384e63413e31f9898ff3ea029c21675e1e8ea057e68d98264803ee3ac435007f86301b860a6026a2b134c2067cd0f90b7fabcd1034bc8e2db10caaae83d3a977dbe536f0f392139a612c488384e97cf0531fc24bb0eeb5cc8127831212a88f78844b8971f68f6fa39beb6e588288f1a768082635f128fa902054a406293500e08d48a69e880f86301b860b726f4beb3f6781432a8736190b3125bd89755f6c61c85b82338bef4b6b6eccc8e31fb5d3d0030e216199ccd85a0c90c12f4b8a7d724a00e5b93fc882d5490983b380e1957318665e45a6701678fcfacac3332f602e9af4a4b3301a90312608df86301b860a187338d958afaa1a5c0ce1e39256ca1f3bee3f9237e83d750d1856d8e99d9a9aab99ed5b254de4fb55876b35ef639e318d26b563549e2a5b72198f804e0da078ae1665a5446a10bbf0d91d9dc336720541b69402ee2b7df0e2229a944be76eff84fdad99493a6e023380719a1bae7d103a166d29579daea62831e8272c180f1b0a582b6336509b6abdcbb4740cc1e26f07fed5b1a46b19dc9f25e65400bc9483e8e4d6d9b57aad5bd3e9669ed4770dd26",
  "mixHash": "0x78ddeb91c76e0e3db90b3510707f1196a58676a4833e5fbdd87fdc2165153461",
  "nonce": "0x0000000000000000",
  "baseFeePerGas": "0x8",
  "withdrawalsRoot": null,
  "blobGasUsed": null,
  "excessBlobGas": null,
  "parentBeaconBlockRoot": null,
  "hash": "0x52d14054292ba41be1f212aee7cb31a7e0970dd20f031410416aa969577e39d0"
}