{
  "parentHash": "0x53b612c978568fdf2453b3fcd28c2e89db0d8d97a264f1c6d56fa9a3071baeb4",
  "sha3Uncles": "0x1dcc4de8dec75d7aab85b567b6ccd41ad312451b948a7413f0a142fd40d49347",
  "miner": "0x0a27e5e6b9a04cf9a2b392e5f7fd177f48886c73",
  "stateRoot": "0x45994b069415a95c51323bc98ef48f46ca9f519880401e97bcfe5db94427d6ec",
  "transactionsRoot": "0x3872575d14095b63f1ccf5e55b1548ffb68e1175d70cc7d39e8bfb24edbfda92",
  "receiptsRoot": "0x577c2f760943010f6ed6043a1264a0c2cd1158f46461557b76dc8678541bacf3",
  "logsBloom": "0x00000200002000010000010000000000000000000000000000000004000000900000400000000000000000000000000044000000000000000000000000000000000000000000000000004008400100002000000000000000000100840000020000000420000000020001100000040000000000000000000200040010000000000000000000000000000001801000000000000400000000000000000000000400000000000000000040000800008000000000000000000000000000000000000000008002000000000040000000000000000000000000000000000000000000000000000000000000000001400004001200000000000000000000000000000000",
  "difficulty": "0x1",
  "number": "0x1f4",
  "gasLimit": "0x23f3e20",
  "gasUsed": "0xfc61",
  "timestamp": "0x1388",
  "extraData": "0xf90252a00000000000000000000000000000000000000000000000000000000000000000b841526d2cba1bb01fa9faa8a2eb1bbca7c34e5efd4e4f9867eb4f350ace195ed938736b4f6b17dcddca7b07569421a640cfbf4e5c3f63d5ecdecae57a836dc4c4490180f86301b860a2d3c2ca90851e8c233fd4e0184fce72aa18187a461237f471d778029c224b28b384610b6a33acf45ba632b9b2c9b8a40e8d5d13fe04c070eed93f4635890d133407dcf09e9e6c3eeda573dc13e2a1d4c5fe90e18f84caba91647a13d6800a9ff86301b8609656d4c6a97bd36aa8567d322d526080a92c754307afbc2c309d428faa40fe0b36f4a11dfa337faaa816520915495483115eb1748c0d7b57f1d6a79dd0e34dbdbfce573fd2633beb6e32549e701fb7fdf3b90567e71fd81f62d4a10ede17b90580f86301b860ab1d6c8fd9ef03be5669420f6e225cb8a93734d6767fd2f93b3e813c628a8688195f5a5b5916b638f261a8a726c0acfa162cbef9aa4c7accd26f5326efa161a2c79a39183f6c142bac06e073ba7dda7033ff070b271e76fe946ba5e66223b084f86301b860a6eb8d7f4da60f06b29fb3be181d78828c92d1a50d7cdc341a2941b434381a16a99899049a198798bb2a2cad5c7548ea0d42135a05c54c401a515a1914e5cde7d0fcba716165723c16fa2fefd7e8f2ae841d91ee0737438c4e20adfb7bbb19e3f84fdad9940a27e5e6b9a04cf9a2b392e5f7fd177f48886c73831e8272c180f1b08093b4d0fce37ef345423dc1bd66ef25df8b9d60a2d5cf13477868ba6401b5ba8f8660332752bd716ddedb3ebfc4c31886048c27395000",
  "mixHash": "0xe4c465cda75dd6cb94480db33125093c97a2a3e346acd6bcde3753b03caa1814",
  "nonce": "0x0000000000000000",
  "baseFeePerGas": "0x48c27395000",
  "withdrawalsRoot": null,
  "blobGasUsed": null,
  "excessBlobGas": null,
  "parentBeaconBlockRoot": null,
  "hash": "0x39c5433358a229860b1fed5174d0c7b6e9962f26635c3d88640691ff8a977f2c"
}