{
  "parentHash": "0x49f8971540a3a4cd78753fafc94e85e1a2287c1cc36be20e9c77b9e30b16bb61",
  "sha3Uncles": "0x1dcc4de8dec75d7aab85b567b6ccd41ad312451b948a7413f0a142fd40d49347",
  "miner": "0x7709294179e42af8b33dccd24d2c1ee2d4ef3198",
  "stateRoot": "0x705c65563c690688034a8579bab96a8d3f188f2177174d2d1a3a91ecc8818d62",
  "transactionsRoot": "0x29645b32924a5e20d77b9871ec2e848d9761f9de658aaf139e0a3104dd1a1ae2",
  "receiptsRoot": "0x5fef357ed75d21a3ea1849a1f568009d03b1933a967bf053ec200b28d3da99ed",
  "logsBloom": "0x00000200002000010000010000000000000000000000000000000004000000900000400000000000000000000000000044000000000000000000000000000000000000000000000000004000400000000000000000000000000100840000000000000400000000020001100000040000000000000000000200040000000000000000000000000000000001801000000000000000000000000000000000000400000000000000000040000000000000000000000000000000000000000000000000000000000000000040000000000000000000000000000000000000000000000000000000000000000001400004001000000000000000000000000000000000",
  "difficulty": "0x1",
  "number": "0x1f4",
  "gasLimit": "0x23f3e20",
  "gasUsed": "0xfc61",
  "timestamp": "0x1388",
  "extraData": "0xf9024ca00000000000000000000000000000000000000000000000000000000000000000b84141f89d3a9fb03f754b90a8ac9ab0cef42d73d53b910fa3a7b6cd9dabda008b1204372b8a98d4e8b7db7dc1a2774bf8b2907216c06c43b7be15ce69436e4cc5480180f86301b860ad1d89b26e764e9b8b232f6c6c0a679c68973558d73a10a781a99d49519955a62fa693a3552716c9c33656747ad874711633737e66789af44fcf54fca6607cc37835d9733898c8737685dbef5168fa4c0f5104f7ab10b305831b217f9d9515bbf86301b8608dcd184585acba58a965d0a3d80ed7c91aa05e45d9bef2f2fd0dfb5d288a29577d8447e559da392cd54f5a09dd3db27414c00a92f7e43a6009a4182e9563e3490d78849dc88a6b133565136e09da3c6005fbf2267baf61873dc5227913a74b7480f86301b860a76f3f879cd5a3dc99967531d1370f7a2d8243b8d0dc45510fb55a5b934469173aac1f3760f59ec320c6e52ae529e56a0c503b0b20299254f9f14ee52f5f9513025c7b0f7d0d1c777bd544c2e593b1ae5814914ae460780eed4fdaa06ddaf38cf86301b860acd2d93e96d703f44f2ddc42a29bbc92521fa41910842333a4ebae5c7057f6def042290b4e2d332531e932409de737ad0b0b6f09b215cad2dff724fca729b250c5f66de187417c38b8734a1d011710ce882c340f3f18c19288cfc73f11b44eb5f850dad9947709294179e42af8b33dccd24d2c1ee2d4ef3198831e8272c180f1b0941e69908f82e8bd6fd5086ceef9bce0b17565e358c745b59b0e502c576275123d116c556b24563e142abdb0e768e6a001",
  "mixHash": "0x0df3a8c521019e93096d50b3ad25b81a4b2b12db20b359617f0ee69742ac19f7",
  "nonce": "0x0000000000000000",
  "baseFeePerGas": "0x8",
  "withdrawalsRoot": null,
  "blobGasUsed": null,
  "excessBlobGas": null,
  "parentBeaconBlockRoot": null,
  "hash": "0xea5708f608bbc8a6492d99f5a7978a3dd1d6a926f03592633f75b0989f2b4d92"
}