{
  "parentHash": "0xb5513a488d2eea7618c19ab7341de8b3170fdd0a5d8ce76ff6da4a5a627ad53e",
  "sha3Uncles": "0x1dcc4de8dec75d7aab85b567b6ccd41ad312451b948a7413f0a142fd40d49347",
  "miner": "0x62a730ca988232a760fe8ad5c21baf4913f73522",
  "stateRoot": "0x87efff696ae64efa8b9b4d2def8c9f699ebc2b94ff7e06fd25a61f29cc698f90",
  "transactionsRoot": "0x29645b32924a5e20d77b9871ec2e848d9761f9de658aaf139e0a3104dd1a1ae2",
  "receiptsRoot": "0x5fef357ed75d21a3ea1849a1f568009d03b1933a967bf053ec200b28d3da99ed",
  "logsBloom": "0x00000200002000010000010000000000000000000000000000000004000000900000400000000000000000000000000044000000000000000000000000000000000000000000000000004000400000000000000000000000000100840000000000000400000000020001100000040000000000000000000200040000000000000000000000000000000001801000000000000000000000000000000000000400000000000000000040000000000000000000000000000000000000000000000000000000000000000040000000000000000000000000000000000000000000000000000000000000000001400004001000000000000000000000000000000000",
  "difficulty": "0x1",
  "number": "0x1f4",
  "gasLimit": "0x23f3e20",
  "gasUsed": "0xfc61",
  "timestamp": "0x1388",
  "extraData": "0xf9024ca00000000000000000000000000000000000000000000000000000000000000000b8412851e0b13d47e798610757663e4447eddf5fdd57c0dd5982f05e1862396cae8842b0fd09e3f169afe90ff785ab075f57b1e2374d7c71bc5e37a344b96ff2bc510180f86301b860a3377f98434bb90cc87c2e1f6fe9e5f65ed6e87df266d3c31b89cf14ddbfab6464553131c5867723d23b8424fe3155cf0e48f29d98b6b4bc6ee9b472a06e1b6ecb8ed7cc68d17b9e878d220698792160dd6878414b16d88ad95eff000636435df86301b860acb8c440fad9eb0e0725c44d6eeaedca7c8a39333cdccc3c15fe6e38fb623aee7203acc6e03f4af8373bd6907deca3e916cb2d1f164cc2000e34cfce3b93baa3588421df21ac5b4b8286cd8bf420e986ae53b2dd6a6025b8a4507f6ac66ea5b480f86301b8608b50a40c3a0ed091354eb9dc530016e95b16bbc2a440edf62dfaf3c04e193e8f1734ac08a30b19a7c1ccec310f72464d0804926cd75546ab7683195819931815b8f81bc3f5ee4ed0c63891c6fa77db2bbc66884dce9160a90a6f0b6297845eb1f86301b860b93a323c65586e034a1a6e85b5fdf39ed32619146098f1733c7a30f83028357e5644a048da99db0276f985c835e2a1be0ef374bf9ac8f96a6db50eefe2d0d2cf9771321cbaadd4810cf3d8e92676ee98502a828e2e3f968c8a9ddd4ecccf97bff850dad99462a730ca988232a760fe8ad5c21baf4913f73522831e8272c180f1b08ef46b0001a8572330a62109d48ebd3b209b0bc6941f12db5ea91bff28e8a686251ed59d4f7654f5e44e95072b54b50201",
  "mixHash": "0xbf9136b513941cea04fe2f78714b356e433b2be6ea9c779a0894ee24227a3048",
  "nonce": "0x0000000000000000",
  "baseFeePerGas": "0x8",
  "fees": null,
  "rewards": "0x",
  "minerNodeId": "0x",
  "minerNodeSig": "0x",
  "withdrawalsRoot": null,
  "blobGasUsed": null,
  "excessBlobGas": null,
  "parentBeaconBlockRoot": null,
  "hash": "0xd71ca39cf3c3d0c4c0a91e4e7648f6c04e2990a202f8474c4e865e294c5c41f7"
}