{
  "parentHash": "0xd707a3a0fa0b879140c4c13704789cf3e1e09169c5c2f21e03b4c8067a5938f7",
  "sha3Uncles": "0x1dcc4de8dec75d7aab85b567b6ccd41ad312451b948a7413f0a142fd40d49347",
  "miner": "0xd0948a5e46145030851afc21e4bd3063c1dede85",
  "stateRoot": "0x70145151086c97c57e9e6f49b3557144190c9555fdcd255ccb7b447b897ce064",
  "transactionsRoot": "0x29645b32924a5e20d77b9871ec2e848d9761f9de658aaf139e0a3104dd1a1ae2",
  "receiptsRoot": "0x5fef357ed75d21a3ea1849a1f568009d03b1933a967bf053ec200b28d3da99ed",
  "logsBloom": "0x00000200002000010000010000000000000000000000000000000004000000900000400000000000000000000000000044000000000000000000000000000000000000000000000000004000400000000000000000000000000100840000000000000400000000020001100000040000000000000000000200040000000000000000000000000000000001801000000000000000000000000000000000000400000000000000000040000000000000000000000000000000000000000000000000000000000000000040000000000000000000000000000000000000000000000000000000000000000001400004001000000000000000000000000000000000",
  "difficulty": "0x1",
  "number": "0x1f4",
  "gasLimit": "0x23f3e20",
  "gasUsed": "0xfc61",
  "timestamp": "0x1388",
  "extraData": "0xf9024ca00000000000000000000000000000000000000000000000000000000000000000b8410a268a8b9ec6e8485cb2f9b8cb377759de8729f0f700d382ccc0ed324625d7fd58090e1f86de8f5b83c14fce523aad68282651baa040fa8f8b8bb82a06937c2a0180f86301b860b735299a04bdef8216846cc838c8fa9b3ba19594f442896ea894051d348768d975f80053aeda7a9b95db5e5845c90d4d08f8885f93cf2bdf95a0f660ee174b31e7bebc3fc28d1c02f4eeb257e2bfcffac0c70a8fc7847903eba34d607325e608f86301b860b230c19acaea5a7dc30edf612b8ca6ddf17b5c88dd848422f76e1f76f4be711d7550b3216e0e86ce137d4db2aed80e1c131b612c9a2f065e6dc5c17a9007dc3d15a6127033fa9ee532a445392775e02907c758d41dcadab3f4980b8c1c2692eb80f86301b860a96e3767a4c625df01db54dfd111d3993cbdfba04f3efbd425bd21e59a6236b360e1b028801594ee41bef41b8c2a80ee0eb23e762b9522f06967be43de577352b837a8e3dd39fb91399af6035d31cc001ebd0458fa8e2111e56678a6c690a612f86301b8608e67d799897c7b48a0aa65b70e3aaf1023af97c70c21316661ab859ad48a0d47ee74e802a6aa5ca24f51599c0352e81108dbc137ead643c448955cf0683374165ec8ffadcf038fb4b2355c8d786f70d325c201439cbf8971fd61c2d59192d3c6f850dad994d0948a5e46145030851afc21e4bd3063c1dede85831e8272c180f1b08a7f8112a59b84554615813c6785a6a9f260be0b7b164f095ba53d6beb35b5c4e99c6220b47a2c3ebd991b9998ae01e401",
  "mixHash": "0x45edfa8b5716780e0d2bfb8dc74fcc0bd8e2fc9051f5fd7fa82f9f1ebd70dfd6",
  "nonce": "0x0000000000000000",
  "baseFeePerGas": "0x8",
  "fees": null,
  "rewards": "0x",
  "minerNodeId": "0x",
  "minerNodeSig": "0x",
  "withdrawalsRoot": null,
  "blobGasUsed": null,
  "excessBlobGas": null,
  "parentBeaconBlockRoot": null,
  "hash": "0xa9cd2b03a9a6ce2d42b32d59cd4e2dd3d228d38709d223b6b875bda56cafe880"
}