{
  "parentHash": "0x84cc36ad6ac8f19644d731a234cf264b1b75eb9a060c210eb9a895057c8fcf80",
  "sha3Uncles": "0x1dcc4de8dec75d7aab85b567b6ccd41ad312451b948a7413f0a142fd40d49347",
  "miner": "0x9b986f340e82c2f54ab56eec14fb2fabb458e388",
  "stateRoot": "0xdd3314fe2e7ad872a6b290620f661995284433e21de68e264d9107a0aef0e9f8",
  "transactionsRoot": "0x29645b32924a5e20d77b9871ec2e848d9761f9de658aaf139e0a3104dd1a1ae2",
  "receiptsRoot": "0x5fef357ed75d21a3ea1849a1f568009d03b1933a967bf053ec200b28d3da99ed",
  "logsBloom": "0x00000200002000010000010000000000000000000000000000000004000000900000400000000000000000000000000044000000000000000000000000000000000000000000000000004000400000000000000000000000000100840000000000000400000000020001100000040000000000000000000200040000000000000000000000000000000001801000000000000000000000000000000000000400000000000000000040000000000000000000000000000000000000000000000000000000000000000040000000000000000000000000000000000000000000000000000000000000000001400004001000000000000000000000000000000000",
  "difficulty": "0x1",
  "number": "0x1f4",
  "gasLimit": "0x23f3e20",
  "gasUsed": "0xfc61",
  "timestamp": "0x1388",
  "extraData": "0xf9024ca00000000000000000000000000000000000000000000000000000000000000000b841c78ce7b6299822f0c65af752d377ea3db36246d1230e74e7192ac579f66400b9423cc1c24be7fcdd424533212c7297b8089e60a5707876c937970ccf9dae1df30080f86301b860837fc9a29ce9bcc25a586e126e37ebc2e26d90630ea3f1f2350fe864f3efa0fac140b784cd9fc4e84ce76fd85da8ad42007d1c6606efa55d52379716c9598c61792374143accc3e2072f0ba4e42a601561f71bdf7e9c6cddfe43e01f13ba13bdf86301b860b299fecc0c881eb2ef24306b50d06b08e75821544cb006d7aaa03e91074632778fd2eb192d00816d87988a5f634ce43f08d27de7e243373f89a0734e1fdefbc3ce083176adb2ea24e9a73022fb97b4a75b0ee993b8d33fa9986493c9c892832e80f86301b860b58787c9b77c959d0cdf1843df9e880833b29dfba725ccceb0a6e9a25145d8018c0ee8199b1708dd7b81a8b8dc1da071082a0ea62801a92d2a05e863a64fa16687d3c816bf4d145fcc2377c12000f42b8e2349bd48196b17b45a799439f012f0f86301b860b33005048c67dbaffd3d7adf1fbd8235a5b540a7820a4f7f0d3f488a02956b7bf4f582520982542ad0c4391072f8db3e0558785b0136a5f86628b90c859597d20daea25256454867ba22994a31235bb766aae4ba91969bcd960c091fb051b802f850dad9949b986f340e82c2f54ab56eec14fb2fabb458e388831e8272c180f1b0ad21b81e0795e89631bf3d457f8bbb7b870a6b7a5572d4437f06ae0fb365da092b3ca762aa6aaea5be95507cb993a46101",
  "mixHash": "0x57a550e155f8644694f0785eeaf3d41420ee87dab4f800cf7f25302c25efc158",
  "nonce": "0x0000000000000000",
  "baseFeePerGas": "0x8",
  "fees": null,
  "rewards": "0x",
  "minerNodeId": "0x",
  "minerNodeSig": "0x",
  "withdrawalsRoot": null,
  "blobGasUsed": null,
  "excessBlobGas": null,
  "parentBeaconBlockRoot": null,
  "hash": "0x622f50ecbf6aee44bb1b4c8409b22a8dbc57a9f7a4070cc9d61f5a9886b3fe80"
}