{
  "parentHash": "0x394be830d8ee75a65d66c8a969419c25a4c0fdf23647a6663d9af047918a37fb",
  "sha3Uncles": "0x1dcc4de8dec75d7aab85b567b6ccd41ad312451b948a7413f0a142fd40d49347",
  "miner": "0xe37be4637379bbf70351a8d03d5ac6ae69010df0",
  "stateRoot": "0x1124fe496bbd5e47929c8a5572af47393817139528e6241c8d02c04f20a07907",
  "transactionsRoot": "0x3872575d14095b63f1ccf5e55b1548ffb68e1175d70cc7d39e8bfb24edbfda92",
  "receiptsRoot": "0xbcd901d19c5542ac054f18c23ece7bb55cf826ed15b416cc469de4b5d976583c",
  "logsBloom": "0x00000200002000010000010000000000000000000000000000000004000000900000400000000000000000000000000044000000000000000010000000000000000000000000000000004008400100002000000000000000000100840000000002000420000000020001100000040000000000000000000200040010000000000000000000000000000001801000000000000400000000000000000000000400000000000000000040000000000000000000000000000000000000000000100000008002000000000040000000000000000000000000000000000000000000000000000000000000000001400004001200000000000000000000000000000000",
  "difficulty": "0x1",
  "number": "0x1f4",
  "gasLimit": "0x23f3e20",
  "gasUsed": "0xfc61",
  "timestamp": "0x1388",
  "extraData": "0xf90252a00000000000000000000000000000000000000000000000000000000000000000b8411faf5a963b404a4e7f7dd879c986bcb54a29a2eaa792b6438b4253f34781b1053e97a5ec533a1d32ab6fa8949f3ea2c3629dc5d6a5c8c9ead309ce08263ac8060180f86301b860a648d9956109940d430b0d6169b9e6cebbf742e36be4dc8af4eb4b8b2e78c5472bb4816f34df65d7033b27225ca0752815d25bda0405003c2ab4e9eaf9d16cf959b701cd890114510e09467f15c26f68147cb26e1f59247e1b7592d452c8a796f86301b8608ec74ac9253f79e7da4b67fbbfb1510919bf5b230418841d7772c86ce97e77f0774338c1f6a307f9a1a48364602132b40a38853118c0c6b924c64b3ef660a2de61f65b345a61bca0dbc13cdf7a3be09ecc22f3fcfff058301ef169e32246e12a80f86301b860a680570da7a777581531bce0c3994dadea8b1699366780c52bf4fe49bfcef0663ce1829a82b4e9cd74cf21c32cf82daa18ee5d8a796ab1c9236ef08e0aece137123720f0a5a8f115719d3ad9b401426be4461d67f083ce5324592be152f09c93f86301b860b28acc5bcfdcf549aabeed8f7171137f12c19e135b9e5b5a5d542e37a9692600ff5a56d89c7a4a025bc9a181284fe5c40ca07f423fbb8de14b174c234ca056b8615c4f7f192ab1a806437b488caec45da567b2cd46aa5904cc738bcb4f7b9b8086048c27395000f84fdad994e37be4637379bbf70351a8d03d5ac6ae69010df0831e8272c180f1b080111757d3aa4db1fb63b546c190d66be578f7f1040d1f2234bc47b455eda50619c2b96b6ffec52db5a67ea000e783a5",
  "mixHash": "0x3b3555315091ba35717b01ac8065cd5abef17639109ff748ca2e2595ac942b9d",
  "nonce": "0x0000000000000000",
  "baseFeePerGas": "0x48c27395000",
  "withdrawalsRoot": null,
  "blobGasUsed": null,
  "excessBlobGas": null,
  "parentBeaconBlockRoot": null,
  "hash": "0x8a171f4bf6a4948d87c0487664982fa0cae00451778895785c5954200827b984"
}