{
  "parentHash": "0x3709eaaee0172e7b32c980df12d1d3d7d2db6734a02cb7722c5fb49de6bce127",
  "sha3Uncles": "0x1dcc4de8dec75d7aab85b567b6ccd41ad312451b948a7413f0a142fd40d49347",
  "miner": "0xea9a4c72166bf3048fddf40bf804a72dceeacf54",
  "stateRoot": "0x7348fb380e55fa06a3f9dd2604df4ac00dbe54fc2dabd01e3436d3d539e30cb5",
  "transactionsRoot": "0x29645b32924a5e20d77b9871ec2e848d9761f9de658aaf139e0a3104dd1a1ae2",
  "receiptsRoot": "0x5fef357ed75d21a3ea1849a1f568009d03b1933a967bf053ec200b28d3da99ed",
  "logsBloom": "0x00000200002000010000010000000000000000000000000000000004000000900000400000000000000000000000000044000000000000000000000000000000000000000000000000004000400000000000000000000000000100840000000000000400000000020001100000040000000000000000000200040000000000000000000000000000000001801000000000000000000000000000000000000400000000000000000040000000000000000000000000000000000000000000000000000000000000000040000000000000000000000000000000000000000000000000000000000000000001400004001000000000000000000000000000000000",
  "difficulty": "0x1",
  "number": "0x1f4",
  "gasLimit": "0x23f3e20",
  "gasUsed": "0xfc61",
  "timestamp": "0x1388",
  "extraData": "0xf90209a0000000000000000000000000000000000000000000000000000000000000000080f86301b860877ff9dbc22f3917d07dc79364e52b8b8b56af1d6ed9296a5b436d12cb9499ab4b673c4a467f9c56d690efa9f993801b08c50f38db4dd050b9b9144f0624defcd54a35e3da2dcd7fad79995c2056f0c51479cd7477a713a197080da5af1b38e6f86301b860add9d39c144a0a334493a3eb11f00c3ff3628d52090a86757bd411d11cff8291ca69dbf7160caca9734b3fc550da1ccc0db448ff012dab66f384348d442ff6d3a0b19e8838c4ee4177f9e6cb4841834aa0a2ee745d1735e59b5c679b7c4e4f7080f86301b860ad9bc2923d7ab41571154102377bad030e3312e278fe9b70faea6da0e08872e0810447e544041c10c571d41f6089eddf13b56e4dc8a211cd34afb0d2092c0cbbe58cb25292e64b0abb9c2dead0bfc34b48fe3e79ec43890adf53e507d54bbc5ff86301b86095b272fd13ddd039bd1f9e398246c5dedbcfa808920d51ebed6f453a5ff232dc359c780fde64ec0eb7b6592acdffb57704dc1c2becf683400ab134b6d9a4bfa32f918aa2503261743bd9424bf5e7dededa4366ecb5b859287675832098053cc2f850dad994ea9a4c72166bf3048fddf40bf804a72dceeacf54831e8272c180f1b0ae4f62c019cdfecc11dd595d3a8f3e13eb59b3490dabfe533a67631084e5f3e57a313803353680fa30d87a8ce27282da01",
  "mixHash": "0x0000000000000000000000000000000000000000000000000000000000000000",
  "nonce": "0x0000000000000000",
  "baseFeePerGas": "0x8",
  "fees": null,
  "rewards": "0x",
  "minerNodeId": "0x",
  "minerNodeSig": "0x",
  "withdrawalsRoot": null,
  "blobGasUsed": null,
  "excessBlobGas": null,
  "parentBeaconBlockRoot": null,
  "hash": "0x04632cb29f62cd897e723bce39d29a786d4d35183a6598ce182dadbf569cee4d"
}