{
  "parentHash": "0x5e542ef4c193242bcbc63af5e0e55eed79e109cc3c81d346df900a69e1ece635",
  "sha3Uncles": "0x1dcc4de8dec75d7aab85b567b6ccd41ad312451b948a7413f0a142fd40d49347",
  "miner": "0x7166b8ed009b00ab44eb4d0efdc96c415cc38605",
  "stateRoot": "0x5043571e9b47b3458f98bd04d6bab28537fe3646ded617c636c9df34ba9e4ee1",
  "transactionsRoot": "0x29645b32924a5e20d77b9871ec2e848d9761f9de658aaf139e0a3104dd1a1ae2",
  "receiptsRoot": "0x5fef357ed75d21a3ea1849a1f568009d03b1933a967bf053ec200b28d3da99ed",
  "logsBloom": "0x00000200002000010000010000000000000000000000000000000004000000900000400000000000000000000000000044000000000000000000000000000000000000000000000000004000400000000000000000000000000100840000000000000400000000020001100000040000000000000000000200040000000000000000000000000000000001801000000000000000000000000000000000000400000000000000000040000000000000000000000000000000000000000000000000000000000000000040000000000000000000000000000000000000000000000000000000000000000001400004001000000000000000000000000000000000",
  "difficulty": "0x1",
  "number": "0x1f4",
  "gasLimit": "0x23f3e20",
  "gasUsed": "0xfc61",
  "timestamp": "0x1388",
  "extraData": "0xf9024ba00000000000000000000000000000000000000000000000000000000000000000b84125d450b2491691fc9423212f3846c104f74d598b6a18673d3b705f14f43a1b5352a4748f0adaf4400bcc777c6db516bc35cc140aed9310daacafb224937b41390180f86301b86087492ce0f06de638aeacf518656a1a617942c8a4b08adc07c7c4c4ab9e55a3c0c90fc69aee07a73339e4db39398b2f28149998e146ee697fbf51d5d3e13e3bd6e4c8a0e684a68335d7ead322f8f554103f1777233b8a237adc771e0513cdda03f86301b860865ec4d3eb0403652403505ed6821f7a36e6564e3ea19188628cfeda4d8f46786369c54cea381e5fb6d9f5fda74368c40462b3a7ec92ff0bab550391d4b1ead45e6c9eed1be1c3bab983b75c7da2cd43f55d816fd0d6bf0696cd53356012589280f86301b860a50b5c0ce3faebcab5b85b9d6088d922ff0d4e1b3ed345df501cde6aefadc62bdb69df03e40696f88e0a381597bba65603206f867b21ef5cf52455723ebcaed832368e18035b41e961037e231c9059a8c8158e40474f5fa61c738862c7fc9081f86301b860a8c78208df48d8291bc3ffdd22396d7c6e1d2853d8e19148b48aede92fb0b2e9e39694262969e8814b9b273a8b01b5750581aa27bee8afb004a095a5027d2821299f86a785c0dc01298393b8cfe006589242893d1c2b3f31cba29a50a39a5dc0f84fdad9947166b8ed009b00ab44eb4d0efdc96c415cc38605831e8272c180f1b088791a6def06c9cbe9e8928f4b0e0108e372c50b12ea473277f7ae6efdc093ef7fc785acc5e3b7a869d922e42be8d042",
  "mixHash": "0xa48d9275fdb7e4643fe96ae5dc0ddf558a7ce805829251eec4937075273b7709",
  "nonce": "0x0000000000000000",
  "baseFeePerGas": "0x8",
  "withdrawalsRoot": null,
  "blobGasUsed": null,
  "excessBlobGas": null,
  "parentBeaconBlockRoot": null,
  "hash": "0xf4c76515fa30082950035e851821bae37ab33defed0d19d71fc3125f15be59b9"
}