{
  "parentHash": "0x1f91ad0cbe75fe683aefb310fdd8493182fc3c5e965c8adb5b49c6fe6eb2f2e4",
  "sha3Uncles": "0x1dcc4de8dec75d7aab85b567b6ccd41ad312451b948a7413f0a142fd40d49347",
  "miner": "0x74b2f9a89c2d9da6d8661c514204e2e267290efd",
  "stateRoot": "0x5e8588c064e1df96c6e3d53d8e09ad120e95ce484f8ff6a60d40d76138a15a3b",
  "transactionsRoot": "0x29645b32924a5e20d77b9871ec2e848d9761f9de658aaf139e0a3104dd1a1ae2",
  "receiptsRoot": "0x5fef357ed75d21a3ea1849a1f568009d03b1933a967bf053ec200b28d3da99ed",
  "logsBloom": "0x00000200002000010000010000000000000000000000000000000004000000900000400000000000000000000000000044000000000000000000000000000000000000000000000000004000400000000000000000000000000100840000000000000400000000020001100000040000000000000000000200040000000000000000000000000000000001801000000000000000000000000000000000000400000000000000000040000000000000000000000000000000000000000000000000000000000000000040000000000000000000000000000000000000000000000000000000000000000001400004001000000000000000000000000000000000",
  "difficulty": "0x1",
  "number": "0x1f4",
  "gasLimit": "0x23f3e20",
  "gasUsed": "0xfc61",
  "timestamp": "0x1388",
  "extraData": "0xf90209a0000000000000000000000000000000000000000000000000000000000000000080f86301b8608d6a034540d0586fb8f5c5aa91f57637ef89260ef648a12183dbaf9a8845cc0dec0a9d9fe4240fb838357a64c67e4c4e19551b6a70bcf157370e47b14a2ac7e89b8e5d05e823a17b8628fbc7f51778eb1251b89d3348f766fc3da5c628dcba02f86301b860b593b83b6382b49168af6b33b746b05298e24bde1a2ef2484f3bf6856c27f48732a75a6cd9221553bcbdf14417304fa20649d215ab523e3e8765fdba6b2842377f68b98a187093fc80768999e5c4ff4c141f0e578c9260277fa22d2dd8cff2f180f86301b860a162a9e876689429a67fcb7856a626edea1040ac16b97393892ff3ad26685a62bb1c09ab435da6c01297ce803d32dccd0e0d1338e3c0c33586cb3634d1b1475837bd47b3e5eef791a54a88f424682405c5446aed092ba643671ecccce0dba811f86301b860a1c2c5e2d52a0dcb9ae31a47e1e4ce83d95b72f309f7b2ab5c2fe43ecc180d74e4467c571b4fe636a6d36231ccc9d24e06d5c94c3f141a6474cfb9531ea5d2c591c22e05320a30ace32db15d99160cc871d4b193a1e7780938253176413573b5f850dad99474b2f9a89c2d9da6d8661c514204e2e267290efd831e8272c180f1b0991c4ae79b8102c8c37dab61c18e0d4e627005392165d1ea244d3fca3d6cbce43bae0ae0704311bbcda83fbd41a3d5ce01",
  "mixHash": "0x0000000000000000000000000000000000000000000000000000000000000000",
  "nonce": "0x0000000000000000",
  "baseFeePerGas": "0x8",
  "fees": null,
  "rewards": "0x",
  "minerNodeId": "0x",
  "minerNodeSig": "0x",
  "withdrawalsRoot": null,
  "blobGasUsed": null,
  "excessBlobGas": null,
  "parentBeaconBlockRoot": null,
  "hash": "0x4d358c3a0a4bc1d3aa6027436fa58d18abce3e0e639c7cad93d94cbff7918709"
}