{
  "parentHash": "0xf56a56dcc62c8e75ba1e5e854abf23f90c7694fd22a8641fee86d9167939b068",
  "sha3Uncles": "0x1dcc4de8dec75d7aab85b567b6ccd41ad312451b948a7413f0a142fd40d49347",
  "miner": "0xa4e17c0b687dd3ce6ad26464e921262e792c0434",
  "stateRoot": "0xbcde8cf2606833cb79739817b78fb0d1a3811a2019d920281a9acb096ffb628e",
  "transactionsRoot": "0x3872575d14095b63f1ccf5e55b1548ffb68e1175d70cc7d39e8bfb24edbfda92",
  "receiptsRoot": "0xb36a12caf10822713a3de9f8ff184a2f4a0e95b523f32d87dc990fe90fe04c9a",
  "logsBloom": "0x00000200002000010000010000000000000000000000000000000004000000900000400000000000000000000000000044000080000000000000000000000000000000000000000000004008400100002000000000000000000940840000000000000420000000020001100000040000000000000000000200040010000000000000000000000000000001801000000000000400000000000000000000000400000000000000000040000000000000000000000000000000000000000000000000008002000000000040000000000000000000000000000000000000000000000000000000000000000001400004001200000000000000000000000000000000",
  "difficulty": "0x1",
  "number": "0x1f4",
  "gasLimit": "0x23f3e20",
  "gasUsed": "0xfc61",
  "timestamp": "0x1388",
  "extraData": "0xf90252a00000000000000000000000000000000000000000000000000000000000000000b84112e0753bc83a1c7173b599c099cab72ac424fe3423472e1a697135f744e924f07a78abba4ea1e561621baadb2191868045e3d82cc8408be0afa323357517cd110080f86301b8608b669bd1e790dd5999566f810e1d8bc3783af1d6cb2c67bfc48a62c27305da96be1d78ab699ebf7dd27ee382fbdbfbe0011552f5fee5ab9f18d3e2e69695dacede6842d01dea6a442e0dd887dc8adcabf9100abff17df44e3a093fb60ac455e8f86301b860ac469298cb904c73a67f8d5039d19393257e83bb231b9ced4feda0b2912f650553e864d6c795fcc37882e1b344187d9718ed426ae8e984d958bdfe6ad19cd263f1ae69a3efcf870f605e3decf2c9865653517e691cabeeaa4e7b36d4b6bd961280f86301b8608f8a1771c14e1a43cd88649f88e3602139db6d1bd732ea82941ae8bc74f17a0c98299aa41cfc0dd24112ad35297a8f5707ff33b2cfb96e4147531b70fe8c98cb29c27e787255b3a73b01eea6e9fa9b20fa51cffe35ea73ed9c76111634753430f86301b860890d8dd1a398e6371567b3f2429fdf742d4680da0ca2df92ad8e7400a5d90f77884f0a2cf235fd13f7f72a69faa338f3186ee5a64ba0f6b1ee834cd510217aafbd8d32cc72484b7f39563454ec26f7e176f3675a95864f9ba31010a049b09e1886048c27395000f84fdad994a4e17c0b687dd3ce6ad26464e921262e792c0434831e8272c180f1b08e6f30f9e0cdf023aaab6b3c5865d63567364c1454b5b77e57d58c38cd0d3e950282e6b02425f3e572e39e0d73942f06",
  "mixHash": "0xdbe60ea7e16de7a5740c2c1f6cb54cf90b64ca2913484287a60d8191158b465d",
  "nonce": "0x0000000000000000",
  "baseFeePerGas": "0x48c27395000",
  "withdrawalsRoot": null,
  "blobGasUsed": null,
  "excessBlobGas": null,
  "parentBeaconBlockRoot": null,
  "hash": "0xdcc2a1b3ee40b49790afb8875a22eae5dd7df4f6e943229e79b9d055da92e2fb"
}