{
  "parentHash": "0x8de70bb0b3da0c7217f6b5ff155f7ec1a3091583a9b0f66f877749638254ba1b",
  "sha3Uncles": "0x1dcc4de8dec75d7aab85b567b6ccd41ad312451b948a7413f0a142fd40d49347",
  "miner": "0x2ecc348c6518d473c9d0ffafbf2003e8ce3ba936",
  "stateRoot": "0x9fcc105c2b2b90d014391592ef0c2428483eb9703bea0b96d786641341f4d2c2",
  "transactionsRoot": "0x26f47dfbf4ce4ac70395918b8edda9cdc0628150fb752709aaede08bfebd1d0a",
  "receiptsRoot": "0x5fef357ed75d21a3ea1849a1f568009d03b1933a967bf053ec200b28d3da99ed",
  "logsBloom": "0x00000200002000010000010000000000000000000000000000000004000000900000400000000000000000000000000044000000000000000000000000000000000000000000000000004000400000000000000000000000000100840000000000000400000000020001100000040000000000000000000200040000000000000000000000000000000001801000000000000000000000000000000000000400000000000000000040000000000000000000000000000000000000000000000000000000000000000040000000000000000000000000000000000000000000000000000000000000000001400004001000000000000000000000000000000000",
  "difficulty": "0x1",
  "number": "0x1f4",
  "gasLimit": "0x23f3e20",
  "gasUsed": "0xfc61",
  "timestamp": "0x1388",
  "extraData": "0xf90252a00000000000000000000000000000000000000000000000000000000000000000b841532b331049f1074e3decdff7697afbf29e3cadf2b8191c6d916517370df14c484da961ebcae0cf8c761e4fda9ec884199bfacdf66bd79529717c7a0d88d7eca00080f86301b860a98fb903249061c97bbda0d07d31b7794d88f9e7895a9f753998c602e51cedd488c2030165c7d38614f2f0cad74fe16d0b47a1920a8f1a31a13a187d6025827178e2ff152b5322bf5f4028ca3585664be760b225b7d8ce1156042a86bccd6a5af86301b860893ff9ac95f4fe3aba365bc3b3c9091a76033672496a0084b3868848982c42913481465ec66807ce1408e027e1d1540011bd9285d52aef921decc1328e53c796f557f82ac7bbfb07d9b7d903b139da7988ea248d601681935d4a075351adc0ed80f86301b86083800539d959cc8ce5383d2762c0a975b2b4a18a6c41cec11310092c76512fdd4bac78e25b2b111bf85eb45cc31e7023138c62cbd1ccbb69fc6b2eed7410f86bcb0c447eddc8bd9f488b8ae0546cfba84dc50dcdfe4e8f188c17df1086ecf591f86301b860a2605db80e24ccb712b644ef0dc2e0c5659754e23a7ea596f517f160f6d6655f2c627f772b302530761f1e2f680587ba172127ba1d84fe2b2ac34a184caa9bcb76b9478c0587793b8dc9ca708f01b6d593b89bf24b5a3175308ae43285dc0b5086191a20322000f84fdad9942ecc348c6518d473c9d0ffafbf2003e8ce3ba936831e8272c180f1b0b7fa6f163fd125bc10b3239ed8772790961f44fee54d82950fddb4afbbff24ff842b88f824f8d3da8ae320fc4dac7d74",
  "mixHash": "0xa05c14ea607c201cc23df5c581fe751cda2aaaa6660d1e28551fca2d2815fd96",
  "nonce": "0x0000000000000000",
  "baseFeePerGas": "0x12309ce54000",
  "withdrawalsRoot": null,
  "blobGasUsed": null,
  "excessBlobGas": null,
  "parentBeaconBlockRoot": null,
  "hash": "0xf1bfa2a83dd15bbc30d839ce7d397619cb8d5e05f92110d3785a0799befb5f0b"
}